{
  "_format": "hh-sol-artifact-1",
  "contractName": "EchoVaultV2",
  "sourceName": "contracts/EchoVaultV2.sol",
  "abi": [
    {
      "inputs": [],
      "stateMutability": "nonpayable",
      "type": "constructor"
    },
    {
      "anonymous": false,
      "inputs": [
        {
          "indexed": true,
          "internalType": "uint256",
          "name": "capsuleId",
          "type": "uint256"
        }
      ],
      "name": "CapsuleCancelled",
      "type": "event"
    },
    {
      "anonymous": false,
      "inputs": [
        {
          "indexed": true,
          "internalType": "uint256",
          "name": "capsuleId",
          "type": "uint256"
        },
        {
          "indexed": true,
          "internalType": "address",
          "name": "creator",
          "type": "address"
        },
        {
          "indexed": false,
          "internalType": "enum EchoVaultV2.CapsuleType",
          "name": "capsuleType",
          "type": "uint8"
        },
        {
          "indexed": false,
          "internalType": "enum EchoVaultV2.TriggerType",
          "name": "triggerType",
          "type": "uint8"
        },
        {
          "indexed": false,
          "internalType": "uint256",
          "name": "unlockTime",
          "type": "uint256"
        },
        {
          "indexed": false,
          "internalType": "uint256",
          "name": "heartbeatInterval",
          "type": "uint256"
        }
      ],
      "name": "CapsuleCreated",
      "type": "event"
    },
    {
      "anonymous": false,
      "inputs": [
        {
          "indexed": true,
          "internalType": "uint256",
          "name": "capsuleId",
          "type": "uint256"
        },
        {
          "indexed": true,
          "internalType": "address",
          "name": "unlocker",
          "type": "address"
        },
        {
          "indexed": false,
          "internalType": "bool",
          "name": "isEmergency",
          "type": "bool"
        }
      ],
      "name": "CapsuleUnlocked",
      "type": "event"
    },
    {
      "anonymous": false,
      "inputs": [
        {
          "indexed": true,
          "internalType": "uint256",
          "name": "capsuleId",
          "type": "uint256"
        },
        {
          "indexed": true,
          "internalType": "address",
          "name": "creator",
          "type": "address"
        }
      ],
      "name": "EmergencyUnlock",
      "type": "event"
    },
    {
      "anonymous": false,
      "inputs": [
        {
          "indexed": true,
          "internalType": "uint256",
          "name": "capsuleId",
          "type": "uint256"
        },
        {
          "indexed": true,
          "internalType": "address",
          "name": "checker",
          "type": "address"
        },
        {
          "indexed": false,
          "internalType": "uint256",
          "name": "timestamp",
          "type": "uint256"
        }
      ],
      "name": "HeartbeatCheckedIn",
      "type": "event"
    },
    {
      "inputs": [],
      "name": "MAX_FREE_CAPSULES",
      "outputs": [
        {
          "internalType": "uint256",
          "name": "",
          "type": "uint256"
        }
      ],
      "stateMutability": "view",
      "type": "function"
    },
    {
      "inputs": [],
      "name": "MAX_PREMIUM_CAPSULES",
      "outputs": [
        {
          "internalType": "uint256",
          "name": "",
          "type": "uint256"
        }
      ],
      "stateMutability": "view",
      "type": "function"
    },
    {
      "inputs": [],
      "name": "MAX_PRO_CAPSULES",
      "outputs": [
        {
          "internalType": "uint256",
          "name": "",
          "type": "uint256"
        }
      ],
      "stateMutability": "view",
      "type": "function"
    },
    {
      "inputs": [
        {
          "internalType": "uint256",
          "name": "_capsuleId",
          "type": "uint256"
        }
      ],
      "name": "cancelCapsule",
      "outputs": [],
      "stateMutability": "nonpayable",
      "type": "function"
    },
    {
      "inputs": [
        {
          "internalType": "uint256",
          "name": "",
          "type": "uint256"
        }
      ],
      "name": "capsuleMetadata",
      "outputs": [
        {
          "internalType": "string",
          "name": "",
          "type": "string"
        }
      ],
      "stateMutability": "view",
      "type": "function"
    },
    {
      "inputs": [
        {
          "internalType": "uint256",
          "name": "",
          "type": "uint256"
        },
        {
          "internalType": "uint256",
          "name": "",
          "type": "uint256"
        }
      ],
      "name": "capsuleStages",
      "outputs": [
        {
          "internalType": "string",
          "name": "ipfsHash",
          "type": "string"
        },
        {
          "internalType": "string",
          "name": "encryptedKeys",
          "type": "string"
        }
      ],
      "stateMutability": "view",
      "type": "function"
    },
    {
      "inputs": [
        {
          "internalType": "uint256",
          "name": "",
          "type": "uint256"
        }
      ],
      "name": "capsules",
      "outputs": [
        {
          "internalType": "uint256",
          "name": "id",
          "type": "uint256"
        },
        {
          "internalType": "address",
          "name": "creator",
          "type": "address"
        },
        {
          "internalType": "enum EchoVaultV2.CapsuleType",
          "name": "capsuleType",
          "type": "uint8"
        },
        {
          "internalType": "enum EchoVaultV2.TriggerType",
          "name": "triggerType",
          "type": "uint8"
        },
        {
          "internalType": "uint256",
          "name": "unlockTime",
          "type": "uint256"
        },
        {
          "internalType": "uint256",
          "name": "createdAt",
          "type": "uint256"
        },
        {
          "internalType": "bool",
          "name": "isUnlocked",
          "type": "bool"
        },
        {
          "internalType": "bool",
          "name": "isCancelled",
          "type": "bool"
        },
        {
          "internalType": "bool",
          "name": "isEmergencyUnlocked",
          "type": "bool"
        },
        {
          "internalType": "uint256",
          "name": "heartbeatInterval",
          "type": "uint256"
        },
        {
          "internalType": "uint256",
          "name": "lastCheckIn",
          "type": "uint256"
        }
      ],
      "stateMutability": "view",
      "type": "function"
    },
    {
      "inputs": [
        {
          "internalType": "uint256",
          "name": "_capsuleId",
          "type": "uint256"
        }
      ],
      "name": "checkIn",
      "outputs": [],
      "stateMutability": "nonpayable",
      "type": "function"
    },
    {
      "inputs": [
        {
          "internalType": "enum EchoVaultV2.CapsuleType",
          "name": "_capsuleType",
          "type": "uint8"
        },
        {
          "internalType": "enum EchoVaultV2.TriggerType",
          "name": "_triggerType",
          "type": "uint8"
        },
        {
          "internalType": "uint256",
          "name": "_unlockTime",
          "type": "uint256"
        },
        {
          "internalType": "string",
          "name": "_encryptedKeys",
          "type": "string"
        },
        {
          "internalType": "string",
          "name": "_ipfsHash",
          "type": "string"
        },
        {
          "internalType": "address[]",
          "name": "_recipients",
          "type": "address[]"
        },
        {
          "internalType": "string",
          "name": "_metadata",
          "type": "string"
        },
        {
          "internalType": "uint256",
          "name": "_heartbeatInterval",
          "type": "uint256"
        }
      ],
      "name": "createCapsule",
      "outputs": [
        {
          "internalType": "uint256",
          "name": "",
          "type": "uint256"
        }
      ],
      "stateMutability": "payable",
      "type": "function"
    },
    {
      "inputs": [
        {
          "internalType": "enum EchoVaultV2.CapsuleType",
          "name": "",
          "type": "uint8"
        }
      ],
      "name": "creationFees",
      "outputs": [
        {
          "internalType": "uint256",
          "name": "",
          "type": "uint256"
        }
      ],
      "stateMutability": "view",
      "type": "function"
    },
    {
      "inputs": [
        {
          "internalType": "uint256",
          "name": "_capsuleId",
          "type": "uint256"
        }
      ],
      "name": "emergencyUnlock",
      "outputs": [],
      "stateMutability": "nonpayable",
      "type": "function"
    },
    {
      "inputs": [
        {
          "internalType": "uint256",
          "name": "_capsuleId",
          "type": "uint256"
        }
      ],
      "name": "getCapsule",
      "outputs": [
        {
          "internalType": "uint256",
          "name": "",
          "type": "uint256"
        },
        {
          "internalType": "address",
          "name": "",
          "type": "address"
        },
        {
          "internalType": "enum EchoVaultV2.CapsuleType",
          "name": "",
          "type": "uint8"
        },
        {
          "internalType": "enum EchoVaultV2.TriggerType",
          "name": "",
          "type": "uint8"
        },
        {
          "internalType": "uint256",
          "name": "",
          "type": "uint256"
        },
        {
          "internalType": "uint256",
          "name": "",
          "type": "uint256"
        },
        {
          "internalType": "address[]",
          "name": "",
          "type": "address[]"
        },
        {
          "internalType": "bool",
          "name": "",
          "type": "bool"
        },
        {
          "internalType": "bool",
          "name": "",
          "type": "bool"
        },
        {
          "internalType": "bool",
          "name": "",
          "type": "bool"
        },
        {
          "internalType": "uint256",
          "name": "",
          "type": "uint256"
        },
        {
          "internalType": "uint256",
          "name": "",
          "type": "uint256"
        }
      ],
      "stateMutability": "view",
      "type": "function"
    },
    {
      "inputs": [
        {
          "internalType": "uint256",
          "name": "_capsuleId",
          "type": "uint256"
        }
      ],
      "name": "getUnlockedStages",
      "outputs": [
        {
          "components": [
            {
              "internalType": "string",
              "name": "ipfsHash",
              "type": "string"
            },
            {
              "internalType": "string",
              "name": "encryptedKeys",
              "type": "string"
            }
          ],
          "internalType": "struct EchoVaultV2.UnlockStage[]",
          "name": "",
          "type": "tuple[]"
        }
      ],
      "stateMutability": "view",
      "type": "function"
    },
    {
      "inputs": [
        {
          "internalType": "address",
          "name": "_user",
          "type": "address"
        }
      ],
      "name": "getUserCapsules",
      "outputs": [
        {
          "internalType": "uint256[]",
          "name": "",
          "type": "uint256[]"
        }
      ],
      "stateMutability": "view",
      "type": "function"
    },
    {
      "inputs": [
        {
          "internalType": "uint256",
          "name": "_capsuleId",
          "type": "uint256"
        }
      ],
      "name": "isUnlocked",
      "outputs": [
        {
          "internalType": "bool",
          "name": "",
          "type": "bool"
        }
      ],
      "stateMutability": "view",
      "type": "function"
    },
    {
      "inputs": [],
      "name": "owner",
      "outputs": [
        {
          "internalType": "address",
          "name": "",
          "type": "address"
        }
      ],
      "stateMutability": "view",
      "type": "function"
    },
    {
      "inputs": [],
      "name": "totalCapsules",
      "outputs": [
        {
          "internalType": "uint256",
          "name": "",
          "type": "uint256"
        }
      ],
      "stateMutability": "view",
      "type": "function"
    },
    {
      "inputs": [
        {
          "internalType": "enum EchoVaultV2.CapsuleType",
          "name": "_type",
          "type": "uint8"
        },
        {
          "internalType": "uint256",
          "name": "_fee",
          "type": "uint256"
        }
      ],
      "name": "updatePricing",
      "outputs": [],
      "stateMutability": "nonpayable",
      "type": "function"
    },
    {
      "inputs": [
        {
          "internalType": "address",
          "name": "_user",
          "type": "address"
        },
        {
          "internalType": "enum EchoVaultV2.SubscriptionTier",
          "name": "_tier",
          "type": "uint8"
        }
      ],
      "name": "updateUserTier",
      "outputs": [],
      "stateMutability": "nonpayable",
      "type": "function"
    },
    {
      "inputs": [
        {
          "internalType": "address",
          "name": "",
          "type": "address"
        },
        {
          "internalType": "uint256",
          "name": "",
          "type": "uint256"
        }
      ],
      "name": "userCapsules",
      "outputs": [
        {
          "internalType": "uint256",
          "name": "",
          "type": "uint256"
        }
      ],
      "stateMutability": "view",
      "type": "function"
    },
    {
      "inputs": [
        {
          "internalType": "address",
          "name": "",
          "type": "address"
        }
      ],
      "name": "userTiers",
      "outputs": [
        {
          "internalType": "enum EchoVaultV2.SubscriptionTier",
          "name": "",
          "type": "uint8"
        }
      ],
      "stateMutability": "view",
      "type": "function"
    },
    {
      "inputs": [],
      "name": "withdraw",
      "outputs": [],
      "stateMutability": "nonpayable",
      "type": "function"
    },
    {
      "stateMutability": "payable",
      "type": "receive"
    }
  ],
  "bytecode": "0x608080604052346100de57600780546001600160a01b03191633179055600660205267016345785d8a00007f54cdd369e4e8a8515e52ca72ec816c2101831ad1f18bf44102ed171459c9b4f8556702c68af0bb1400007f3e5fec24aa4dc4e5aee2e025e51e1392c72a2500577559fae9665c6d52bd6a31556706f05b59d3b200007f8819ef417987f8ae7a81f42cdfb18815282fe989326fbff903d13cf0e03ace29556003600052670214e8348c4f00007f75f96ab15d697e93042dc45b5c896c4b27e89bb6eaf39475c5c371cb2513f7d255611c1590816100e48239f35b600080fdfe6080604052600436101561001b575b361561001957600080fd5b005b60003560e01c80630bb8cd4d1461163d5780630db08dbb14610c775780630e09160e14610c5b578063224646dc14610c3f57806324063c8214610bf9578063366636f714610b455780633aac3858146109285780633ccfd60b146108d557806344762d7614610895578063517bbf46146107d857806356e4f84c1461067057806372abc8b7146106485780637389c630146106075780638da5cb5b146105de5780639a6cff1c1461057e578063a0d79fb514610525578063b079331314610426578063b49ce17f14610408578063c446bac1146102fa578063cf1dba6614610281578063d674e192146102655763e95a644f0361000e57346102605760208060031936011261026057600435806000526000825261014a60018060a01b03600160406000200154163314611b5e565b8060005260008252604060002060ff600582015461016d828260081c1615611b9c565b1661021b5760ff600182015460a81c166002811015610205576001036101c0576007429101557f4a01bfc7a5991d2cb940c64b2fb1dcd8e5bc580108ed8727d01320af671e80bb604051924284523393a3005b60405162461bcd60e51b815260048101849052601760248201527f4e6f742061206865617274626561742063617073756c650000000000000000006044820152606490fd5b634e487b7160e01b600052602160045260246000fd5b60405162461bcd60e51b815260048101849052601860248201527f43617073756c6520616c726561647920756e6c6f636b656400000000000000006044820152606490fd5b600080fd5b3461026057600036600319011261026057602060405160648152f35b3461026057604036600319011261026057602435600435600052600160205260406000208054821015610260576102e8916102bb916118c9565b506102f66102d460016102cd846117b6565b93016117b6565b60405193849360408552604085019061185b565b90838203602085015261185b565b0390f35b346102605760203660031901126102605760043580600052600060205261033260018060a01b03600160406000200154163314611b5e565b8060005260006020526005604060002001805460ff81166103c35760ff8160081c1661038a5761ff0019166101001790557f17922d653f81c4d4a6b9e3ed39d33f40f66d9baca3f3541c71a058580beee70c600080a2005b60405162461bcd60e51b8152602060048201526011602482015270105b1c9958591e4818d85b98d95b1b1959607a1b6044820152606490fd5b60405162461bcd60e51b815260206004820152601e60248201527f43616e6e6f742063616e63656c20756e6c6f636b65642063617073756c6500006044820152606490fd5b34610260576000366003190112610260576020600554604051908152f35b346102605760203660031901126102605760043580600052600060205261045e60018060a01b03600160406000200154163314611b5e565b8060005260006020526005604060002001805461048160ff8260081c1615611b9c565b60ff81166104ed5762ff00ff1916620100011790556040519033817f207e7c8891233726262fbf1d4ff217a34c75716418ef79ed734adca0ea9a2256600080a3600182527f72f2840008c6eeb7f9666aa9a8444be77c147559560b0048ed72c1e3c2b84b3b60203393a3005b60405162461bcd60e51b815260206004820152601060248201526f105b1c9958591e481d5b9b1bd8dad95960821b6044820152606490fd5b346102605760403660031901126102605761053e61174c565b6001600160a01b03166000908152600360205260409020805460243591908210156102605760209161056f9161189b565b90549060031b1c604051908152f35b346102605760403660031901126102605761059761174c565b602435906003821015610260576007546001600160a01b0391906105be9083163314611958565b16600052600460205260406000209060ff80198354169116179055600080f35b34610260576000366003190112610260576007546040516001600160a01b039091168152602090f35b346102605760403660031901126102605760043560048110156102605761063960018060a01b03600754163314611958565b6106456024359161166e565b55005b346102605760203660031901126102605760206106666004356119a4565b6040519015158152f35b34610260576020806003193601126102605760043561068e816119a4565b1561079c57600052600190600181526040600020918254916106af83611735565b926106bd60405194856116be565b8084528184018095600052826000206000915b8383106107585750505050604051928184019082855251809152604084019160408260051b86010195926000905b83821061070b5786880387f35b90919293948380610747839a603f198b820301865289519083610737835160408452604084019061185b565b920151908481840391015261185b565b9997019594939190910191016106fe565b9460028582999760409997995161076e816116a3565b610777866117b6565b81526107848587016117b6565b838201528152019201920191909694969593956106d0565b60405162461bcd60e51b815260048101839052601460248201527310d85c1cdd5b19481b9bdd081d5b9b1bd8dad95960621b6044820152606490fd5b34610260576020366003190112610260576004356000526000602052610160604060002080549060018101549060ff6002820154600383015460058401549161085a600760068701549601549660405198895260018060a01b03811660208a015261084b60408a01878360a01c16611762565b8560608a019160a81c1661176f565b608087015260a0860152818116151560c0860152818160081c16151560e086015260101c161515610100840152610120830152610140820152f35b346102605760203660031901126102605760043560005260026020526102f66108c160406000206117b6565b60405191829160208352602083019061185b565b3461026057600036600319011261026057600080808060018060a01b0360075416610901813314611958565b479082821561091f575bf11561091357005b6040513d6000823e3d90fd5b506108fc61090b565b34610260576020366003190112610260576004356000526000602052604060002060405161095581611687565b8154815260018201546001600160a01b03811660208301526109949060ff9061098760a082901c831660408601611929565b60a81c1660608301611935565b60028201546080820152600382015460a08201526004820191604051806020855491828152019460005260206000209060005b818110610b26575050506109e0816007949503826116be565b60c084015260ff6005820154818116151560e0860152818160081c16151561010086015260101c1615156101208401526006810154610140840152015461016082015280519060018060a01b03602082015116604082015191600483101561020557606081015190600282101561020557608081015160a082015160c08301519460e0840151151590610100850151151592610120860151151594610140870151966101600151976040519a61018094858d019d8d5260208d015260408c01610aa891611762565b60608b01610ab59161176f565b60808a015260a089015260c088015285518098526101a08701956020016000985b808a10610b0357505086975060e08701526101008601526101208501526101408401526101608301520390f35b81516001600160a01b031688526001999099019860209788019790910190610ad6565b82546001600160a01b03168752602090960195600192830192016109c7565b3461026057602080600319360112610260576001600160a01b03610b6761174c565b1660005260038152604060002060405190818382549182815201908192600052846000209060005b86828210610be5578686610ba5828803836116be565b604051928392818401908285525180915260408401929160005b828110610bce57505050500390f35b835185528695509381019392810192600101610bbf565b835485529093019260019283019201610b8f565b34610260576020366003190112610260576001600160a01b03610c1a61174c565b16600052600460205260ff604060002054166040516003821015610205576020918152f35b34610260576000366003190112610260576020604051600a8152f35b3461026057600036600319011261026057602060405160018152f35b610100366003190112610260576004803510156102605760026024351015610260576064356001600160401b03811161026057610cb89036906004016116df565b6084356001600160401b03811161026057610cd79036906004016116df565b9060a435916001600160401b038311610260573660238401121561026057826004013592610d0484611735565b93610d1260405195866116be565b80855260208501913660248360051b83010111610260579160248301925b60248360051b8201018410611616575050505060c4356001600160401b03811161026057610d629036906004016116df565b918351156115d157610d7560043561166e565b54341061158c5733600052600460205260ff604060002054166003602052604060002054906003811015610205578061155257506001610db591106118e5565b6024356114a9574260443511156114645760e43561140b575b6005549360001985146113f55760018501600555604051610dee81611687565b6001860181526020810191338352610e0b60043560408401611929565b610e1a60243560608401611935565b60443560808301524260a083015260c0820152600060e08201526000610100820152600061012082015260e435610140820152426101608201526001860160005260006020526040600020918151835560018060a01b03905116600183015490604083015190600482101561020557606084015160028110156102055760ff60a81b9060a81b169269ffffffffffffffffffff60b01b16179060ff60a01b9060a01b16171760018301556080810151600283015560a0810151600383015560c08101518051906001600160401b03821161123257600160401b82116112325760209060048501548360048701558084106113d5575b500160048401600052602060002060005b8381106113b857505050506101606007916005840160e08201511515815461ff00610100850151151560081b169060ff62ff0000610120870151151560101b1693169062ffffff191617171790556101408101516006850155015191015533600052600360205260406000208054600160401b81101561123257610fa99160018201815561189b565b81549060031b9060018701821b91600019901b191617905560405191610fce836116a3565b8252602082015260018301600052600160205260406000208054600160401b81101561123257611003916001820181556118c9565b9190916113a25780518051906001600160401b03821161123257611027845461177c565b601f8111611370575b50602090601f8311600114611303576020939291600091836112f8575b50508160011b916000199060031b1c19161783555b01518051906001600160401b03821161123257611082600184015461177c565b601f81116112c3575b50602090601f8311600114611253576001929160009183611248575b5050600019600383901b1c191690821b179101555b6001820160005260026020526040600020918151926001600160401b038411611232576020936110ec825461177c565b601f81116111f7575b5084601f82116001146111915781929394600092611186575b50508160011b916000199060031b1c19161790555b60405161113281600435611762565b61114083820160243561176f565b604435604082015260e435606082015233907f6ee80eee06ad783b22addb627af53564ff50aa18f2952c368ec3b6f273ee0d2e60806001850192a3600160405191018152f35b01519050858061110e565b82600052856000209060005b601f19841681106111e05750600193949583601f198116106111c7575b505050811b019055611123565b015160001960f88460031b161c191690558580806111ba565b90918760018192858a01518155019301910161119d565b611222908360005286600020601f840160051c810191888510611228575b601f0160051c0190611941565b856110f5565b9091508190611215565b634e487b7160e01b600052604160045260246000fd5b0151905086806110a7565b906001840160005260206000209160005b601f19851681106112ab5750918391600194938594601f19811610611292575b505050811b019101556110bc565b015160001960f88460031b161c19169055868080611284565b91926020600181928685015181550194019201611264565b6112f290600185016000526020600020601f850160051c8101916020861061122857601f0160051c0190611941565b8561108b565b01519050878061104d565b908460005260206000209160005b601f1985168110611358575091839160019360209695601f1981161061133f575b505050811b018355611062565b015160001960f88460031b161c19169055878080611332565b91926020600181928685015181550194019201611311565b61139c90856000526020600020601f850160051c8101916020861061122857601f0160051c0190611941565b86611030565b634e487b7160e01b600052600060045260246000fd5b82516001600160a01b031681830155602090920191600101610f20565b6113ef906004870160005284846000209182019101611941565b89610f0f565b634e487b7160e01b600052601160045260246000fd5b60405162461bcd60e51b815260206004820152602b60248201527f48656172746265617420696e74657276616c206d757374206265203020666f7260448201526a081d1a5b594b58985cd95960aa1b6064820152608490fd5b60405162461bcd60e51b815260206004820152601d60248201527f556e6c6f636b2074696d65206d75737420626520696e206675747572650000006044820152606490fd5b600160243503610dce5760e4351561150d576201518060e4351015610dce5760405162461bcd60e51b815260206004820152601c60248201527f48656172746265617420696e74657276616c20746f6f2073686f7274000000006044820152606490fd5b60405162461bcd60e51b815260206004820152601b60248201527f48656172746265617420696e74657276616c20726571756972656400000000006044820152606490fd5b6001810361156c5750600a61156791106118e5565b610db5565b60021461157a575b50610db5565b606461158691106118e5565b84611574565b60405162461bcd60e51b815260206004820152601960248201527f496e73756666696369656e74206372656174696f6e20666565000000000000006044820152606490fd5b60405162461bcd60e51b815260206004820152601f60248201527f4174206c65617374206f6e6520726563697069656e74207265717569726564006044820152606490fd5b83356001600160a01b03811690036102605760208060249386358152019401939150610d30565b346102605760203660031901126102605760043560048110156102605761166560209161166e565b54604051908152f35b6004811015610205576000526006602052604060002090565b61018081019081106001600160401b0382111761123257604052565b604081019081106001600160401b0382111761123257604052565b90601f801991011681019081106001600160401b0382111761123257604052565b81601f82011215610260578035906001600160401b0382116112325760405192611713601f8401601f1916602001856116be565b8284526020838301011161026057816000926020809301838601378301015290565b6001600160401b0381116112325760051b60200190565b600435906001600160a01b038216820361026057565b9060048210156102055752565b9060028210156102055752565b90600182811c921680156117ac575b602083101461179657565b634e487b7160e01b600052602260045260246000fd5b91607f169161178b565b906040519182600082546117c98161177c565b9081845260209460019160018116908160001461183957506001146117fa575b5050506117f8925003836116be565b565b600090815285812095935091905b8183106118215750506117f893508201013880806117e9565b85548884018501529485019487945091830191611808565b925050506117f894925060ff191682840152151560051b8201013880806117e9565b919082519283825260005b848110611887575050826000602080949584010152601f8019910116010190565b602081830181015184830182015201611866565b80548210156118b35760005260206000200190600090565b634e487b7160e01b600052603260045260246000fd5b80548210156118b35760005260206000209060011b0190600090565b156118ec57565b60405162461bcd60e51b815260206004820152601560248201527410d85c1cdd5b19481b1a5b5a5d081c995858da1959605a1b6044820152606490fd5b60048210156102055752565b60028210156102055752565b81811061194c575050565b60008155600101611941565b1561195f57565b60405162461bcd60e51b815260206004820152601860248201527f4f6e6c79206f776e65722063616e2063616c6c207468697300000000000000006044820152606490fd5b60009081526020908060205260408120906040516119c181611687565b825481526001808401546001600160a01b038082166020850152959091906119f360a084901c60ff1660408601611929565b611a0760ff606086019460a81c1684611935565b60028601549660808501978852600387015460a08601526004870160405193848593602084549283815201938a5260208a20958a915b838310611b44575050505050611a55925003826116be565b60c0830152600584015460ff81161515908160e085015260ff808260081c161515918261010087015260101c1615156101208501526101606007600688015497610140870198895201549401938452611b3b57611b315780516002811015611b1d57611ac657505050505142101590565b9091929350516002811015611b0957600114611ae25750905090565b5191518201809211611af5575042101590565b634e487b7160e01b81526011600452602490fd5b634e487b7160e01b83526021600452602483fd5b634e487b7160e01b84526021600452602484fd5b5050505050600190565b50505091505090565b875481168652968401968896509481019491840191611a3d565b15611b6557565b60405162461bcd60e51b815260206004820152600f60248201526e2737ba103a34329031b932b0ba37b960891b6044820152606490fd5b15611ba357565b60405162461bcd60e51b815260206004820152601460248201527310d85c1cdd5b19481a5cc818d85b98d95b1b195960621b6044820152606490fdfea2646970667358221220161cfb22394e128cc38daac64baec515a0732fba2c9e4aceea12a899649890af64736f6c63430008180033",
  "linkReferences": {},
  "deployedLinkReferences": {}
}