{
  "_format": "hh-sol-artifact-1",
  "contractName": "EchoVault",
  "sourceName": "contracts/EchoVault.sol",
  "abi": [
    {
      "inputs": [
        {
          "internalType": "address",
          "name": "_treasury",
          "type": "address"
        },
        {
          "internalType": "address",
          "name": "_platformWallet",
          "type": "address"
        }
      ],
      "stateMutability": "nonpayable",
      "type": "constructor"
    },
    {
      "inputs": [],
      "name": "EnforcedPause",
      "type": "error"
    },
    {
      "inputs": [],
      "name": "ExpectedPause",
      "type": "error"
    },
    {
      "inputs": [
        {
          "internalType": "address",
          "name": "owner",
          "type": "address"
        }
      ],
      "name": "OwnableInvalidOwner",
      "type": "error"
    },
    {
      "inputs": [
        {
          "internalType": "address",
          "name": "account",
          "type": "address"
        }
      ],
      "name": "OwnableUnauthorizedAccount",
      "type": "error"
    },
    {
      "inputs": [],
      "name": "ReentrancyGuardReentrantCall",
      "type": "error"
    },
    {
      "anonymous": false,
      "inputs": [
        {
          "indexed": true,
          "internalType": "uint256",
          "name": "capsuleId",
          "type": "uint256"
        },
        {
          "indexed": true,
          "internalType": "address",
          "name": "creator",
          "type": "address"
        }
      ],
      "name": "CapsuleCancelled",
      "type": "event"
    },
    {
      "anonymous": false,
      "inputs": [
        {
          "indexed": true,
          "internalType": "uint256",
          "name": "capsuleId",
          "type": "uint256"
        },
        {
          "indexed": true,
          "internalType": "address",
          "name": "creator",
          "type": "address"
        },
        {
          "indexed": false,
          "internalType": "enum EchoVault.CapsuleType",
          "name": "capsuleType",
          "type": "uint8"
        },
        {
          "indexed": false,
          "internalType": "uint256",
          "name": "unlockTime",
          "type": "uint256"
        },
        {
          "indexed": false,
          "internalType": "bool",
          "name": "createdByPlatform",
          "type": "bool"
        }
      ],
      "name": "CapsuleCreated",
      "type": "event"
    },
    {
      "anonymous": false,
      "inputs": [
        {
          "indexed": true,
          "internalType": "uint256",
          "name": "capsuleId",
          "type": "uint256"
        },
        {
          "indexed": true,
          "internalType": "address",
          "name": "unlockedBy",
          "type": "address"
        },
        {
          "indexed": false,
          "internalType": "uint256",
          "name": "stageNumber",
          "type": "uint256"
        }
      ],
      "name": "CapsuleUnlocked",
      "type": "event"
    },
    {
      "anonymous": false,
      "inputs": [
        {
          "indexed": true,
          "internalType": "uint256",
          "name": "capsuleId",
          "type": "uint256"
        },
        {
          "indexed": true,
          "internalType": "address",
          "name": "creator",
          "type": "address"
        },
        {
          "indexed": false,
          "internalType": "uint256",
          "name": "timestamp",
          "type": "uint256"
        },
        {
          "indexed": false,
          "internalType": "uint256",
          "name": "nextCheckInDue",
          "type": "uint256"
        }
      ],
      "name": "CheckInPerformed",
      "type": "event"
    },
    {
      "anonymous": false,
      "inputs": [
        {
          "indexed": true,
          "internalType": "uint256",
          "name": "capsuleId",
          "type": "uint256"
        },
        {
          "indexed": false,
          "internalType": "uint256",
          "name": "timestamp",
          "type": "uint256"
        }
      ],
      "name": "DeadMansSwitchTriggered",
      "type": "event"
    },
    {
      "anonymous": false,
      "inputs": [
        {
          "indexed": true,
          "internalType": "uint256",
          "name": "capsuleId",
          "type": "uint256"
        },
        {
          "indexed": true,
          "internalType": "address",
          "name": "guardian",
          "type": "address"
        }
      ],
      "name": "GuardianApprovalSubmitted",
      "type": "event"
    },
    {
      "anonymous": false,
      "inputs": [
        {
          "indexed": true,
          "internalType": "uint256",
          "name": "capsuleId",
          "type": "uint256"
        },
        {
          "indexed": false,
          "internalType": "uint256",
          "name": "approvalCount",
          "type": "uint256"
        }
      ],
      "name": "GuardianUnlockTriggered",
      "type": "event"
    },
    {
      "anonymous": false,
      "inputs": [
        {
          "indexed": true,
          "internalType": "address",
          "name": "previousOwner",
          "type": "address"
        },
        {
          "indexed": true,
          "internalType": "address",
          "name": "newOwner",
          "type": "address"
        }
      ],
      "name": "OwnershipTransferred",
      "type": "event"
    },
    {
      "anonymous": false,
      "inputs": [
        {
          "indexed": false,
          "internalType": "address",
          "name": "account",
          "type": "address"
        }
      ],
      "name": "Paused",
      "type": "event"
    },
    {
      "anonymous": false,
      "inputs": [
        {
          "indexed": true,
          "internalType": "address",
          "name": "oldWallet",
          "type": "address"
        },
        {
          "indexed": true,
          "internalType": "address",
          "name": "newWallet",
          "type": "address"
        }
      ],
      "name": "PlatformWalletUpdated",
      "type": "event"
    },
    {
      "anonymous": false,
      "inputs": [
        {
          "indexed": true,
          "internalType": "uint256",
          "name": "capsuleId",
          "type": "uint256"
        },
        {
          "indexed": true,
          "internalType": "address",
          "name": "recipient",
          "type": "address"
        }
      ],
      "name": "RecipientAdded",
      "type": "event"
    },
    {
      "anonymous": false,
      "inputs": [
        {
          "indexed": true,
          "internalType": "address",
          "name": "user",
          "type": "address"
        },
        {
          "indexed": false,
          "internalType": "string",
          "name": "tierName",
          "type": "string"
        },
        {
          "indexed": false,
          "internalType": "uint256",
          "name": "expiryDate",
          "type": "uint256"
        }
      ],
      "name": "SubscriptionPurchased",
      "type": "event"
    },
    {
      "anonymous": false,
      "inputs": [
        {
          "indexed": false,
          "internalType": "address",
          "name": "account",
          "type": "address"
        }
      ],
      "name": "Unpaused",
      "type": "event"
    },
    {
      "inputs": [
        {
          "internalType": "uint256",
          "name": "_capsuleId",
          "type": "uint256"
        },
        {
          "internalType": "address[]",
          "name": "_guardians",
          "type": "address[]"
        },
        {
          "internalType": "uint256",
          "name": "_guardiansRequired",
          "type": "uint256"
        }
      ],
      "name": "addGuardians",
      "outputs": [],
      "stateMutability": "nonpayable",
      "type": "function"
    },
    {
      "inputs": [
        {
          "internalType": "uint256",
          "name": "_capsuleId",
          "type": "uint256"
        },
        {
          "internalType": "address",
          "name": "_recipient",
          "type": "address"
        }
      ],
      "name": "addRecipient",
      "outputs": [],
      "stateMutability": "nonpayable",
      "type": "function"
    },
    {
      "inputs": [
        {
          "internalType": "uint256",
          "name": "_capsuleId",
          "type": "uint256"
        },
        {
          "internalType": "uint256",
          "name": "_unlockTime",
          "type": "uint256"
        },
        {
          "internalType": "string",
          "name": "_encryptedKeys",
          "type": "string"
        },
        {
          "internalType": "string",
          "name": "_ipfsHash",
          "type": "string"
        }
      ],
      "name": "addUnlockStage",
      "outputs": [],
      "stateMutability": "payable",
      "type": "function"
    },
    {
      "inputs": [
        {
          "internalType": "uint256",
          "name": "_capsuleId",
          "type": "uint256"
        }
      ],
      "name": "cancelCapsule",
      "outputs": [],
      "stateMutability": "nonpayable",
      "type": "function"
    },
    {
      "inputs": [],
      "name": "capsuleCounter",
      "outputs": [
        {
          "internalType": "uint256",
          "name": "",
          "type": "uint256"
        }
      ],
      "stateMutability": "view",
      "type": "function"
    },
    {
      "inputs": [
        {
          "internalType": "uint256",
          "name": "",
          "type": "uint256"
        }
      ],
      "name": "capsules",
      "outputs": [
        {
          "internalType": "uint256",
          "name": "id",
          "type": "uint256"
        },
        {
          "internalType": "address",
          "name": "creator",
          "type": "address"
        },
        {
          "internalType": "enum EchoVault.CapsuleType",
          "name": "capsuleType",
          "type": "uint8"
        },
        {
          "internalType": "enum EchoVault.CapsuleStatus",
          "name": "status",
          "type": "uint8"
        },
        {
          "internalType": "enum EchoVault.TriggerType",
          "name": "triggerType",
          "type": "uint8"
        },
        {
          "internalType": "uint256",
          "name": "primaryUnlockTime",
          "type": "uint256"
        },
        {
          "internalType": "uint256",
          "name": "lastCheckIn",
          "type": "uint256"
        },
        {
          "internalType": "uint256",
          "name": "checkInInterval",
          "type": "uint256"
        },
        {
          "internalType": "uint256",
          "name": "gracePeriod",
          "type": "uint256"
        },
        {
          "internalType": "uint256",
          "name": "guardiansRequired",
          "type": "uint256"
        },
        {
          "internalType": "uint256",
          "name": "guardiansApprovedCount",
          "type": "uint256"
        },
        {
          "internalType": "uint256",
          "name": "createdAt",
          "type": "uint256"
        },
        {
          "internalType": "uint256",
          "name": "maxStorageSize",
          "type": "uint256"
        },
        {
          "internalType": "string",
          "name": "metadata",
          "type": "string"
        },
        {
          "internalType": "bool",
          "name": "emailNotification",
          "type": "bool"
        },
        {
          "internalType": "bool",
          "name": "multipleRecipients",
          "type": "bool"
        },
        {
          "internalType": "bool",
          "name": "progressiveUnlock",
          "type": "bool"
        },
        {
          "internalType": "bool",
          "name": "hasDeadMansSwitch",
          "type": "bool"
        },
        {
          "internalType": "bool",
          "name": "createdByPlatform",
          "type": "bool"
        }
      ],
      "stateMutability": "view",
      "type": "function"
    },
    {
      "inputs": [
        {
          "internalType": "uint256",
          "name": "_capsuleId",
          "type": "uint256"
        }
      ],
      "name": "checkIn",
      "outputs": [],
      "stateMutability": "nonpayable",
      "type": "function"
    },
    {
      "inputs": [
        {
          "internalType": "enum EchoVault.CapsuleType",
          "name": "_capsuleType",
          "type": "uint8"
        },
        {
          "internalType": "enum EchoVault.TriggerType",
          "name": "_triggerType",
          "type": "uint8"
        },
        {
          "internalType": "uint256",
          "name": "_unlockTime",
          "type": "uint256"
        },
        {
          "internalType": "string",
          "name": "_encryptedKeys",
          "type": "string"
        },
        {
          "internalType": "string",
          "name": "_ipfsHash",
          "type": "string"
        },
        {
          "internalType": "address[]",
          "name": "_recipients",
          "type": "address[]"
        },
        {
          "internalType": "string",
          "name": "_metadata",
          "type": "string"
        }
      ],
      "name": "createCapsule",
      "outputs": [
        {
          "internalType": "uint256",
          "name": "",
          "type": "uint256"
        }
      ],
      "stateMutability": "payable",
      "type": "function"
    },
    {
      "inputs": [
        {
          "internalType": "address",
          "name": "_creator",
          "type": "address"
        },
        {
          "internalType": "enum EchoVault.CapsuleType",
          "name": "_capsuleType",
          "type": "uint8"
        },
        {
          "internalType": "enum EchoVault.TriggerType",
          "name": "_triggerType",
          "type": "uint8"
        },
        {
          "internalType": "uint256",
          "name": "_unlockTime",
          "type": "uint256"
        },
        {
          "internalType": "string",
          "name": "_encryptedKeys",
          "type": "string"
        },
        {
          "internalType": "string",
          "name": "_ipfsHash",
          "type": "string"
        },
        {
          "internalType": "address[]",
          "name": "_recipients",
          "type": "address[]"
        },
        {
          "internalType": "string",
          "name": "_metadata",
          "type": "string"
        }
      ],
      "name": "createCapsuleForUser",
      "outputs": [
        {
          "internalType": "uint256",
          "name": "",
          "type": "uint256"
        }
      ],
      "stateMutability": "payable",
      "type": "function"
    },
    {
      "inputs": [
        {
          "internalType": "enum EchoVault.CapsuleType",
          "name": "",
          "type": "uint8"
        }
      ],
      "name": "creationFees",
      "outputs": [
        {
          "internalType": "uint256",
          "name": "",
          "type": "uint256"
        }
      ],
      "stateMutability": "view",
      "type": "function"
    },
    {
      "inputs": [],
      "name": "deadMansSwitchFeePerYear",
      "outputs": [
        {
          "internalType": "uint256",
          "name": "",
          "type": "uint256"
        }
      ],
      "stateMutability": "view",
      "type": "function"
    },
    {
      "inputs": [],
      "name": "emergencyWithdraw",
      "outputs": [],
      "stateMutability": "nonpayable",
      "type": "function"
    },
    {
      "inputs": [
        {
          "internalType": "uint256",
          "name": "_capsuleId",
          "type": "uint256"
        },
        {
          "internalType": "uint256",
          "name": "_checkInIntervalDays",
          "type": "uint256"
        },
        {
          "internalType": "uint256",
          "name": "_gracePeriodDays",
          "type": "uint256"
        }
      ],
      "name": "enableDeadMansSwitch",
      "outputs": [],
      "stateMutability": "payable",
      "type": "function"
    },
    {
      "inputs": [
        {
          "internalType": "uint256",
          "name": "_capsuleId",
          "type": "uint256"
        }
      ],
      "name": "getCapsule",
      "outputs": [
        {
          "internalType": "uint256",
          "name": "id",
          "type": "uint256"
        },
        {
          "internalType": "address",
          "name": "creator",
          "type": "address"
        },
        {
          "internalType": "enum EchoVault.CapsuleType",
          "name": "capsuleType",
          "type": "uint8"
        },
        {
          "internalType": "enum EchoVault.CapsuleStatus",
          "name": "status",
          "type": "uint8"
        },
        {
          "internalType": "uint256",
          "name": "unlockTime",
          "type": "uint256"
        },
        {
          "internalType": "uint256",
          "name": "createdAt",
          "type": "uint256"
        },
        {
          "internalType": "address[]",
          "name": "recipients",
          "type": "address[]"
        },
        {
          "internalType": "bool",
          "name": "hasDeadMansSwitch",
          "type": "bool"
        },
        {
          "internalType": "bool",
          "name": "progressiveUnlock",
          "type": "bool"
        },
        {
          "internalType": "bool",
          "name": "createdByPlatform",
          "type": "bool"
        }
      ],
      "stateMutability": "view",
      "type": "function"
    },
    {
      "inputs": [
        {
          "internalType": "uint256",
          "name": "_capsuleId",
          "type": "uint256"
        }
      ],
      "name": "getCapsuleStageCount",
      "outputs": [
        {
          "internalType": "uint256",
          "name": "",
          "type": "uint256"
        }
      ],
      "stateMutability": "view",
      "type": "function"
    },
    {
      "inputs": [
        {
          "internalType": "uint256",
          "name": "_capsuleId",
          "type": "uint256"
        }
      ],
      "name": "getNextCheckInDeadline",
      "outputs": [
        {
          "internalType": "uint256",
          "name": "",
          "type": "uint256"
        }
      ],
      "stateMutability": "view",
      "type": "function"
    },
    {
      "inputs": [
        {
          "internalType": "uint256",
          "name": "_capsuleId",
          "type": "uint256"
        }
      ],
      "name": "getUnlockedStages",
      "outputs": [
        {
          "components": [
            {
              "internalType": "uint256",
              "name": "unlockTime",
              "type": "uint256"
            },
            {
              "internalType": "string",
              "name": "encryptedKeys",
              "type": "string"
            },
            {
              "internalType": "string",
              "name": "ipfsHash",
              "type": "string"
            },
            {
              "internalType": "bool",
              "name": "isUnlocked",
              "type": "bool"
            }
          ],
          "internalType": "struct EchoVault.UnlockStage[]",
          "name": "",
          "type": "tuple[]"
        }
      ],
      "stateMutability": "view",
      "type": "function"
    },
    {
      "inputs": [
        {
          "internalType": "address",
          "name": "_user",
          "type": "address"
        }
      ],
      "name": "getUserCapsules",
      "outputs": [
        {
          "internalType": "uint256[]",
          "name": "",
          "type": "uint256[]"
        }
      ],
      "stateMutability": "view",
      "type": "function"
    },
    {
      "inputs": [
        {
          "internalType": "address",
          "name": "_user",
          "type": "address"
        }
      ],
      "name": "getUserTier",
      "outputs": [
        {
          "components": [
            {
              "internalType": "string",
              "name": "name",
              "type": "string"
            },
            {
              "internalType": "uint256",
              "name": "pricePerYear",
              "type": "uint256"
            },
            {
              "internalType": "uint256",
              "name": "maxCapsules",
              "type": "uint256"
            },
            {
              "internalType": "uint256",
              "name": "maxStoragePerCapsule",
              "type": "uint256"
            },
            {
              "internalType": "bool",
              "name": "allowsVideo",
              "type": "bool"
            },
            {
              "internalType": "bool",
              "name": "allowsDeadMansSwitch",
              "type": "bool"
            },
            {
              "internalType": "bool",
              "name": "allowsMultiRecipient",
              "type": "bool"
            },
            {
              "internalType": "bool",
              "name": "allowsProgressiveUnlock",
              "type": "bool"
            }
          ],
          "internalType": "struct EchoVault.SubscriptionTier",
          "name": "",
          "type": "tuple"
        }
      ],
      "stateMutability": "view",
      "type": "function"
    },
    {
      "inputs": [
        {
          "internalType": "uint256",
          "name": "_capsuleId",
          "type": "uint256"
        }
      ],
      "name": "guardianApprove",
      "outputs": [],
      "stateMutability": "nonpayable",
      "type": "function"
    },
    {
      "inputs": [
        {
          "internalType": "address",
          "name": "_user",
          "type": "address"
        }
      ],
      "name": "hasActiveSubscription",
      "outputs": [
        {
          "internalType": "bool",
          "name": "",
          "type": "bool"
        }
      ],
      "stateMutability": "view",
      "type": "function"
    },
    {
      "inputs": [
        {
          "internalType": "uint256",
          "name": "_capsuleId",
          "type": "uint256"
        }
      ],
      "name": "isDeadMansSwitchTriggered",
      "outputs": [
        {
          "internalType": "bool",
          "name": "",
          "type": "bool"
        }
      ],
      "stateMutability": "view",
      "type": "function"
    },
    {
      "inputs": [
        {
          "internalType": "uint256",
          "name": "_capsuleId",
          "type": "uint256"
        }
      ],
      "name": "isUnlocked",
      "outputs": [
        {
          "internalType": "bool",
          "name": "",
          "type": "bool"
        }
      ],
      "stateMutability": "view",
      "type": "function"
    },
    {
      "inputs": [],
      "name": "multiRecipientFee",
      "outputs": [
        {
          "internalType": "uint256",
          "name": "",
          "type": "uint256"
        }
      ],
      "stateMutability": "view",
      "type": "function"
    },
    {
      "inputs": [],
      "name": "owner",
      "outputs": [
        {
          "internalType": "address",
          "name": "",
          "type": "address"
        }
      ],
      "stateMutability": "view",
      "type": "function"
    },
    {
      "inputs": [],
      "name": "pause",
      "outputs": [],
      "stateMutability": "nonpayable",
      "type": "function"
    },
    {
      "inputs": [],
      "name": "paused",
      "outputs": [
        {
          "internalType": "bool",
          "name": "",
          "type": "bool"
        }
      ],
      "stateMutability": "view",
      "type": "function"
    },
    {
      "inputs": [],
      "name": "platformFeePercent",
      "outputs": [
        {
          "internalType": "uint256",
          "name": "",
          "type": "uint256"
        }
      ],
      "stateMutability": "view",
      "type": "function"
    },
    {
      "inputs": [],
      "name": "platformWallet",
      "outputs": [
        {
          "internalType": "address",
          "name": "",
          "type": "address"
        }
      ],
      "stateMutability": "view",
      "type": "function"
    },
    {
      "inputs": [],
      "name": "progressiveUnlockFee",
      "outputs": [
        {
          "internalType": "uint256",
          "name": "",
          "type": "uint256"
        }
      ],
      "stateMutability": "view",
      "type": "function"
    },
    {
      "inputs": [
        {
          "internalType": "string",
          "name": "_tierName",
          "type": "string"
        }
      ],
      "name": "purchaseSubscription",
      "outputs": [],
      "stateMutability": "payable",
      "type": "function"
    },
    {
      "inputs": [
        {
          "internalType": "address",
          "name": "_user",
          "type": "address"
        },
        {
          "internalType": "string",
          "name": "_tierName",
          "type": "string"
        }
      ],
      "name": "purchaseSubscriptionForUser",
      "outputs": [],
      "stateMutability": "payable",
      "type": "function"
    },
    {
      "inputs": [],
      "name": "renounceOwnership",
      "outputs": [],
      "stateMutability": "nonpayable",
      "type": "function"
    },
    {
      "inputs": [
        {
          "internalType": "address",
          "name": "",
          "type": "address"
        }
      ],
      "name": "subscriptionExpiry",
      "outputs": [
        {
          "internalType": "uint256",
          "name": "",
          "type": "uint256"
        }
      ],
      "stateMutability": "view",
      "type": "function"
    },
    {
      "inputs": [
        {
          "internalType": "string",
          "name": "",
          "type": "string"
        }
      ],
      "name": "tiers",
      "outputs": [
        {
          "internalType": "string",
          "name": "name",
          "type": "string"
        },
        {
          "internalType": "uint256",
          "name": "pricePerYear",
          "type": "uint256"
        },
        {
          "internalType": "uint256",
          "name": "maxCapsules",
          "type": "uint256"
        },
        {
          "internalType": "uint256",
          "name": "maxStoragePerCapsule",
          "type": "uint256"
        },
        {
          "internalType": "bool",
          "name": "allowsVideo",
          "type": "bool"
        },
        {
          "internalType": "bool",
          "name": "allowsDeadMansSwitch",
          "type": "bool"
        },
        {
          "internalType": "bool",
          "name": "allowsMultiRecipient",
          "type": "bool"
        },
        {
          "internalType": "bool",
          "name": "allowsProgressiveUnlock",
          "type": "bool"
        }
      ],
      "stateMutability": "view",
      "type": "function"
    },
    {
      "inputs": [
        {
          "internalType": "address",
          "name": "newOwner",
          "type": "address"
        }
      ],
      "name": "transferOwnership",
      "outputs": [],
      "stateMutability": "nonpayable",
      "type": "function"
    },
    {
      "inputs": [],
      "name": "treasury",
      "outputs": [
        {
          "internalType": "address",
          "name": "",
          "type": "address"
        }
      ],
      "stateMutability": "view",
      "type": "function"
    },
    {
      "inputs": [
        {
          "internalType": "uint256",
          "name": "_capsuleId",
          "type": "uint256"
        }
      ],
      "name": "triggerDeadMansSwitch",
      "outputs": [],
      "stateMutability": "nonpayable",
      "type": "function"
    },
    {
      "inputs": [
        {
          "internalType": "uint256",
          "name": "_capsuleId",
          "type": "uint256"
        },
        {
          "internalType": "uint256",
          "name": "_stageIndex",
          "type": "uint256"
        }
      ],
      "name": "unlockStage",
      "outputs": [
        {
          "internalType": "string",
          "name": "encryptedKeys",
          "type": "string"
        },
        {
          "internalType": "string",
          "name": "ipfsHash",
          "type": "string"
        }
      ],
      "stateMutability": "nonpayable",
      "type": "function"
    },
    {
      "inputs": [],
      "name": "unpause",
      "outputs": [],
      "stateMutability": "nonpayable",
      "type": "function"
    },
    {
      "inputs": [
        {
          "internalType": "address",
          "name": "_newPlatformWallet",
          "type": "address"
        }
      ],
      "name": "updatePlatformWallet",
      "outputs": [],
      "stateMutability": "nonpayable",
      "type": "function"
    },
    {
      "inputs": [
        {
          "internalType": "enum EchoVault.CapsuleType",
          "name": "_type",
          "type": "uint8"
        },
        {
          "internalType": "uint256",
          "name": "_newFee",
          "type": "uint256"
        }
      ],
      "name": "updatePricing",
      "outputs": [],
      "stateMutability": "nonpayable",
      "type": "function"
    },
    {
      "inputs": [
        {
          "internalType": "address",
          "name": "_newTreasury",
          "type": "address"
        }
      ],
      "name": "updateTreasury",
      "outputs": [],
      "stateMutability": "nonpayable",
      "type": "function"
    },
    {
      "inputs": [
        {
          "internalType": "address",
          "name": "",
          "type": "address"
        },
        {
          "internalType": "uint256",
          "name": "",
          "type": "uint256"
        }
      ],
      "name": "userCapsules",
      "outputs": [
        {
          "internalType": "uint256",
          "name": "",
          "type": "uint256"
        }
      ],
      "stateMutability": "view",
      "type": "function"
    },
    {
      "inputs": [
        {
          "internalType": "address",
          "name": "",
          "type": "address"
        }
      ],
      "name": "userSubscriptions",
      "outputs": [
        {
          "internalType": "string",
          "name": "name",
          "type": "string"
        },
        {
          "internalType": "uint256",
          "name": "pricePerYear",
          "type": "uint256"
        },
        {
          "internalType": "uint256",
          "name": "maxCapsules",
          "type": "uint256"
        },
        {
          "internalType": "uint256",
          "name": "maxStoragePerCapsule",
          "type": "uint256"
        },
        {
          "internalType": "bool",
          "name": "allowsVideo",
          "type": "bool"
        },
        {
          "internalType": "bool",
          "name": "allowsDeadMansSwitch",
          "type": "bool"
        },
        {
          "internalType": "bool",
          "name": "allowsMultiRecipient",
          "type": "bool"
        },
        {
          "internalType": "bool",
          "name": "allowsProgressiveUnlock",
          "type": "bool"
        }
      ],
      "stateMutability": "view",
      "type": "function"
    }
  ],
  "bytecode": "0x60803462000b3c57601f6200439a38819003918201601f19168301916001600160401b038311848410176200081d57808492604094855283398101031262000b3c576200005a6020620000528362000b82565b920162000b82565b90331562000b235760008054336001600160a01b0319808316821784556040519490936001600160a01b0393849391908416907f8be0079c531659141344cd1fd0a4f28419497f9722a3daafe3b4186f6b6457e09080a3600180551692831562000aee575083161562000aa957600c80549190911691909117905560028054610100600160a81b031916600892831b610100600160a81b03161790556101f4600d55602052674563918244f400007f5eff886ea0ce6ca488a3d6e336d6c0f75f46d19b42c06ce5ee98e42c96d256c7819055678ac7230489e800007fad67d757c34507f157cacfa2e3153e9f260a2244f30428821be7be64587ac55f81905568015af1d78b58c400007f6add646517a5b0f6793cd5891b7937d28a5b2981a5d88ebc7cd776088fea9041557f625b35f5e76f098dd7c3a05b10e2e5e78a4a01228d60c3b143426cdf36d2645581905560046000526802b5e3af16b18800007f9321edea6e3be4df59a344b401fab4f888b556fda1f954244cff9204bad624b8556801158e460913d00000600955600a91909155600b55620001fa62000b41565b6200020462000b62565b60048152634652454560e01b6020820152815260006020820152600160408201526207d000606082015260006080820152600060a0820152600060c0820152600060e08201526024604051634652454560e01b8152600e60048201522090805180519060018060401b0382116200081d578354600181811c9116801562000a9e575b6020821014620007fc57601f811162000a55575b50602090601f8311600114620009e357600493929160009183620009d7575b50508160011b916000199060031b1c19161783555b602081015160018401556040810151600284015560608101516003840155608081015115159062ff00008385015461ff0060a0840151151560081b169060ff63ff00000060e060c08701511515960151151560181b1695169063ffffffff191617179160101b1617179101556200034462000b41565b60256200035062000b62565b6005815264424153494360d81b90816020820152835268019274b259f654000060208401526005604084015262500000606084015260006080840152600060a0840152600160c0840152600060e0840152604051908152600e600582015220815180519060018060401b0382116200081d578254600181811c91168015620009cc575b6020821014620007fc57601f811162000983575b50602090601f8311600114620009115760049392916000918362000905575b50508160011b916000199060031b1c19161781555b60208301516001820155604083015160028201556060830151600382015501906080810151151590825461ff0060a0830151151560081b169060ff63ff00000060e062ff000060c0870151151560101b16950151151560181b1694169063ffffffff19161717171790556200048f62000b41565b60236200049b62000b62565b600381526250524f60e81b90816020820152835268055de6a779bbac00006020840152620f423f60408401526306400000606084015260016080840152600160a0840152600160c0840152600160e0840152604051908152600e600382015220815180519060018060401b0382116200081d578254600181811c91168015620008fa575b6020821014620007fc57601f8111620008b1575b50602090601f83116001146200083f5760049392916000918362000833575b50508160011b916000199060031b1c19161781555b60208301516001820155604083015160028201556060830151600382015501906080810151151590825461ff0060a0830151151560081b169060ff63ff00000060e062ff000060c0870151151560101b16950151151560181b1694169063ffffffff1916171717179055620005db62000b41565b620005e562000b62565b600681526545535441544560d01b602082015281526810357563d481cc00006020820152620f423f6040820152631f400000606082015260016080820152600160a0820152600160c0820152600160e082015260266040516545535441544560d01b8152600e600682015220815180519060018060401b0382116200081d578254600181811c9116801562000812575b6020821014620007fc57601f8111620007b3575b50602090601f8311600114620007435760049392916000918362000737575b50508160011b916000199060031b1c19161781555b60208301516001820155604083015160028201556060830151600382015501906080810151151590825461ff0060a0830151151560081b169060ff63ff00000060e062ff000060c0870151151560101b16950151151560181b1694169063ffffffff1916171717179055604051613802908162000b988239f35b015190503880620006a8565b90601f198316918460005260206000209260005b8181106200079a575091600193918560049796941062000780575b505050811b018155620006bd565b015160001960f88460031b161c1916905538808062000772565b9293602060018192878601518155019501930162000757565b836000526020600020601f840160051c810160208510620007f4575b601f830160051c82018110620007e757505062000689565b60008155600101620007cf565b5080620007cf565b634e487b7160e01b600052602260045260246000fd5b90607f169062000675565b634e487b7160e01b600052604160045260246000fd5b01519050388062000552565b908360005260206000209160005b601f198516811062000898575091839160019360049695601f198116106200087e575b505050811b01815562000567565b015160001960f88460031b161c1916905538808062000870565b919260206001819286850151815501940192016200084d565b836000526020600020601f840160051c810160208510620008f2575b601f830160051c82018110620008e557505062000533565b60008155600101620008cd565b5080620008cd565b90607f16906200051f565b01519050388062000406565b908360005260206000209160005b601f19851681106200096a575091839160019360049695601f1981161062000950575b505050811b0181556200041b565b015160001960f88460031b161c1916905538808062000942565b919260206001819286850151815501940192016200091f565b836000526020600020601f840160051c810160208510620009c4575b601f830160051c82018110620009b7575050620003e7565b600081556001016200099f565b50806200099f565b90607f1690620003d3565b015190503880620002b9565b908460005260206000209160005b601f198516811062000a3c575091839160019360049695601f1981161062000a22575b505050811b018355620002ce565b015160001960f88460031b161c1916905538808062000a14565b91926020600181928685015181550194019201620009f1565b846000526020600020601f840160051c81016020851062000a96575b601f830160051c8201811062000a895750506200029a565b6000815560010162000a71565b508062000a71565b90607f169062000286565b60405162461bcd60e51b815260206004820152601760248201527f496e76616c696420706c6174666f726d2077616c6c65740000000000000000006044820152606490fd5b62461bcd60e51b815260206004820152601060248201526f496e76616c696420747265617375727960801b6044820152606490fd5b604051631e4fbdf760e01b815260006004820152602490fd5b600080fd5b6040519061010082016001600160401b038111838210176200081d57604052565b60408051919082016001600160401b038111838210176200081d57604052565b51906001600160a01b038216820362000b3c5756fe6080604052600436101561001257600080fd5b60003560e01c80630bb8cd4d14612ca15780631d9b30c7146129d55780631da313db146124ea578063366636f7146124365780633aac3858146122de5780633f4ba83a1461227457806350df828914611f0e578063517bbf4614611dc457806356e4f84c14611bb0578063583d259f146119e457806359be33c8146118255780635c975abb146118025780635d029843146112f157806360a85ef5146112b757806361d027b31461128e578063715018a61461123557806372abc8b7146111f95780637389c630146111c55780637465da76146111785780637b707f011461107e5780637f33d619146110605780637f51bb1f1461100e57806383519a9214610e6a5780638456cb5914610e105780638ab0392914610cc35780638c639a8514610ca55780638da5cb5b14610c7c57806396bd9bfe14610ad1578063a0d79fb514610a79578063a90f0c9114610a5b578063ada4ef30146109d6578063bebe4a5714610991578063c21446c014610973578063c446bac114610898578063cf14b9e414610860578063d2db53d714610842578063d58e151b146106a3578063db2e21bc1461062a578063ddaa01c41461060c578063e4d2620e14610578578063e95a644f14610421578063f2fde38b14610393578063f426a6f4146102dc578063fa2af9da146102af5763fe551b051461020b57600080fd5b346102aa5760203660031901126102aa576004356001600160401b0381116102aa576020610240610253923690600401612d5e565b8160405193828580945193849201612f3b565b8101600e81520301902061026681612e96565b906102a660018201546002830154906004600385015494015460405195869560ff8360181c169460ff8460101c169460ff808660081c1695169389612fb1565b0390f35b600080fd5b346102aa5760003660031901126102aa5760025460405160089190911c6001600160a01b03168152602090f35b346102aa5760203660031901126102aa5760043580151580610387575b61030290613136565b6000526004602052604060002060ff601182015460181c161561034b5761034381600561033a60036020950154600484015490613079565b91015490613079565b604051908152f35b60405162461bcd60e51b815260206004820152601460248201527309cde40c8cac2c840dac2dc4ee640e6eed2e8c6d60631b6044820152606490fd5b506003548111156102f9565b346102aa5760203660031901126102aa576103ac612da5565b6103b46137a0565b6001600160a01b0390811690811561040857600054826bffffffffffffffffffffffff60a01b821617600055167f8be0079c531659141344cd1fd0a4f28419497f9722a3daafe3b4186f6b6457e0600080a3005b604051631e4fbdf760e01b815260006004820152602490fd5b346102aa5760203660031901126102aa5760043580600052600460205260018060a01b0390816001604060002001541633148015610563575b610463906131b9565b80151580610557575b61047590613136565b806000526004602052604060002060ff601182015460181c16156105125760018101549260ff8460a81c169060048210156104fc576104eb60047f111ed4211ef860205b4d8582db1f46027644f8babac717d5618d4f43ba3c8181946104dd60409515613205565b426003820155015442613079565b9482519542875260208701521693a3005b634e487b7160e01b600052602160045260246000fd5b60405162461bcd60e51b815260206004820152601c60248201527f4e6f2064656164206d616e27732073776974636820656e61626c6564000000006044820152606490fd5b5060035481111561046c565b506104638260025460081c163314905061045a565b346102aa5760203660031901126102aa57610599610594612da5565b613652565b604051809160208252805160e06105be61010092836020870152610120860190612f5e565b926020810151604086015260408101516060860152606081015160808601526080810151151560a086015260a0810151151560c086015260c081015115158286015201511515908301520390f35b346102aa5760003660031901126102aa576020600a54604051908152f35b346102aa5760003660031901126102aa576106436137a0565b6000805481908190819047906001600160a01b03165af1610662613086565b501561066a57005b60405162461bcd60e51b815260206004820152601160248201527015da5d1a191c985dd85b0819985a5b1959607a1b6044820152606490fd5b60603660031901126102aa576004356024356044359180600052600460205260018060a01b039081600160406000200154163314801561082d575b6106e7906131b9565b80151580610821575b6106f990613136565b80600052600460205260a06107178360016040600020015416613652565b0151156107dc5761072c600954341015613036565b600052600460205260406000209260ff600185015460a81c1660048110156104fc576107589015613205565b60118401805463ff000000191663010000001790556201518092808402908015908204851417156107c65760048501558281029281840414901517156107c657600080808093866107c49660058201556003429101553490600c54165af16107be613086565b506130b6565b005b634e487b7160e01b600052601160045260246000fd5b60405162461bcd60e51b815260206004820152601d60248201527f5570677261646520666f722064656164206d616e2773207377697463680000006044820152606490fd5b506003548111156106f0565b506106e78260025460081c16331490506106de565b346102aa5760003660031901126102aa576020600354604051908152f35b346102aa5760203660031901126102aa576001600160a01b03610881612da5565b166000526006602052604060002061026681612e96565b346102aa5760203660031901126102aa5760043580600052600460205260018060a01b0380600160406000200154163314801561095e575b6108d9906131b9565b81151580610952575b6108eb90613136565b816000526004602052600160406000200180549060ff8260a81c1660048110156104fc576109199015613205565b60ff60a81b198216600160a91b17905516907fa1d1e86fc4683d85919ca0e086901a54ba5df5917501641bf9921412a9c3c25c600080a3005b506003548211156108e2565b506108d98160025460081c16331490506108d0565b346102aa5760003660031901126102aa576020600954604051908152f35b346102aa5760203660031901126102aa5760206109cc6109af612da5565b6001600160a01b0316600090815260076020526040902054421090565b6040519015158152f35b346102aa5760203660031901126102aa576109ef612da5565b6109f76137a0565b6001600160a01b0381811691610a0e83151561337c565b60028054610100600160a81b03198116600893841b610100600160a81b031617909155901c167ff84f6b525c89a18c80bbbc0c62a7eb5390956d6b8432ab067b49963a98f8c38f600080a3005b346102aa5760003660031901126102aa576020600b54604051908152f35b346102aa5760403660031901126102aa57610a92612da5565b6001600160a01b03166000908152600560205260409020805460243591908210156102aa57602091610ac391612f83565b90546040519160031b1c8152f35b60803660031901126102aa576004356001600160401b036044358181116102aa57610b00903690600401612d5e565b906064359081116102aa57610b19903690600401612d5e565b9082600052600460205260018060a01b0392836001604060002001541633148015610c67575b610b48906131b9565b80151580610c5b575b610b5a90613136565b80600052600460205260e0610b788560016040600020015416613652565b015115610c1657610b8d600b54341015613036565b600052600460205260406000209060ff600183015460a81c169060048210156104fc576000808087601187610bf684978b610bcb6107c49b15613205565b60405191610bd883612d07565b602435835260208301526040820152856060820152600d83016133ba565b01805462ff0000191662010000179055600c543491165af16107be613086565b60405162461bcd60e51b815260206004820152601e60248201527f5570677261646520666f722070726f677265737369766520756e6c6f636b00006044820152606490fd5b50600354811115610b51565b50610b488460025460081c1633149050610b3f565b346102aa5760003660031901126102aa576000546040516001600160a01b039091168152602090f35b346102aa5760003660031901126102aa576020600d54604051908152f35b346102aa5760403660031901126102aa576024356001600160a01b0381811691600435918382036102aa57610d169083600052600460205280600160406000200154163314908115610dff575b506131b9565b81151580610df3575b610d2890613136565b816000526004602052604060002060ff600182015460a81c1660048110156104fc57610d549015613205565b6007810191846000528260205260ff60406000205416610db8576006610d7a9201613246565b826000526020526040600020600160ff198254161790557f44bc4f709c4e281b3f910c44fc3345db17a91d56de534b4ef24dd098c3b155b9600080a3005b60405162461bcd60e51b8152602060048201526013602482015272105b1c9958591e4818481c9958da5c1a595b9d606a1b6044820152606490fd5b50600354821115610d1f565b905060025460081c16331485610d10565b346102aa5760003660031901126102aa57610e296137a0565b610e31613782565b600160ff1960025416176002557f62e78cea01bee320cd4e420270b5ea74000d11b0c9f74754ebdbfc544b05a2586020604051338152a1005b346102aa576020806003193601126102aa57600435908160005260048152600960406000200133600052815260ff6040600020541615610fd95781151580610fcd575b610eb690613136565b8160005260048152604060002090600182019160ff835460a81c1660048110156104fc57610ee49015613205565b600b81013360005280835260ff60406000205416610f95573360005282526040600020600160ff19825416179055600a600c820191610f238354613196565b80935533867f925b995df16b4bc09194e4b3ff1e8458d5cf751bf06280dd2d5662bb4c178877600080a30154811015610f5857005b825460ff60a81b1916600160a81b179092556040519182527ffdf02667baf4b7a6093b2b0af7e909614e1287bb6fb62c08865bd3141c5614e891a2005b60405162461bcd60e51b815260048101849052601060248201526f105b1c9958591e48185c1c1c9bdd995960821b6044820152606490fd5b50600354821115610ead565b6064906040519062461bcd60e51b82526004820152600e60248201526d2737ba10309033bab0b93234b0b760911b6044820152fd5b346102aa5760203660031901126102aa57611027612da5565b61102f6137a0565b6001600160a01b031661104381151561337c565b6bffffffffffffffffffffffff60a01b600c541617600c55600080f35b346102aa5760203660031901126102aa5760206109cc600435613311565b346102aa576020806003193601126102aa57600435908115158061116c575b6110a690613136565b816000526004815260076040600020013360005281526110cd60ff60406000205416613281565b6110d682613311565b1561112857600082815260048252604090819020600101805460ff60a81b1916600360a81b179055514281527f6b8c33a0757c7c362442f939d793806d985a73d298a8514c21ea1a3d536928079190a2005b6064906040519062461bcd60e51b82526004820152601860248201527f537769746368206e6f74207472696767657265642079657400000000000000006044820152fd5b5060035482111561109d565b346102aa5760203660031901126102aa57600435801515806111b9575b61119e90613136565b60005260046020526020600d60406000200154604051908152f35b50600354811115611195565b346102aa5760403660031901126102aa5760043560058110156102aa576111ea6137a0565b6111f660243591612cd2565b55005b346102aa5760203660031901126102aa5760206109cc60043580151580611229575b61122490613136565b6132bf565b5060035481111561121b565b346102aa5760003660031901126102aa5761124e6137a0565b600080546001600160a01b0319811682556001600160a01b03167f8be0079c531659141344cd1fd0a4f28419497f9722a3daafe3b4186f6b6457e08280a3005b346102aa5760003660031901126102aa57600c546040516001600160a01b039091168152602090f35b346102aa5760203660031901126102aa576001600160a01b036112d8612da5565b1660005260076020526020604060002054604051908152f35b60e03660031901126102aa57600560043510156102aa57600360243510156102aa576064356001600160401b0381116102aa57611332903690600401612d5e565b6084356001600160401b0381116102aa57611351903690600401612d5e565b60a4356001600160401b0381116102aa57611370903690600401612dd2565b9160c4356001600160401b0381116102aa57611390903690600401612d5e565b9061139961375f565b6113a1613782565b6113aa33613652565b92336000526005602052604060002054604085015111156117c557600260043514611778575b600185511161172a575b6113f16113e8600435612cd2565b54341015613036565b6113fc600354613196565b9283600355836000526004602052606060406000209585875560018701805460ff60b01b60243560b01b169062ffffff60a01b1933169068ffffffffffffffffff60b81b161760ff60a01b60043560a01b1617179055604435600288015542600e8801550151600f8601558051906001600160401b03821161164d576114856010870154612e5c565b601f81116116e3575b50602090601f831160011461166e576115019493929160009183611663575b50508160011b916000199060031b1c19161760108601555b60118501805464ff0000000019169055604051916114e283612d07565b60443583526020830152604082015260006060820152600d84016133ba565b600782019160060160005b8451811015611591576001906001600160a01b036115368161152e848a6131a5565b511685613246565b8061154183896131a5565b51166000528560205260406000208360ff1982541617905561156382886131a5565b5116847f44bc4f709c4e281b3f910c44fc3345db17a91d56de534b4ef24dd098c3b155b9600080a30161150c565b82336000526005602052604060002090815491600160401b83101561164d57816115c6846115df936001602097018155612f83565b90919082549060031b91821b91600019901b1916179055565b6115fd60008080803460018060a01b03600c54165af16107be613086565b60405161160c81600435612e42565b6044358382015260006040820152817f4bcfc41d215bcddc5b159bbbf41fb63b1242dbb2dd8a5004c883c9030344a21460603393a360018055604051908152f35b634e487b7160e01b600052604160045260246000fd5b0151905088806114ad565b906010870160005260206000209160005b601f19851681106116cb5750918391600193611501979695601f198116106116b2575b505050811b0160108601556114c5565b015160001960f88460031b161c191690558880806116a2565b9192602060018192868501518155019401920161167f565b601087016000526020600020601f840160051c810160208510611723575b601f830160051c8201811061171757505061148e565b60008155600101611701565b5080611701565b60c08401516113da5760405162461bcd60e51b815260206004820152601b60248201527f5570677261646520666f72206d756c74692d726563697069656e7400000000006044820152606490fd5b60808401516113d057606460405162461bcd60e51b815260206004820152602060248201527f5570677261646520746f20756e6c6f636b20766964656f2063617073756c65736044820152fd5b60405162461bcd60e51b815260206004820152601560248201527410d85c1cdd5b19481b1a5b5a5d081c995858da1959605a1b6044820152606490fd5b346102aa5760003660031901126102aa57602060ff600254166040519015158152f35b346102aa5760403660031901126102aa57602435600435801515806119d8575b61184e90613136565b8060005260209160048352600760406000200133600052835261187860ff60406000205416613281565b8160005260048352600d60406000200180548210156119a3578161189b9161317a565b5091825442106119695760038301805460ff811661192b57916102a69391600161191e979460ff19161790556040519182527f663589242dc1e7796afac507ef8fbdedc2b32ed0eb136aeb8809da0d7139293c833393a361190a600261190360018601612e96565b9401612e96565b604051948594604086526040860190612f5e565b9184830390850152612f5e565b60405162461bcd60e51b815260048101879052601660248201527514dd1859d948185b1c9958591e481d5b9b1bd8dad95960521b6044820152606490fd5b60405162461bcd60e51b815260048101859052601260248201527114dd1859d9481cdd1a5b1b081b1bd8dad95960721b6044820152606490fd5b60405162461bcd60e51b815260048101859052600d60248201526c496e76616c696420737461676560981b6044820152606490fd5b50600354811115611845565b346102aa5760603660031901126102aa57602460043581356001600160401b0381116102aa57611a18903690600401612dd2565b906044803593826000526020600460205260018060a01b03600194816001604060002001541633148015611b9b575b611a50906131b9565b80151580611b8f575b611a6290613136565b600052600460205260406000209560ff600188015460a81c1660048110156104fc57611a8e9015613205565b80518811611b5657929695949360098601939060088701906000875b611ab8575b600a89018a9055005b8351811015611b515784611acc82866131a5565b511615611b1b5799878b611aef87611ae7849d9e9f896131a5565b511686613246565b86611afa82886131a5565b511660005288885260406000208260ff1982541617905501909a9998611aaa565b60405162461bcd60e51b8152600481018790526010818d01526f24b73b30b634b21033bab0b93234b0b760811b81840152606490fd5b611aaf565b60405162461bcd60e51b8152602060048201526011602482015270125b9d985b1a59081d1a1c995cda1bdb19607a1b6044820152606490fd5b50600354811115611a59565b50611a508260025460081c1633149050611a47565b346102aa576020806003193601126102aa5760043580151580611db8575b611bd790613136565b60009081526004825260408120600d01805490825b828110611d885750611c16611c0084612dbb565b93611c0e6040519586612d22565b808552612dbb565b601f19018460005b828110611d585750505060009060005b838110611cc857604080518781528651818901819052600092600582901b8301810191898b01918b9085015b828710611c675785850386f35b909192938280600192603f19898203018552875190611cac611c9a60808451845285850151908087860152840190612f5e565b60408401518382036040850152612f5e565b9160608091015115159101529601920196019592919092611c5a565b611cd2818361317a565b5054421015611ce4575b600101611c2e565b91611d50600191611cf5858561317a565b5060ff600360405192611d0784612d07565b80548452611d16878201612e96565b8c850152611d2660028201612e96565b604085015201541615156060820152611d3f82896131a5565b52611d4a81886131a5565b50613196565b929050611cdc565b604051611d6481612d07565b60008152600060608085840152806040840152820152828288010152018590611c1e565b611d92818361317a565b5054421015611da4575b600101611bec565b92611db0600191613196565b939050611d9c565b50600354811115611bce565b346102aa5760203660031901126102aa57600435600052600460205260606040600020805460018201546002830154906003840154936004810154936005820154600a830154600c840154600e85015491600f860154936011611e2960108901612e96565b97015499611e6a6040519d8e61026099815260018060a01b038c166020820152611e5d8c60ff604084019160a01c16612e42565b0160ff8b60a81c16612e4f565b600360ff8a60b01c1610156104fc578c9b60ff9a60a08e8d611ec89d60b01c166080820152015260c08d015260e08c01526101008b01526101208a0152610140890152610160880152610180870152806101a0870152850190612f5e565b9181811615156101c0850152818160081c1615156101e0850152818160101c161515610200850152818160181c16151561022085015260201c1615156102408301520390f35b60403660031901126102aa57611f22612da5565b6001600160401b036024358181116102aa57611f42903690600401612d5e565b90611f5b60018060a01b0360025460081c1633146130f3565b611f6361375f565b6040516020818451611f788183858901612f3b565b8101600e81520301902090611ffa60405192611f9384612ceb565b611f9c81612e96565b845260ff60046001830154928360208801526002810154604088015260038101546060880152015481811615156080870152818160081c16151560a0870152818160101c16151560c087015260181c16151560e08501521515612ffb565b61200a6020830151341015613036565b6001600160a01b0384166000908152600660205260409020825180519192821161164d576120388354612e5c565b601f8111612230575b50602090601f83116001146121bd57928260e09360049361210297966000926121b2575b50508160011b916000199060031b1c19161781555b60208401516001820155604084015160028201556060840151600382015501916120b660808201511515849060ff801983541691151516179055565b60a0810151835460c083015162ffff001990911691151560081b61ff00169190911790151560101b62ff0000161783550151815463ff000000191690151560181b63ff00000016179055565b6301e1338042018042116107c6577fd3a0d4c6fb024554316f1122074a9d46118fadfecb90d5c41812a242c2106dfb916121979160018060a01b038516600052600760205260406000205561216b60008080803460018060a01b03600c54165af16107be613086565b60018060a01b038416600052600760205260406000205493604051928392604084526040840190612f5e565b60208301959095526001600160a01b0316930390a260018055005b015190508980612065565b908360005260206000209160005b601f198516811061221857508360049361210297969360019360e097601f198116106121ff575b505050811b01815561207a565b015160001960f88460031b161c191690558980806121f2565b919260206001819286850151815501940192016121cb565b836000526020600020601f840160051c81016020851061226d575b601f830160051c82018110612261575050612041565b6000815560010161224b565b508061224b565b346102aa5760003660031901126102aa5761228d6137a0565b60025460ff8116156122cc5760ff19166002557f5db9ee0a495bf2e6ff9c91a7834c1ba4fdd244a5e8aa4e537bd38aeae4b073aa6020604051338152a1005b604051638dfc202b60e01b8152600490fd5b346102aa576020806003193601126102aa576004358015158061242a575b61230590613136565b60005260048152604060002080549060019260018201549060018060a01b03600284015494600e850154601160068701960154946040519182868954918281520190819960005287600020908c60005b8a8382106124155750505050508361236e910384612d22565b604051986123a961014093848c01968c52878116898d015261239960408d0160ff8360a01c16612e42565b60ff60608d019160a81c16612e4f565b60808a015260a089015260c088015251809152610160860194916000905b8282106123fe5787808860ff8989828260181c16151560e0860152828260101c1615156101008601521c1615156101208301520390f35b8351811687529584019592840192908801906123c7565b84548b16865290940193928101928101612355565b506003548111156122fc565b346102aa576020806003193601126102aa576001600160a01b03612458612da5565b1660005260058152604060002060405190818382549182815201908192600052846000209060005b868282106124d657868661249682880383612d22565b604051928392818401908285525180915260408401929160005b8281106124bf57505050500390f35b8351855286955093810193928101926001016124b0565b835485529093019260019283019201612480565b6101003660031901126102aa576124ff612da5565b600560243510156102aa57600360443510156102aa576084356001600160401b0381116102aa57612534903690600401612d5e565b9060a4356001600160401b0381116102aa57612554903690600401612d5e565b9160c4356001600160401b0381116102aa57612574903690600401612dd2565b60e4356001600160401b0381116102aa57612593903690600401612d5e565b916125ac60018060a01b0360025460081c1633146130f3565b6125b461375f565b6125bc613782565b6125c584613652565b9460018060a01b0385166000526005602052604060002054604087015111156117c557600260243514612988575b600183511161293a575b61260b6113e8602435612cd2565b612616600354613196565b6003819055600081815260046020526040902081815560018101805460243560a01b60ff60a01b166001600160b81b03199091166001600160a01b038a16171760443560b01b60ff60b01b16179055606435600282015542600e82015560609790970151600f880155845190946001600160401b03821161164d5761269e6010890154612e5c565b601f81116128f3575b50602090601f831160011461287e576127219493929160009183612873575b50508160011b916000199060031b1c19161760108801555b60118701805464ff0000000019166401000000001790556040519161270283612d07565b60643583526020830152604082015260006060820152600d86016133ba565b600684019360070160005b82518110156127bb576001906127556001600160a01b0361274d83876131a5565b511688613246565b818060a01b0361276582866131a5565b51166000528260205260406000208260ff19825416179055818060a01b0361278d82866131a5565b5116857f44bc4f709c4e281b3f910c44fc3345db17a91d56de534b4ef24dd098c3b155b9600080a30161272c565b5050506001600160a01b038216600090815260056020526040902080549290600160401b84101561164d57826115c6856127fc936001602098018155612f83565b61281a60008080803460018060a01b03600c54165af16107be613086565b817f4bcfc41d215bcddc5b159bbbf41fb63b1242dbb2dd8a5004c883c9030344a21460606040519361284e85602435612e42565b60643585880152600160408601526001600160a01b031693a360018055604051908152f35b0151905089806126c6565b906010890160005260206000209160005b601f19851681106128db5750918391600193612721979695601f198116106128c2575b505050811b0160108801556126de565b015160001960f88460031b161c191690558980806128b2565b9192602060018192868501518155019401920161288f565b601089016000526020600020601f840160051c810160208510612933575b601f830160051c820181106129275750506126a7565b60008155600101612911565b5080612911565b60c08601516125fd5760405162461bcd60e51b815260206004820152601b60248201527f5570677261646520666f72206d756c74692d726563697069656e7400000000006044820152606490fd5b60808601516125f357606460405162461bcd60e51b815260206004820152602060248201527f5570677261646520746f20756e6c6f636b20766964656f2063617073756c65736044820152fd5b60203660031901126102aa576001600160401b036004358181116102aa57612a01903690600401612d5e565b612a0961375f565b6040516020818351612a1e8183858801612f3b565b8101600e815203019020612a9f60405191612a3883612ceb565b612a4181612e96565b835260ff60046001830154928360208701526002810154604087015260038101546060870152015481811615156080860152818160081c16151560a0860152818160101c16151560c086015260181c16151560e08401521515612ffb565b612aaf6020820151341015613036565b3360005260066020526040600020815193845190811161164d57612ad38254612e5c565b601f8111612c5d575b506020601f8211600114612bec57918160049260e094612b4e9798600092612be15750508160011b916000199060031b1c191617815560208401516001820155604084015160028201556060840151600382015501916120b660808201511515849060ff801983541691151516179055565b6301e1338042018042116107c657336000526007602052604060002055612b8960008080803460018060a01b03600c54165af16107be613086565b3360005260076020527fd3a0d4c6fb024554316f1122074a9d46118fadfecb90d5c41812a242c2106dfb60406000205491612bcf60405191604083526040830190612f5e565b9260208201528033930390a260018055005b015190508880612065565b8260005260206000209560005b601f1984168110612c45575082612b4e969760e09593600193600496601f19811610612c2c57505050811b01815561207a565b015160001960f88460031b161c191690558880806121f2565b82820151885560019097019660209283019201612bf9565b826000526020600020601f830160051c810160208410612c9a575b601f830160051c82018110612c8e575050612adc565b60008155600101612c78565b5080612c78565b346102aa5760203660031901126102aa5760043560058110156102aa57612cc9602091612cd2565b54604051908152f35b60058110156104fc576000526008602052604060002090565b61010081019081106001600160401b0382111761164d57604052565b608081019081106001600160401b0382111761164d57604052565b90601f801991011681019081106001600160401b0382111761164d57604052565b6001600160401b03811161164d57601f01601f191660200190565b81601f820112156102aa57803590612d7582612d43565b92612d836040519485612d22565b828452602083830101116102aa57816000926020809301838601378301015290565b600435906001600160a01b03821682036102aa57565b6001600160401b03811161164d5760051b60200190565b9080601f830112156102aa576020908235612dec81612dbb565b93612dfa6040519586612d22565b81855260208086019260051b8201019283116102aa57602001905b828210612e23575050505090565b81356001600160a01b03811681036102aa578152908301908301612e15565b9060058210156104fc5752565b9060048210156104fc5752565b90600182811c92168015612e8c575b6020831014612e7657565b634e487b7160e01b600052602260045260246000fd5b91607f1691612e6b565b90604051918260008254612ea981612e5c565b90818452602094600191600181169081600014612f195750600114612eda575b505050612ed892500383612d22565b565b600090815285812095935091905b818310612f01575050612ed89350820101388080612ec9565b85548884018501529485019487945091830191612ee8565b92505050612ed894925060ff191682840152151560051b820101388080612ec9565b60005b838110612f4e5750506000910152565b8181015183820152602001612f3e565b90602091612f7781518092818552858086019101612f3b565b601f01601f1916010190565b8054821015612f9b5760005260206000200190600090565b634e487b7160e01b600052603260045260246000fd5b96939092612fcf60e097949a9996939a610100808b528a0190612f5e565b9960208901526040880152606087015215156080860152151560a0850152151560c08401521515910152565b1561300257565b60405162461bcd60e51b815260206004820152600c60248201526b24b73b30b634b2103a34b2b960a11b6044820152606490fd5b1561303d57565b60405162461bcd60e51b8152602060048201526014602482015273125b9cdd59999a58da595b9d081c185e5b595b9d60621b6044820152606490fd5b919082018092116107c657565b3d156130b1573d9061309782612d43565b916130a56040519384612d22565b82523d6000602084013e565b606090565b156130bd57565b60405162461bcd60e51b815260206004820152600e60248201526d14185e5b595b9d0819985a5b195960921b6044820152606490fd5b156130fa57565b60405162461bcd60e51b815260206004820152601460248201527313db9b1e481c1b185d199bdc9b481dd85b1b195d60621b6044820152606490fd5b1561313d57565b60405162461bcd60e51b815260206004820152601560248201527410d85c1cdd5b1948191bd95cdb89dd08195e1a5cdd605a1b6044820152606490fd5b8054821015612f9b5760005260206000209060021b0190600090565b60001981146107c65760010190565b8051821015612f9b5760209160051b010190565b156131c057565b60405162461bcd60e51b815260206004820152601760248201527f4e6f742063726561746f72206f7220706c6174666f726d0000000000000000006044820152606490fd5b1561320c57565b60405162461bcd60e51b815260206004820152601260248201527143617073756c65206e6f742061637469766560701b6044820152606490fd5b8054600160401b81101561164d5761326391600182018155612f83565b60018060a09493941b038084549260031b9316831b921b1916179055565b1561328857565b60405162461bcd60e51b815260206004820152600f60248201526e139bdd0818481c9958da5c1a595b9d608a1b6044820152606490fd5b6000526004602052604060002060ff600182015460a81c1660048110156104fc576001811461330a5760031461330457600201544210156132ff57600090565b600190565b50600190565b5050600190565b61332c908015158061332f575b61332790613136565b61333b565b90565b5060035481111561331e565b6000526004602052604060002060ff601182015460181c16156133765780600561033a6003613371940154600484015490613079565b421190565b50600090565b1561338357565b60405162461bcd60e51b815260206004820152600f60248201526e496e76616c6964206164647265737360881b6044820152606490fd5b908154600160401b81101561164d576133da90600193848201815561317a565b91909161363c57805182558282019260209384830151918251916001600160401b039283811161164d578061340f8354612e5c565b95601f968781116135e8575b5089908783116001146135855760009261357a575b5050600019600383901b1c191690831b1790555b6002850192604085015196875193841161164d576134628554612e5c565b828111613534575b50809184116001146134c157509180806060959360039795612ed89a6000946134b6575b50501b9160001990871b1c19161790555b0151151591019060ff801983541691151516179055565b01519250388061348e565b9193949596601f1984168660005283600020936000905b82821061351d57505092606095928592612ed89a99966003999610613505575b505050811b01905561349f565b015160001983891b60f8161c191690553880806134f8565b8088869782949787015181550196019401906134d8565b85600052816000208380870160051c820192848810613571575b0160051c019084905b82811061356557505061346a565b60008155018490613557565b9250819261354e565b015190503880613430565b90859350601f19831691856000528b6000209260005b8d8282106135d257505084116135b9575b505050811b019055613444565b015160001960f88460031b161c191690553880806135ac565b838501518655899790950194938401930161359b565b9091506000846000528a6000208880860160051c8201938d8710613633575b91889187969594930160051c01925b8381106136255750505061341b565b828155869550889101613616565b93508193613607565b634e487b7160e01b600052600060045260246000fd5b60e0604091825161366281612ceb565b60608152600092818460208194015282868201528260608201528260808201528260a08201528260c08201520152826136b08260018060a01b03166000526007602052604060002054421090565b6137395760ff92506004915060249051634652454560e01b8152600e83820152208351936136dd85612ceb565b6136e682612e96565b85526001820154602086015260028201549085015260038101546060850152015481811615156080840152818160081c16151560a0840152818160101c16151560c084015260181c16151560e082015290565b6001600160a01b0390911682526006602052902081519160ff916004916136dd85612ceb565b600260015414613770576002600155565b604051633ee5aeb560e01b8152600490fd5b60ff6002541661378e57565b60405163d93c066560e01b8152600490fd5b6000546001600160a01b031633036137b457565b60405163118cdaa760e01b8152336004820152602490fdfea2646970667358221220c27f388c680f56bb94f76c7937d21f3548b64774c26d3fd3c1ab18c10106464b64736f6c63430008180033",
  "linkReferences": {},
  "deployedLinkReferences": {}
}