{
  "_format": "hh-sol-artifact-1",
  "contractName": "GenieInABottle",
  "sourceName": "contracts/GenieInABottle.sol",
  "abi": [
    {
      "inputs": [
        {
          "internalType": "address",
          "name": "_treasury",
          "type": "address"
        }
      ],
      "stateMutability": "nonpayable",
      "type": "constructor"
    },
    {
      "inputs": [],
      "name": "EnforcedPause",
      "type": "error"
    },
    {
      "inputs": [],
      "name": "ExpectedPause",
      "type": "error"
    },
    {
      "inputs": [
        {
          "internalType": "address",
          "name": "owner",
          "type": "address"
        }
      ],
      "name": "OwnableInvalidOwner",
      "type": "error"
    },
    {
      "inputs": [
        {
          "internalType": "address",
          "name": "account",
          "type": "address"
        }
      ],
      "name": "OwnableUnauthorizedAccount",
      "type": "error"
    },
    {
      "inputs": [],
      "name": "ReentrancyGuardReentrantCall",
      "type": "error"
    },
    {
      "anonymous": false,
      "inputs": [
        {
          "indexed": true,
          "internalType": "uint256",
          "name": "capsuleId",
          "type": "uint256"
        },
        {
          "indexed": true,
          "internalType": "address",
          "name": "creator",
          "type": "address"
        }
      ],
      "name": "CapsuleCancelled",
      "type": "event"
    },
    {
      "anonymous": false,
      "inputs": [
        {
          "indexed": true,
          "internalType": "uint256",
          "name": "capsuleId",
          "type": "uint256"
        },
        {
          "indexed": true,
          "internalType": "address",
          "name": "creator",
          "type": "address"
        },
        {
          "indexed": false,
          "internalType": "enum GenieInABottle.CapsuleType",
          "name": "capsuleType",
          "type": "uint8"
        },
        {
          "indexed": false,
          "internalType": "uint256",
          "name": "unlockTime",
          "type": "uint256"
        }
      ],
      "name": "CapsuleCreated",
      "type": "event"
    },
    {
      "anonymous": false,
      "inputs": [
        {
          "indexed": true,
          "internalType": "uint256",
          "name": "capsuleId",
          "type": "uint256"
        },
        {
          "indexed": true,
          "internalType": "address",
          "name": "unlockedBy",
          "type": "address"
        },
        {
          "indexed": false,
          "internalType": "uint256",
          "name": "stageNumber",
          "type": "uint256"
        }
      ],
      "name": "CapsuleUnlocked",
      "type": "event"
    },
    {
      "anonymous": false,
      "inputs": [
        {
          "indexed": true,
          "internalType": "uint256",
          "name": "capsuleId",
          "type": "uint256"
        },
        {
          "indexed": true,
          "internalType": "address",
          "name": "creator",
          "type": "address"
        },
        {
          "indexed": false,
          "internalType": "uint256",
          "name": "timestamp",
          "type": "uint256"
        },
        {
          "indexed": false,
          "internalType": "uint256",
          "name": "nextCheckInDue",
          "type": "uint256"
        }
      ],
      "name": "CheckInPerformed",
      "type": "event"
    },
    {
      "anonymous": false,
      "inputs": [
        {
          "indexed": true,
          "internalType": "uint256",
          "name": "capsuleId",
          "type": "uint256"
        },
        {
          "indexed": false,
          "internalType": "uint256",
          "name": "timestamp",
          "type": "uint256"
        }
      ],
      "name": "DeadMansSwitchTriggered",
      "type": "event"
    },
    {
      "anonymous": false,
      "inputs": [
        {
          "indexed": true,
          "internalType": "uint256",
          "name": "capsuleId",
          "type": "uint256"
        },
        {
          "indexed": true,
          "internalType": "address",
          "name": "guardian",
          "type": "address"
        }
      ],
      "name": "GuardianApprovalSubmitted",
      "type": "event"
    },
    {
      "anonymous": false,
      "inputs": [
        {
          "indexed": true,
          "internalType": "uint256",
          "name": "capsuleId",
          "type": "uint256"
        },
        {
          "indexed": false,
          "internalType": "uint256",
          "name": "approvalCount",
          "type": "uint256"
        }
      ],
      "name": "GuardianUnlockTriggered",
      "type": "event"
    },
    {
      "anonymous": false,
      "inputs": [
        {
          "indexed": true,
          "internalType": "address",
          "name": "previousOwner",
          "type": "address"
        },
        {
          "indexed": true,
          "internalType": "address",
          "name": "newOwner",
          "type": "address"
        }
      ],
      "name": "OwnershipTransferred",
      "type": "event"
    },
    {
      "anonymous": false,
      "inputs": [
        {
          "indexed": false,
          "internalType": "address",
          "name": "account",
          "type": "address"
        }
      ],
      "name": "Paused",
      "type": "event"
    },
    {
      "anonymous": false,
      "inputs": [
        {
          "indexed": true,
          "internalType": "uint256",
          "name": "capsuleId",
          "type": "uint256"
        },
        {
          "indexed": true,
          "internalType": "address",
          "name": "recipient",
          "type": "address"
        }
      ],
      "name": "RecipientAdded",
      "type": "event"
    },
    {
      "anonymous": false,
      "inputs": [
        {
          "indexed": true,
          "internalType": "address",
          "name": "user",
          "type": "address"
        },
        {
          "indexed": false,
          "internalType": "string",
          "name": "tierName",
          "type": "string"
        },
        {
          "indexed": false,
          "internalType": "uint256",
          "name": "expiryDate",
          "type": "uint256"
        }
      ],
      "name": "SubscriptionPurchased",
      "type": "event"
    },
    {
      "anonymous": false,
      "inputs": [
        {
          "indexed": false,
          "internalType": "address",
          "name": "account",
          "type": "address"
        }
      ],
      "name": "Unpaused",
      "type": "event"
    },
    {
      "inputs": [
        {
          "internalType": "uint256",
          "name": "_capsuleId",
          "type": "uint256"
        },
        {
          "internalType": "address[]",
          "name": "_guardians",
          "type": "address[]"
        },
        {
          "internalType": "uint256",
          "name": "_guardiansRequired",
          "type": "uint256"
        }
      ],
      "name": "addGuardians",
      "outputs": [],
      "stateMutability": "nonpayable",
      "type": "function"
    },
    {
      "inputs": [
        {
          "internalType": "uint256",
          "name": "_capsuleId",
          "type": "uint256"
        },
        {
          "internalType": "address",
          "name": "_recipient",
          "type": "address"
        }
      ],
      "name": "addRecipient",
      "outputs": [],
      "stateMutability": "nonpayable",
      "type": "function"
    },
    {
      "inputs": [
        {
          "internalType": "uint256",
          "name": "_capsuleId",
          "type": "uint256"
        },
        {
          "internalType": "uint256",
          "name": "_unlockTime",
          "type": "uint256"
        },
        {
          "internalType": "string",
          "name": "_encryptedKeys",
          "type": "string"
        },
        {
          "internalType": "string",
          "name": "_ipfsHash",
          "type": "string"
        }
      ],
      "name": "addUnlockStage",
      "outputs": [],
      "stateMutability": "payable",
      "type": "function"
    },
    {
      "inputs": [
        {
          "internalType": "uint256",
          "name": "_capsuleId",
          "type": "uint256"
        }
      ],
      "name": "cancelCapsule",
      "outputs": [],
      "stateMutability": "nonpayable",
      "type": "function"
    },
    {
      "inputs": [],
      "name": "capsuleCounter",
      "outputs": [
        {
          "internalType": "uint256",
          "name": "",
          "type": "uint256"
        }
      ],
      "stateMutability": "view",
      "type": "function"
    },
    {
      "inputs": [
        {
          "internalType": "uint256",
          "name": "",
          "type": "uint256"
        }
      ],
      "name": "capsules",
      "outputs": [
        {
          "internalType": "uint256",
          "name": "id",
          "type": "uint256"
        },
        {
          "internalType": "address",
          "name": "creator",
          "type": "address"
        },
        {
          "internalType": "enum GenieInABottle.CapsuleType",
          "name": "capsuleType",
          "type": "uint8"
        },
        {
          "internalType": "enum GenieInABottle.CapsuleStatus",
          "name": "status",
          "type": "uint8"
        },
        {
          "internalType": "enum GenieInABottle.TriggerType",
          "name": "triggerType",
          "type": "uint8"
        },
        {
          "internalType": "uint256",
          "name": "primaryUnlockTime",
          "type": "uint256"
        },
        {
          "internalType": "uint256",
          "name": "lastCheckIn",
          "type": "uint256"
        },
        {
          "internalType": "uint256",
          "name": "checkInInterval",
          "type": "uint256"
        },
        {
          "internalType": "uint256",
          "name": "gracePeriod",
          "type": "uint256"
        },
        {
          "internalType": "uint256",
          "name": "guardiansRequired",
          "type": "uint256"
        },
        {
          "internalType": "uint256",
          "name": "guardiansApprovedCount",
          "type": "uint256"
        },
        {
          "internalType": "uint256",
          "name": "createdAt",
          "type": "uint256"
        },
        {
          "internalType": "uint256",
          "name": "maxStorageSize",
          "type": "uint256"
        },
        {
          "internalType": "string",
          "name": "metadata",
          "type": "string"
        },
        {
          "internalType": "bool",
          "name": "emailNotification",
          "type": "bool"
        },
        {
          "internalType": "bool",
          "name": "multipleRecipients",
          "type": "bool"
        },
        {
          "internalType": "bool",
          "name": "progressiveUnlock",
          "type": "bool"
        },
        {
          "internalType": "bool",
          "name": "hasDeadMansSwitch",
          "type": "bool"
        }
      ],
      "stateMutability": "view",
      "type": "function"
    },
    {
      "inputs": [
        {
          "internalType": "uint256",
          "name": "_capsuleId",
          "type": "uint256"
        }
      ],
      "name": "checkIn",
      "outputs": [],
      "stateMutability": "nonpayable",
      "type": "function"
    },
    {
      "inputs": [
        {
          "internalType": "enum GenieInABottle.CapsuleType",
          "name": "_capsuleType",
          "type": "uint8"
        },
        {
          "internalType": "enum GenieInABottle.TriggerType",
          "name": "_triggerType",
          "type": "uint8"
        },
        {
          "internalType": "uint256",
          "name": "_unlockTime",
          "type": "uint256"
        },
        {
          "internalType": "string",
          "name": "_encryptedKeys",
          "type": "string"
        },
        {
          "internalType": "string",
          "name": "_ipfsHash",
          "type": "string"
        },
        {
          "internalType": "address[]",
          "name": "_recipients",
          "type": "address[]"
        },
        {
          "internalType": "string",
          "name": "_metadata",
          "type": "string"
        }
      ],
      "name": "createCapsule",
      "outputs": [
        {
          "internalType": "uint256",
          "name": "",
          "type": "uint256"
        }
      ],
      "stateMutability": "payable",
      "type": "function"
    },
    {
      "inputs": [
        {
          "internalType": "enum GenieInABottle.CapsuleType",
          "name": "",
          "type": "uint8"
        }
      ],
      "name": "creationFees",
      "outputs": [
        {
          "internalType": "uint256",
          "name": "",
          "type": "uint256"
        }
      ],
      "stateMutability": "view",
      "type": "function"
    },
    {
      "inputs": [],
      "name": "deadMansSwitchFeePerYear",
      "outputs": [
        {
          "internalType": "uint256",
          "name": "",
          "type": "uint256"
        }
      ],
      "stateMutability": "view",
      "type": "function"
    },
    {
      "inputs": [],
      "name": "emergencyWithdraw",
      "outputs": [],
      "stateMutability": "nonpayable",
      "type": "function"
    },
    {
      "inputs": [
        {
          "internalType": "uint256",
          "name": "_capsuleId",
          "type": "uint256"
        },
        {
          "internalType": "uint256",
          "name": "_checkInIntervalDays",
          "type": "uint256"
        },
        {
          "internalType": "uint256",
          "name": "_gracePeriodDays",
          "type": "uint256"
        }
      ],
      "name": "enableDeadMansSwitch",
      "outputs": [],
      "stateMutability": "payable",
      "type": "function"
    },
    {
      "inputs": [
        {
          "internalType": "uint256",
          "name": "_capsuleId",
          "type": "uint256"
        }
      ],
      "name": "getCapsule",
      "outputs": [
        {
          "internalType": "uint256",
          "name": "id",
          "type": "uint256"
        },
        {
          "internalType": "address",
          "name": "creator",
          "type": "address"
        },
        {
          "internalType": "enum GenieInABottle.CapsuleType",
          "name": "capsuleType",
          "type": "uint8"
        },
        {
          "internalType": "enum GenieInABottle.CapsuleStatus",
          "name": "status",
          "type": "uint8"
        },
        {
          "internalType": "uint256",
          "name": "unlockTime",
          "type": "uint256"
        },
        {
          "internalType": "uint256",
          "name": "createdAt",
          "type": "uint256"
        },
        {
          "internalType": "address[]",
          "name": "recipients",
          "type": "address[]"
        },
        {
          "internalType": "bool",
          "name": "hasDeadMansSwitch",
          "type": "bool"
        },
        {
          "internalType": "bool",
          "name": "progressiveUnlock",
          "type": "bool"
        }
      ],
      "stateMutability": "view",
      "type": "function"
    },
    {
      "inputs": [
        {
          "internalType": "uint256",
          "name": "_capsuleId",
          "type": "uint256"
        }
      ],
      "name": "getCapsuleStageCount",
      "outputs": [
        {
          "internalType": "uint256",
          "name": "",
          "type": "uint256"
        }
      ],
      "stateMutability": "view",
      "type": "function"
    },
    {
      "inputs": [
        {
          "internalType": "uint256",
          "name": "_capsuleId",
          "type": "uint256"
        }
      ],
      "name": "getNextCheckInDeadline",
      "outputs": [
        {
          "internalType": "uint256",
          "name": "",
          "type": "uint256"
        }
      ],
      "stateMutability": "view",
      "type": "function"
    },
    {
      "inputs": [
        {
          "internalType": "uint256",
          "name": "_capsuleId",
          "type": "uint256"
        }
      ],
      "name": "getUnlockedStages",
      "outputs": [
        {
          "components": [
            {
              "internalType": "uint256",
              "name": "unlockTime",
              "type": "uint256"
            },
            {
              "internalType": "string",
              "name": "encryptedKeys",
              "type": "string"
            },
            {
              "internalType": "string",
              "name": "ipfsHash",
              "type": "string"
            },
            {
              "internalType": "bool",
              "name": "isUnlocked",
              "type": "bool"
            }
          ],
          "internalType": "struct GenieInABottle.UnlockStage[]",
          "name": "",
          "type": "tuple[]"
        }
      ],
      "stateMutability": "view",
      "type": "function"
    },
    {
      "inputs": [
        {
          "internalType": "address",
          "name": "_user",
          "type": "address"
        }
      ],
      "name": "getUserCapsules",
      "outputs": [
        {
          "internalType": "uint256[]",
          "name": "",
          "type": "uint256[]"
        }
      ],
      "stateMutability": "view",
      "type": "function"
    },
    {
      "inputs": [
        {
          "internalType": "address",
          "name": "_user",
          "type": "address"
        }
      ],
      "name": "getUserTier",
      "outputs": [
        {
          "components": [
            {
              "internalType": "string",
              "name": "name",
              "type": "string"
            },
            {
              "internalType": "uint256",
              "name": "pricePerYear",
              "type": "uint256"
            },
            {
              "internalType": "uint256",
              "name": "maxCapsules",
              "type": "uint256"
            },
            {
              "internalType": "uint256",
              "name": "maxStoragePerCapsule",
              "type": "uint256"
            },
            {
              "internalType": "bool",
              "name": "allowsVideo",
              "type": "bool"
            },
            {
              "internalType": "bool",
              "name": "allowsDeadMansSwitch",
              "type": "bool"
            },
            {
              "internalType": "bool",
              "name": "allowsMultiRecipient",
              "type": "bool"
            },
            {
              "internalType": "bool",
              "name": "allowsProgressiveUnlock",
              "type": "bool"
            }
          ],
          "internalType": "struct GenieInABottle.SubscriptionTier",
          "name": "",
          "type": "tuple"
        }
      ],
      "stateMutability": "view",
      "type": "function"
    },
    {
      "inputs": [
        {
          "internalType": "uint256",
          "name": "_capsuleId",
          "type": "uint256"
        }
      ],
      "name": "guardianApprove",
      "outputs": [],
      "stateMutability": "nonpayable",
      "type": "function"
    },
    {
      "inputs": [
        {
          "internalType": "address",
          "name": "_user",
          "type": "address"
        }
      ],
      "name": "hasActiveSubscription",
      "outputs": [
        {
          "internalType": "bool",
          "name": "",
          "type": "bool"
        }
      ],
      "stateMutability": "view",
      "type": "function"
    },
    {
      "inputs": [
        {
          "internalType": "uint256",
          "name": "_capsuleId",
          "type": "uint256"
        }
      ],
      "name": "isDeadMansSwitchTriggered",
      "outputs": [
        {
          "internalType": "bool",
          "name": "",
          "type": "bool"
        }
      ],
      "stateMutability": "view",
      "type": "function"
    },
    {
      "inputs": [
        {
          "internalType": "uint256",
          "name": "_capsuleId",
          "type": "uint256"
        }
      ],
      "name": "isUnlocked",
      "outputs": [
        {
          "internalType": "bool",
          "name": "",
          "type": "bool"
        }
      ],
      "stateMutability": "view",
      "type": "function"
    },
    {
      "inputs": [],
      "name": "multiRecipientFee",
      "outputs": [
        {
          "internalType": "uint256",
          "name": "",
          "type": "uint256"
        }
      ],
      "stateMutability": "view",
      "type": "function"
    },
    {
      "inputs": [],
      "name": "owner",
      "outputs": [
        {
          "internalType": "address",
          "name": "",
          "type": "address"
        }
      ],
      "stateMutability": "view",
      "type": "function"
    },
    {
      "inputs": [],
      "name": "pause",
      "outputs": [],
      "stateMutability": "nonpayable",
      "type": "function"
    },
    {
      "inputs": [],
      "name": "paused",
      "outputs": [
        {
          "internalType": "bool",
          "name": "",
          "type": "bool"
        }
      ],
      "stateMutability": "view",
      "type": "function"
    },
    {
      "inputs": [],
      "name": "platformFeePercent",
      "outputs": [
        {
          "internalType": "uint256",
          "name": "",
          "type": "uint256"
        }
      ],
      "stateMutability": "view",
      "type": "function"
    },
    {
      "inputs": [],
      "name": "progressiveUnlockFee",
      "outputs": [
        {
          "internalType": "uint256",
          "name": "",
          "type": "uint256"
        }
      ],
      "stateMutability": "view",
      "type": "function"
    },
    {
      "inputs": [
        {
          "internalType": "string",
          "name": "_tierName",
          "type": "string"
        }
      ],
      "name": "purchaseSubscription",
      "outputs": [],
      "stateMutability": "payable",
      "type": "function"
    },
    {
      "inputs": [],
      "name": "renounceOwnership",
      "outputs": [],
      "stateMutability": "nonpayable",
      "type": "function"
    },
    {
      "inputs": [
        {
          "internalType": "address",
          "name": "",
          "type": "address"
        }
      ],
      "name": "subscriptionExpiry",
      "outputs": [
        {
          "internalType": "uint256",
          "name": "",
          "type": "uint256"
        }
      ],
      "stateMutability": "view",
      "type": "function"
    },
    {
      "inputs": [
        {
          "internalType": "string",
          "name": "",
          "type": "string"
        }
      ],
      "name": "tiers",
      "outputs": [
        {
          "internalType": "string",
          "name": "name",
          "type": "string"
        },
        {
          "internalType": "uint256",
          "name": "pricePerYear",
          "type": "uint256"
        },
        {
          "internalType": "uint256",
          "name": "maxCapsules",
          "type": "uint256"
        },
        {
          "internalType": "uint256",
          "name": "maxStoragePerCapsule",
          "type": "uint256"
        },
        {
          "internalType": "bool",
          "name": "allowsVideo",
          "type": "bool"
        },
        {
          "internalType": "bool",
          "name": "allowsDeadMansSwitch",
          "type": "bool"
        },
        {
          "internalType": "bool",
          "name": "allowsMultiRecipient",
          "type": "bool"
        },
        {
          "internalType": "bool",
          "name": "allowsProgressiveUnlock",
          "type": "bool"
        }
      ],
      "stateMutability": "view",
      "type": "function"
    },
    {
      "inputs": [
        {
          "internalType": "address",
          "name": "newOwner",
          "type": "address"
        }
      ],
      "name": "transferOwnership",
      "outputs": [],
      "stateMutability": "nonpayable",
      "type": "function"
    },
    {
      "inputs": [],
      "name": "treasury",
      "outputs": [
        {
          "internalType": "address",
          "name": "",
          "type": "address"
        }
      ],
      "stateMutability": "view",
      "type": "function"
    },
    {
      "inputs": [
        {
          "internalType": "uint256",
          "name": "_capsuleId",
          "type": "uint256"
        }
      ],
      "name": "triggerDeadMansSwitch",
      "outputs": [],
      "stateMutability": "nonpayable",
      "type": "function"
    },
    {
      "inputs": [
        {
          "internalType": "uint256",
          "name": "_capsuleId",
          "type": "uint256"
        },
        {
          "internalType": "uint256",
          "name": "_stageIndex",
          "type": "uint256"
        }
      ],
      "name": "unlockStage",
      "outputs": [
        {
          "internalType": "string",
          "name": "encryptedKeys",
          "type": "string"
        },
        {
          "internalType": "string",
          "name": "ipfsHash",
          "type": "string"
        }
      ],
      "stateMutability": "nonpayable",
      "type": "function"
    },
    {
      "inputs": [],
      "name": "unpause",
      "outputs": [],
      "stateMutability": "nonpayable",
      "type": "function"
    },
    {
      "inputs": [
        {
          "internalType": "enum GenieInABottle.CapsuleType",
          "name": "_type",
          "type": "uint8"
        },
        {
          "internalType": "uint256",
          "name": "_newFee",
          "type": "uint256"
        }
      ],
      "name": "updatePricing",
      "outputs": [],
      "stateMutability": "nonpayable",
      "type": "function"
    },
    {
      "inputs": [
        {
          "internalType": "address",
          "name": "_newTreasury",
          "type": "address"
        }
      ],
      "name": "updateTreasury",
      "outputs": [],
      "stateMutability": "nonpayable",
      "type": "function"
    },
    {
      "inputs": [
        {
          "internalType": "address",
          "name": "",
          "type": "address"
        },
        {
          "internalType": "uint256",
          "name": "",
          "type": "uint256"
        }
      ],
      "name": "userCapsules",
      "outputs": [
        {
          "internalType": "uint256",
          "name": "",
          "type": "uint256"
        }
      ],
      "stateMutability": "view",
      "type": "function"
    },
    {
      "inputs": [
        {
          "internalType": "address",
          "name": "",
          "type": "address"
        }
      ],
      "name": "userSubscriptions",
      "outputs": [
        {
          "internalType": "string",
          "name": "name",
          "type": "string"
        },
        {
          "internalType": "uint256",
          "name": "pricePerYear",
          "type": "uint256"
        },
        {
          "internalType": "uint256",
          "name": "maxCapsules",
          "type": "uint256"
        },
        {
          "internalType": "uint256",
          "name": "maxStoragePerCapsule",
          "type": "uint256"
        },
        {
          "internalType": "bool",
          "name": "allowsVideo",
          "type": "bool"
        },
        {
          "internalType": "bool",
          "name": "allowsDeadMansSwitch",
          "type": "bool"
        },
        {
          "internalType": "bool",
          "name": "allowsMultiRecipient",
          "type": "bool"
        },
        {
          "internalType": "bool",
          "name": "allowsProgressiveUnlock",
          "type": "bool"
        }
      ],
      "stateMutability": "view",
      "type": "function"
    }
  ],
  "bytecode": "0x60803462000a7d57601f6200383b38819003918201601f19168301916001600160401b03831184841017620007d85780849260209460405283398101031262000a7d57516001600160a01b038082169182900362000a7d57331562000a645760005460018060a01b03199133838316176000553391167f8be0079c531659141344cd1fd0a4f28419497f9722a3daafe3b4186f6b6457e0600080a360018055600c8054919091169190911790556101f4600d556008602052674563918244f400007f5eff886ea0ce6ca488a3d6e336d6c0f75f46d19b42c06ce5ee98e42c96d256c7819055678ac7230489e800007fad67d757c34507f157cacfa2e3153e9f260a2244f30428821be7be64587ac55f81905568015af1d78b58c400007f6add646517a5b0f6793cd5891b7937d28a5b2981a5d88ebc7cd776088fea9041557f625b35f5e76f098dd7c3a05b10e2e5e78a4a01228d60c3b143426cdf36d2645581905560046000526802b5e3af16b18800007f9321edea6e3be4df59a344b401fab4f888b556fda1f954244cff9204bad624b8556801158e460913d00000600955600a91909155600b55620001b262000a82565b6024620001be62000aa3565b60048152634652454560e01b90816020820152835260006020840152600160408401526207d000606084015260006080840152600060a0840152600060c0840152600060e0840152604051908152600e600482015220815180519060018060401b038211620007d8578254600181811c9116801562000a59575b6020821014620007b757601f811162000a10575b50602090601f83116001146200099e5760049392916000918362000992575b50508160011b916000199060031b1c19161781555b6020830151600182015560408301516002820155606083015160038201550190608081015115159062ff0000835461ff0060a0840151151560081b169060ff63ff00000060e060c08701511515960151151560181b1695169063ffffffff191617179160101b1617179055620002f562000a82565b620002ff62000aa3565b6005815264424153494360d81b6020820152815268019274b259f654000060208201526005604082015262500000606082015260006080820152600060a0820152600160c0820152600060e0820152602560405164424153494360d81b8152600e600582015220815180519060018060401b038211620007d8578254600181811c9116801562000987575b6020821014620007b757601f81116200093e575b50602090601f8311600114620008cc57600493929160009183620008c0575b50508160011b916000199060031b1c19161781555b60208301516001820155604083015160028201556060830151600382015501906080810151151590825461ff0060a0830151151560081b169060ff63ff00000060e062ff000060c0870151151560101b16950151151560181b1694169063ffffffff19161717171790556200044662000a82565b6200045062000aa3565b600381526250524f60e81b6020820152815268055de6a779bbac00006020820152620f423f60408201526306400000606082015260016080820152600160a0820152600160c0820152600160e082015260236040516250524f60e81b8152600e600382015220815180519060018060401b038211620007d8578254600181811c91168015620008b5575b6020821014620007b757601f81116200086c575b50602090601f8311600114620007fa57600493929160009183620007ee575b50508160011b916000199060031b1c19161781555b60208301516001820155604083015160028201556060830151600382015501906080810151151590825461ff0060a0830151151560081b169060ff63ff00000060e062ff000060c0870151151560101b16950151151560181b1694169063ffffffff19161717171790556200059662000a82565b620005a062000aa3565b600681526545535441544560d01b602082015281526810357563d481cc00006020820152620f423f6040820152631f400000606082015260016080820152600160a0820152600160c0820152600160e082015260266040516545535441544560d01b8152600e600682015220815180519060018060401b038211620007d8578254600181811c91168015620007cd575b6020821014620007b757601f81116200076e575b50602090601f8311600114620006fe57600493929160009183620006f2575b50508160011b916000199060031b1c19161781555b60208301516001820155604083015160028201556060830151600382015501906080810151151590825461ff0060a0830151151560081b169060ff63ff00000060e062ff000060c0870151151560101b16950151151560181b1694169063ffffffff1916171717179055604051612d77908162000ac48239f35b01519050388062000663565b90601f198316918460005260206000209260005b8181106200075557509160019391856004979694106200073b575b505050811b01815562000678565b015160001960f88460031b161c191690553880806200072d565b9293602060018192878601518155019501930162000712565b836000526020600020601f840160051c810160208510620007af575b601f830160051c82018110620007a257505062000644565b600081556001016200078a565b50806200078a565b634e487b7160e01b600052602260045260246000fd5b90607f169062000630565b634e487b7160e01b600052604160045260246000fd5b0151905038806200050d565b908360005260206000209160005b601f198516811062000853575091839160019360049695601f1981161062000839575b505050811b01815562000522565b015160001960f88460031b161c191690553880806200082b565b9192602060018192868501518155019401920162000808565b836000526020600020601f840160051c810160208510620008ad575b601f830160051c82018110620008a0575050620004ee565b6000815560010162000888565b508062000888565b90607f1690620004da565b015190503880620003bd565b908360005260206000209160005b601f198516811062000925575091839160019360049695601f198116106200090b575b505050811b018155620003d2565b015160001960f88460031b161c19169055388080620008fd565b91926020600181928685015181550194019201620008da565b836000526020600020601f840160051c8101602085106200097f575b601f830160051c82018110620009725750506200039e565b600081556001016200095a565b50806200095a565b90607f16906200038a565b0151905038806200026b565b908360005260206000209160005b601f1985168110620009f7575091839160019360049695601f19811610620009dd575b505050811b01815562000280565b015160001960f88460031b161c19169055388080620009cf565b91926020600181928685015181550194019201620009ac565b836000526020600020601f840160051c81016020851062000a51575b601f830160051c8201811062000a445750506200024c565b6000815560010162000a2c565b508062000a2c565b90607f169062000238565b604051631e4fbdf760e01b815260006004820152602490fd5b600080fd5b6040519061010082016001600160401b03811183821017620007d857604052565b60408051919082016001600160401b03811183821017620007d85760405256fe6080604052600436101561001257600080fd5b60003560e01c80630bb8cd4d146122de5780631d9b30c714611fac578063366636f714611ef85780633aac385814611daf5780633f4ba83a14611d45578063517bbf4614611c0957806356e4f84c146119f5578063583d259f1461184557806359be33c8146116865780635c975abb146116635780635d0298431461118b57806360a85ef51461115157806361d027b314611128578063715018a6146110cf57806372abc8b7146110935780637389c6301461105f5780637465da76146110125780637b707f0114610f185780637f33d61914610efa5780637f51bb1f14610e7657806383519a9214610cd25780638456cb5914610c785780638ab0392914610b465780638c639a8514610b285780638da5cb5b14610aff57806396bd9bfe14610983578063a0d79fb51461092b578063a90f0c911461090d578063bebe4a57146108c8578063c21446c0146108aa578063c446bac1146107ef578063cf14b9e4146107b7578063d2db53d714610799578063d58e151b1461062a578063db2e21bc146105b1578063ddaa01c414610593578063e4d2620e146104ff578063e95a644f146103c9578063f2fde38b1461033b578063f426a6f4146102845763fe551b05146101df57600080fd5b3461027f57602036600319011261027f5760043567ffffffffffffffff811161027f57602061021561022892369060040161239f565b81604051938285809451938492016124f5565b8101600e81520301902061023b81612450565b9061027b60018201546002830154906004600385015494015460405195869560ff8360181c169460ff8460101c169460ff808660081c16951693896125f3565b0390f35b600080fd5b3461027f57602036600319011261027f576004358015158061032f575b6102aa906126fa565b6000526004602052604060002060ff601182015460181c16156102f3576102eb8160056102e260036020950154600484015490612680565b91015490612680565b604051908152f35b60405162461bcd60e51b815260206004820152601460248201527309cde40c8cac2c840dac2dc4ee640e6eed2e8c6d60631b6044820152606490fd5b506003548111156102a1565b3461027f57602036600319011261027f576103546123e6565b61035c612cf7565b6001600160a01b039081169081156103b057600054826bffffffffffffffffffffffff60a01b821617600055167f8be0079c531659141344cd1fd0a4f28419497f9722a3daafe3b4186f6b6457e0600080a3005b604051631e4fbdf760e01b815260006004820152602490fd5b3461027f57602036600319011261027f5760043580600052600460205261040160018060a01b0360016040600020015416331461277d565b801515806104f3575b610413906126fa565b806000526004602052604060002060ff601182015460181c16156104ae5760ff600182015460a81c1660048110156104985761046391610455600492156127b7565b426003820155015442612680565b906040519142835260208301527f111ed4211ef860205b4d8582db1f46027644f8babac717d5618d4f43ba3c818160403393a3005b634e487b7160e01b600052602160045260246000fd5b60405162461bcd60e51b815260206004820152601c60248201527f4e6f2064656164206d616e27732073776974636820656e61626c6564000000006044820152606490fd5b5060035481111561040a565b3461027f57602036600319011261027f5761052061051b6123e6565b612bc7565b604051809160208252805160e061054561010092836020870152610120860190612518565b926020810151604086015260408101516060860152606081015160808601526080810151151560a086015260a0810151151560c086015260c081015115158286015201511515908301520390f35b3461027f57600036600319011261027f576020600a54604051908152f35b3461027f57600036600319011261027f576105ca612cf7565b6000805481908190819047906001600160a01b03165af16105e961268d565b50156105f157005b60405162461bcd60e51b815260206004820152601160248201527015da5d1a191c985dd85b0819985a5b1959607a1b6044820152606490fd5b606036600319011261027f576004356024356044359180600052600460205260018060a01b03906106668260016040600020015416331461277d565b8015158061078d575b610678906126fa565b60a061068333612bc7565b0151156107485761069860095434101561263d565b600052600460205260406000209260ff600185015460a81c166004811015610498576106c490156127b7565b60118401805463ff0000001916630100000017905562015180928084029080159082048514171561073257600485015582810292818404149015171561073257600080808093866107309660058201556003429101553490600c54165af161072a61268d565b506126bd565b005b634e487b7160e01b600052601160045260246000fd5b60405162461bcd60e51b815260206004820152601d60248201527f5570677261646520666f722064656164206d616e2773207377697463680000006044820152606490fd5b5060035481111561066f565b3461027f57600036600319011261027f576020600354604051908152f35b3461027f57602036600319011261027f576001600160a01b036107d86123e6565b166000526006602052604060002061023b81612450565b3461027f57602036600319011261027f5760043580600052600460205261082760018060a01b0360016040600020015416331461277d565b8015158061089e575b610839906126fa565b8060005260046020526001604060002001805460ff8160a81c1660048110156104985761086690156127b7565b60ff60a81b1916600160a91b17905533907fa1d1e86fc4683d85919ca0e086901a54ba5df5917501641bf9921412a9c3c25c600080a3005b50600354811115610830565b3461027f57600036600319011261027f576020600954604051908152f35b3461027f57602036600319011261027f5760206109036108e66123e6565b6001600160a01b0316600090815260076020526040902054421090565b6040519015158152f35b3461027f57600036600319011261027f576020600b54604051908152f35b3461027f57604036600319011261027f576109446123e6565b6001600160a01b031660009081526005602052604090208054602435919082101561027f57602091610975916125c5565b90546040519160031b1c8152f35b608036600319011261027f5760043567ffffffffffffffff60443581811161027f576109b390369060040161239f565b9060643590811161027f576109cc90369060040161239f565b9082600052600460205260018060a01b03926109f38460016040600020015416331461277d565b80151580610af3575b610a05906126fa565b60e0610a1033612bc7565b015115610aae57610a25600b5434101561263d565b600052600460205260406000209060ff600183015460a81c16906004821015610498576000808087601187610a8e84978b610a636107309b156127b7565b60405191610a7083612345565b602435835260208301526040820152856060820152600d8301612871565b01805462ff0000191662010000179055600c543491165af161072a61268d565b60405162461bcd60e51b815260206004820152601e60248201527f5570677261646520666f722070726f677265737369766520756e6c6f636b00006044820152606490fd5b506003548111156109fc565b3461027f57600036600319011261027f576000546040516001600160a01b039091168152602090f35b3461027f57600036600319011261027f576020600d54604051908152f35b3461027f57604036600319011261027f576024356001600160a01b03818116916004359183820361027f57610b8f9083600052600460205260016040600020015416331461277d565b81151580610c6c575b610ba1906126fa565b816000526004602052604060002060ff600182015460a81c16600481101561049857610bcd90156127b7565b6007810191846000528260205260ff60406000205416610c31576006610bf392016127f8565b826000526020526040600020600160ff198254161790557f44bc4f709c4e281b3f910c44fc3345db17a91d56de534b4ef24dd098c3b155b9600080a3005b60405162461bcd60e51b8152602060048201526013602482015272105b1c9958591e4818481c9958da5c1a595b9d606a1b6044820152606490fd5b50600354821115610b98565b3461027f57600036600319011261027f57610c91612cf7565b610c99612d23565b600160ff1960025416176002557f62e78cea01bee320cd4e420270b5ea74000d11b0c9f74754ebdbfc544b05a2586020604051338152a1005b3461027f5760208060031936011261027f57600435908160005260048152600960406000200133600052815260ff6040600020541615610e415781151580610e35575b610d1e906126fa565b8160005260048152604060002090600182019160ff835460a81c16600481101561049857610d4c90156127b7565b600b81013360005280835260ff60406000205416610dfd573360005282526040600020600160ff19825416179055600a600c820191610d8b835461275a565b80935533867f925b995df16b4bc09194e4b3ff1e8458d5cf751bf06280dd2d5662bb4c178877600080a30154811015610dc057005b825460ff60a81b1916600160a81b179092556040519182527ffdf02667baf4b7a6093b2b0af7e909614e1287bb6fb62c08865bd3141c5614e891a2005b60405162461bcd60e51b815260048101849052601060248201526f105b1c9958591e48185c1c1c9bdd995960821b6044820152606490fd5b50600354821115610d15565b6064906040519062461bcd60e51b82526004820152600e60248201526d2737ba10309033bab0b93234b0b760911b6044820152fd5b3461027f57602036600319011261027f57610e8f6123e6565b610e97612cf7565b6001600160a01b03168015610ec3576bffffffffffffffffffffffff60a01b600c541617600c55600080f35b60405162461bcd60e51b815260206004820152600f60248201526e496e76616c6964206164647265737360881b6044820152606490fd5b3461027f57602036600319011261027f576020610903600435612b5c565b3461027f5760208060031936011261027f576004359081151580611006575b610f40906126fa565b81600052600481526007604060002001336000528152610f6760ff60406000205416612833565b610f7082612b5c565b15610fc257600082815260048252604090819020600101805460ff60a81b1916600360a81b179055514281527f6b8c33a0757c7c362442f939d793806d985a73d298a8514c21ea1a3d536928079190a2005b6064906040519062461bcd60e51b82526004820152601860248201527f537769746368206e6f74207472696767657265642079657400000000000000006044820152fd5b50600354821115610f37565b3461027f57602036600319011261027f5760043580151580611053575b611038906126fa565b60005260046020526020600d60406000200154604051908152f35b5060035481111561102f565b3461027f57604036600319011261027f57600435600581101561027f57611084612cf7565b6110906024359161230f565b55005b3461027f57602036600319011261027f576020610903600435801515806110c3575b6110be906126fa565b612b0a565b506003548111156110b5565b3461027f57600036600319011261027f576110e8612cf7565b600080546001600160a01b0319811682556001600160a01b03167f8be0079c531659141344cd1fd0a4f28419497f9722a3daafe3b4186f6b6457e08280a3005b3461027f57600036600319011261027f57600c546040516001600160a01b039091168152602090f35b3461027f57602036600319011261027f576001600160a01b036111726123e6565b1660005260076020526020604060002054604051908152f35b60e036600319011261027f576005600435101561027f576003602435101561027f5767ffffffffffffffff60643581811161027f576111ce90369060040161239f565b9060843581811161027f576111e790369060040161239f565b60a43582811161027f576111ff903690600401612555565b9260c43583811161027f5761121890369060040161239f565b91611221612cd4565b611229612d23565b61123233612bc7565b9333600052600560205260406000205460408601511115611626576002600435146115d9575b600186511161158b575b61127961127060043561230f565b5434101561263d565b61128460035461275a565b9384600355846000526004602052606060406000209686885560018801805460ff60b01b60243560b01b169062ffffff60a01b1933169068ffffffffffffffffff60b81b161760ff60a01b60043560a01b1617179055604435600289015542600e8901550151600f87015580519182116114ae576113056010870154612416565b601f8111611544575b50602090601f83116001146114cf5761137194939291600091836114c4575b50508160011b916000199060031b1c19161760108601555b6040519161135283612345565b60443583526020830152604082015260006060820152600d8401612871565b600782019160060160005b8451811015611401576001906001600160a01b036113a68161139e848a612769565b5116856127f8565b806113b18389612769565b51166000528560205260406000208360ff198254161790556113d38288612769565b5116847f44bc4f709c4e281b3f910c44fc3345db17a91d56de534b4ef24dd098c3b155b9600080a30161137c565b82336000526005602052604060002090815491600160401b8310156114ae57826114329160016020950181556125c5565b81549060031b9083821b91600019901b191617905561146560008080803460018060a01b03600c54165af161072a61268d565b604051611474816004356123fc565b60443583820152817f40f38a091e9a2dfc4df4c011dd08fb6d7c767c39e099923c69563d11eebbd59e60403393a360018055604051908152f35b634e487b7160e01b600052604160045260246000fd5b01519050888061132d565b906010870160005260206000209160005b601f198516811061152c5750918391600193611371979695601f19811610611513575b505050811b016010860155611345565b015160001960f88460031b161c19169055888080611503565b919260206001819286850151815501940192016114e0565b601087016000526020600020601f840160051c810160208510611584575b601f830160051c8201811061157857505061130e565b60008155600101611562565b5080611562565b60c08501516112625760405162461bcd60e51b815260206004820152601b60248201527f5570677261646520666f72206d756c74692d726563697069656e7400000000006044820152606490fd5b608085015161125857606460405162461bcd60e51b815260206004820152602060248201527f5570677261646520746f20756e6c6f636b20766964656f2063617073756c65736044820152fd5b60405162461bcd60e51b815260206004820152601560248201527410d85c1cdd5b19481b1a5b5a5d081c995858da1959605a1b6044820152606490fd5b3461027f57600036600319011261027f57602060ff600254166040519015158152f35b3461027f57604036600319011261027f5760243560043580151580611839575b6116af906126fa565b806000526020916004835260076040600020013360005283526116d960ff60406000205416612833565b8160005260048352600d604060002001805482101561180457816116fc9161273e565b5091825442106117ca5760038301805460ff811661178c579161027b9391600161177f979460ff19161790556040519182527f663589242dc1e7796afac507ef8fbdedc2b32ed0eb136aeb8809da0d7139293c833393a361176b600261176460018601612450565b9401612450565b604051948594604086526040860190612518565b9184830390850152612518565b60405162461bcd60e51b815260048101879052601660248201527514dd1859d948185b1c9958591e481d5b9b1bd8dad95960521b6044820152606490fd5b60405162461bcd60e51b815260048101859052601260248201527114dd1859d9481cdd1a5b1b081b1bd8dad95960721b6044820152606490fd5b60405162461bcd60e51b815260048101859052600d60248201526c496e76616c696420737461676560981b6044820152606490fd5b506003548111156116a6565b3461027f57606036600319011261027f576024600435813567ffffffffffffffff811161027f5761187a903690600401612555565b906044803593826000526020600460205260018060a01b036001946118aa8260016040600020015416331461277d565b801515806119e9575b6118bc906126fa565b600052600460205260406000209560ff600188015460a81c166004811015610498576118e890156127b7565b805188116119b057929695949360098601939060088701906000875b611912575b600a89018a9055005b83518110156119ab57846119268286612769565b5116156119755799878b61194987611941849d9e9f89612769565b5116866127f8565b866119548288612769565b511660005288885260406000208260ff1982541617905501909a9998611904565b60405162461bcd60e51b8152600481018790526010818d01526f24b73b30b634b21033bab0b93234b0b760811b81840152606490fd5b611909565b60405162461bcd60e51b8152602060048201526011602482015270125b9d985b1a59081d1a1c995cda1bdb19607a1b6044820152606490fd5b506003548111156118b3565b3461027f5760208060031936011261027f5760043580151580611bfd575b611a1c906126fa565b60009081526004825260408120600d01805490825b828110611bcd5750611a5b611a458461253d565b93611a536040519586612361565b80855261253d565b601f19018460005b828110611b9d5750505060009060005b838110611b0d57604080518781528651818901819052600092600582901b8301810191898b01918b9085015b828710611aac5785850386f35b909192938280600192603f19898203018552875190611af1611adf60808451845285850151908087860152840190612518565b60408401518382036040850152612518565b9160608091015115159101529601920196019592919092611a9f565b611b17818361273e565b5054421015611b29575b600101611a73565b91611b95600191611b3a858561273e565b5060ff600360405192611b4c84612345565b80548452611b5b878201612450565b8c850152611b6b60028201612450565b604085015201541615156060820152611b848289612769565b52611b8f8188612769565b5061275a565b929050611b21565b604051611ba981612345565b60008152600060608085840152806040840152820152828288010152018590611a63565b611bd7818361273e565b5054421015611be9575b600101611a31565b92611bf560019161275a565b939050611be1565b50600354811115611a13565b3461027f57602036600319011261027f57600435600052600460205260606040600020805460018201546002830154906003840154936004810154936005820154600a830154600c840154600e85015491600f860154936011611c6e60108901612450565b97015499611caf6040519d8e61024099815260018060a01b038c166020820152611ca28c60ff604084019160a01c166123fc565b0160ff8b60a81c16612409565b600360ff8a60b01c161015610498578c9b60ff9a60a08e8d611d0d9d60b01c166080820152015260c08d015260e08c01526101008b01526101208a0152610140890152610160880152610180870152806101a0870152850190612518565b9181811615156101c0850152818160081c1615156101e0850152818160101c16151561020085015260181c1615156102208301520390f35b3461027f57600036600319011261027f57611d5e612cf7565b60025460ff811615611d9d5760ff19166002557f5db9ee0a495bf2e6ff9c91a7834c1ba4fdd244a5e8aa4e537bd38aeae4b073aa6020604051338152a1005b604051638dfc202b60e01b8152600490fd5b3461027f5760208060031936011261027f5760043580151580611eec575b611dd6906126fa565b6000526004815260406000209081549160019260018201549360018060a01b0391600284015494600e8501546011600687019601549760405191828489549182815201908199600052856000209060005b818110611ed75750505083611e3d910384612361565b60405198611e7861012093848c01978c52898116878d0152611e6860408d0160ff8360a01c166123fc565b60ff60608d019160a81c16612409565b60808a015260a089015260c088015251809252610140860194936000905b838210611ec05787808860ff8c818160181c16151560e085015260101c1615156101008301520390f35b855181168752958201959482019490840190611e96565b82548b16845292870192918901918901611e27565b50600354811115611dcd565b3461027f5760208060031936011261027f576001600160a01b03611f1a6123e6565b1660005260058152604060002060405190818382549182815201908192600052846000209060005b86828210611f98578686611f5882880383612361565b604051928392818401908285525180915260408401929160005b828110611f8157505050500390f35b835185528695509381019392810192600101611f72565b835485529093019260019283019201611f42565b602036600319011261027f5767ffffffffffffffff60043581811161027f57611fd990369060040161239f565b611fe1612cd4565b6040516020818351611ff681838588016124f5565b8101600e8152030190206040519061200d82612328565b61201681612450565b825260ff60046001830154928360208601526002810154604086015260038101546060860152015481811615156080850152818160081c16151560a0850152818160101c16151560c085015260181c16151560e0830152156122aa57612082602082015134101561263d565b336000526006602052604060002081519384519081116114ae576120a68254612416565b601f8111612266575b506020601f82116001146121f957819060049495966000926121ee575b50508160011b916000199060031b1c19161781555b602083015160018201556040830151600282015560608301516003820155019061211d60808201511515839060ff801983541691151516179055565b60a0810151151590825461ff0063ff00000060e062ff000060c0860151151560101b16940151151560181b169360081b169063ffffff00191617171790556301e1338042018042116107325733600052600760205260406000205561219660008080803460018060a01b03600c54165af161072a61268d565b3360005260076020527fd3a0d4c6fb024554316f1122074a9d46118fadfecb90d5c41812a242c2106dfb604060002054916121dc60405191604083526040830190612518565b9260208201528033930390a260018055005b0151905086806120cc565b8260005260206000209560005b601f198416811061224e57509582916004959697600194601f19811610612235575b505050811b0181556120e1565b015160001960f88460031b161c19169055868080612228565b82820151885560019097019660209283019201612206565b826000526020600020601f830160051c8101602084106122a3575b601f830160051c820181106122975750506120af565b60008155600101612281565b5080612281565b60405162461bcd60e51b815260206004820152600c60248201526b24b73b30b634b2103a34b2b960a11b6044820152606490fd5b3461027f57602036600319011261027f57600435600581101561027f5761230660209161230f565b54604051908152f35b6005811015610498576000526008602052604060002090565b610100810190811067ffffffffffffffff8211176114ae57604052565b6080810190811067ffffffffffffffff8211176114ae57604052565b90601f8019910116810190811067ffffffffffffffff8211176114ae57604052565b67ffffffffffffffff81116114ae57601f01601f191660200190565b81601f8201121561027f578035906123b682612383565b926123c46040519485612361565b8284526020838301011161027f57816000926020809301838601378301015290565b600435906001600160a01b038216820361027f57565b9060058210156104985752565b9060048210156104985752565b90600182811c92168015612446575b602083101461243057565b634e487b7160e01b600052602260045260246000fd5b91607f1691612425565b9060405191826000825461246381612416565b908184526020946001916001811690816000146124d35750600114612494575b50505061249292500383612361565b565b600090815285812095935091905b8183106124bb5750506124929350820101388080612483565b855488840185015294850194879450918301916124a2565b9250505061249294925060ff191682840152151560051b820101388080612483565b60005b8381106125085750506000910152565b81810151838201526020016124f8565b90602091612531815180928185528580860191016124f5565b601f01601f1916010190565b67ffffffffffffffff81116114ae5760051b60200190565b9080601f8301121561027f57602090823561256f8161253d565b9361257d6040519586612361565b81855260208086019260051b82010192831161027f57602001905b8282106125a6575050505090565b81356001600160a01b038116810361027f578152908301908301612598565b80548210156125dd5760005260206000200190600090565b634e487b7160e01b600052603260045260246000fd5b9693909261261160e097949a9996939a610100808b528a0190612518565b9960208901526040880152606087015215156080860152151560a0850152151560c08401521515910152565b1561264457565b60405162461bcd60e51b8152602060048201526014602482015273125b9cdd59999a58da595b9d081c185e5b595b9d60621b6044820152606490fd5b9190820180921161073257565b3d156126b8573d9061269e82612383565b916126ac6040519384612361565b82523d6000602084013e565b606090565b156126c457565b60405162461bcd60e51b815260206004820152600e60248201526d14185e5b595b9d0819985a5b195960921b6044820152606490fd5b1561270157565b60405162461bcd60e51b815260206004820152601560248201527410d85c1cdd5b1948191bd95cdb89dd08195e1a5cdd605a1b6044820152606490fd5b80548210156125dd5760005260206000209060021b0190600090565b60001981146107325760010190565b80518210156125dd5760209160051b010190565b1561278457565b60405162461bcd60e51b815260206004820152600b60248201526a2737ba1031b932b0ba37b960a91b6044820152606490fd5b156127be57565b60405162461bcd60e51b815260206004820152601260248201527143617073756c65206e6f742061637469766560701b6044820152606490fd5b8054600160401b8110156114ae57612815916001820181556125c5565b60018060a09493941b038084549260031b9316831b921b1916179055565b1561283a57565b60405162461bcd60e51b815260206004820152600f60248201526e139bdd0818481c9958da5c1a595b9d608a1b6044820152606490fd5b908154600160401b8110156114ae5761289190600193848201815561273e565b919091612af4578051825582820192602093848301519182519167ffffffffffffffff928381116114ae57806128c78354612416565b95601f96878111612aa0575b508990878311600114612a3d57600092612a32575b5050600019600383901b1c191690831b1790555b600285019260408501519687519384116114ae5761291a8554612416565b8281116129ec575b5080918411600114612979575091808060609593600397956124929a60009461296e575b50501b9160001990871b1c19161790555b0151151591019060ff801983541691151516179055565b015192503880612946565b9193949596601f1984168660005283600020936000905b8282106129d5575050926060959285926124929a999660039996106129bd575b505050811b019055612957565b015160001983891b60f8161c191690553880806129b0565b808886978294978701518155019601940190612990565b85600052816000208380870160051c820192848810612a29575b0160051c019084905b828110612a1d575050612922565b60008155018490612a0f565b92508192612a06565b0151905038806128e8565b90859350601f19831691856000528b6000209260005b8d828210612a8a5750508411612a71575b505050811b0190556128fc565b015160001960f88460031b161c19169055388080612a64565b8385015186558997909501949384019301612a53565b9091506000846000528a6000208880860160051c8201938d8710612aeb575b91889187969594930160051c01925b838110612add575050506128d3565b828155869550889101612ace565b93508193612abf565b634e487b7160e01b600052600060045260246000fd5b6000526004602052604060002060ff600182015460a81c1660048110156104985760018114612b5557600314612b4f5760020154421015612b4a57600090565b600190565b50600190565b5050600190565b612b779080151580612b7a575b612b72906126fa565b612b86565b90565b50600354811115612b69565b6000526004602052604060002060ff601182015460181c1615612bc1578060056102e26003612bbc940154600484015490612680565b421190565b50600090565b60e06040918251612bd781612328565b60608152600092818460208194015282868201528260608201528260808201528260a08201528260c0820152015282612c258260018060a01b03166000526007602052604060002054421090565b612cae5760ff92506004915060249051634652454560e01b8152600e8382015220835193612c5285612328565b612c5b82612450565b85526001820154602086015260028201549085015260038101546060850152015481811615156080840152818160081c16151560a0840152818160101c16151560c084015260181c16151560e082015290565b6001600160a01b0390911682526006602052902081519160ff91600491612c5285612328565b600260015414612ce5576002600155565b604051633ee5aeb560e01b8152600490fd5b6000546001600160a01b03163303612d0b57565b60405163118cdaa760e01b8152336004820152602490fd5b60ff60025416612d2f57565b60405163d93c066560e01b8152600490fdfea26469706673582212202590fc9936e1bb9bc3871a22099ca503e717b3763d1083bfdb94f2953b13146d64736f6c63430008180033",
  "linkReferences": {},
  "deployedLinkReferences": {}
}