{
  "_format": "hh-sol-artifact-1",
  "contractName": "MarketMood",
  "sourceName": "contracts/MarketMood.sol",
  "abi": [
    {
      "inputs": [
        {
          "internalType": "address",
          "name": "initialOwner",
          "type": "address"
        }
      ],
      "stateMutability": "nonpayable",
      "type": "constructor"
    },
    {
      "inputs": [
        {
          "internalType": "uint256",
          "name": "numerator",
          "type": "uint256"
        },
        {
          "internalType": "uint256",
          "name": "denominator",
          "type": "uint256"
        }
      ],
      "name": "ERC2981InvalidDefaultRoyalty",
      "type": "error"
    },
    {
      "inputs": [
        {
          "internalType": "address",
          "name": "receiver",
          "type": "address"
        }
      ],
      "name": "ERC2981InvalidDefaultRoyaltyReceiver",
      "type": "error"
    },
    {
      "inputs": [
        {
          "internalType": "uint256",
          "name": "tokenId",
          "type": "uint256"
        },
        {
          "internalType": "uint256",
          "name": "numerator",
          "type": "uint256"
        },
        {
          "internalType": "uint256",
          "name": "denominator",
          "type": "uint256"
        }
      ],
      "name": "ERC2981InvalidTokenRoyalty",
      "type": "error"
    },
    {
      "inputs": [
        {
          "internalType": "uint256",
          "name": "tokenId",
          "type": "uint256"
        },
        {
          "internalType": "address",
          "name": "receiver",
          "type": "address"
        }
      ],
      "name": "ERC2981InvalidTokenRoyaltyReceiver",
      "type": "error"
    },
    {
      "inputs": [
        {
          "internalType": "address",
          "name": "sender",
          "type": "address"
        },
        {
          "internalType": "uint256",
          "name": "tokenId",
          "type": "uint256"
        },
        {
          "internalType": "address",
          "name": "owner",
          "type": "address"
        }
      ],
      "name": "ERC721IncorrectOwner",
      "type": "error"
    },
    {
      "inputs": [
        {
          "internalType": "address",
          "name": "operator",
          "type": "address"
        },
        {
          "internalType": "uint256",
          "name": "tokenId",
          "type": "uint256"
        }
      ],
      "name": "ERC721InsufficientApproval",
      "type": "error"
    },
    {
      "inputs": [
        {
          "internalType": "address",
          "name": "approver",
          "type": "address"
        }
      ],
      "name": "ERC721InvalidApprover",
      "type": "error"
    },
    {
      "inputs": [
        {
          "internalType": "address",
          "name": "operator",
          "type": "address"
        }
      ],
      "name": "ERC721InvalidOperator",
      "type": "error"
    },
    {
      "inputs": [
        {
          "internalType": "address",
          "name": "owner",
          "type": "address"
        }
      ],
      "name": "ERC721InvalidOwner",
      "type": "error"
    },
    {
      "inputs": [
        {
          "internalType": "address",
          "name": "receiver",
          "type": "address"
        }
      ],
      "name": "ERC721InvalidReceiver",
      "type": "error"
    },
    {
      "inputs": [
        {
          "internalType": "address",
          "name": "sender",
          "type": "address"
        }
      ],
      "name": "ERC721InvalidSender",
      "type": "error"
    },
    {
      "inputs": [
        {
          "internalType": "uint256",
          "name": "tokenId",
          "type": "uint256"
        }
      ],
      "name": "ERC721NonexistentToken",
      "type": "error"
    },
    {
      "inputs": [
        {
          "internalType": "address",
          "name": "owner",
          "type": "address"
        }
      ],
      "name": "OwnableInvalidOwner",
      "type": "error"
    },
    {
      "inputs": [
        {
          "internalType": "address",
          "name": "account",
          "type": "address"
        }
      ],
      "name": "OwnableUnauthorizedAccount",
      "type": "error"
    },
    {
      "anonymous": false,
      "inputs": [
        {
          "indexed": true,
          "internalType": "address",
          "name": "owner",
          "type": "address"
        },
        {
          "indexed": true,
          "internalType": "address",
          "name": "approved",
          "type": "address"
        },
        {
          "indexed": true,
          "internalType": "uint256",
          "name": "tokenId",
          "type": "uint256"
        }
      ],
      "name": "Approval",
      "type": "event"
    },
    {
      "anonymous": false,
      "inputs": [
        {
          "indexed": true,
          "internalType": "address",
          "name": "owner",
          "type": "address"
        },
        {
          "indexed": true,
          "internalType": "address",
          "name": "operator",
          "type": "address"
        },
        {
          "indexed": false,
          "internalType": "bool",
          "name": "approved",
          "type": "bool"
        }
      ],
      "name": "ApprovalForAll",
      "type": "event"
    },
    {
      "anonymous": false,
      "inputs": [
        {
          "indexed": true,
          "internalType": "address",
          "name": "previousOwner",
          "type": "address"
        },
        {
          "indexed": true,
          "internalType": "address",
          "name": "newOwner",
          "type": "address"
        }
      ],
      "name": "OwnershipTransferred",
      "type": "event"
    },
    {
      "anonymous": false,
      "inputs": [
        {
          "indexed": true,
          "internalType": "address",
          "name": "from",
          "type": "address"
        },
        {
          "indexed": true,
          "internalType": "address",
          "name": "to",
          "type": "address"
        },
        {
          "indexed": true,
          "internalType": "uint256",
          "name": "tokenId",
          "type": "uint256"
        }
      ],
      "name": "Transfer",
      "type": "event"
    },
    {
      "inputs": [
        {
          "internalType": "address",
          "name": "to",
          "type": "address"
        },
        {
          "internalType": "uint256",
          "name": "tokenId",
          "type": "uint256"
        }
      ],
      "name": "approve",
      "outputs": [],
      "stateMutability": "nonpayable",
      "type": "function"
    },
    {
      "inputs": [
        {
          "internalType": "address",
          "name": "owner",
          "type": "address"
        }
      ],
      "name": "balanceOf",
      "outputs": [
        {
          "internalType": "uint256",
          "name": "",
          "type": "uint256"
        }
      ],
      "stateMutability": "view",
      "type": "function"
    },
    {
      "inputs": [
        {
          "internalType": "uint256",
          "name": "tokenId",
          "type": "uint256"
        }
      ],
      "name": "burn",
      "outputs": [],
      "stateMutability": "nonpayable",
      "type": "function"
    },
    {
      "inputs": [
        {
          "internalType": "uint256",
          "name": "tokenId",
          "type": "uint256"
        }
      ],
      "name": "getApproved",
      "outputs": [
        {
          "internalType": "address",
          "name": "",
          "type": "address"
        }
      ],
      "stateMutability": "view",
      "type": "function"
    },
    {
      "inputs": [
        {
          "internalType": "address",
          "name": "owner",
          "type": "address"
        },
        {
          "internalType": "address",
          "name": "operator",
          "type": "address"
        }
      ],
      "name": "isApprovedForAll",
      "outputs": [
        {
          "internalType": "bool",
          "name": "",
          "type": "bool"
        }
      ],
      "stateMutability": "view",
      "type": "function"
    },
    {
      "inputs": [],
      "name": "name",
      "outputs": [
        {
          "internalType": "string",
          "name": "",
          "type": "string"
        }
      ],
      "stateMutability": "view",
      "type": "function"
    },
    {
      "inputs": [],
      "name": "owner",
      "outputs": [
        {
          "internalType": "address",
          "name": "",
          "type": "address"
        }
      ],
      "stateMutability": "view",
      "type": "function"
    },
    {
      "inputs": [
        {
          "internalType": "uint256",
          "name": "tokenId",
          "type": "uint256"
        }
      ],
      "name": "ownerOf",
      "outputs": [
        {
          "internalType": "address",
          "name": "",
          "type": "address"
        }
      ],
      "stateMutability": "view",
      "type": "function"
    },
    {
      "inputs": [],
      "name": "renounceOwnership",
      "outputs": [],
      "stateMutability": "nonpayable",
      "type": "function"
    },
    {
      "inputs": [
        {
          "internalType": "uint256",
          "name": "tokenId",
          "type": "uint256"
        },
        {
          "internalType": "uint256",
          "name": "salePrice",
          "type": "uint256"
        }
      ],
      "name": "royaltyInfo",
      "outputs": [
        {
          "internalType": "address",
          "name": "",
          "type": "address"
        },
        {
          "internalType": "uint256",
          "name": "",
          "type": "uint256"
        }
      ],
      "stateMutability": "view",
      "type": "function"
    },
    {
      "inputs": [
        {
          "internalType": "address",
          "name": "to",
          "type": "address"
        }
      ],
      "name": "safeMint",
      "outputs": [
        {
          "internalType": "uint256",
          "name": "",
          "type": "uint256"
        }
      ],
      "stateMutability": "nonpayable",
      "type": "function"
    },
    {
      "inputs": [
        {
          "internalType": "address",
          "name": "from",
          "type": "address"
        },
        {
          "internalType": "address",
          "name": "to",
          "type": "address"
        },
        {
          "internalType": "uint256",
          "name": "tokenId",
          "type": "uint256"
        }
      ],
      "name": "safeTransferFrom",
      "outputs": [],
      "stateMutability": "nonpayable",
      "type": "function"
    },
    {
      "inputs": [
        {
          "internalType": "address",
          "name": "from",
          "type": "address"
        },
        {
          "internalType": "address",
          "name": "to",
          "type": "address"
        },
        {
          "internalType": "uint256",
          "name": "tokenId",
          "type": "uint256"
        },
        {
          "internalType": "bytes",
          "name": "data",
          "type": "bytes"
        }
      ],
      "name": "safeTransferFrom",
      "outputs": [],
      "stateMutability": "nonpayable",
      "type": "function"
    },
    {
      "inputs": [
        {
          "internalType": "address",
          "name": "operator",
          "type": "address"
        },
        {
          "internalType": "bool",
          "name": "approved",
          "type": "bool"
        }
      ],
      "name": "setApprovalForAll",
      "outputs": [],
      "stateMutability": "nonpayable",
      "type": "function"
    },
    {
      "inputs": [
        {
          "internalType": "string",
          "name": "newBaseURI",
          "type": "string"
        }
      ],
      "name": "setBaseURI",
      "outputs": [],
      "stateMutability": "nonpayable",
      "type": "function"
    },
    {
      "inputs": [
        {
          "internalType": "bytes4",
          "name": "interfaceId",
          "type": "bytes4"
        }
      ],
      "name": "supportsInterface",
      "outputs": [
        {
          "internalType": "bool",
          "name": "",
          "type": "bool"
        }
      ],
      "stateMutability": "view",
      "type": "function"
    },
    {
      "inputs": [],
      "name": "symbol",
      "outputs": [
        {
          "internalType": "string",
          "name": "",
          "type": "string"
        }
      ],
      "stateMutability": "view",
      "type": "function"
    },
    {
      "inputs": [
        {
          "internalType": "uint256",
          "name": "tokenId",
          "type": "uint256"
        }
      ],
      "name": "tokenURI",
      "outputs": [
        {
          "internalType": "string",
          "name": "",
          "type": "string"
        }
      ],
      "stateMutability": "view",
      "type": "function"
    },
    {
      "inputs": [
        {
          "internalType": "address",
          "name": "from",
          "type": "address"
        },
        {
          "internalType": "address",
          "name": "to",
          "type": "address"
        },
        {
          "internalType": "uint256",
          "name": "tokenId",
          "type": "uint256"
        }
      ],
      "name": "transferFrom",
      "outputs": [],
      "stateMutability": "nonpayable",
      "type": "function"
    },
    {
      "inputs": [
        {
          "internalType": "address",
          "name": "newOwner",
          "type": "address"
        }
      ],
      "name": "transferOwnership",
      "outputs": [],
      "stateMutability": "nonpayable",
      "type": "function"
    }
  ],
  "bytecode": "0x60806040523480156200001157600080fd5b506040516200181d3803806200181d8339810160408190526200003491620001e4565b806040518060400160405280600b81526020016a13585c9ad95d08135bdbd960aa1b81525060405180604001604052806005815260200164135353d3d160da1b8152508160009081620000889190620002bb565b506001620000978282620002bb565b5050506001600160a01b038116620000ca57604051631e4fbdf760e01b8152600060048201526024015b60405180910390fd5b620000d581620000eb565b50620000e4816101f46200013d565b5062000387565b600680546001600160a01b038381166001600160a01b0319831681179093556040519116919082907f8be0079c531659141344cd1fd0a4f28419497f9722a3daafe3b4186f6b6457e090600090a35050565b6127106001600160601b0382168110156200017e57604051636f483d0960e01b81526001600160601b038316600482015260248101829052604401620000c1565b6001600160a01b038316620001aa57604051635b6cc80560e11b815260006004820152602401620000c1565b50604080518082019091526001600160a01b039092168083526001600160601b039091166020909201829052600160a01b90910217600755565b600060208284031215620001f757600080fd5b81516001600160a01b03811681146200020f57600080fd5b9392505050565b634e487b7160e01b600052604160045260246000fd5b600181811c908216806200024157607f821691505b6020821081036200026257634e487b7160e01b600052602260045260246000fd5b50919050565b601f821115620002b657600081815260208120601f850160051c81016020861015620002915750805b601f850160051c820191505b81811015620002b2578281556001016200029d565b5050505b505050565b81516001600160401b03811115620002d757620002d762000216565b620002ef81620002e884546200022c565b8462000268565b602080601f8311600181146200032757600084156200030e5750858301515b600019600386901b1c1916600185901b178555620002b2565b600085815260208120601f198616915b82811015620003585788860151825594840194600190910190840162000337565b5085821015620003775787850151600019600388901b60f8161c191681555b5050505050600190811b01905550565b61148680620003976000396000f3fe608060405234801561001057600080fd5b506004361061012c5760003560e01c80636352211e116100ad578063a22cb46511610071578063a22cb46514610294578063b88d4fde146102a7578063c87b56dd146102ba578063e985e9c5146102cd578063f2fde38b146102e057600080fd5b80636352211e1461024d57806370a0823114610260578063715018a6146102735780638da5cb5b1461027b57806395d89b411461028c57600080fd5b80632a55205a116100f45780632a55205a146101c157806340d097c3146101f357806342842e0e1461021457806342966c681461022757806355f804b31461023a57600080fd5b806301ffc9a71461013157806306fdde0314610159578063081812fc1461016e578063095ea7b31461019957806323b872dd146101ae575b600080fd5b61014461013f366004610ef4565b6102f3565b60405190151581526020015b60405180910390f35b610161610304565b6040516101509190610f61565b61018161017c366004610f74565b610396565b6040516001600160a01b039091168152602001610150565b6101ac6101a7366004610fa4565b6103bf565b005b6101ac6101bc366004610fce565b6103ce565b6101d46101cf36600461100a565b61045e565b604080516001600160a01b039093168352602083019190915201610150565b61020661020136600461102c565b61050a565b604051908152602001610150565b6101ac610222366004610fce565b61053d565b6101ac610235366004610f74565b61055d565b6101ac6102483660046110d3565b61057a565b61018161025b366004610f74565b61058e565b61020661026e36600461102c565b610599565b6101ac6105e1565b6006546001600160a01b0316610181565b6101616105f5565b6101ac6102a236600461111c565b610604565b6101ac6102b5366004611158565b61060f565b6101616102c8366004610f74565b610626565b6101446102db3660046111d4565b61068e565b6101ac6102ee36600461102c565b6106bc565b60006102fe826106f7565b92915050565b60606000805461031390611207565b80601f016020809104026020016040519081016040528092919081815260200182805461033f90611207565b801561038c5780601f106103615761010080835404028352916020019161038c565b820191906000526020600020905b81548152906001019060200180831161036f57829003601f168201915b5050505050905090565b60006103a18261071c565b506000828152600460205260409020546001600160a01b03166102fe565b6103ca828233610755565b5050565b6001600160a01b0382166103fd57604051633250574960e11b8152600060048201526024015b60405180910390fd5b600061040a838333610762565b9050836001600160a01b0316816001600160a01b031614610458576040516364283d7b60e01b81526001600160a01b03808616600483015260248201849052821660448201526064016103f4565b50505050565b60008281526008602090815260408083208151808301909252546001600160a01b038116808352600160a01b9091046001600160601b03169282019290925282916104d35750604080518082019091526007546001600160a01b0381168252600160a01b90046001600160601b031660208201525b6020810151600090612710906104f2906001600160601b031687611257565b6104fc919061126e565b915196919550909350505050565b600061051461085b565b60098054908190600061052683611290565b91905055506105358382610888565b90505b919050565b6105588383836040518060200160405280600081525061060f565b505050565b610566816108a2565b600090815260086020526040812055565b50565b61058261085b565b600a6103ca82826112f7565b60006102fe8261071c565b60006001600160a01b0382166105c5576040516322718ad960e21b8152600060048201526024016103f4565b506001600160a01b031660009081526003602052604090205490565b6105e961085b565b6105f360006108ae565b565b60606001805461031390611207565b6103ca338383610900565b61061a8484846103ce565b6104588484848461099f565b60606106318261058e565b50600061063c610ac8565b9050600081511161065c5760405180602001604052806000815250610687565b8061066684610ad7565b6040516020016106779291906113b7565b6040516020818303038152906040525b9392505050565b6001600160a01b03918216600090815260056020908152604080832093909416825291909152205460ff1690565b6106c461085b565b6001600160a01b0381166106ee57604051631e4fbdf760e01b8152600060048201526024016103f4565b610577816108ae565b60006001600160e01b0319821663152a902d60e11b14806102fe57506102fe82610b6a565b6000818152600260205260408120546001600160a01b03168061053557604051637e27328960e01b8152600481018490526024016103f4565b6105588383836001610bba565b6000828152600260205260408120546001600160a01b039081169083161561078f5761078f818486610cc0565b6001600160a01b038116156107cd576107ac600085600080610bba565b6001600160a01b038116600090815260036020526040902080546000190190555b6001600160a01b038516156107fc576001600160a01b0385166000908152600360205260409020805460010190555b60008481526002602052604080822080546001600160a01b0319166001600160a01b0389811691821790925591518793918516917fddf252ad1be2c89b69c2b068fc378daa952ba7f163c4a11628f55a4df523b3ef91a4949350505050565b6006546001600160a01b031633146105f35760405163118cdaa760e01b81523360048201526024016103f4565b6103ca828260405180602001604052806000815250610d24565b6103ca60008233610762565b600680546001600160a01b038381166001600160a01b0319831681179093556040519116919082907f8be0079c531659141344cd1fd0a4f28419497f9722a3daafe3b4186f6b6457e090600090a35050565b6001600160a01b03821661093257604051630b61174360e31b81526001600160a01b03831660048201526024016103f4565b6001600160a01b03838116600081815260056020908152604080832094871680845294825291829020805460ff191686151590811790915591519182527f17307eab39ab6107e8899845ad3d59bd9653f200f220920489ca2b5937696c31910160405180910390a3505050565b6001600160a01b0383163b1561045857604051630a85bd0160e11b81526001600160a01b0384169063150b7a02906109e19033908890879087906004016113f6565b6020604051808303816000875af1925050508015610a1c575060408051601f3d908101601f19168201909252610a1991810190611433565b60015b610a85573d808015610a4a576040519150601f19603f3d011682016040523d82523d6000602084013e610a4f565b606091505b508051600003610a7d57604051633250574960e11b81526001600160a01b03851660048201526024016103f4565b805181602001fd5b6001600160e01b03198116630a85bd0160e11b14610ac157604051633250574960e11b81526001600160a01b03851660048201526024016103f4565b5050505050565b6060600a805461031390611207565b60606000610ae483610d3b565b600101905060008167ffffffffffffffff811115610b0457610b04611047565b6040519080825280601f01601f191660200182016040528015610b2e576020820181803683370190505b5090508181016020015b600019016f181899199a1a9b1b9c1cb0b131b232b360811b600a86061a8153600a8504945084610b3857509392505050565b60006001600160e01b031982166380ac58cd60e01b1480610b9b57506001600160e01b03198216635b5e139f60e01b145b806102fe57506301ffc9a760e01b6001600160e01b03198316146102fe565b8080610bce57506001600160a01b03821615155b15610c90576000610bde8461071c565b90506001600160a01b03831615801590610c0a5750826001600160a01b0316816001600160a01b031614155b8015610c1d5750610c1b818461068e565b155b15610c465760405163a9fbf51f60e01b81526001600160a01b03841660048201526024016103f4565b8115610c8e5783856001600160a01b0316826001600160a01b03167f8c5be1e5ebec7d5bd14f71427d1e84f3dd0314c0f7b2291e5b200ac8c7c3b92560405160405180910390a45b505b5050600090815260046020526040902080546001600160a01b0319166001600160a01b0392909216919091179055565b610ccb838383610e13565b610558576001600160a01b038316610cf957604051637e27328960e01b8152600481018290526024016103f4565b60405163177e802f60e01b81526001600160a01b0383166004820152602481018290526044016103f4565b610d2e8383610e79565b610558600084848461099f565b60008072184f03e93ff9f4daa797ed6e38ed64bf6a1f0160401b8310610d7a5772184f03e93ff9f4daa797ed6e38ed64bf6a1f0160401b830492506040015b6d04ee2d6d415b85acef81000000008310610da6576d04ee2d6d415b85acef8100000000830492506020015b662386f26fc100008310610dc457662386f26fc10000830492506010015b6305f5e1008310610ddc576305f5e100830492506008015b6127108310610df057612710830492506004015b60648310610e02576064830492506002015b600a83106105355760010192915050565b60006001600160a01b03831615801590610e715750826001600160a01b0316846001600160a01b03161480610e4d5750610e4d848461068e565b80610e7157506000828152600460205260409020546001600160a01b038481169116145b949350505050565b6001600160a01b038216610ea357604051633250574960e11b8152600060048201526024016103f4565b6000610eb183836000610762565b90506001600160a01b03811615610558576040516339e3563760e11b8152600060048201526024016103f4565b6001600160e01b03198116811461057757600080fd5b600060208284031215610f0657600080fd5b813561068781610ede565b60005b83811015610f2c578181015183820152602001610f14565b50506000910152565b60008151808452610f4d816020860160208601610f11565b601f01601f19169290920160200192915050565b6020815260006106876020830184610f35565b600060208284031215610f8657600080fd5b5035919050565b80356001600160a01b038116811461053857600080fd5b60008060408385031215610fb757600080fd5b610fc083610f8d565b946020939093013593505050565b600080600060608486031215610fe357600080fd5b610fec84610f8d565b9250610ffa60208501610f8d565b9150604084013590509250925092565b6000806040838503121561101d57600080fd5b50508035926020909101359150565b60006020828403121561103e57600080fd5b61068782610f8d565b634e487b7160e01b600052604160045260246000fd5b600067ffffffffffffffff8084111561107857611078611047565b604051601f8501601f19908116603f011681019082821181831017156110a0576110a0611047565b816040528093508581528686860111156110b957600080fd5b858560208301376000602087830101525050509392505050565b6000602082840312156110e557600080fd5b813567ffffffffffffffff8111156110fc57600080fd5b8201601f8101841361110d57600080fd5b610e718482356020840161105d565b6000806040838503121561112f57600080fd5b61113883610f8d565b91506020830135801515811461114d57600080fd5b809150509250929050565b6000806000806080858703121561116e57600080fd5b61117785610f8d565b935061118560208601610f8d565b925060408501359150606085013567ffffffffffffffff8111156111a857600080fd5b8501601f810187136111b957600080fd5b6111c88782356020840161105d565b91505092959194509250565b600080604083850312156111e757600080fd5b6111f083610f8d565b91506111fe60208401610f8d565b90509250929050565b600181811c9082168061121b57607f821691505b60208210810361123b57634e487b7160e01b600052602260045260246000fd5b50919050565b634e487b7160e01b600052601160045260246000fd5b80820281158282048414176102fe576102fe611241565b60008261128b57634e487b7160e01b600052601260045260246000fd5b500490565b6000600182016112a2576112a2611241565b5060010190565b601f82111561055857600081815260208120601f850160051c810160208610156112d05750805b601f850160051c820191505b818110156112ef578281556001016112dc565b505050505050565b815167ffffffffffffffff81111561131157611311611047565b6113258161131f8454611207565b846112a9565b602080601f83116001811461135a57600084156113425750858301515b600019600386901b1c1916600185901b1785556112ef565b600085815260208120601f198616915b828110156113895788860151825594840194600190910190840161136a565b50858210156113a75787850151600019600388901b60f8161c191681555b5050505050600190811b01905550565b600083516113c9818460208801610f11565b8351908301906113dd818360208801610f11565b64173539b7b760d91b9101908152600501949350505050565b6001600160a01b038581168252841660208201526040810183905260806060820181905260009061142990830184610f35565b9695505050505050565b60006020828403121561144557600080fd5b815161068781610ede56fea2646970667358221220d4ee928d321be4efbe91e4a9e7c0f439e96fd94883ce930590dc3533b055a5f764736f6c63430008140033",
  "linkReferences": {},
  "deployedLinkReferences": {}
}