{
  "contracts/EchoVaultV2.sol": {
    "EchoVaultV2": {
      "abi": [
        {
          "inputs": [],
          "stateMutability": "nonpayable",
          "type": "constructor"
        },
        {
          "anonymous": false,
          "inputs": [
            {
              "indexed": true,
              "internalType": "uint256",
              "name": "capsuleId",
              "type": "uint256"
            }
          ],
          "name": "CapsuleCancelled",
          "type": "event"
        },
        {
          "anonymous": false,
          "inputs": [
            {
              "indexed": true,
              "internalType": "uint256",
              "name": "capsuleId",
              "type": "uint256"
            },
            {
              "indexed": true,
              "internalType": "address",
              "name": "creator",
              "type": "address"
            },
            {
              "indexed": false,
              "internalType": "enum EchoVaultV2.CapsuleType",
              "name": "capsuleType",
              "type": "uint8"
            },
            {
              "indexed": false,
              "internalType": "enum EchoVaultV2.TriggerType",
              "name": "triggerType",
              "type": "uint8"
            },
            {
              "indexed": false,
              "internalType": "uint256",
              "name": "unlockTime",
              "type": "uint256"
            },
            {
              "indexed": false,
              "internalType": "uint256",
              "name": "heartbeatInterval",
              "type": "uint256"
            }
          ],
          "name": "CapsuleCreated",
          "type": "event"
        },
        {
          "anonymous": false,
          "inputs": [
            {
              "indexed": true,
              "internalType": "uint256",
              "name": "capsuleId",
              "type": "uint256"
            },
            {
              "indexed": true,
              "internalType": "address",
              "name": "unlocker",
              "type": "address"
            },
            {
              "indexed": false,
              "internalType": "bool",
              "name": "isEmergency",
              "type": "bool"
            }
          ],
          "name": "CapsuleUnlocked",
          "type": "event"
        },
        {
          "anonymous": false,
          "inputs": [
            {
              "indexed": true,
              "internalType": "uint256",
              "name": "capsuleId",
              "type": "uint256"
            },
            {
              "indexed": true,
              "internalType": "address",
              "name": "creator",
              "type": "address"
            }
          ],
          "name": "EmergencyUnlock",
          "type": "event"
        },
        {
          "anonymous": false,
          "inputs": [
            {
              "indexed": true,
              "internalType": "uint256",
              "name": "capsuleId",
              "type": "uint256"
            },
            {
              "indexed": true,
              "internalType": "address",
              "name": "checker",
              "type": "address"
            },
            {
              "indexed": false,
              "internalType": "uint256",
              "name": "timestamp",
              "type": "uint256"
            }
          ],
          "name": "HeartbeatCheckedIn",
          "type": "event"
        },
        {
          "inputs": [],
          "name": "MAX_FREE_CAPSULES",
          "outputs": [
            {
              "internalType": "uint256",
              "name": "",
              "type": "uint256"
            }
          ],
          "stateMutability": "view",
          "type": "function"
        },
        {
          "inputs": [],
          "name": "MAX_PREMIUM_CAPSULES",
          "outputs": [
            {
              "internalType": "uint256",
              "name": "",
              "type": "uint256"
            }
          ],
          "stateMutability": "view",
          "type": "function"
        },
        {
          "inputs": [],
          "name": "MAX_PRO_CAPSULES",
          "outputs": [
            {
              "internalType": "uint256",
              "name": "",
              "type": "uint256"
            }
          ],
          "stateMutability": "view",
          "type": "function"
        },
        {
          "inputs": [
            {
              "internalType": "uint256",
              "name": "_capsuleId",
              "type": "uint256"
            }
          ],
          "name": "cancelCapsule",
          "outputs": [],
          "stateMutability": "nonpayable",
          "type": "function"
        },
        {
          "inputs": [
            {
              "internalType": "uint256",
              "name": "",
              "type": "uint256"
            }
          ],
          "name": "capsuleMetadata",
          "outputs": [
            {
              "internalType": "string",
              "name": "",
              "type": "string"
            }
          ],
          "stateMutability": "view",
          "type": "function"
        },
        {
          "inputs": [
            {
              "internalType": "uint256",
              "name": "",
              "type": "uint256"
            },
            {
              "internalType": "uint256",
              "name": "",
              "type": "uint256"
            }
          ],
          "name": "capsuleStages",
          "outputs": [
            {
              "internalType": "string",
              "name": "ipfsHash",
              "type": "string"
            },
            {
              "internalType": "string",
              "name": "encryptedKeys",
              "type": "string"
            }
          ],
          "stateMutability": "view",
          "type": "function"
        },
        {
          "inputs": [
            {
              "internalType": "uint256",
              "name": "",
              "type": "uint256"
            }
          ],
          "name": "capsules",
          "outputs": [
            {
              "internalType": "uint256",
              "name": "id",
              "type": "uint256"
            },
            {
              "internalType": "address",
              "name": "creator",
              "type": "address"
            },
            {
              "internalType": "enum EchoVaultV2.CapsuleType",
              "name": "capsuleType",
              "type": "uint8"
            },
            {
              "internalType": "enum EchoVaultV2.TriggerType",
              "name": "triggerType",
              "type": "uint8"
            },
            {
              "internalType": "uint256",
              "name": "unlockTime",
              "type": "uint256"
            },
            {
              "internalType": "uint256",
              "name": "createdAt",
              "type": "uint256"
            },
            {
              "internalType": "bool",
              "name": "isUnlocked",
              "type": "bool"
            },
            {
              "internalType": "bool",
              "name": "isCancelled",
              "type": "bool"
            },
            {
              "internalType": "bool",
              "name": "isEmergencyUnlocked",
              "type": "bool"
            },
            {
              "internalType": "uint256",
              "name": "heartbeatInterval",
              "type": "uint256"
            },
            {
              "internalType": "uint256",
              "name": "lastCheckIn",
              "type": "uint256"
            }
          ],
          "stateMutability": "view",
          "type": "function"
        },
        {
          "inputs": [
            {
              "internalType": "uint256",
              "name": "_capsuleId",
              "type": "uint256"
            }
          ],
          "name": "checkIn",
          "outputs": [],
          "stateMutability": "nonpayable",
          "type": "function"
        },
        {
          "inputs": [
            {
              "internalType": "enum EchoVaultV2.CapsuleType",
              "name": "_capsuleType",
              "type": "uint8"
            },
            {
              "internalType": "enum EchoVaultV2.TriggerType",
              "name": "_triggerType",
              "type": "uint8"
            },
            {
              "internalType": "uint256",
              "name": "_unlockTime",
              "type": "uint256"
            },
            {
              "internalType": "string",
              "name": "_encryptedKeys",
              "type": "string"
            },
            {
              "internalType": "string",
              "name": "_ipfsHash",
              "type": "string"
            },
            {
              "internalType": "address[]",
              "name": "_recipients",
              "type": "address[]"
            },
            {
              "internalType": "string",
              "name": "_metadata",
              "type": "string"
            },
            {
              "internalType": "uint256",
              "name": "_heartbeatInterval",
              "type": "uint256"
            }
          ],
          "name": "createCapsule",
          "outputs": [
            {
              "internalType": "uint256",
              "name": "",
              "type": "uint256"
            }
          ],
          "stateMutability": "payable",
          "type": "function"
        },
        {
          "inputs": [
            {
              "internalType": "enum EchoVaultV2.CapsuleType",
              "name": "",
              "type": "uint8"
            }
          ],
          "name": "creationFees",
          "outputs": [
            {
              "internalType": "uint256",
              "name": "",
              "type": "uint256"
            }
          ],
          "stateMutability": "view",
          "type": "function"
        },
        {
          "inputs": [
            {
              "internalType": "uint256",
              "name": "_capsuleId",
              "type": "uint256"
            }
          ],
          "name": "emergencyUnlock",
          "outputs": [],
          "stateMutability": "nonpayable",
          "type": "function"
        },
        {
          "inputs": [
            {
              "internalType": "uint256",
              "name": "_capsuleId",
              "type": "uint256"
            }
          ],
          "name": "getCapsule",
          "outputs": [
            {
              "internalType": "uint256",
              "name": "",
              "type": "uint256"
            },
            {
              "internalType": "address",
              "name": "",
              "type": "address"
            },
            {
              "internalType": "enum EchoVaultV2.CapsuleType",
              "name": "",
              "type": "uint8"
            },
            {
              "internalType": "enum EchoVaultV2.TriggerType",
              "name": "",
              "type": "uint8"
            },
            {
              "internalType": "uint256",
              "name": "",
              "type": "uint256"
            },
            {
              "internalType": "uint256",
              "name": "",
              "type": "uint256"
            },
            {
              "internalType": "address[]",
              "name": "",
              "type": "address[]"
            },
            {
              "internalType": "bool",
              "name": "",
              "type": "bool"
            },
            {
              "internalType": "bool",
              "name": "",
              "type": "bool"
            },
            {
              "internalType": "bool",
              "name": "",
              "type": "bool"
            },
            {
              "internalType": "uint256",
              "name": "",
              "type": "uint256"
            },
            {
              "internalType": "uint256",
              "name": "",
              "type": "uint256"
            }
          ],
          "stateMutability": "view",
          "type": "function"
        },
        {
          "inputs": [
            {
              "internalType": "uint256",
              "name": "_capsuleId",
              "type": "uint256"
            }
          ],
          "name": "getUnlockedStages",
          "outputs": [
            {
              "components": [
                {
                  "internalType": "string",
                  "name": "ipfsHash",
                  "type": "string"
                },
                {
                  "internalType": "string",
                  "name": "encryptedKeys",
                  "type": "string"
                }
              ],
              "internalType": "struct EchoVaultV2.UnlockStage[]",
              "name": "",
              "type": "tuple[]"
            }
          ],
          "stateMutability": "view",
          "type": "function"
        },
        {
          "inputs": [
            {
              "internalType": "address",
              "name": "_user",
              "type": "address"
            }
          ],
          "name": "getUserCapsules",
          "outputs": [
            {
              "internalType": "uint256[]",
              "name": "",
              "type": "uint256[]"
            }
          ],
          "stateMutability": "view",
          "type": "function"
        },
        {
          "inputs": [
            {
              "internalType": "uint256",
              "name": "_capsuleId",
              "type": "uint256"
            }
          ],
          "name": "isUnlocked",
          "outputs": [
            {
              "internalType": "bool",
              "name": "",
              "type": "bool"
            }
          ],
          "stateMutability": "view",
          "type": "function"
        },
        {
          "inputs": [],
          "name": "owner",
          "outputs": [
            {
              "internalType": "address",
              "name": "",
              "type": "address"
            }
          ],
          "stateMutability": "view",
          "type": "function"
        },
        {
          "inputs": [],
          "name": "totalCapsules",
          "outputs": [
            {
              "internalType": "uint256",
              "name": "",
              "type": "uint256"
            }
          ],
          "stateMutability": "view",
          "type": "function"
        },
        {
          "inputs": [
            {
              "internalType": "enum EchoVaultV2.CapsuleType",
              "name": "_type",
              "type": "uint8"
            },
            {
              "internalType": "uint256",
              "name": "_fee",
              "type": "uint256"
            }
          ],
          "name": "updatePricing",
          "outputs": [],
          "stateMutability": "nonpayable",
          "type": "function"
        },
        {
          "inputs": [
            {
              "internalType": "address",
              "name": "_user",
              "type": "address"
            },
            {
              "internalType": "enum EchoVaultV2.SubscriptionTier",
              "name": "_tier",
              "type": "uint8"
            }
          ],
          "name": "updateUserTier",
          "outputs": [],
          "stateMutability": "nonpayable",
          "type": "function"
        },
        {
          "inputs": [
            {
              "internalType": "address",
              "name": "",
              "type": "address"
            },
            {
              "internalType": "uint256",
              "name": "",
              "type": "uint256"
            }
          ],
          "name": "userCapsules",
          "outputs": [
            {
              "internalType": "uint256",
              "name": "",
              "type": "uint256"
            }
          ],
          "stateMutability": "view",
          "type": "function"
        },
        {
          "inputs": [
            {
              "internalType": "address",
              "name": "",
              "type": "address"
            }
          ],
          "name": "userTiers",
          "outputs": [
            {
              "internalType": "enum EchoVaultV2.SubscriptionTier",
              "name": "",
              "type": "uint8"
            }
          ],
          "stateMutability": "view",
          "type": "function"
        },
        {
          "inputs": [],
          "name": "withdraw",
          "outputs": [],
          "stateMutability": "nonpayable",
          "type": "function"
        },
        {
          "stateMutability": "payable",
          "type": "receive"
        }
      ],
      "evm": {
        "bytecode": {
          "linkReferences": {},
          "object": "608080604052346100de57600780546001600160a01b03191633179055600660205267016345785d8a00007f54cdd369e4e8a8515e52ca72ec816c2101831ad1f18bf44102ed171459c9b4f8556702c68af0bb1400007f3e5fec24aa4dc4e5aee2e025e51e1392c72a2500577559fae9665c6d52bd6a31556706f05b59d3b200007f8819ef417987f8ae7a81f42cdfb18815282fe989326fbff903d13cf0e03ace29556003600052670214e8348c4f00007f75f96ab15d697e93042dc45b5c896c4b27e89bb6eaf39475c5c371cb2513f7d255611c1590816100e48239f35b600080fdfe6080604052600436101561001b575b361561001957600080fd5b005b60003560e01c80630bb8cd4d1461163d5780630db08dbb14610c775780630e09160e14610c5b578063224646dc14610c3f57806324063c8214610bf9578063366636f714610b455780633aac3858146109285780633ccfd60b146108d557806344762d7614610895578063517bbf46146107d857806356e4f84c1461067057806372abc8b7146106485780637389c630146106075780638da5cb5b146105de5780639a6cff1c1461057e578063a0d79fb514610525578063b079331314610426578063b49ce17f14610408578063c446bac1146102fa578063cf1dba6614610281578063d674e192146102655763e95a644f0361000e57346102605760208060031936011261026057600435806000526000825261014a60018060a01b03600160406000200154163314611b5e565b8060005260008252604060002060ff600582015461016d828260081c1615611b9c565b1661021b5760ff600182015460a81c166002811015610205576001036101c0576007429101557f4a01bfc7a5991d2cb940c64b2fb1dcd8e5bc580108ed8727d01320af671e80bb604051924284523393a3005b60405162461bcd60e51b815260048101849052601760248201527f4e6f742061206865617274626561742063617073756c650000000000000000006044820152606490fd5b634e487b7160e01b600052602160045260246000fd5b60405162461bcd60e51b815260048101849052601860248201527f43617073756c6520616c726561647920756e6c6f636b656400000000000000006044820152606490fd5b600080fd5b3461026057600036600319011261026057602060405160648152f35b3461026057604036600319011261026057602435600435600052600160205260406000208054821015610260576102e8916102bb916118c9565b506102f66102d460016102cd846117b6565b93016117b6565b60405193849360408552604085019061185b565b90838203602085015261185b565b0390f35b346102605760203660031901126102605760043580600052600060205261033260018060a01b03600160406000200154163314611b5e565b8060005260006020526005604060002001805460ff81166103c35760ff8160081c1661038a5761ff0019166101001790557f17922d653f81c4d4a6b9e3ed39d33f40f66d9baca3f3541c71a058580beee70c600080a2005b60405162461bcd60e51b8152602060048201526011602482015270105b1c9958591e4818d85b98d95b1b1959607a1b6044820152606490fd5b60405162461bcd60e51b815260206004820152601e60248201527f43616e6e6f742063616e63656c20756e6c6f636b65642063617073756c6500006044820152606490fd5b34610260576000366003190112610260576020600554604051908152f35b346102605760203660031901126102605760043580600052600060205261045e60018060a01b03600160406000200154163314611b5e565b8060005260006020526005604060002001805461048160ff8260081c1615611b9c565b60ff81166104ed5762ff00ff1916620100011790556040519033817f207e7c8891233726262fbf1d4ff217a34c75716418ef79ed734adca0ea9a2256600080a3600182527f72f2840008c6eeb7f9666aa9a8444be77c147559560b0048ed72c1e3c2b84b3b60203393a3005b60405162461bcd60e51b815260206004820152601060248201526f105b1c9958591e481d5b9b1bd8dad95960821b6044820152606490fd5b346102605760403660031901126102605761053e61174c565b6001600160a01b03166000908152600360205260409020805460243591908210156102605760209161056f9161189b565b90549060031b1c604051908152f35b346102605760403660031901126102605761059761174c565b602435906003821015610260576007546001600160a01b0391906105be9083163314611958565b16600052600460205260406000209060ff80198354169116179055600080f35b34610260576000366003190112610260576007546040516001600160a01b039091168152602090f35b346102605760403660031901126102605760043560048110156102605761063960018060a01b03600754163314611958565b6106456024359161166e565b55005b346102605760203660031901126102605760206106666004356119a4565b6040519015158152f35b34610260576020806003193601126102605760043561068e816119a4565b1561079c57600052600190600181526040600020918254916106af83611735565b926106bd60405194856116be565b8084528184018095600052826000206000915b8383106107585750505050604051928184019082855251809152604084019160408260051b86010195926000905b83821061070b5786880387f35b90919293948380610747839a603f198b820301865289519083610737835160408452604084019061185b565b920151908481840391015261185b565b9997019594939190910191016106fe565b9460028582999760409997995161076e816116a3565b610777866117b6565b81526107848587016117b6565b838201528152019201920191909694969593956106d0565b60405162461bcd60e51b815260048101839052601460248201527310d85c1cdd5b19481b9bdd081d5b9b1bd8dad95960621b6044820152606490fd5b34610260576020366003190112610260576004356000526000602052610160604060002080549060018101549060ff6002820154600383015460058401549161085a600760068701549601549660405198895260018060a01b03811660208a015261084b60408a01878360a01c16611762565b8560608a019160a81c1661176f565b608087015260a0860152818116151560c0860152818160081c16151560e086015260101c161515610100840152610120830152610140820152f35b346102605760203660031901126102605760043560005260026020526102f66108c160406000206117b6565b60405191829160208352602083019061185b565b3461026057600036600319011261026057600080808060018060a01b0360075416610901813314611958565b479082821561091f575bf11561091357005b6040513d6000823e3d90fd5b506108fc61090b565b34610260576020366003190112610260576004356000526000602052604060002060405161095581611687565b8154815260018201546001600160a01b03811660208301526109949060ff9061098760a082901c831660408601611929565b60a81c1660608301611935565b60028201546080820152600382015460a08201526004820191604051806020855491828152019460005260206000209060005b818110610b26575050506109e0816007949503826116be565b60c084015260ff6005820154818116151560e0860152818160081c16151561010086015260101c1615156101208401526006810154610140840152015461016082015280519060018060a01b03602082015116604082015191600483101561020557606081015190600282101561020557608081015160a082015160c08301519460e0840151151590610100850151151592610120860151151594610140870151966101600151976040519a61018094858d019d8d5260208d015260408c01610aa891611762565b60608b01610ab59161176f565b60808a015260a089015260c088015285518098526101a08701956020016000985b808a10610b0357505086975060e08701526101008601526101208501526101408401526101608301520390f35b81516001600160a01b031688526001999099019860209788019790910190610ad6565b82546001600160a01b03168752602090960195600192830192016109c7565b3461026057602080600319360112610260576001600160a01b03610b6761174c565b1660005260038152604060002060405190818382549182815201908192600052846000209060005b86828210610be5578686610ba5828803836116be565b604051928392818401908285525180915260408401929160005b828110610bce57505050500390f35b835185528695509381019392810192600101610bbf565b835485529093019260019283019201610b8f565b34610260576020366003190112610260576001600160a01b03610c1a61174c565b16600052600460205260ff604060002054166040516003821015610205576020918152f35b34610260576000366003190112610260576020604051600a8152f35b3461026057600036600319011261026057602060405160018152f35b610100366003190112610260576004803510156102605760026024351015610260576064356001600160401b03811161026057610cb89036906004016116df565b6084356001600160401b03811161026057610cd79036906004016116df565b9060a435916001600160401b038311610260573660238401121561026057826004013592610d0484611735565b93610d1260405195866116be565b80855260208501913660248360051b83010111610260579160248301925b60248360051b8201018410611616575050505060c4356001600160401b03811161026057610d629036906004016116df565b918351156115d157610d7560043561166e565b54341061158c5733600052600460205260ff604060002054166003602052604060002054906003811015610205578061155257506001610db591106118e5565b6024356114a9574260443511156114645760e43561140b575b6005549360001985146113f55760018501600555604051610dee81611687565b6001860181526020810191338352610e0b60043560408401611929565b610e1a60243560608401611935565b60443560808301524260a083015260c0820152600060e08201526000610100820152600061012082015260e435610140820152426101608201526001860160005260006020526040600020918151835560018060a01b03905116600183015490604083015190600482101561020557606084015160028110156102055760ff60a81b9060a81b169269ffffffffffffffffffff60b01b16179060ff60a01b9060a01b16171760018301556080810151600283015560a0810151600383015560c08101518051906001600160401b03821161123257600160401b82116112325760209060048501548360048701558084106113d5575b500160048401600052602060002060005b8381106113b857505050506101606007916005840160e08201511515815461ff00610100850151151560081b169060ff62ff0000610120870151151560101b1693169062ffffff191617171790556101408101516006850155015191015533600052600360205260406000208054600160401b81101561123257610fa99160018201815561189b565b81549060031b9060018701821b91600019901b191617905560405191610fce836116a3565b8252602082015260018301600052600160205260406000208054600160401b81101561123257611003916001820181556118c9565b9190916113a25780518051906001600160401b03821161123257611027845461177c565b601f8111611370575b50602090601f8311600114611303576020939291600091836112f8575b50508160011b916000199060031b1c19161783555b01518051906001600160401b03821161123257611082600184015461177c565b601f81116112c3575b50602090601f8311600114611253576001929160009183611248575b5050600019600383901b1c191690821b179101555b6001820160005260026020526040600020918151926001600160401b038411611232576020936110ec825461177c565b601f81116111f7575b5084601f82116001146111915781929394600092611186575b50508160011b916000199060031b1c19161790555b60405161113281600435611762565b61114083820160243561176f565b604435604082015260e435606082015233907f6ee80eee06ad783b22addb627af53564ff50aa18f2952c368ec3b6f273ee0d2e60806001850192a3600160405191018152f35b01519050858061110e565b82600052856000209060005b601f19841681106111e05750600193949583601f198116106111c7575b505050811b019055611123565b015160001960f88460031b161c191690558580806111ba565b90918760018192858a01518155019301910161119d565b611222908360005286600020601f840160051c810191888510611228575b601f0160051c0190611941565b856110f5565b9091508190611215565b634e487b7160e01b600052604160045260246000fd5b0151905086806110a7565b906001840160005260206000209160005b601f19851681106112ab5750918391600194938594601f19811610611292575b505050811b019101556110bc565b015160001960f88460031b161c19169055868080611284565b91926020600181928685015181550194019201611264565b6112f290600185016000526020600020601f850160051c8101916020861061122857601f0160051c0190611941565b8561108b565b01519050878061104d565b908460005260206000209160005b601f1985168110611358575091839160019360209695601f1981161061133f575b505050811b018355611062565b015160001960f88460031b161c19169055878080611332565b91926020600181928685015181550194019201611311565b61139c90856000526020600020601f850160051c8101916020861061122857601f0160051c0190611941565b86611030565b634e487b7160e01b600052600060045260246000fd5b82516001600160a01b031681830155602090920191600101610f20565b6113ef906004870160005284846000209182019101611941565b89610f0f565b634e487b7160e01b600052601160045260246000fd5b60405162461bcd60e51b815260206004820152602b60248201527f48656172746265617420696e74657276616c206d757374206265203020666f7260448201526a081d1a5b594b58985cd95960aa1b6064820152608490fd5b60405162461bcd60e51b815260206004820152601d60248201527f556e6c6f636b2074696d65206d75737420626520696e206675747572650000006044820152606490fd5b600160243503610dce5760e4351561150d576201518060e4351015610dce5760405162461bcd60e51b815260206004820152601c60248201527f48656172746265617420696e74657276616c20746f6f2073686f7274000000006044820152606490fd5b60405162461bcd60e51b815260206004820152601b60248201527f48656172746265617420696e74657276616c20726571756972656400000000006044820152606490fd5b6001810361156c5750600a61156791106118e5565b610db5565b60021461157a575b50610db5565b606461158691106118e5565b84611574565b60405162461bcd60e51b815260206004820152601960248201527f496e73756666696369656e74206372656174696f6e20666565000000000000006044820152606490fd5b60405162461bcd60e51b815260206004820152601f60248201527f4174206c65617374206f6e6520726563697069656e74207265717569726564006044820152606490fd5b83356001600160a01b03811690036102605760208060249386358152019401939150610d30565b346102605760203660031901126102605760043560048110156102605761166560209161166e565b54604051908152f35b6004811015610205576000526006602052604060002090565b61018081019081106001600160401b0382111761123257604052565b604081019081106001600160401b0382111761123257604052565b90601f801991011681019081106001600160401b0382111761123257604052565b81601f82011215610260578035906001600160401b0382116112325760405192611713601f8401601f1916602001856116be565b8284526020838301011161026057816000926020809301838601378301015290565b6001600160401b0381116112325760051b60200190565b600435906001600160a01b038216820361026057565b9060048210156102055752565b9060028210156102055752565b90600182811c921680156117ac575b602083101461179657565b634e487b7160e01b600052602260045260246000fd5b91607f169161178b565b906040519182600082546117c98161177c565b9081845260209460019160018116908160001461183957506001146117fa575b5050506117f8925003836116be565b565b600090815285812095935091905b8183106118215750506117f893508201013880806117e9565b85548884018501529485019487945091830191611808565b925050506117f894925060ff191682840152151560051b8201013880806117e9565b919082519283825260005b848110611887575050826000602080949584010152601f8019910116010190565b602081830181015184830182015201611866565b80548210156118b35760005260206000200190600090565b634e487b7160e01b600052603260045260246000fd5b80548210156118b35760005260206000209060011b0190600090565b156118ec57565b60405162461bcd60e51b815260206004820152601560248201527410d85c1cdd5b19481b1a5b5a5d081c995858da1959605a1b6044820152606490fd5b60048210156102055752565b60028210156102055752565b81811061194c575050565b60008155600101611941565b1561195f57565b60405162461bcd60e51b815260206004820152601860248201527f4f6e6c79206f776e65722063616e2063616c6c207468697300000000000000006044820152606490fd5b60009081526020908060205260408120906040516119c181611687565b825481526001808401546001600160a01b038082166020850152959091906119f360a084901c60ff1660408601611929565b611a0760ff606086019460a81c1684611935565b60028601549660808501978852600387015460a08601526004870160405193848593602084549283815201938a5260208a20958a915b838310611b44575050505050611a55925003826116be565b60c0830152600584015460ff81161515908160e085015260ff808260081c161515918261010087015260101c1615156101208501526101606007600688015497610140870198895201549401938452611b3b57611b315780516002811015611b1d57611ac657505050505142101590565b9091929350516002811015611b0957600114611ae25750905090565b5191518201809211611af5575042101590565b634e487b7160e01b81526011600452602490fd5b634e487b7160e01b83526021600452602483fd5b634e487b7160e01b84526021600452602484fd5b5050505050600190565b50505091505090565b875481168652968401968896509481019491840191611a3d565b15611b6557565b60405162461bcd60e51b815260206004820152600f60248201526e2737ba103a34329031b932b0ba37b960891b6044820152606490fd5b15611ba357565b60405162461bcd60e51b815260206004820152601460248201527310d85c1cdd5b19481a5cc818d85b98d95b1b195960621b6044820152606490fdfea2646970667358221220161cfb22394e128cc38daac64baec515a0732fba2c9e4aceea12a899649890af64736f6c63430008180033",
          "opcodes": "PUSH1 0x80 DUP1 PUSH1 0x40 MSTORE CALLVALUE PUSH2 0xDE JUMPI PUSH1 0x7 DUP1 SLOAD PUSH1 0x1 PUSH1 0x1 PUSH1 0xA0 SHL SUB NOT AND CALLER OR SWAP1 SSTORE PUSH1 0x6 PUSH1 0x20 MSTORE PUSH8 0x16345785D8A0000 PUSH32 0x54CDD369E4E8A8515E52CA72EC816C2101831AD1F18BF44102ED171459C9B4F8 SSTORE PUSH8 0x2C68AF0BB140000 PUSH32 0x3E5FEC24AA4DC4E5AEE2E025E51E1392C72A2500577559FAE9665C6D52BD6A31 SSTORE PUSH8 0x6F05B59D3B20000 PUSH32 0x8819EF417987F8AE7A81F42CDFB18815282FE989326FBFF903D13CF0E03ACE29 SSTORE PUSH1 0x3 PUSH1 0x0 MSTORE PUSH8 0x214E8348C4F0000 PUSH32 0x75F96AB15D697E93042DC45B5C896C4B27E89BB6EAF39475C5C371CB2513F7D2 SSTORE PUSH2 0x1C15 SWAP1 DUP2 PUSH2 0xE4 DUP3 CODECOPY RETURN JUMPDEST PUSH1 0x0 DUP1 REVERT INVALID PUSH1 0x80 PUSH1 0x40 MSTORE PUSH1 0x4 CALLDATASIZE LT ISZERO PUSH2 0x1B JUMPI JUMPDEST CALLDATASIZE ISZERO PUSH2 0x19 JUMPI PUSH1 0x0 DUP1 REVERT JUMPDEST STOP JUMPDEST PUSH1 0x0 CALLDATALOAD PUSH1 0xE0 SHR DUP1 PUSH4 0xBB8CD4D EQ PUSH2 0x163D JUMPI DUP1 PUSH4 0xDB08DBB EQ PUSH2 0xC77 JUMPI DUP1 PUSH4 0xE09160E EQ PUSH2 0xC5B JUMPI DUP1 PUSH4 0x224646DC EQ PUSH2 0xC3F JUMPI DUP1 PUSH4 0x24063C82 EQ PUSH2 0xBF9 JUMPI DUP1 PUSH4 0x366636F7 EQ PUSH2 0xB45 JUMPI DUP1 PUSH4 0x3AAC3858 EQ PUSH2 0x928 JUMPI DUP1 PUSH4 0x3CCFD60B EQ PUSH2 0x8D5 JUMPI DUP1 PUSH4 0x44762D76 EQ PUSH2 0x895 JUMPI DUP1 PUSH4 0x517BBF46 EQ PUSH2 0x7D8 JUMPI DUP1 PUSH4 0x56E4F84C EQ PUSH2 0x670 JUMPI DUP1 PUSH4 0x72ABC8B7 EQ PUSH2 0x648 JUMPI DUP1 PUSH4 0x7389C630 EQ PUSH2 0x607 JUMPI DUP1 PUSH4 0x8DA5CB5B EQ PUSH2 0x5DE JUMPI DUP1 PUSH4 0x9A6CFF1C EQ PUSH2 0x57E JUMPI DUP1 PUSH4 0xA0D79FB5 EQ PUSH2 0x525 JUMPI DUP1 PUSH4 0xB0793313 EQ PUSH2 0x426 JUMPI DUP1 PUSH4 0xB49CE17F EQ PUSH2 0x408 JUMPI DUP1 PUSH4 0xC446BAC1 EQ PUSH2 0x2FA JUMPI DUP1 PUSH4 0xCF1DBA66 EQ PUSH2 0x281 JUMPI DUP1 PUSH4 0xD674E192 EQ PUSH2 0x265 JUMPI PUSH4 0xE95A644F SUB PUSH2 0xE JUMPI CALLVALUE PUSH2 0x260 JUMPI PUSH1 0x20 DUP1 PUSH1 0x3 NOT CALLDATASIZE ADD SLT PUSH2 0x260 JUMPI PUSH1 0x4 CALLDATALOAD DUP1 PUSH1 0x0 MSTORE PUSH1 0x0 DUP3 MSTORE PUSH2 0x14A PUSH1 0x1 DUP1 PUSH1 0xA0 SHL SUB PUSH1 0x1 PUSH1 0x40 PUSH1 0x0 KECCAK256 ADD SLOAD AND CALLER EQ PUSH2 0x1B5E JUMP JUMPDEST DUP1 PUSH1 0x0 MSTORE PUSH1 0x0 DUP3 MSTORE PUSH1 0x40 PUSH1 0x0 KECCAK256 PUSH1 0xFF PUSH1 0x5 DUP3 ADD SLOAD PUSH2 0x16D DUP3 DUP3 PUSH1 0x8 SHR AND ISZERO PUSH2 0x1B9C JUMP JUMPDEST AND PUSH2 0x21B JUMPI PUSH1 0xFF PUSH1 0x1 DUP3 ADD SLOAD PUSH1 0xA8 SHR AND PUSH1 0x2 DUP2 LT ISZERO PUSH2 0x205 JUMPI PUSH1 0x1 SUB PUSH2 0x1C0 JUMPI PUSH1 0x7 TIMESTAMP SWAP2 ADD SSTORE PUSH32 0x4A01BFC7A5991D2CB940C64B2FB1DCD8E5BC580108ED8727D01320AF671E80BB PUSH1 0x40 MLOAD SWAP3 TIMESTAMP DUP5 MSTORE CALLER SWAP4 LOG3 STOP JUMPDEST PUSH1 0x40 MLOAD PUSH3 0x461BCD PUSH1 0xE5 SHL DUP2 MSTORE PUSH1 0x4 DUP2 ADD DUP5 SWAP1 MSTORE PUSH1 0x17 PUSH1 0x24 DUP3 ADD MSTORE PUSH32 0x4E6F742061206865617274626561742063617073756C65000000000000000000 PUSH1 0x44 DUP3 ADD MSTORE PUSH1 0x64 SWAP1 REVERT JUMPDEST PUSH4 0x4E487B71 PUSH1 0xE0 SHL PUSH1 0x0 MSTORE PUSH1 0x21 PUSH1 0x4 MSTORE PUSH1 0x24 PUSH1 0x0 REVERT JUMPDEST PUSH1 0x40 MLOAD PUSH3 0x461BCD PUSH1 0xE5 SHL DUP2 MSTORE PUSH1 0x4 DUP2 ADD DUP5 SWAP1 MSTORE PUSH1 0x18 PUSH1 0x24 DUP3 ADD MSTORE PUSH32 0x43617073756C6520616C726561647920756E6C6F636B65640000000000000000 PUSH1 0x44 DUP3 ADD MSTORE PUSH1 0x64 SWAP1 REVERT JUMPDEST PUSH1 0x0 DUP1 REVERT JUMPDEST CALLVALUE PUSH2 0x260 JUMPI PUSH1 0x0 CALLDATASIZE PUSH1 0x3 NOT ADD SLT PUSH2 0x260 JUMPI PUSH1 0x20 PUSH1 0x40 MLOAD PUSH1 0x64 DUP2 MSTORE RETURN JUMPDEST CALLVALUE PUSH2 0x260 JUMPI PUSH1 0x40 CALLDATASIZE PUSH1 0x3 NOT ADD SLT PUSH2 0x260 JUMPI PUSH1 0x24 CALLDATALOAD PUSH1 0x4 CALLDATALOAD PUSH1 0x0 MSTORE PUSH1 0x1 PUSH1 0x20 MSTORE PUSH1 0x40 PUSH1 0x0 KECCAK256 DUP1 SLOAD DUP3 LT ISZERO PUSH2 0x260 JUMPI PUSH2 0x2E8 SWAP2 PUSH2 0x2BB SWAP2 PUSH2 0x18C9 JUMP JUMPDEST POP PUSH2 0x2F6 PUSH2 0x2D4 PUSH1 0x1 PUSH2 0x2CD DUP5 PUSH2 0x17B6 JUMP JUMPDEST SWAP4 ADD PUSH2 0x17B6 JUMP JUMPDEST PUSH1 0x40 MLOAD SWAP4 DUP5 SWAP4 PUSH1 0x40 DUP6 MSTORE PUSH1 0x40 DUP6 ADD SWAP1 PUSH2 0x185B JUMP JUMPDEST SWAP1 DUP4 DUP3 SUB PUSH1 0x20 DUP6 ADD MSTORE PUSH2 0x185B JUMP JUMPDEST SUB SWAP1 RETURN JUMPDEST CALLVALUE PUSH2 0x260 JUMPI PUSH1 0x20 CALLDATASIZE PUSH1 0x3 NOT ADD SLT PUSH2 0x260 JUMPI PUSH1 0x4 CALLDATALOAD DUP1 PUSH1 0x0 MSTORE PUSH1 0x0 PUSH1 0x20 MSTORE PUSH2 0x332 PUSH1 0x1 DUP1 PUSH1 0xA0 SHL SUB PUSH1 0x1 PUSH1 0x40 PUSH1 0x0 KECCAK256 ADD SLOAD AND CALLER EQ PUSH2 0x1B5E JUMP JUMPDEST DUP1 PUSH1 0x0 MSTORE PUSH1 0x0 PUSH1 0x20 MSTORE PUSH1 0x5 PUSH1 0x40 PUSH1 0x0 KECCAK256 ADD DUP1 SLOAD PUSH1 0xFF DUP2 AND PUSH2 0x3C3 JUMPI PUSH1 0xFF DUP2 PUSH1 0x8 SHR AND PUSH2 0x38A JUMPI PUSH2 0xFF00 NOT AND PUSH2 0x100 OR SWAP1 SSTORE PUSH32 0x17922D653F81C4D4A6B9E3ED39D33F40F66D9BACA3F3541C71A058580BEEE70C PUSH1 0x0 DUP1 LOG2 STOP JUMPDEST PUSH1 0x40 MLOAD PUSH3 0x461BCD PUSH1 0xE5 SHL DUP2 MSTORE PUSH1 0x20 PUSH1 0x4 DUP3 ADD MSTORE PUSH1 0x11 PUSH1 0x24 DUP3 ADD MSTORE PUSH17 0x105B1C9958591E4818D85B98D95B1B1959 PUSH1 0x7A SHL PUSH1 0x44 DUP3 ADD MSTORE PUSH1 0x64 SWAP1 REVERT JUMPDEST PUSH1 0x40 MLOAD PUSH3 0x461BCD PUSH1 0xE5 SHL DUP2 MSTORE PUSH1 0x20 PUSH1 0x4 DUP3 ADD MSTORE PUSH1 0x1E PUSH1 0x24 DUP3 ADD MSTORE PUSH32 0x43616E6E6F742063616E63656C20756E6C6F636B65642063617073756C650000 PUSH1 0x44 DUP3 ADD MSTORE PUSH1 0x64 SWAP1 REVERT JUMPDEST CALLVALUE PUSH2 0x260 JUMPI PUSH1 0x0 CALLDATASIZE PUSH1 0x3 NOT ADD SLT PUSH2 0x260 JUMPI PUSH1 0x20 PUSH1 0x5 SLOAD PUSH1 0x40 MLOAD SWAP1 DUP2 MSTORE RETURN JUMPDEST CALLVALUE PUSH2 0x260 JUMPI PUSH1 0x20 CALLDATASIZE PUSH1 0x3 NOT ADD SLT PUSH2 0x260 JUMPI PUSH1 0x4 CALLDATALOAD DUP1 PUSH1 0x0 MSTORE PUSH1 0x0 PUSH1 0x20 MSTORE PUSH2 0x45E PUSH1 0x1 DUP1 PUSH1 0xA0 SHL SUB PUSH1 0x1 PUSH1 0x40 PUSH1 0x0 KECCAK256 ADD SLOAD AND CALLER EQ PUSH2 0x1B5E JUMP JUMPDEST DUP1 PUSH1 0x0 MSTORE PUSH1 0x0 PUSH1 0x20 MSTORE PUSH1 0x5 PUSH1 0x40 PUSH1 0x0 KECCAK256 ADD DUP1 SLOAD PUSH2 0x481 PUSH1 0xFF DUP3 PUSH1 0x8 SHR AND ISZERO PUSH2 0x1B9C JUMP JUMPDEST PUSH1 0xFF DUP2 AND PUSH2 0x4ED JUMPI PUSH3 0xFF00FF NOT AND PUSH3 0x10001 OR SWAP1 SSTORE PUSH1 0x40 MLOAD SWAP1 CALLER DUP2 PUSH32 0x207E7C8891233726262FBF1D4FF217A34C75716418EF79ED734ADCA0EA9A2256 PUSH1 0x0 DUP1 LOG3 PUSH1 0x1 DUP3 MSTORE PUSH32 0x72F2840008C6EEB7F9666AA9A8444BE77C147559560B0048ED72C1E3C2B84B3B PUSH1 0x20 CALLER SWAP4 LOG3 STOP JUMPDEST PUSH1 0x40 MLOAD PUSH3 0x461BCD PUSH1 0xE5 SHL DUP2 MSTORE PUSH1 0x20 PUSH1 0x4 DUP3 ADD MSTORE PUSH1 0x10 PUSH1 0x24 DUP3 ADD MSTORE PUSH16 0x105B1C9958591E481D5B9B1BD8DAD959 PUSH1 0x82 SHL PUSH1 0x44 DUP3 ADD MSTORE PUSH1 0x64 SWAP1 REVERT JUMPDEST CALLVALUE PUSH2 0x260 JUMPI PUSH1 0x40 CALLDATASIZE PUSH1 0x3 NOT ADD SLT PUSH2 0x260 JUMPI PUSH2 0x53E PUSH2 0x174C JUMP JUMPDEST PUSH1 0x1 PUSH1 0x1 PUSH1 0xA0 SHL SUB AND PUSH1 0x0 SWAP1 DUP2 MSTORE PUSH1 0x3 PUSH1 0x20 MSTORE PUSH1 0x40 SWAP1 KECCAK256 DUP1 SLOAD PUSH1 0x24 CALLDATALOAD SWAP2 SWAP1 DUP3 LT ISZERO PUSH2 0x260 JUMPI PUSH1 0x20 SWAP2 PUSH2 0x56F SWAP2 PUSH2 0x189B JUMP JUMPDEST SWAP1 SLOAD SWAP1 PUSH1 0x3 SHL SHR PUSH1 0x40 MLOAD SWAP1 DUP2 MSTORE RETURN JUMPDEST CALLVALUE PUSH2 0x260 JUMPI PUSH1 0x40 CALLDATASIZE PUSH1 0x3 NOT ADD SLT PUSH2 0x260 JUMPI PUSH2 0x597 PUSH2 0x174C JUMP JUMPDEST PUSH1 0x24 CALLDATALOAD SWAP1 PUSH1 0x3 DUP3 LT ISZERO PUSH2 0x260 JUMPI PUSH1 0x7 SLOAD PUSH1 0x1 PUSH1 0x1 PUSH1 0xA0 SHL SUB SWAP2 SWAP1 PUSH2 0x5BE SWAP1 DUP4 AND CALLER EQ PUSH2 0x1958 JUMP JUMPDEST AND PUSH1 0x0 MSTORE PUSH1 0x4 PUSH1 0x20 MSTORE PUSH1 0x40 PUSH1 0x0 KECCAK256 SWAP1 PUSH1 0xFF DUP1 NOT DUP4 SLOAD AND SWAP2 AND OR SWAP1 SSTORE PUSH1 0x0 DUP1 RETURN JUMPDEST CALLVALUE PUSH2 0x260 JUMPI PUSH1 0x0 CALLDATASIZE PUSH1 0x3 NOT ADD SLT PUSH2 0x260 JUMPI PUSH1 0x7 SLOAD PUSH1 0x40 MLOAD PUSH1 0x1 PUSH1 0x1 PUSH1 0xA0 SHL SUB SWAP1 SWAP2 AND DUP2 MSTORE PUSH1 0x20 SWAP1 RETURN JUMPDEST CALLVALUE PUSH2 0x260 JUMPI PUSH1 0x40 CALLDATASIZE PUSH1 0x3 NOT ADD SLT PUSH2 0x260 JUMPI PUSH1 0x4 CALLDATALOAD PUSH1 0x4 DUP2 LT ISZERO PUSH2 0x260 JUMPI PUSH2 0x639 PUSH1 0x1 DUP1 PUSH1 0xA0 SHL SUB PUSH1 0x7 SLOAD AND CALLER EQ PUSH2 0x1958 JUMP JUMPDEST PUSH2 0x645 PUSH1 0x24 CALLDATALOAD SWAP2 PUSH2 0x166E JUMP JUMPDEST SSTORE STOP JUMPDEST CALLVALUE PUSH2 0x260 JUMPI PUSH1 0x20 CALLDATASIZE PUSH1 0x3 NOT ADD SLT PUSH2 0x260 JUMPI PUSH1 0x20 PUSH2 0x666 PUSH1 0x4 CALLDATALOAD PUSH2 0x19A4 JUMP JUMPDEST PUSH1 0x40 MLOAD SWAP1 ISZERO ISZERO DUP2 MSTORE RETURN JUMPDEST CALLVALUE PUSH2 0x260 JUMPI PUSH1 0x20 DUP1 PUSH1 0x3 NOT CALLDATASIZE ADD SLT PUSH2 0x260 JUMPI PUSH1 0x4 CALLDATALOAD PUSH2 0x68E DUP2 PUSH2 0x19A4 JUMP JUMPDEST ISZERO PUSH2 0x79C JUMPI PUSH1 0x0 MSTORE PUSH1 0x1 SWAP1 PUSH1 0x1 DUP2 MSTORE PUSH1 0x40 PUSH1 0x0 KECCAK256 SWAP2 DUP3 SLOAD SWAP2 PUSH2 0x6AF DUP4 PUSH2 0x1735 JUMP JUMPDEST SWAP3 PUSH2 0x6BD PUSH1 0x40 MLOAD SWAP5 DUP6 PUSH2 0x16BE JUMP JUMPDEST DUP1 DUP5 MSTORE DUP2 DUP5 ADD DUP1 SWAP6 PUSH1 0x0 MSTORE DUP3 PUSH1 0x0 KECCAK256 PUSH1 0x0 SWAP2 JUMPDEST DUP4 DUP4 LT PUSH2 0x758 JUMPI POP POP POP POP PUSH1 0x40 MLOAD SWAP3 DUP2 DUP5 ADD SWAP1 DUP3 DUP6 MSTORE MLOAD DUP1 SWAP2 MSTORE PUSH1 0x40 DUP5 ADD SWAP2 PUSH1 0x40 DUP3 PUSH1 0x5 SHL DUP7 ADD ADD SWAP6 SWAP3 PUSH1 0x0 SWAP1 JUMPDEST DUP4 DUP3 LT PUSH2 0x70B JUMPI DUP7 DUP9 SUB DUP8 RETURN JUMPDEST SWAP1 SWAP2 SWAP3 SWAP4 SWAP5 DUP4 DUP1 PUSH2 0x747 DUP4 SWAP11 PUSH1 0x3F NOT DUP12 DUP3 SUB ADD DUP7 MSTORE DUP10 MLOAD SWAP1 DUP4 PUSH2 0x737 DUP4 MLOAD PUSH1 0x40 DUP5 MSTORE PUSH1 0x40 DUP5 ADD SWAP1 PUSH2 0x185B JUMP JUMPDEST SWAP3 ADD MLOAD SWAP1 DUP5 DUP2 DUP5 SUB SWAP2 ADD MSTORE PUSH2 0x185B JUMP JUMPDEST SWAP10 SWAP8 ADD SWAP6 SWAP5 SWAP4 SWAP2 SWAP1 SWAP2 ADD SWAP2 ADD PUSH2 0x6FE JUMP JUMPDEST SWAP5 PUSH1 0x2 DUP6 DUP3 SWAP10 SWAP8 PUSH1 0x40 SWAP10 SWAP8 SWAP10 MLOAD PUSH2 0x76E DUP2 PUSH2 0x16A3 JUMP JUMPDEST PUSH2 0x777 DUP7 PUSH2 0x17B6 JUMP JUMPDEST DUP2 MSTORE PUSH2 0x784 DUP6 DUP8 ADD PUSH2 0x17B6 JUMP JUMPDEST DUP4 DUP3 ADD MSTORE DUP2 MSTORE ADD SWAP3 ADD SWAP3 ADD SWAP2 SWAP1 SWAP7 SWAP5 SWAP7 SWAP6 SWAP4 SWAP6 PUSH2 0x6D0 JUMP JUMPDEST PUSH1 0x40 MLOAD PUSH3 0x461BCD PUSH1 0xE5 SHL DUP2 MSTORE PUSH1 0x4 DUP2 ADD DUP4 SWAP1 MSTORE PUSH1 0x14 PUSH1 0x24 DUP3 ADD MSTORE PUSH20 0x10D85C1CDD5B19481B9BDD081D5B9B1BD8DAD959 PUSH1 0x62 SHL PUSH1 0x44 DUP3 ADD MSTORE PUSH1 0x64 SWAP1 REVERT JUMPDEST CALLVALUE PUSH2 0x260 JUMPI PUSH1 0x20 CALLDATASIZE PUSH1 0x3 NOT ADD SLT PUSH2 0x260 JUMPI PUSH1 0x4 CALLDATALOAD PUSH1 0x0 MSTORE PUSH1 0x0 PUSH1 0x20 MSTORE PUSH2 0x160 PUSH1 0x40 PUSH1 0x0 KECCAK256 DUP1 SLOAD SWAP1 PUSH1 0x1 DUP2 ADD SLOAD SWAP1 PUSH1 0xFF PUSH1 0x2 DUP3 ADD SLOAD PUSH1 0x3 DUP4 ADD SLOAD PUSH1 0x5 DUP5 ADD SLOAD SWAP2 PUSH2 0x85A PUSH1 0x7 PUSH1 0x6 DUP8 ADD SLOAD SWAP7 ADD SLOAD SWAP7 PUSH1 0x40 MLOAD SWAP9 DUP10 MSTORE PUSH1 0x1 DUP1 PUSH1 0xA0 SHL SUB DUP2 AND PUSH1 0x20 DUP11 ADD MSTORE PUSH2 0x84B PUSH1 0x40 DUP11 ADD DUP8 DUP4 PUSH1 0xA0 SHR AND PUSH2 0x1762 JUMP JUMPDEST DUP6 PUSH1 0x60 DUP11 ADD SWAP2 PUSH1 0xA8 SHR AND PUSH2 0x176F JUMP JUMPDEST PUSH1 0x80 DUP8 ADD MSTORE PUSH1 0xA0 DUP7 ADD MSTORE DUP2 DUP2 AND ISZERO ISZERO PUSH1 0xC0 DUP7 ADD MSTORE DUP2 DUP2 PUSH1 0x8 SHR AND ISZERO ISZERO PUSH1 0xE0 DUP7 ADD MSTORE PUSH1 0x10 SHR AND ISZERO ISZERO PUSH2 0x100 DUP5 ADD MSTORE PUSH2 0x120 DUP4 ADD MSTORE PUSH2 0x140 DUP3 ADD MSTORE RETURN JUMPDEST CALLVALUE PUSH2 0x260 JUMPI PUSH1 0x20 CALLDATASIZE PUSH1 0x3 NOT ADD SLT PUSH2 0x260 JUMPI PUSH1 0x4 CALLDATALOAD PUSH1 0x0 MSTORE PUSH1 0x2 PUSH1 0x20 MSTORE PUSH2 0x2F6 PUSH2 0x8C1 PUSH1 0x40 PUSH1 0x0 KECCAK256 PUSH2 0x17B6 JUMP JUMPDEST PUSH1 0x40 MLOAD SWAP2 DUP3 SWAP2 PUSH1 0x20 DUP4 MSTORE PUSH1 0x20 DUP4 ADD SWAP1 PUSH2 0x185B JUMP JUMPDEST CALLVALUE PUSH2 0x260 JUMPI PUSH1 0x0 CALLDATASIZE PUSH1 0x3 NOT ADD SLT PUSH2 0x260 JUMPI PUSH1 0x0 DUP1 DUP1 DUP1 PUSH1 0x1 DUP1 PUSH1 0xA0 SHL SUB PUSH1 0x7 SLOAD AND PUSH2 0x901 DUP2 CALLER EQ PUSH2 0x1958 JUMP JUMPDEST SELFBALANCE SWAP1 DUP3 DUP3 ISZERO PUSH2 0x91F JUMPI JUMPDEST CALL ISZERO PUSH2 0x913 JUMPI STOP JUMPDEST PUSH1 0x40 MLOAD RETURNDATASIZE PUSH1 0x0 DUP3 RETURNDATACOPY RETURNDATASIZE SWAP1 REVERT JUMPDEST POP PUSH2 0x8FC PUSH2 0x90B JUMP JUMPDEST CALLVALUE PUSH2 0x260 JUMPI PUSH1 0x20 CALLDATASIZE PUSH1 0x3 NOT ADD SLT PUSH2 0x260 JUMPI PUSH1 0x4 CALLDATALOAD PUSH1 0x0 MSTORE PUSH1 0x0 PUSH1 0x20 MSTORE PUSH1 0x40 PUSH1 0x0 KECCAK256 PUSH1 0x40 MLOAD PUSH2 0x955 DUP2 PUSH2 0x1687 JUMP JUMPDEST DUP2 SLOAD DUP2 MSTORE PUSH1 0x1 DUP3 ADD SLOAD PUSH1 0x1 PUSH1 0x1 PUSH1 0xA0 SHL SUB DUP2 AND PUSH1 0x20 DUP4 ADD MSTORE PUSH2 0x994 SWAP1 PUSH1 0xFF SWAP1 PUSH2 0x987 PUSH1 0xA0 DUP3 SWAP1 SHR DUP4 AND PUSH1 0x40 DUP7 ADD PUSH2 0x1929 JUMP JUMPDEST PUSH1 0xA8 SHR AND PUSH1 0x60 DUP4 ADD PUSH2 0x1935 JUMP JUMPDEST PUSH1 0x2 DUP3 ADD SLOAD PUSH1 0x80 DUP3 ADD MSTORE PUSH1 0x3 DUP3 ADD SLOAD PUSH1 0xA0 DUP3 ADD MSTORE PUSH1 0x4 DUP3 ADD SWAP2 PUSH1 0x40 MLOAD DUP1 PUSH1 0x20 DUP6 SLOAD SWAP2 DUP3 DUP2 MSTORE ADD SWAP5 PUSH1 0x0 MSTORE PUSH1 0x20 PUSH1 0x0 KECCAK256 SWAP1 PUSH1 0x0 JUMPDEST DUP2 DUP2 LT PUSH2 0xB26 JUMPI POP POP POP PUSH2 0x9E0 DUP2 PUSH1 0x7 SWAP5 SWAP6 SUB DUP3 PUSH2 0x16BE JUMP JUMPDEST PUSH1 0xC0 DUP5 ADD MSTORE PUSH1 0xFF PUSH1 0x5 DUP3 ADD SLOAD DUP2 DUP2 AND ISZERO ISZERO PUSH1 0xE0 DUP7 ADD MSTORE DUP2 DUP2 PUSH1 0x8 SHR AND ISZERO ISZERO PUSH2 0x100 DUP7 ADD MSTORE PUSH1 0x10 SHR AND ISZERO ISZERO PUSH2 0x120 DUP5 ADD MSTORE PUSH1 0x6 DUP2 ADD SLOAD PUSH2 0x140 DUP5 ADD MSTORE ADD SLOAD PUSH2 0x160 DUP3 ADD MSTORE DUP1 MLOAD SWAP1 PUSH1 0x1 DUP1 PUSH1 0xA0 SHL SUB PUSH1 0x20 DUP3 ADD MLOAD AND PUSH1 0x40 DUP3 ADD MLOAD SWAP2 PUSH1 0x4 DUP4 LT ISZERO PUSH2 0x205 JUMPI PUSH1 0x60 DUP2 ADD MLOAD SWAP1 PUSH1 0x2 DUP3 LT ISZERO PUSH2 0x205 JUMPI PUSH1 0x80 DUP2 ADD MLOAD PUSH1 0xA0 DUP3 ADD MLOAD PUSH1 0xC0 DUP4 ADD MLOAD SWAP5 PUSH1 0xE0 DUP5 ADD MLOAD ISZERO ISZERO SWAP1 PUSH2 0x100 DUP6 ADD MLOAD ISZERO ISZERO SWAP3 PUSH2 0x120 DUP7 ADD MLOAD ISZERO ISZERO SWAP5 PUSH2 0x140 DUP8 ADD MLOAD SWAP7 PUSH2 0x160 ADD MLOAD SWAP8 PUSH1 0x40 MLOAD SWAP11 PUSH2 0x180 SWAP5 DUP6 DUP14 ADD SWAP14 DUP14 MSTORE PUSH1 0x20 DUP14 ADD MSTORE PUSH1 0x40 DUP13 ADD PUSH2 0xAA8 SWAP2 PUSH2 0x1762 JUMP JUMPDEST PUSH1 0x60 DUP12 ADD PUSH2 0xAB5 SWAP2 PUSH2 0x176F JUMP JUMPDEST PUSH1 0x80 DUP11 ADD MSTORE PUSH1 0xA0 DUP10 ADD MSTORE PUSH1 0xC0 DUP9 ADD MSTORE DUP6 MLOAD DUP1 SWAP9 MSTORE PUSH2 0x1A0 DUP8 ADD SWAP6 PUSH1 0x20 ADD PUSH1 0x0 SWAP9 JUMPDEST DUP1 DUP11 LT PUSH2 0xB03 JUMPI POP POP DUP7 SWAP8 POP PUSH1 0xE0 DUP8 ADD MSTORE PUSH2 0x100 DUP7 ADD MSTORE PUSH2 0x120 DUP6 ADD MSTORE PUSH2 0x140 DUP5 ADD MSTORE PUSH2 0x160 DUP4 ADD MSTORE SUB SWAP1 RETURN JUMPDEST DUP2 MLOAD PUSH1 0x1 PUSH1 0x1 PUSH1 0xA0 SHL SUB AND DUP9 MSTORE PUSH1 0x1 SWAP10 SWAP1 SWAP10 ADD SWAP9 PUSH1 0x20 SWAP8 DUP9 ADD SWAP8 SWAP1 SWAP2 ADD SWAP1 PUSH2 0xAD6 JUMP JUMPDEST DUP3 SLOAD PUSH1 0x1 PUSH1 0x1 PUSH1 0xA0 SHL SUB AND DUP8 MSTORE PUSH1 0x20 SWAP1 SWAP7 ADD SWAP6 PUSH1 0x1 SWAP3 DUP4 ADD SWAP3 ADD PUSH2 0x9C7 JUMP JUMPDEST CALLVALUE PUSH2 0x260 JUMPI PUSH1 0x20 DUP1 PUSH1 0x3 NOT CALLDATASIZE ADD SLT PUSH2 0x260 JUMPI PUSH1 0x1 PUSH1 0x1 PUSH1 0xA0 SHL SUB PUSH2 0xB67 PUSH2 0x174C JUMP JUMPDEST AND PUSH1 0x0 MSTORE PUSH1 0x3 DUP2 MSTORE PUSH1 0x40 PUSH1 0x0 KECCAK256 PUSH1 0x40 MLOAD SWAP1 DUP2 DUP4 DUP3 SLOAD SWAP2 DUP3 DUP2 MSTORE ADD SWAP1 DUP2 SWAP3 PUSH1 0x0 MSTORE DUP5 PUSH1 0x0 KECCAK256 SWAP1 PUSH1 0x0 JUMPDEST DUP7 DUP3 DUP3 LT PUSH2 0xBE5 JUMPI DUP7 DUP7 PUSH2 0xBA5 DUP3 DUP9 SUB DUP4 PUSH2 0x16BE JUMP JUMPDEST PUSH1 0x40 MLOAD SWAP3 DUP4 SWAP3 DUP2 DUP5 ADD SWAP1 DUP3 DUP6 MSTORE MLOAD DUP1 SWAP2 MSTORE PUSH1 0x40 DUP5 ADD SWAP3 SWAP2 PUSH1 0x0 JUMPDEST DUP3 DUP2 LT PUSH2 0xBCE JUMPI POP POP POP POP SUB SWAP1 RETURN JUMPDEST DUP4 MLOAD DUP6 MSTORE DUP7 SWAP6 POP SWAP4 DUP2 ADD SWAP4 SWAP3 DUP2 ADD SWAP3 PUSH1 0x1 ADD PUSH2 0xBBF JUMP JUMPDEST DUP4 SLOAD DUP6 MSTORE SWAP1 SWAP4 ADD SWAP3 PUSH1 0x1 SWAP3 DUP4 ADD SWAP3 ADD PUSH2 0xB8F JUMP JUMPDEST CALLVALUE PUSH2 0x260 JUMPI PUSH1 0x20 CALLDATASIZE PUSH1 0x3 NOT ADD SLT PUSH2 0x260 JUMPI PUSH1 0x1 PUSH1 0x1 PUSH1 0xA0 SHL SUB PUSH2 0xC1A PUSH2 0x174C JUMP JUMPDEST AND PUSH1 0x0 MSTORE PUSH1 0x4 PUSH1 0x20 MSTORE PUSH1 0xFF PUSH1 0x40 PUSH1 0x0 KECCAK256 SLOAD AND PUSH1 0x40 MLOAD PUSH1 0x3 DUP3 LT ISZERO PUSH2 0x205 JUMPI PUSH1 0x20 SWAP2 DUP2 MSTORE RETURN JUMPDEST CALLVALUE PUSH2 0x260 JUMPI PUSH1 0x0 CALLDATASIZE PUSH1 0x3 NOT ADD SLT PUSH2 0x260 JUMPI PUSH1 0x20 PUSH1 0x40 MLOAD PUSH1 0xA DUP2 MSTORE RETURN JUMPDEST CALLVALUE PUSH2 0x260 JUMPI PUSH1 0x0 CALLDATASIZE PUSH1 0x3 NOT ADD SLT PUSH2 0x260 JUMPI PUSH1 0x20 PUSH1 0x40 MLOAD PUSH1 0x1 DUP2 MSTORE RETURN JUMPDEST PUSH2 0x100 CALLDATASIZE PUSH1 0x3 NOT ADD SLT PUSH2 0x260 JUMPI PUSH1 0x4 DUP1 CALLDATALOAD LT ISZERO PUSH2 0x260 JUMPI PUSH1 0x2 PUSH1 0x24 CALLDATALOAD LT ISZERO PUSH2 0x260 JUMPI PUSH1 0x64 CALLDATALOAD PUSH1 0x1 PUSH1 0x1 PUSH1 0x40 SHL SUB DUP2 GT PUSH2 0x260 JUMPI PUSH2 0xCB8 SWAP1 CALLDATASIZE SWAP1 PUSH1 0x4 ADD PUSH2 0x16DF JUMP JUMPDEST PUSH1 0x84 CALLDATALOAD PUSH1 0x1 PUSH1 0x1 PUSH1 0x40 SHL SUB DUP2 GT PUSH2 0x260 JUMPI PUSH2 0xCD7 SWAP1 CALLDATASIZE SWAP1 PUSH1 0x4 ADD PUSH2 0x16DF JUMP JUMPDEST SWAP1 PUSH1 0xA4 CALLDATALOAD SWAP2 PUSH1 0x1 PUSH1 0x1 PUSH1 0x40 SHL SUB DUP4 GT PUSH2 0x260 JUMPI CALLDATASIZE PUSH1 0x23 DUP5 ADD SLT ISZERO PUSH2 0x260 JUMPI DUP3 PUSH1 0x4 ADD CALLDATALOAD SWAP3 PUSH2 0xD04 DUP5 PUSH2 0x1735 JUMP JUMPDEST SWAP4 PUSH2 0xD12 PUSH1 0x40 MLOAD SWAP6 DUP7 PUSH2 0x16BE JUMP JUMPDEST DUP1 DUP6 MSTORE PUSH1 0x20 DUP6 ADD SWAP2 CALLDATASIZE PUSH1 0x24 DUP4 PUSH1 0x5 SHL DUP4 ADD ADD GT PUSH2 0x260 JUMPI SWAP2 PUSH1 0x24 DUP4 ADD SWAP3 JUMPDEST PUSH1 0x24 DUP4 PUSH1 0x5 SHL DUP3 ADD ADD DUP5 LT PUSH2 0x1616 JUMPI POP POP POP POP PUSH1 0xC4 CALLDATALOAD PUSH1 0x1 PUSH1 0x1 PUSH1 0x40 SHL SUB DUP2 GT PUSH2 0x260 JUMPI PUSH2 0xD62 SWAP1 CALLDATASIZE SWAP1 PUSH1 0x4 ADD PUSH2 0x16DF JUMP JUMPDEST SWAP2 DUP4 MLOAD ISZERO PUSH2 0x15D1 JUMPI PUSH2 0xD75 PUSH1 0x4 CALLDATALOAD PUSH2 0x166E JUMP JUMPDEST SLOAD CALLVALUE LT PUSH2 0x158C JUMPI CALLER PUSH1 0x0 MSTORE PUSH1 0x4 PUSH1 0x20 MSTORE PUSH1 0xFF PUSH1 0x40 PUSH1 0x0 KECCAK256 SLOAD AND PUSH1 0x3 PUSH1 0x20 MSTORE PUSH1 0x40 PUSH1 0x0 KECCAK256 SLOAD SWAP1 PUSH1 0x3 DUP2 LT ISZERO PUSH2 0x205 JUMPI DUP1 PUSH2 0x1552 JUMPI POP PUSH1 0x1 PUSH2 0xDB5 SWAP2 LT PUSH2 0x18E5 JUMP JUMPDEST PUSH1 0x24 CALLDATALOAD PUSH2 0x14A9 JUMPI TIMESTAMP PUSH1 0x44 CALLDATALOAD GT ISZERO PUSH2 0x1464 JUMPI PUSH1 0xE4 CALLDATALOAD PUSH2 0x140B JUMPI JUMPDEST PUSH1 0x5 SLOAD SWAP4 PUSH1 0x0 NOT DUP6 EQ PUSH2 0x13F5 JUMPI PUSH1 0x1 DUP6 ADD PUSH1 0x5 SSTORE PUSH1 0x40 MLOAD PUSH2 0xDEE DUP2 PUSH2 0x1687 JUMP JUMPDEST PUSH1 0x1 DUP7 ADD DUP2 MSTORE PUSH1 0x20 DUP2 ADD SWAP2 CALLER DUP4 MSTORE PUSH2 0xE0B PUSH1 0x4 CALLDATALOAD PUSH1 0x40 DUP5 ADD PUSH2 0x1929 JUMP JUMPDEST PUSH2 0xE1A PUSH1 0x24 CALLDATALOAD PUSH1 0x60 DUP5 ADD PUSH2 0x1935 JUMP JUMPDEST PUSH1 0x44 CALLDATALOAD PUSH1 0x80 DUP4 ADD MSTORE TIMESTAMP PUSH1 0xA0 DUP4 ADD MSTORE PUSH1 0xC0 DUP3 ADD MSTORE PUSH1 0x0 PUSH1 0xE0 DUP3 ADD MSTORE PUSH1 0x0 PUSH2 0x100 DUP3 ADD MSTORE PUSH1 0x0 PUSH2 0x120 DUP3 ADD MSTORE PUSH1 0xE4 CALLDATALOAD PUSH2 0x140 DUP3 ADD MSTORE TIMESTAMP PUSH2 0x160 DUP3 ADD MSTORE PUSH1 0x1 DUP7 ADD PUSH1 0x0 MSTORE PUSH1 0x0 PUSH1 0x20 MSTORE PUSH1 0x40 PUSH1 0x0 KECCAK256 SWAP2 DUP2 MLOAD DUP4 SSTORE PUSH1 0x1 DUP1 PUSH1 0xA0 SHL SUB SWAP1 MLOAD AND PUSH1 0x1 DUP4 ADD SLOAD SWAP1 PUSH1 0x40 DUP4 ADD MLOAD SWAP1 PUSH1 0x4 DUP3 LT ISZERO PUSH2 0x205 JUMPI PUSH1 0x60 DUP5 ADD MLOAD PUSH1 0x2 DUP2 LT ISZERO PUSH2 0x205 JUMPI PUSH1 0xFF PUSH1 0xA8 SHL SWAP1 PUSH1 0xA8 SHL AND SWAP3 PUSH10 0xFFFFFFFFFFFFFFFFFFFF PUSH1 0xB0 SHL AND OR SWAP1 PUSH1 0xFF PUSH1 0xA0 SHL SWAP1 PUSH1 0xA0 SHL AND OR OR PUSH1 0x1 DUP4 ADD SSTORE PUSH1 0x80 DUP2 ADD MLOAD PUSH1 0x2 DUP4 ADD SSTORE PUSH1 0xA0 DUP2 ADD MLOAD PUSH1 0x3 DUP4 ADD SSTORE PUSH1 0xC0 DUP2 ADD MLOAD DUP1 MLOAD SWAP1 PUSH1 0x1 PUSH1 0x1 PUSH1 0x40 SHL SUB DUP3 GT PUSH2 0x1232 JUMPI PUSH1 0x1 PUSH1 0x40 SHL DUP3 GT PUSH2 0x1232 JUMPI PUSH1 0x20 SWAP1 PUSH1 0x4 DUP6 ADD SLOAD DUP4 PUSH1 0x4 DUP8 ADD SSTORE DUP1 DUP5 LT PUSH2 0x13D5 JUMPI JUMPDEST POP ADD PUSH1 0x4 DUP5 ADD PUSH1 0x0 MSTORE PUSH1 0x20 PUSH1 0x0 KECCAK256 PUSH1 0x0 JUMPDEST DUP4 DUP2 LT PUSH2 0x13B8 JUMPI POP POP POP POP PUSH2 0x160 PUSH1 0x7 SWAP2 PUSH1 0x5 DUP5 ADD PUSH1 0xE0 DUP3 ADD MLOAD ISZERO ISZERO DUP2 SLOAD PUSH2 0xFF00 PUSH2 0x100 DUP6 ADD MLOAD ISZERO ISZERO PUSH1 0x8 SHL AND SWAP1 PUSH1 0xFF PUSH3 0xFF0000 PUSH2 0x120 DUP8 ADD MLOAD ISZERO ISZERO PUSH1 0x10 SHL AND SWAP4 AND SWAP1 PUSH3 0xFFFFFF NOT AND OR OR OR SWAP1 SSTORE PUSH2 0x140 DUP2 ADD MLOAD PUSH1 0x6 DUP6 ADD SSTORE ADD MLOAD SWAP2 ADD SSTORE CALLER PUSH1 0x0 MSTORE PUSH1 0x3 PUSH1 0x20 MSTORE PUSH1 0x40 PUSH1 0x0 KECCAK256 DUP1 SLOAD PUSH1 0x1 PUSH1 0x40 SHL DUP2 LT ISZERO PUSH2 0x1232 JUMPI PUSH2 0xFA9 SWAP2 PUSH1 0x1 DUP3 ADD DUP2 SSTORE PUSH2 0x189B JUMP JUMPDEST DUP2 SLOAD SWAP1 PUSH1 0x3 SHL SWAP1 PUSH1 0x1 DUP8 ADD DUP3 SHL SWAP2 PUSH1 0x0 NOT SWAP1 SHL NOT AND OR SWAP1 SSTORE PUSH1 0x40 MLOAD SWAP2 PUSH2 0xFCE DUP4 PUSH2 0x16A3 JUMP JUMPDEST DUP3 MSTORE PUSH1 0x20 DUP3 ADD MSTORE PUSH1 0x1 DUP4 ADD PUSH1 0x0 MSTORE PUSH1 0x1 PUSH1 0x20 MSTORE PUSH1 0x40 PUSH1 0x0 KECCAK256 DUP1 SLOAD PUSH1 0x1 PUSH1 0x40 SHL DUP2 LT ISZERO PUSH2 0x1232 JUMPI PUSH2 0x1003 SWAP2 PUSH1 0x1 DUP3 ADD DUP2 SSTORE PUSH2 0x18C9 JUMP JUMPDEST SWAP2 SWAP1 SWAP2 PUSH2 0x13A2 JUMPI DUP1 MLOAD DUP1 MLOAD SWAP1 PUSH1 0x1 PUSH1 0x1 PUSH1 0x40 SHL SUB DUP3 GT PUSH2 0x1232 JUMPI PUSH2 0x1027 DUP5 SLOAD PUSH2 0x177C JUMP JUMPDEST PUSH1 0x1F DUP2 GT PUSH2 0x1370 JUMPI JUMPDEST POP PUSH1 0x20 SWAP1 PUSH1 0x1F DUP4 GT PUSH1 0x1 EQ PUSH2 0x1303 JUMPI PUSH1 0x20 SWAP4 SWAP3 SWAP2 PUSH1 0x0 SWAP2 DUP4 PUSH2 0x12F8 JUMPI JUMPDEST POP POP DUP2 PUSH1 0x1 SHL SWAP2 PUSH1 0x0 NOT SWAP1 PUSH1 0x3 SHL SHR NOT AND OR DUP4 SSTORE JUMPDEST ADD MLOAD DUP1 MLOAD SWAP1 PUSH1 0x1 PUSH1 0x1 PUSH1 0x40 SHL SUB DUP3 GT PUSH2 0x1232 JUMPI PUSH2 0x1082 PUSH1 0x1 DUP5 ADD SLOAD PUSH2 0x177C JUMP JUMPDEST PUSH1 0x1F DUP2 GT PUSH2 0x12C3 JUMPI JUMPDEST POP PUSH1 0x20 SWAP1 PUSH1 0x1F DUP4 GT PUSH1 0x1 EQ PUSH2 0x1253 JUMPI PUSH1 0x1 SWAP3 SWAP2 PUSH1 0x0 SWAP2 DUP4 PUSH2 0x1248 JUMPI JUMPDEST POP POP PUSH1 0x0 NOT PUSH1 0x3 DUP4 SWAP1 SHL SHR NOT AND SWAP1 DUP3 SHL OR SWAP2 ADD SSTORE JUMPDEST PUSH1 0x1 DUP3 ADD PUSH1 0x0 MSTORE PUSH1 0x2 PUSH1 0x20 MSTORE PUSH1 0x40 PUSH1 0x0 KECCAK256 SWAP2 DUP2 MLOAD SWAP3 PUSH1 0x1 PUSH1 0x1 PUSH1 0x40 SHL SUB DUP5 GT PUSH2 0x1232 JUMPI PUSH1 0x20 SWAP4 PUSH2 0x10EC DUP3 SLOAD PUSH2 0x177C JUMP JUMPDEST PUSH1 0x1F DUP2 GT PUSH2 0x11F7 JUMPI JUMPDEST POP DUP5 PUSH1 0x1F DUP3 GT PUSH1 0x1 EQ PUSH2 0x1191 JUMPI DUP2 SWAP3 SWAP4 SWAP5 PUSH1 0x0 SWAP3 PUSH2 0x1186 JUMPI JUMPDEST POP POP DUP2 PUSH1 0x1 SHL SWAP2 PUSH1 0x0 NOT SWAP1 PUSH1 0x3 SHL SHR NOT AND OR SWAP1 SSTORE JUMPDEST PUSH1 0x40 MLOAD PUSH2 0x1132 DUP2 PUSH1 0x4 CALLDATALOAD PUSH2 0x1762 JUMP JUMPDEST PUSH2 0x1140 DUP4 DUP3 ADD PUSH1 0x24 CALLDATALOAD PUSH2 0x176F JUMP JUMPDEST PUSH1 0x44 CALLDATALOAD PUSH1 0x40 DUP3 ADD MSTORE PUSH1 0xE4 CALLDATALOAD PUSH1 0x60 DUP3 ADD MSTORE CALLER SWAP1 PUSH32 0x6EE80EEE06AD783B22ADDB627AF53564FF50AA18F2952C368EC3B6F273EE0D2E PUSH1 0x80 PUSH1 0x1 DUP6 ADD SWAP3 LOG3 PUSH1 0x1 PUSH1 0x40 MLOAD SWAP2 ADD DUP2 MSTORE RETURN JUMPDEST ADD MLOAD SWAP1 POP DUP6 DUP1 PUSH2 0x110E JUMP JUMPDEST DUP3 PUSH1 0x0 MSTORE DUP6 PUSH1 0x0 KECCAK256 SWAP1 PUSH1 0x0 JUMPDEST PUSH1 0x1F NOT DUP5 AND DUP2 LT PUSH2 0x11E0 JUMPI POP PUSH1 0x1 SWAP4 SWAP5 SWAP6 DUP4 PUSH1 0x1F NOT DUP2 AND LT PUSH2 0x11C7 JUMPI JUMPDEST POP POP POP DUP2 SHL ADD SWAP1 SSTORE PUSH2 0x1123 JUMP JUMPDEST ADD MLOAD PUSH1 0x0 NOT PUSH1 0xF8 DUP5 PUSH1 0x3 SHL AND SHR NOT AND SWAP1 SSTORE DUP6 DUP1 DUP1 PUSH2 0x11BA JUMP JUMPDEST SWAP1 SWAP2 DUP8 PUSH1 0x1 DUP2 SWAP3 DUP6 DUP11 ADD MLOAD DUP2 SSTORE ADD SWAP4 ADD SWAP2 ADD PUSH2 0x119D JUMP JUMPDEST PUSH2 0x1222 SWAP1 DUP4 PUSH1 0x0 MSTORE DUP7 PUSH1 0x0 KECCAK256 PUSH1 0x1F DUP5 ADD PUSH1 0x5 SHR DUP2 ADD SWAP2 DUP9 DUP6 LT PUSH2 0x1228 JUMPI JUMPDEST PUSH1 0x1F ADD PUSH1 0x5 SHR ADD SWAP1 PUSH2 0x1941 JUMP JUMPDEST DUP6 PUSH2 0x10F5 JUMP JUMPDEST SWAP1 SWAP2 POP DUP2 SWAP1 PUSH2 0x1215 JUMP JUMPDEST PUSH4 0x4E487B71 PUSH1 0xE0 SHL PUSH1 0x0 MSTORE PUSH1 0x41 PUSH1 0x4 MSTORE PUSH1 0x24 PUSH1 0x0 REVERT JUMPDEST ADD MLOAD SWAP1 POP DUP7 DUP1 PUSH2 0x10A7 JUMP JUMPDEST SWAP1 PUSH1 0x1 DUP5 ADD PUSH1 0x0 MSTORE PUSH1 0x20 PUSH1 0x0 KECCAK256 SWAP2 PUSH1 0x0 JUMPDEST PUSH1 0x1F NOT DUP6 AND DUP2 LT PUSH2 0x12AB JUMPI POP SWAP2 DUP4 SWAP2 PUSH1 0x1 SWAP5 SWAP4 DUP6 SWAP5 PUSH1 0x1F NOT DUP2 AND LT PUSH2 0x1292 JUMPI JUMPDEST POP POP POP DUP2 SHL ADD SWAP2 ADD SSTORE PUSH2 0x10BC JUMP JUMPDEST ADD MLOAD PUSH1 0x0 NOT PUSH1 0xF8 DUP5 PUSH1 0x3 SHL AND SHR NOT AND SWAP1 SSTORE DUP7 DUP1 DUP1 PUSH2 0x1284 JUMP JUMPDEST SWAP2 SWAP3 PUSH1 0x20 PUSH1 0x1 DUP2 SWAP3 DUP7 DUP6 ADD MLOAD DUP2 SSTORE ADD SWAP5 ADD SWAP3 ADD PUSH2 0x1264 JUMP JUMPDEST PUSH2 0x12F2 SWAP1 PUSH1 0x1 DUP6 ADD PUSH1 0x0 MSTORE PUSH1 0x20 PUSH1 0x0 KECCAK256 PUSH1 0x1F DUP6 ADD PUSH1 0x5 SHR DUP2 ADD SWAP2 PUSH1 0x20 DUP7 LT PUSH2 0x1228 JUMPI PUSH1 0x1F ADD PUSH1 0x5 SHR ADD SWAP1 PUSH2 0x1941 JUMP JUMPDEST DUP6 PUSH2 0x108B JUMP JUMPDEST ADD MLOAD SWAP1 POP DUP8 DUP1 PUSH2 0x104D JUMP JUMPDEST SWAP1 DUP5 PUSH1 0x0 MSTORE PUSH1 0x20 PUSH1 0x0 KECCAK256 SWAP2 PUSH1 0x0 JUMPDEST PUSH1 0x1F NOT DUP6 AND DUP2 LT PUSH2 0x1358 JUMPI POP SWAP2 DUP4 SWAP2 PUSH1 0x1 SWAP4 PUSH1 0x20 SWAP7 SWAP6 PUSH1 0x1F NOT DUP2 AND LT PUSH2 0x133F JUMPI JUMPDEST POP POP POP DUP2 SHL ADD DUP4 SSTORE PUSH2 0x1062 JUMP JUMPDEST ADD MLOAD PUSH1 0x0 NOT PUSH1 0xF8 DUP5 PUSH1 0x3 SHL AND SHR NOT AND SWAP1 SSTORE DUP8 DUP1 DUP1 PUSH2 0x1332 JUMP JUMPDEST SWAP2 SWAP3 PUSH1 0x20 PUSH1 0x1 DUP2 SWAP3 DUP7 DUP6 ADD MLOAD DUP2 SSTORE ADD SWAP5 ADD SWAP3 ADD PUSH2 0x1311 JUMP JUMPDEST PUSH2 0x139C SWAP1 DUP6 PUSH1 0x0 MSTORE PUSH1 0x20 PUSH1 0x0 KECCAK256 PUSH1 0x1F DUP6 ADD PUSH1 0x5 SHR DUP2 ADD SWAP2 PUSH1 0x20 DUP7 LT PUSH2 0x1228 JUMPI PUSH1 0x1F ADD PUSH1 0x5 SHR ADD SWAP1 PUSH2 0x1941 JUMP JUMPDEST DUP7 PUSH2 0x1030 JUMP JUMPDEST PUSH4 0x4E487B71 PUSH1 0xE0 SHL PUSH1 0x0 MSTORE PUSH1 0x0 PUSH1 0x4 MSTORE PUSH1 0x24 PUSH1 0x0 REVERT JUMPDEST DUP3 MLOAD PUSH1 0x1 PUSH1 0x1 PUSH1 0xA0 SHL SUB AND DUP2 DUP4 ADD SSTORE PUSH1 0x20 SWAP1 SWAP3 ADD SWAP2 PUSH1 0x1 ADD PUSH2 0xF20 JUMP JUMPDEST PUSH2 0x13EF SWAP1 PUSH1 0x4 DUP8 ADD PUSH1 0x0 MSTORE DUP5 DUP5 PUSH1 0x0 KECCAK256 SWAP2 DUP3 ADD SWAP2 ADD PUSH2 0x1941 JUMP JUMPDEST DUP10 PUSH2 0xF0F JUMP JUMPDEST PUSH4 0x4E487B71 PUSH1 0xE0 SHL PUSH1 0x0 MSTORE PUSH1 0x11 PUSH1 0x4 MSTORE PUSH1 0x24 PUSH1 0x0 REVERT JUMPDEST PUSH1 0x40 MLOAD PUSH3 0x461BCD PUSH1 0xE5 SHL DUP2 MSTORE PUSH1 0x20 PUSH1 0x4 DUP3 ADD MSTORE PUSH1 0x2B PUSH1 0x24 DUP3 ADD MSTORE PUSH32 0x48656172746265617420696E74657276616C206D757374206265203020666F72 PUSH1 0x44 DUP3 ADD MSTORE PUSH11 0x81D1A5B594B58985CD959 PUSH1 0xAA SHL PUSH1 0x64 DUP3 ADD MSTORE PUSH1 0x84 SWAP1 REVERT JUMPDEST PUSH1 0x40 MLOAD PUSH3 0x461BCD PUSH1 0xE5 SHL DUP2 MSTORE PUSH1 0x20 PUSH1 0x4 DUP3 ADD MSTORE PUSH1 0x1D PUSH1 0x24 DUP3 ADD MSTORE PUSH32 0x556E6C6F636B2074696D65206D75737420626520696E20667574757265000000 PUSH1 0x44 DUP3 ADD MSTORE PUSH1 0x64 SWAP1 REVERT JUMPDEST PUSH1 0x1 PUSH1 0x24 CALLDATALOAD SUB PUSH2 0xDCE JUMPI PUSH1 0xE4 CALLDATALOAD ISZERO PUSH2 0x150D JUMPI PUSH3 0x15180 PUSH1 0xE4 CALLDATALOAD LT ISZERO PUSH2 0xDCE JUMPI PUSH1 0x40 MLOAD PUSH3 0x461BCD PUSH1 0xE5 SHL DUP2 MSTORE PUSH1 0x20 PUSH1 0x4 DUP3 ADD MSTORE PUSH1 0x1C PUSH1 0x24 DUP3 ADD MSTORE PUSH32 0x48656172746265617420696E74657276616C20746F6F2073686F727400000000 PUSH1 0x44 DUP3 ADD MSTORE PUSH1 0x64 SWAP1 REVERT JUMPDEST PUSH1 0x40 MLOAD PUSH3 0x461BCD PUSH1 0xE5 SHL DUP2 MSTORE PUSH1 0x20 PUSH1 0x4 DUP3 ADD MSTORE PUSH1 0x1B PUSH1 0x24 DUP3 ADD MSTORE PUSH32 0x48656172746265617420696E74657276616C2072657175697265640000000000 PUSH1 0x44 DUP3 ADD MSTORE PUSH1 0x64 SWAP1 REVERT JUMPDEST PUSH1 0x1 DUP2 SUB PUSH2 0x156C JUMPI POP PUSH1 0xA PUSH2 0x1567 SWAP2 LT PUSH2 0x18E5 JUMP JUMPDEST PUSH2 0xDB5 JUMP JUMPDEST PUSH1 0x2 EQ PUSH2 0x157A JUMPI JUMPDEST POP PUSH2 0xDB5 JUMP JUMPDEST PUSH1 0x64 PUSH2 0x1586 SWAP2 LT PUSH2 0x18E5 JUMP JUMPDEST DUP5 PUSH2 0x1574 JUMP JUMPDEST PUSH1 0x40 MLOAD PUSH3 0x461BCD PUSH1 0xE5 SHL DUP2 MSTORE PUSH1 0x20 PUSH1 0x4 DUP3 ADD MSTORE PUSH1 0x19 PUSH1 0x24 DUP3 ADD MSTORE PUSH32 0x496E73756666696369656E74206372656174696F6E2066656500000000000000 PUSH1 0x44 DUP3 ADD MSTORE PUSH1 0x64 SWAP1 REVERT JUMPDEST PUSH1 0x40 MLOAD PUSH3 0x461BCD PUSH1 0xE5 SHL DUP2 MSTORE PUSH1 0x20 PUSH1 0x4 DUP3 ADD MSTORE PUSH1 0x1F PUSH1 0x24 DUP3 ADD MSTORE PUSH32 0x4174206C65617374206F6E6520726563697069656E7420726571756972656400 PUSH1 0x44 DUP3 ADD MSTORE PUSH1 0x64 SWAP1 REVERT JUMPDEST DUP4 CALLDATALOAD PUSH1 0x1 PUSH1 0x1 PUSH1 0xA0 SHL SUB DUP2 AND SWAP1 SUB PUSH2 0x260 JUMPI PUSH1 0x20 DUP1 PUSH1 0x24 SWAP4 DUP7 CALLDATALOAD DUP2 MSTORE ADD SWAP5 ADD SWAP4 SWAP2 POP PUSH2 0xD30 JUMP JUMPDEST CALLVALUE PUSH2 0x260 JUMPI PUSH1 0x20 CALLDATASIZE PUSH1 0x3 NOT ADD SLT PUSH2 0x260 JUMPI PUSH1 0x4 CALLDATALOAD PUSH1 0x4 DUP2 LT ISZERO PUSH2 0x260 JUMPI PUSH2 0x1665 PUSH1 0x20 SWAP2 PUSH2 0x166E JUMP JUMPDEST SLOAD PUSH1 0x40 MLOAD SWAP1 DUP2 MSTORE RETURN JUMPDEST PUSH1 0x4 DUP2 LT ISZERO PUSH2 0x205 JUMPI PUSH1 0x0 MSTORE PUSH1 0x6 PUSH1 0x20 MSTORE PUSH1 0x40 PUSH1 0x0 KECCAK256 SWAP1 JUMP JUMPDEST PUSH2 0x180 DUP2 ADD SWAP1 DUP2 LT PUSH1 0x1 PUSH1 0x1 PUSH1 0x40 SHL SUB DUP3 GT OR PUSH2 0x1232 JUMPI PUSH1 0x40 MSTORE JUMP JUMPDEST PUSH1 0x40 DUP2 ADD SWAP1 DUP2 LT PUSH1 0x1 PUSH1 0x1 PUSH1 0x40 SHL SUB DUP3 GT OR PUSH2 0x1232 JUMPI PUSH1 0x40 MSTORE JUMP JUMPDEST SWAP1 PUSH1 0x1F DUP1 NOT SWAP2 ADD AND DUP2 ADD SWAP1 DUP2 LT PUSH1 0x1 PUSH1 0x1 PUSH1 0x40 SHL SUB DUP3 GT OR PUSH2 0x1232 JUMPI PUSH1 0x40 MSTORE JUMP JUMPDEST DUP2 PUSH1 0x1F DUP3 ADD SLT ISZERO PUSH2 0x260 JUMPI DUP1 CALLDATALOAD SWAP1 PUSH1 0x1 PUSH1 0x1 PUSH1 0x40 SHL SUB DUP3 GT PUSH2 0x1232 JUMPI PUSH1 0x40 MLOAD SWAP3 PUSH2 0x1713 PUSH1 0x1F DUP5 ADD PUSH1 0x1F NOT AND PUSH1 0x20 ADD DUP6 PUSH2 0x16BE JUMP JUMPDEST DUP3 DUP5 MSTORE PUSH1 0x20 DUP4 DUP4 ADD ADD GT PUSH2 0x260 JUMPI DUP2 PUSH1 0x0 SWAP3 PUSH1 0x20 DUP1 SWAP4 ADD DUP4 DUP7 ADD CALLDATACOPY DUP4 ADD ADD MSTORE SWAP1 JUMP JUMPDEST PUSH1 0x1 PUSH1 0x1 PUSH1 0x40 SHL SUB DUP2 GT PUSH2 0x1232 JUMPI PUSH1 0x5 SHL PUSH1 0x20 ADD SWAP1 JUMP JUMPDEST PUSH1 0x4 CALLDATALOAD SWAP1 PUSH1 0x1 PUSH1 0x1 PUSH1 0xA0 SHL SUB DUP3 AND DUP3 SUB PUSH2 0x260 JUMPI JUMP JUMPDEST SWAP1 PUSH1 0x4 DUP3 LT ISZERO PUSH2 0x205 JUMPI MSTORE JUMP JUMPDEST SWAP1 PUSH1 0x2 DUP3 LT ISZERO PUSH2 0x205 JUMPI MSTORE JUMP JUMPDEST SWAP1 PUSH1 0x1 DUP3 DUP2 SHR SWAP3 AND DUP1 ISZERO PUSH2 0x17AC JUMPI JUMPDEST PUSH1 0x20 DUP4 LT EQ PUSH2 0x1796 JUMPI JUMP JUMPDEST PUSH4 0x4E487B71 PUSH1 0xE0 SHL PUSH1 0x0 MSTORE PUSH1 0x22 PUSH1 0x4 MSTORE PUSH1 0x24 PUSH1 0x0 REVERT JUMPDEST SWAP2 PUSH1 0x7F AND SWAP2 PUSH2 0x178B JUMP JUMPDEST SWAP1 PUSH1 0x40 MLOAD SWAP2 DUP3 PUSH1 0x0 DUP3 SLOAD PUSH2 0x17C9 DUP2 PUSH2 0x177C JUMP JUMPDEST SWAP1 DUP2 DUP5 MSTORE PUSH1 0x20 SWAP5 PUSH1 0x1 SWAP2 PUSH1 0x1 DUP2 AND SWAP1 DUP2 PUSH1 0x0 EQ PUSH2 0x1839 JUMPI POP PUSH1 0x1 EQ PUSH2 0x17FA JUMPI JUMPDEST POP POP POP PUSH2 0x17F8 SWAP3 POP SUB DUP4 PUSH2 0x16BE JUMP JUMPDEST JUMP JUMPDEST PUSH1 0x0 SWAP1 DUP2 MSTORE DUP6 DUP2 KECCAK256 SWAP6 SWAP4 POP SWAP2 SWAP1 JUMPDEST DUP2 DUP4 LT PUSH2 0x1821 JUMPI POP POP PUSH2 0x17F8 SWAP4 POP DUP3 ADD ADD CODESIZE DUP1 DUP1 PUSH2 0x17E9 JUMP JUMPDEST DUP6 SLOAD DUP9 DUP5 ADD DUP6 ADD MSTORE SWAP5 DUP6 ADD SWAP5 DUP8 SWAP5 POP SWAP2 DUP4 ADD SWAP2 PUSH2 0x1808 JUMP JUMPDEST SWAP3 POP POP POP PUSH2 0x17F8 SWAP5 SWAP3 POP PUSH1 0xFF NOT AND DUP3 DUP5 ADD MSTORE ISZERO ISZERO PUSH1 0x5 SHL DUP3 ADD ADD CODESIZE DUP1 DUP1 PUSH2 0x17E9 JUMP JUMPDEST SWAP2 SWAP1 DUP3 MLOAD SWAP3 DUP4 DUP3 MSTORE PUSH1 0x0 JUMPDEST DUP5 DUP2 LT PUSH2 0x1887 JUMPI POP POP DUP3 PUSH1 0x0 PUSH1 0x20 DUP1 SWAP5 SWAP6 DUP5 ADD ADD MSTORE PUSH1 0x1F DUP1 NOT SWAP2 ADD AND ADD ADD SWAP1 JUMP JUMPDEST PUSH1 0x20 DUP2 DUP4 ADD DUP2 ADD MLOAD DUP5 DUP4 ADD DUP3 ADD MSTORE ADD PUSH2 0x1866 JUMP JUMPDEST DUP1 SLOAD DUP3 LT ISZERO PUSH2 0x18B3 JUMPI PUSH1 0x0 MSTORE PUSH1 0x20 PUSH1 0x0 KECCAK256 ADD SWAP1 PUSH1 0x0 SWAP1 JUMP JUMPDEST PUSH4 0x4E487B71 PUSH1 0xE0 SHL PUSH1 0x0 MSTORE PUSH1 0x32 PUSH1 0x4 MSTORE PUSH1 0x24 PUSH1 0x0 REVERT JUMPDEST DUP1 SLOAD DUP3 LT ISZERO PUSH2 0x18B3 JUMPI PUSH1 0x0 MSTORE PUSH1 0x20 PUSH1 0x0 KECCAK256 SWAP1 PUSH1 0x1 SHL ADD SWAP1 PUSH1 0x0 SWAP1 JUMP JUMPDEST ISZERO PUSH2 0x18EC JUMPI JUMP JUMPDEST PUSH1 0x40 MLOAD PUSH3 0x461BCD PUSH1 0xE5 SHL DUP2 MSTORE PUSH1 0x20 PUSH1 0x4 DUP3 ADD MSTORE PUSH1 0x15 PUSH1 0x24 DUP3 ADD MSTORE PUSH21 0x10D85C1CDD5B19481B1A5B5A5D081C995858DA1959 PUSH1 0x5A SHL PUSH1 0x44 DUP3 ADD MSTORE PUSH1 0x64 SWAP1 REVERT JUMPDEST PUSH1 0x4 DUP3 LT ISZERO PUSH2 0x205 JUMPI MSTORE JUMP JUMPDEST PUSH1 0x2 DUP3 LT ISZERO PUSH2 0x205 JUMPI MSTORE JUMP JUMPDEST DUP2 DUP2 LT PUSH2 0x194C JUMPI POP POP JUMP JUMPDEST PUSH1 0x0 DUP2 SSTORE PUSH1 0x1 ADD PUSH2 0x1941 JUMP JUMPDEST ISZERO PUSH2 0x195F JUMPI JUMP JUMPDEST PUSH1 0x40 MLOAD PUSH3 0x461BCD PUSH1 0xE5 SHL DUP2 MSTORE PUSH1 0x20 PUSH1 0x4 DUP3 ADD MSTORE PUSH1 0x18 PUSH1 0x24 DUP3 ADD MSTORE PUSH32 0x4F6E6C79206F776E65722063616E2063616C6C20746869730000000000000000 PUSH1 0x44 DUP3 ADD MSTORE PUSH1 0x64 SWAP1 REVERT JUMPDEST PUSH1 0x0 SWAP1 DUP2 MSTORE PUSH1 0x20 SWAP1 DUP1 PUSH1 0x20 MSTORE PUSH1 0x40 DUP2 KECCAK256 SWAP1 PUSH1 0x40 MLOAD PUSH2 0x19C1 DUP2 PUSH2 0x1687 JUMP JUMPDEST DUP3 SLOAD DUP2 MSTORE PUSH1 0x1 DUP1 DUP5 ADD SLOAD PUSH1 0x1 PUSH1 0x1 PUSH1 0xA0 SHL SUB DUP1 DUP3 AND PUSH1 0x20 DUP6 ADD MSTORE SWAP6 SWAP1 SWAP2 SWAP1 PUSH2 0x19F3 PUSH1 0xA0 DUP5 SWAP1 SHR PUSH1 0xFF AND PUSH1 0x40 DUP7 ADD PUSH2 0x1929 JUMP JUMPDEST PUSH2 0x1A07 PUSH1 0xFF PUSH1 0x60 DUP7 ADD SWAP5 PUSH1 0xA8 SHR AND DUP5 PUSH2 0x1935 JUMP JUMPDEST PUSH1 0x2 DUP7 ADD SLOAD SWAP7 PUSH1 0x80 DUP6 ADD SWAP8 DUP9 MSTORE PUSH1 0x3 DUP8 ADD SLOAD PUSH1 0xA0 DUP7 ADD MSTORE PUSH1 0x4 DUP8 ADD PUSH1 0x40 MLOAD SWAP4 DUP5 DUP6 SWAP4 PUSH1 0x20 DUP5 SLOAD SWAP3 DUP4 DUP2 MSTORE ADD SWAP4 DUP11 MSTORE PUSH1 0x20 DUP11 KECCAK256 SWAP6 DUP11 SWAP2 JUMPDEST DUP4 DUP4 LT PUSH2 0x1B44 JUMPI POP POP POP POP POP PUSH2 0x1A55 SWAP3 POP SUB DUP3 PUSH2 0x16BE JUMP JUMPDEST PUSH1 0xC0 DUP4 ADD MSTORE PUSH1 0x5 DUP5 ADD SLOAD PUSH1 0xFF DUP2 AND ISZERO ISZERO SWAP1 DUP2 PUSH1 0xE0 DUP6 ADD MSTORE PUSH1 0xFF DUP1 DUP3 PUSH1 0x8 SHR AND ISZERO ISZERO SWAP2 DUP3 PUSH2 0x100 DUP8 ADD MSTORE PUSH1 0x10 SHR AND ISZERO ISZERO PUSH2 0x120 DUP6 ADD MSTORE PUSH2 0x160 PUSH1 0x7 PUSH1 0x6 DUP9 ADD SLOAD SWAP8 PUSH2 0x140 DUP8 ADD SWAP9 DUP10 MSTORE ADD SLOAD SWAP5 ADD SWAP4 DUP5 MSTORE PUSH2 0x1B3B JUMPI PUSH2 0x1B31 JUMPI DUP1 MLOAD PUSH1 0x2 DUP2 LT ISZERO PUSH2 0x1B1D JUMPI PUSH2 0x1AC6 JUMPI POP POP POP POP MLOAD TIMESTAMP LT ISZERO SWAP1 JUMP JUMPDEST SWAP1 SWAP2 SWAP3 SWAP4 POP MLOAD PUSH1 0x2 DUP2 LT ISZERO PUSH2 0x1B09 JUMPI PUSH1 0x1 EQ PUSH2 0x1AE2 JUMPI POP SWAP1 POP SWAP1 JUMP JUMPDEST MLOAD SWAP2 MLOAD DUP3 ADD DUP1 SWAP3 GT PUSH2 0x1AF5 JUMPI POP TIMESTAMP LT ISZERO SWAP1 JUMP JUMPDEST PUSH4 0x4E487B71 PUSH1 0xE0 SHL DUP2 MSTORE PUSH1 0x11 PUSH1 0x4 MSTORE PUSH1 0x24 SWAP1 REVERT JUMPDEST PUSH4 0x4E487B71 PUSH1 0xE0 SHL DUP4 MSTORE PUSH1 0x21 PUSH1 0x4 MSTORE PUSH1 0x24 DUP4 REVERT JUMPDEST PUSH4 0x4E487B71 PUSH1 0xE0 SHL DUP5 MSTORE PUSH1 0x21 PUSH1 0x4 MSTORE PUSH1 0x24 DUP5 REVERT JUMPDEST POP POP POP POP POP PUSH1 0x1 SWAP1 JUMP JUMPDEST POP POP POP SWAP2 POP POP SWAP1 JUMP JUMPDEST DUP8 SLOAD DUP2 AND DUP7 MSTORE SWAP7 DUP5 ADD SWAP7 DUP9 SWAP7 POP SWAP5 DUP2 ADD SWAP5 SWAP2 DUP5 ADD SWAP2 PUSH2 0x1A3D JUMP JUMPDEST ISZERO PUSH2 0x1B65 JUMPI JUMP JUMPDEST PUSH1 0x40 MLOAD PUSH3 0x461BCD PUSH1 0xE5 SHL DUP2 MSTORE PUSH1 0x20 PUSH1 0x4 DUP3 ADD MSTORE PUSH1 0xF PUSH1 0x24 DUP3 ADD MSTORE PUSH15 0x2737BA103A34329031B932B0BA37B9 PUSH1 0x89 SHL PUSH1 0x44 DUP3 ADD MSTORE PUSH1 0x64 SWAP1 REVERT JUMPDEST ISZERO PUSH2 0x1BA3 JUMPI JUMP JUMPDEST PUSH1 0x40 MLOAD PUSH3 0x461BCD PUSH1 0xE5 SHL DUP2 MSTORE PUSH1 0x20 PUSH1 0x4 DUP3 ADD MSTORE PUSH1 0x14 PUSH1 0x24 DUP3 ADD MSTORE PUSH20 0x10D85C1CDD5B19481A5CC818D85B98D95B1B1959 PUSH1 0x62 SHL PUSH1 0x44 DUP3 ADD MSTORE PUSH1 0x64 SWAP1 REVERT INVALID LOG2 PUSH5 0x6970667358 0x22 SLT KECCAK256 AND SHR 0xFB 0x22 CODECOPY 0x4E SLT DUP13 0xC3 DUP14 0xAA 0xC6 0x4B 0xAE 0xC5 ISZERO LOG0 PUSH20 0x2FBA2C9E4ACEEA12A899649890AF64736F6C6343 STOP ADDMOD XOR STOP CALLER "
        },
        "methodIdentifiers": {
          "MAX_FREE_CAPSULES()": "0e09160e",
          "MAX_PREMIUM_CAPSULES()": "d674e192",
          "MAX_PRO_CAPSULES()": "224646dc",
          "cancelCapsule(uint256)": "c446bac1",
          "capsuleMetadata(uint256)": "44762d76",
          "capsuleStages(uint256,uint256)": "cf1dba66",
          "capsules(uint256)": "517bbf46",
          "checkIn(uint256)": "e95a644f",
          "createCapsule(uint8,uint8,uint256,string,string,address[],string,uint256)": "0db08dbb",
          "creationFees(uint8)": "0bb8cd4d",
          "emergencyUnlock(uint256)": "b0793313",
          "getCapsule(uint256)": "3aac3858",
          "getUnlockedStages(uint256)": "56e4f84c",
          "getUserCapsules(address)": "366636f7",
          "isUnlocked(uint256)": "72abc8b7",
          "owner()": "8da5cb5b",
          "totalCapsules()": "b49ce17f",
          "updatePricing(uint8,uint256)": "7389c630",
          "updateUserTier(address,uint8)": "9a6cff1c",
          "userCapsules(address,uint256)": "a0d79fb5",
          "userTiers(address)": "24063c82",
          "withdraw()": "3ccfd60b"
        }
      }
    }
  }
}