{
  "contracts/GenieInABottle.sol": {
    "GenieInABottle": {
      "abi": [
        {
          "inputs": [
            {
              "internalType": "address",
              "name": "_treasury",
              "type": "address"
            }
          ],
          "stateMutability": "nonpayable",
          "type": "constructor"
        },
        {
          "inputs": [],
          "name": "EnforcedPause",
          "type": "error"
        },
        {
          "inputs": [],
          "name": "ExpectedPause",
          "type": "error"
        },
        {
          "inputs": [
            {
              "internalType": "address",
              "name": "owner",
              "type": "address"
            }
          ],
          "name": "OwnableInvalidOwner",
          "type": "error"
        },
        {
          "inputs": [
            {
              "internalType": "address",
              "name": "account",
              "type": "address"
            }
          ],
          "name": "OwnableUnauthorizedAccount",
          "type": "error"
        },
        {
          "inputs": [],
          "name": "ReentrancyGuardReentrantCall",
          "type": "error"
        },
        {
          "anonymous": false,
          "inputs": [
            {
              "indexed": true,
              "internalType": "uint256",
              "name": "capsuleId",
              "type": "uint256"
            },
            {
              "indexed": true,
              "internalType": "address",
              "name": "creator",
              "type": "address"
            }
          ],
          "name": "CapsuleCancelled",
          "type": "event"
        },
        {
          "anonymous": false,
          "inputs": [
            {
              "indexed": true,
              "internalType": "uint256",
              "name": "capsuleId",
              "type": "uint256"
            },
            {
              "indexed": true,
              "internalType": "address",
              "name": "creator",
              "type": "address"
            },
            {
              "indexed": false,
              "internalType": "enum GenieInABottle.CapsuleType",
              "name": "capsuleType",
              "type": "uint8"
            },
            {
              "indexed": false,
              "internalType": "uint256",
              "name": "unlockTime",
              "type": "uint256"
            }
          ],
          "name": "CapsuleCreated",
          "type": "event"
        },
        {
          "anonymous": false,
          "inputs": [
            {
              "indexed": true,
              "internalType": "uint256",
              "name": "capsuleId",
              "type": "uint256"
            },
            {
              "indexed": true,
              "internalType": "address",
              "name": "unlockedBy",
              "type": "address"
            },
            {
              "indexed": false,
              "internalType": "uint256",
              "name": "stageNumber",
              "type": "uint256"
            }
          ],
          "name": "CapsuleUnlocked",
          "type": "event"
        },
        {
          "anonymous": false,
          "inputs": [
            {
              "indexed": true,
              "internalType": "uint256",
              "name": "capsuleId",
              "type": "uint256"
            },
            {
              "indexed": true,
              "internalType": "address",
              "name": "creator",
              "type": "address"
            },
            {
              "indexed": false,
              "internalType": "uint256",
              "name": "timestamp",
              "type": "uint256"
            },
            {
              "indexed": false,
              "internalType": "uint256",
              "name": "nextCheckInDue",
              "type": "uint256"
            }
          ],
          "name": "CheckInPerformed",
          "type": "event"
        },
        {
          "anonymous": false,
          "inputs": [
            {
              "indexed": true,
              "internalType": "uint256",
              "name": "capsuleId",
              "type": "uint256"
            },
            {
              "indexed": false,
              "internalType": "uint256",
              "name": "timestamp",
              "type": "uint256"
            }
          ],
          "name": "DeadMansSwitchTriggered",
          "type": "event"
        },
        {
          "anonymous": false,
          "inputs": [
            {
              "indexed": true,
              "internalType": "uint256",
              "name": "capsuleId",
              "type": "uint256"
            },
            {
              "indexed": true,
              "internalType": "address",
              "name": "guardian",
              "type": "address"
            }
          ],
          "name": "GuardianApprovalSubmitted",
          "type": "event"
        },
        {
          "anonymous": false,
          "inputs": [
            {
              "indexed": true,
              "internalType": "uint256",
              "name": "capsuleId",
              "type": "uint256"
            },
            {
              "indexed": false,
              "internalType": "uint256",
              "name": "approvalCount",
              "type": "uint256"
            }
          ],
          "name": "GuardianUnlockTriggered",
          "type": "event"
        },
        {
          "anonymous": false,
          "inputs": [
            {
              "indexed": true,
              "internalType": "address",
              "name": "previousOwner",
              "type": "address"
            },
            {
              "indexed": true,
              "internalType": "address",
              "name": "newOwner",
              "type": "address"
            }
          ],
          "name": "OwnershipTransferred",
          "type": "event"
        },
        {
          "anonymous": false,
          "inputs": [
            {
              "indexed": false,
              "internalType": "address",
              "name": "account",
              "type": "address"
            }
          ],
          "name": "Paused",
          "type": "event"
        },
        {
          "anonymous": false,
          "inputs": [
            {
              "indexed": true,
              "internalType": "uint256",
              "name": "capsuleId",
              "type": "uint256"
            },
            {
              "indexed": true,
              "internalType": "address",
              "name": "recipient",
              "type": "address"
            }
          ],
          "name": "RecipientAdded",
          "type": "event"
        },
        {
          "anonymous": false,
          "inputs": [
            {
              "indexed": true,
              "internalType": "address",
              "name": "user",
              "type": "address"
            },
            {
              "indexed": false,
              "internalType": "string",
              "name": "tierName",
              "type": "string"
            },
            {
              "indexed": false,
              "internalType": "uint256",
              "name": "expiryDate",
              "type": "uint256"
            }
          ],
          "name": "SubscriptionPurchased",
          "type": "event"
        },
        {
          "anonymous": false,
          "inputs": [
            {
              "indexed": false,
              "internalType": "address",
              "name": "account",
              "type": "address"
            }
          ],
          "name": "Unpaused",
          "type": "event"
        },
        {
          "inputs": [
            {
              "internalType": "uint256",
              "name": "_capsuleId",
              "type": "uint256"
            },
            {
              "internalType": "address[]",
              "name": "_guardians",
              "type": "address[]"
            },
            {
              "internalType": "uint256",
              "name": "_guardiansRequired",
              "type": "uint256"
            }
          ],
          "name": "addGuardians",
          "outputs": [],
          "stateMutability": "nonpayable",
          "type": "function"
        },
        {
          "inputs": [
            {
              "internalType": "uint256",
              "name": "_capsuleId",
              "type": "uint256"
            },
            {
              "internalType": "address",
              "name": "_recipient",
              "type": "address"
            }
          ],
          "name": "addRecipient",
          "outputs": [],
          "stateMutability": "nonpayable",
          "type": "function"
        },
        {
          "inputs": [
            {
              "internalType": "uint256",
              "name": "_capsuleId",
              "type": "uint256"
            },
            {
              "internalType": "uint256",
              "name": "_unlockTime",
              "type": "uint256"
            },
            {
              "internalType": "string",
              "name": "_encryptedKeys",
              "type": "string"
            },
            {
              "internalType": "string",
              "name": "_ipfsHash",
              "type": "string"
            }
          ],
          "name": "addUnlockStage",
          "outputs": [],
          "stateMutability": "payable",
          "type": "function"
        },
        {
          "inputs": [
            {
              "internalType": "uint256",
              "name": "_capsuleId",
              "type": "uint256"
            }
          ],
          "name": "cancelCapsule",
          "outputs": [],
          "stateMutability": "nonpayable",
          "type": "function"
        },
        {
          "inputs": [],
          "name": "capsuleCounter",
          "outputs": [
            {
              "internalType": "uint256",
              "name": "",
              "type": "uint256"
            }
          ],
          "stateMutability": "view",
          "type": "function"
        },
        {
          "inputs": [
            {
              "internalType": "uint256",
              "name": "",
              "type": "uint256"
            }
          ],
          "name": "capsules",
          "outputs": [
            {
              "internalType": "uint256",
              "name": "id",
              "type": "uint256"
            },
            {
              "internalType": "address",
              "name": "creator",
              "type": "address"
            },
            {
              "internalType": "enum GenieInABottle.CapsuleType",
              "name": "capsuleType",
              "type": "uint8"
            },
            {
              "internalType": "enum GenieInABottle.CapsuleStatus",
              "name": "status",
              "type": "uint8"
            },
            {
              "internalType": "enum GenieInABottle.TriggerType",
              "name": "triggerType",
              "type": "uint8"
            },
            {
              "internalType": "uint256",
              "name": "primaryUnlockTime",
              "type": "uint256"
            },
            {
              "internalType": "uint256",
              "name": "lastCheckIn",
              "type": "uint256"
            },
            {
              "internalType": "uint256",
              "name": "checkInInterval",
              "type": "uint256"
            },
            {
              "internalType": "uint256",
              "name": "gracePeriod",
              "type": "uint256"
            },
            {
              "internalType": "uint256",
              "name": "guardiansRequired",
              "type": "uint256"
            },
            {
              "internalType": "uint256",
              "name": "guardiansApprovedCount",
              "type": "uint256"
            },
            {
              "internalType": "uint256",
              "name": "createdAt",
              "type": "uint256"
            },
            {
              "internalType": "uint256",
              "name": "maxStorageSize",
              "type": "uint256"
            },
            {
              "internalType": "string",
              "name": "metadata",
              "type": "string"
            },
            {
              "internalType": "bool",
              "name": "emailNotification",
              "type": "bool"
            },
            {
              "internalType": "bool",
              "name": "multipleRecipients",
              "type": "bool"
            },
            {
              "internalType": "bool",
              "name": "progressiveUnlock",
              "type": "bool"
            },
            {
              "internalType": "bool",
              "name": "hasDeadMansSwitch",
              "type": "bool"
            }
          ],
          "stateMutability": "view",
          "type": "function"
        },
        {
          "inputs": [
            {
              "internalType": "uint256",
              "name": "_capsuleId",
              "type": "uint256"
            }
          ],
          "name": "checkIn",
          "outputs": [],
          "stateMutability": "nonpayable",
          "type": "function"
        },
        {
          "inputs": [
            {
              "internalType": "enum GenieInABottle.CapsuleType",
              "name": "_capsuleType",
              "type": "uint8"
            },
            {
              "internalType": "enum GenieInABottle.TriggerType",
              "name": "_triggerType",
              "type": "uint8"
            },
            {
              "internalType": "uint256",
              "name": "_unlockTime",
              "type": "uint256"
            },
            {
              "internalType": "string",
              "name": "_encryptedKeys",
              "type": "string"
            },
            {
              "internalType": "string",
              "name": "_ipfsHash",
              "type": "string"
            },
            {
              "internalType": "address[]",
              "name": "_recipients",
              "type": "address[]"
            },
            {
              "internalType": "string",
              "name": "_metadata",
              "type": "string"
            }
          ],
          "name": "createCapsule",
          "outputs": [
            {
              "internalType": "uint256",
              "name": "",
              "type": "uint256"
            }
          ],
          "stateMutability": "payable",
          "type": "function"
        },
        {
          "inputs": [
            {
              "internalType": "enum GenieInABottle.CapsuleType",
              "name": "",
              "type": "uint8"
            }
          ],
          "name": "creationFees",
          "outputs": [
            {
              "internalType": "uint256",
              "name": "",
              "type": "uint256"
            }
          ],
          "stateMutability": "view",
          "type": "function"
        },
        {
          "inputs": [],
          "name": "deadMansSwitchFeePerYear",
          "outputs": [
            {
              "internalType": "uint256",
              "name": "",
              "type": "uint256"
            }
          ],
          "stateMutability": "view",
          "type": "function"
        },
        {
          "inputs": [],
          "name": "emergencyWithdraw",
          "outputs": [],
          "stateMutability": "nonpayable",
          "type": "function"
        },
        {
          "inputs": [
            {
              "internalType": "uint256",
              "name": "_capsuleId",
              "type": "uint256"
            },
            {
              "internalType": "uint256",
              "name": "_checkInIntervalDays",
              "type": "uint256"
            },
            {
              "internalType": "uint256",
              "name": "_gracePeriodDays",
              "type": "uint256"
            }
          ],
          "name": "enableDeadMansSwitch",
          "outputs": [],
          "stateMutability": "payable",
          "type": "function"
        },
        {
          "inputs": [
            {
              "internalType": "uint256",
              "name": "_capsuleId",
              "type": "uint256"
            }
          ],
          "name": "getCapsule",
          "outputs": [
            {
              "internalType": "uint256",
              "name": "id",
              "type": "uint256"
            },
            {
              "internalType": "address",
              "name": "creator",
              "type": "address"
            },
            {
              "internalType": "enum GenieInABottle.CapsuleType",
              "name": "capsuleType",
              "type": "uint8"
            },
            {
              "internalType": "enum GenieInABottle.CapsuleStatus",
              "name": "status",
              "type": "uint8"
            },
            {
              "internalType": "uint256",
              "name": "unlockTime",
              "type": "uint256"
            },
            {
              "internalType": "uint256",
              "name": "createdAt",
              "type": "uint256"
            },
            {
              "internalType": "address[]",
              "name": "recipients",
              "type": "address[]"
            },
            {
              "internalType": "bool",
              "name": "hasDeadMansSwitch",
              "type": "bool"
            },
            {
              "internalType": "bool",
              "name": "progressiveUnlock",
              "type": "bool"
            }
          ],
          "stateMutability": "view",
          "type": "function"
        },
        {
          "inputs": [
            {
              "internalType": "uint256",
              "name": "_capsuleId",
              "type": "uint256"
            }
          ],
          "name": "getCapsuleStageCount",
          "outputs": [
            {
              "internalType": "uint256",
              "name": "",
              "type": "uint256"
            }
          ],
          "stateMutability": "view",
          "type": "function"
        },
        {
          "inputs": [
            {
              "internalType": "uint256",
              "name": "_capsuleId",
              "type": "uint256"
            }
          ],
          "name": "getNextCheckInDeadline",
          "outputs": [
            {
              "internalType": "uint256",
              "name": "",
              "type": "uint256"
            }
          ],
          "stateMutability": "view",
          "type": "function"
        },
        {
          "inputs": [
            {
              "internalType": "uint256",
              "name": "_capsuleId",
              "type": "uint256"
            }
          ],
          "name": "getUnlockedStages",
          "outputs": [
            {
              "components": [
                {
                  "internalType": "uint256",
                  "name": "unlockTime",
                  "type": "uint256"
                },
                {
                  "internalType": "string",
                  "name": "encryptedKeys",
                  "type": "string"
                },
                {
                  "internalType": "string",
                  "name": "ipfsHash",
                  "type": "string"
                },
                {
                  "internalType": "bool",
                  "name": "isUnlocked",
                  "type": "bool"
                }
              ],
              "internalType": "struct GenieInABottle.UnlockStage[]",
              "name": "",
              "type": "tuple[]"
            }
          ],
          "stateMutability": "view",
          "type": "function"
        },
        {
          "inputs": [
            {
              "internalType": "address",
              "name": "_user",
              "type": "address"
            }
          ],
          "name": "getUserCapsules",
          "outputs": [
            {
              "internalType": "uint256[]",
              "name": "",
              "type": "uint256[]"
            }
          ],
          "stateMutability": "view",
          "type": "function"
        },
        {
          "inputs": [
            {
              "internalType": "address",
              "name": "_user",
              "type": "address"
            }
          ],
          "name": "getUserTier",
          "outputs": [
            {
              "components": [
                {
                  "internalType": "string",
                  "name": "name",
                  "type": "string"
                },
                {
                  "internalType": "uint256",
                  "name": "pricePerYear",
                  "type": "uint256"
                },
                {
                  "internalType": "uint256",
                  "name": "maxCapsules",
                  "type": "uint256"
                },
                {
                  "internalType": "uint256",
                  "name": "maxStoragePerCapsule",
                  "type": "uint256"
                },
                {
                  "internalType": "bool",
                  "name": "allowsVideo",
                  "type": "bool"
                },
                {
                  "internalType": "bool",
                  "name": "allowsDeadMansSwitch",
                  "type": "bool"
                },
                {
                  "internalType": "bool",
                  "name": "allowsMultiRecipient",
                  "type": "bool"
                },
                {
                  "internalType": "bool",
                  "name": "allowsProgressiveUnlock",
                  "type": "bool"
                }
              ],
              "internalType": "struct GenieInABottle.SubscriptionTier",
              "name": "",
              "type": "tuple"
            }
          ],
          "stateMutability": "view",
          "type": "function"
        },
        {
          "inputs": [
            {
              "internalType": "uint256",
              "name": "_capsuleId",
              "type": "uint256"
            }
          ],
          "name": "guardianApprove",
          "outputs": [],
          "stateMutability": "nonpayable",
          "type": "function"
        },
        {
          "inputs": [
            {
              "internalType": "address",
              "name": "_user",
              "type": "address"
            }
          ],
          "name": "hasActiveSubscription",
          "outputs": [
            {
              "internalType": "bool",
              "name": "",
              "type": "bool"
            }
          ],
          "stateMutability": "view",
          "type": "function"
        },
        {
          "inputs": [
            {
              "internalType": "uint256",
              "name": "_capsuleId",
              "type": "uint256"
            }
          ],
          "name": "isDeadMansSwitchTriggered",
          "outputs": [
            {
              "internalType": "bool",
              "name": "",
              "type": "bool"
            }
          ],
          "stateMutability": "view",
          "type": "function"
        },
        {
          "inputs": [
            {
              "internalType": "uint256",
              "name": "_capsuleId",
              "type": "uint256"
            }
          ],
          "name": "isUnlocked",
          "outputs": [
            {
              "internalType": "bool",
              "name": "",
              "type": "bool"
            }
          ],
          "stateMutability": "view",
          "type": "function"
        },
        {
          "inputs": [],
          "name": "multiRecipientFee",
          "outputs": [
            {
              "internalType": "uint256",
              "name": "",
              "type": "uint256"
            }
          ],
          "stateMutability": "view",
          "type": "function"
        },
        {
          "inputs": [],
          "name": "owner",
          "outputs": [
            {
              "internalType": "address",
              "name": "",
              "type": "address"
            }
          ],
          "stateMutability": "view",
          "type": "function"
        },
        {
          "inputs": [],
          "name": "pause",
          "outputs": [],
          "stateMutability": "nonpayable",
          "type": "function"
        },
        {
          "inputs": [],
          "name": "paused",
          "outputs": [
            {
              "internalType": "bool",
              "name": "",
              "type": "bool"
            }
          ],
          "stateMutability": "view",
          "type": "function"
        },
        {
          "inputs": [],
          "name": "platformFeePercent",
          "outputs": [
            {
              "internalType": "uint256",
              "name": "",
              "type": "uint256"
            }
          ],
          "stateMutability": "view",
          "type": "function"
        },
        {
          "inputs": [],
          "name": "progressiveUnlockFee",
          "outputs": [
            {
              "internalType": "uint256",
              "name": "",
              "type": "uint256"
            }
          ],
          "stateMutability": "view",
          "type": "function"
        },
        {
          "inputs": [
            {
              "internalType": "string",
              "name": "_tierName",
              "type": "string"
            }
          ],
          "name": "purchaseSubscription",
          "outputs": [],
          "stateMutability": "payable",
          "type": "function"
        },
        {
          "inputs": [],
          "name": "renounceOwnership",
          "outputs": [],
          "stateMutability": "nonpayable",
          "type": "function"
        },
        {
          "inputs": [
            {
              "internalType": "address",
              "name": "",
              "type": "address"
            }
          ],
          "name": "subscriptionExpiry",
          "outputs": [
            {
              "internalType": "uint256",
              "name": "",
              "type": "uint256"
            }
          ],
          "stateMutability": "view",
          "type": "function"
        },
        {
          "inputs": [
            {
              "internalType": "string",
              "name": "",
              "type": "string"
            }
          ],
          "name": "tiers",
          "outputs": [
            {
              "internalType": "string",
              "name": "name",
              "type": "string"
            },
            {
              "internalType": "uint256",
              "name": "pricePerYear",
              "type": "uint256"
            },
            {
              "internalType": "uint256",
              "name": "maxCapsules",
              "type": "uint256"
            },
            {
              "internalType": "uint256",
              "name": "maxStoragePerCapsule",
              "type": "uint256"
            },
            {
              "internalType": "bool",
              "name": "allowsVideo",
              "type": "bool"
            },
            {
              "internalType": "bool",
              "name": "allowsDeadMansSwitch",
              "type": "bool"
            },
            {
              "internalType": "bool",
              "name": "allowsMultiRecipient",
              "type": "bool"
            },
            {
              "internalType": "bool",
              "name": "allowsProgressiveUnlock",
              "type": "bool"
            }
          ],
          "stateMutability": "view",
          "type": "function"
        },
        {
          "inputs": [
            {
              "internalType": "address",
              "name": "newOwner",
              "type": "address"
            }
          ],
          "name": "transferOwnership",
          "outputs": [],
          "stateMutability": "nonpayable",
          "type": "function"
        },
        {
          "inputs": [],
          "name": "treasury",
          "outputs": [
            {
              "internalType": "address",
              "name": "",
              "type": "address"
            }
          ],
          "stateMutability": "view",
          "type": "function"
        },
        {
          "inputs": [
            {
              "internalType": "uint256",
              "name": "_capsuleId",
              "type": "uint256"
            }
          ],
          "name": "triggerDeadMansSwitch",
          "outputs": [],
          "stateMutability": "nonpayable",
          "type": "function"
        },
        {
          "inputs": [
            {
              "internalType": "uint256",
              "name": "_capsuleId",
              "type": "uint256"
            },
            {
              "internalType": "uint256",
              "name": "_stageIndex",
              "type": "uint256"
            }
          ],
          "name": "unlockStage",
          "outputs": [
            {
              "internalType": "string",
              "name": "encryptedKeys",
              "type": "string"
            },
            {
              "internalType": "string",
              "name": "ipfsHash",
              "type": "string"
            }
          ],
          "stateMutability": "nonpayable",
          "type": "function"
        },
        {
          "inputs": [],
          "name": "unpause",
          "outputs": [],
          "stateMutability": "nonpayable",
          "type": "function"
        },
        {
          "inputs": [
            {
              "internalType": "enum GenieInABottle.CapsuleType",
              "name": "_type",
              "type": "uint8"
            },
            {
              "internalType": "uint256",
              "name": "_newFee",
              "type": "uint256"
            }
          ],
          "name": "updatePricing",
          "outputs": [],
          "stateMutability": "nonpayable",
          "type": "function"
        },
        {
          "inputs": [
            {
              "internalType": "address",
              "name": "_newTreasury",
              "type": "address"
            }
          ],
          "name": "updateTreasury",
          "outputs": [],
          "stateMutability": "nonpayable",
          "type": "function"
        },
        {
          "inputs": [
            {
              "internalType": "address",
              "name": "",
              "type": "address"
            },
            {
              "internalType": "uint256",
              "name": "",
              "type": "uint256"
            }
          ],
          "name": "userCapsules",
          "outputs": [
            {
              "internalType": "uint256",
              "name": "",
              "type": "uint256"
            }
          ],
          "stateMutability": "view",
          "type": "function"
        },
        {
          "inputs": [
            {
              "internalType": "address",
              "name": "",
              "type": "address"
            }
          ],
          "name": "userSubscriptions",
          "outputs": [
            {
              "internalType": "string",
              "name": "name",
              "type": "string"
            },
            {
              "internalType": "uint256",
              "name": "pricePerYear",
              "type": "uint256"
            },
            {
              "internalType": "uint256",
              "name": "maxCapsules",
              "type": "uint256"
            },
            {
              "internalType": "uint256",
              "name": "maxStoragePerCapsule",
              "type": "uint256"
            },
            {
              "internalType": "bool",
              "name": "allowsVideo",
              "type": "bool"
            },
            {
              "internalType": "bool",
              "name": "allowsDeadMansSwitch",
              "type": "bool"
            },
            {
              "internalType": "bool",
              "name": "allowsMultiRecipient",
              "type": "bool"
            },
            {
              "internalType": "bool",
              "name": "allowsProgressiveUnlock",
              "type": "bool"
            }
          ],
          "stateMutability": "view",
          "type": "function"
        }
      ],
      "evm": {
        "bytecode": {
          "linkReferences": {},
          "object": "60803462000a7d57601f6200383b38819003918201601f19168301916001600160401b03831184841017620007d85780849260209460405283398101031262000a7d57516001600160a01b038082169182900362000a7d57331562000a645760005460018060a01b03199133838316176000553391167f8be0079c531659141344cd1fd0a4f28419497f9722a3daafe3b4186f6b6457e0600080a360018055600c8054919091169190911790556101f4600d556008602052674563918244f400007f5eff886ea0ce6ca488a3d6e336d6c0f75f46d19b42c06ce5ee98e42c96d256c7819055678ac7230489e800007fad67d757c34507f157cacfa2e3153e9f260a2244f30428821be7be64587ac55f81905568015af1d78b58c400007f6add646517a5b0f6793cd5891b7937d28a5b2981a5d88ebc7cd776088fea9041557f625b35f5e76f098dd7c3a05b10e2e5e78a4a01228d60c3b143426cdf36d2645581905560046000526802b5e3af16b18800007f9321edea6e3be4df59a344b401fab4f888b556fda1f954244cff9204bad624b8556801158e460913d00000600955600a91909155600b55620001b262000a82565b6024620001be62000aa3565b60048152634652454560e01b90816020820152835260006020840152600160408401526207d000606084015260006080840152600060a0840152600060c0840152600060e0840152604051908152600e600482015220815180519060018060401b038211620007d8578254600181811c9116801562000a59575b6020821014620007b757601f811162000a10575b50602090601f83116001146200099e5760049392916000918362000992575b50508160011b916000199060031b1c19161781555b6020830151600182015560408301516002820155606083015160038201550190608081015115159062ff0000835461ff0060a0840151151560081b169060ff63ff00000060e060c08701511515960151151560181b1695169063ffffffff191617179160101b1617179055620002f562000a82565b620002ff62000aa3565b6005815264424153494360d81b6020820152815268019274b259f654000060208201526005604082015262500000606082015260006080820152600060a0820152600160c0820152600060e0820152602560405164424153494360d81b8152600e600582015220815180519060018060401b038211620007d8578254600181811c9116801562000987575b6020821014620007b757601f81116200093e575b50602090601f8311600114620008cc57600493929160009183620008c0575b50508160011b916000199060031b1c19161781555b60208301516001820155604083015160028201556060830151600382015501906080810151151590825461ff0060a0830151151560081b169060ff63ff00000060e062ff000060c0870151151560101b16950151151560181b1694169063ffffffff19161717171790556200044662000a82565b6200045062000aa3565b600381526250524f60e81b6020820152815268055de6a779bbac00006020820152620f423f60408201526306400000606082015260016080820152600160a0820152600160c0820152600160e082015260236040516250524f60e81b8152600e600382015220815180519060018060401b038211620007d8578254600181811c91168015620008b5575b6020821014620007b757601f81116200086c575b50602090601f8311600114620007fa57600493929160009183620007ee575b50508160011b916000199060031b1c19161781555b60208301516001820155604083015160028201556060830151600382015501906080810151151590825461ff0060a0830151151560081b169060ff63ff00000060e062ff000060c0870151151560101b16950151151560181b1694169063ffffffff19161717171790556200059662000a82565b620005a062000aa3565b600681526545535441544560d01b602082015281526810357563d481cc00006020820152620f423f6040820152631f400000606082015260016080820152600160a0820152600160c0820152600160e082015260266040516545535441544560d01b8152600e600682015220815180519060018060401b038211620007d8578254600181811c91168015620007cd575b6020821014620007b757601f81116200076e575b50602090601f8311600114620006fe57600493929160009183620006f2575b50508160011b916000199060031b1c19161781555b60208301516001820155604083015160028201556060830151600382015501906080810151151590825461ff0060a0830151151560081b169060ff63ff00000060e062ff000060c0870151151560101b16950151151560181b1694169063ffffffff1916171717179055604051612d77908162000ac48239f35b01519050388062000663565b90601f198316918460005260206000209260005b8181106200075557509160019391856004979694106200073b575b505050811b01815562000678565b015160001960f88460031b161c191690553880806200072d565b9293602060018192878601518155019501930162000712565b836000526020600020601f840160051c810160208510620007af575b601f830160051c82018110620007a257505062000644565b600081556001016200078a565b50806200078a565b634e487b7160e01b600052602260045260246000fd5b90607f169062000630565b634e487b7160e01b600052604160045260246000fd5b0151905038806200050d565b908360005260206000209160005b601f198516811062000853575091839160019360049695601f1981161062000839575b505050811b01815562000522565b015160001960f88460031b161c191690553880806200082b565b9192602060018192868501518155019401920162000808565b836000526020600020601f840160051c810160208510620008ad575b601f830160051c82018110620008a0575050620004ee565b6000815560010162000888565b508062000888565b90607f1690620004da565b015190503880620003bd565b908360005260206000209160005b601f198516811062000925575091839160019360049695601f198116106200090b575b505050811b018155620003d2565b015160001960f88460031b161c19169055388080620008fd565b91926020600181928685015181550194019201620008da565b836000526020600020601f840160051c8101602085106200097f575b601f830160051c82018110620009725750506200039e565b600081556001016200095a565b50806200095a565b90607f16906200038a565b0151905038806200026b565b908360005260206000209160005b601f1985168110620009f7575091839160019360049695601f19811610620009dd575b505050811b01815562000280565b015160001960f88460031b161c19169055388080620009cf565b91926020600181928685015181550194019201620009ac565b836000526020600020601f840160051c81016020851062000a51575b601f830160051c8201811062000a445750506200024c565b6000815560010162000a2c565b508062000a2c565b90607f169062000238565b604051631e4fbdf760e01b815260006004820152602490fd5b600080fd5b6040519061010082016001600160401b03811183821017620007d857604052565b60408051919082016001600160401b03811183821017620007d85760405256fe6080604052600436101561001257600080fd5b60003560e01c80630bb8cd4d146122de5780631d9b30c714611fac578063366636f714611ef85780633aac385814611daf5780633f4ba83a14611d45578063517bbf4614611c0957806356e4f84c146119f5578063583d259f1461184557806359be33c8146116865780635c975abb146116635780635d0298431461118b57806360a85ef51461115157806361d027b314611128578063715018a6146110cf57806372abc8b7146110935780637389c6301461105f5780637465da76146110125780637b707f0114610f185780637f33d61914610efa5780637f51bb1f14610e7657806383519a9214610cd25780638456cb5914610c785780638ab0392914610b465780638c639a8514610b285780638da5cb5b14610aff57806396bd9bfe14610983578063a0d79fb51461092b578063a90f0c911461090d578063bebe4a57146108c8578063c21446c0146108aa578063c446bac1146107ef578063cf14b9e4146107b7578063d2db53d714610799578063d58e151b1461062a578063db2e21bc146105b1578063ddaa01c414610593578063e4d2620e146104ff578063e95a644f146103c9578063f2fde38b1461033b578063f426a6f4146102845763fe551b05146101df57600080fd5b3461027f57602036600319011261027f5760043567ffffffffffffffff811161027f57602061021561022892369060040161239f565b81604051938285809451938492016124f5565b8101600e81520301902061023b81612450565b9061027b60018201546002830154906004600385015494015460405195869560ff8360181c169460ff8460101c169460ff808660081c16951693896125f3565b0390f35b600080fd5b3461027f57602036600319011261027f576004358015158061032f575b6102aa906126fa565b6000526004602052604060002060ff601182015460181c16156102f3576102eb8160056102e260036020950154600484015490612680565b91015490612680565b604051908152f35b60405162461bcd60e51b815260206004820152601460248201527309cde40c8cac2c840dac2dc4ee640e6eed2e8c6d60631b6044820152606490fd5b506003548111156102a1565b3461027f57602036600319011261027f576103546123e6565b61035c612cf7565b6001600160a01b039081169081156103b057600054826bffffffffffffffffffffffff60a01b821617600055167f8be0079c531659141344cd1fd0a4f28419497f9722a3daafe3b4186f6b6457e0600080a3005b604051631e4fbdf760e01b815260006004820152602490fd5b3461027f57602036600319011261027f5760043580600052600460205261040160018060a01b0360016040600020015416331461277d565b801515806104f3575b610413906126fa565b806000526004602052604060002060ff601182015460181c16156104ae5760ff600182015460a81c1660048110156104985761046391610455600492156127b7565b426003820155015442612680565b906040519142835260208301527f111ed4211ef860205b4d8582db1f46027644f8babac717d5618d4f43ba3c818160403393a3005b634e487b7160e01b600052602160045260246000fd5b60405162461bcd60e51b815260206004820152601c60248201527f4e6f2064656164206d616e27732073776974636820656e61626c6564000000006044820152606490fd5b5060035481111561040a565b3461027f57602036600319011261027f5761052061051b6123e6565b612bc7565b604051809160208252805160e061054561010092836020870152610120860190612518565b926020810151604086015260408101516060860152606081015160808601526080810151151560a086015260a0810151151560c086015260c081015115158286015201511515908301520390f35b3461027f57600036600319011261027f576020600a54604051908152f35b3461027f57600036600319011261027f576105ca612cf7565b6000805481908190819047906001600160a01b03165af16105e961268d565b50156105f157005b60405162461bcd60e51b815260206004820152601160248201527015da5d1a191c985dd85b0819985a5b1959607a1b6044820152606490fd5b606036600319011261027f576004356024356044359180600052600460205260018060a01b03906106668260016040600020015416331461277d565b8015158061078d575b610678906126fa565b60a061068333612bc7565b0151156107485761069860095434101561263d565b600052600460205260406000209260ff600185015460a81c166004811015610498576106c490156127b7565b60118401805463ff0000001916630100000017905562015180928084029080159082048514171561073257600485015582810292818404149015171561073257600080808093866107309660058201556003429101553490600c54165af161072a61268d565b506126bd565b005b634e487b7160e01b600052601160045260246000fd5b60405162461bcd60e51b815260206004820152601d60248201527f5570677261646520666f722064656164206d616e2773207377697463680000006044820152606490fd5b5060035481111561066f565b3461027f57600036600319011261027f576020600354604051908152f35b3461027f57602036600319011261027f576001600160a01b036107d86123e6565b166000526006602052604060002061023b81612450565b3461027f57602036600319011261027f5760043580600052600460205261082760018060a01b0360016040600020015416331461277d565b8015158061089e575b610839906126fa565b8060005260046020526001604060002001805460ff8160a81c1660048110156104985761086690156127b7565b60ff60a81b1916600160a91b17905533907fa1d1e86fc4683d85919ca0e086901a54ba5df5917501641bf9921412a9c3c25c600080a3005b50600354811115610830565b3461027f57600036600319011261027f576020600954604051908152f35b3461027f57602036600319011261027f5760206109036108e66123e6565b6001600160a01b0316600090815260076020526040902054421090565b6040519015158152f35b3461027f57600036600319011261027f576020600b54604051908152f35b3461027f57604036600319011261027f576109446123e6565b6001600160a01b031660009081526005602052604090208054602435919082101561027f57602091610975916125c5565b90546040519160031b1c8152f35b608036600319011261027f5760043567ffffffffffffffff60443581811161027f576109b390369060040161239f565b9060643590811161027f576109cc90369060040161239f565b9082600052600460205260018060a01b03926109f38460016040600020015416331461277d565b80151580610af3575b610a05906126fa565b60e0610a1033612bc7565b015115610aae57610a25600b5434101561263d565b600052600460205260406000209060ff600183015460a81c16906004821015610498576000808087601187610a8e84978b610a636107309b156127b7565b60405191610a7083612345565b602435835260208301526040820152856060820152600d8301612871565b01805462ff0000191662010000179055600c543491165af161072a61268d565b60405162461bcd60e51b815260206004820152601e60248201527f5570677261646520666f722070726f677265737369766520756e6c6f636b00006044820152606490fd5b506003548111156109fc565b3461027f57600036600319011261027f576000546040516001600160a01b039091168152602090f35b3461027f57600036600319011261027f576020600d54604051908152f35b3461027f57604036600319011261027f576024356001600160a01b03818116916004359183820361027f57610b8f9083600052600460205260016040600020015416331461277d565b81151580610c6c575b610ba1906126fa565b816000526004602052604060002060ff600182015460a81c16600481101561049857610bcd90156127b7565b6007810191846000528260205260ff60406000205416610c31576006610bf392016127f8565b826000526020526040600020600160ff198254161790557f44bc4f709c4e281b3f910c44fc3345db17a91d56de534b4ef24dd098c3b155b9600080a3005b60405162461bcd60e51b8152602060048201526013602482015272105b1c9958591e4818481c9958da5c1a595b9d606a1b6044820152606490fd5b50600354821115610b98565b3461027f57600036600319011261027f57610c91612cf7565b610c99612d23565b600160ff1960025416176002557f62e78cea01bee320cd4e420270b5ea74000d11b0c9f74754ebdbfc544b05a2586020604051338152a1005b3461027f5760208060031936011261027f57600435908160005260048152600960406000200133600052815260ff6040600020541615610e415781151580610e35575b610d1e906126fa565b8160005260048152604060002090600182019160ff835460a81c16600481101561049857610d4c90156127b7565b600b81013360005280835260ff60406000205416610dfd573360005282526040600020600160ff19825416179055600a600c820191610d8b835461275a565b80935533867f925b995df16b4bc09194e4b3ff1e8458d5cf751bf06280dd2d5662bb4c178877600080a30154811015610dc057005b825460ff60a81b1916600160a81b179092556040519182527ffdf02667baf4b7a6093b2b0af7e909614e1287bb6fb62c08865bd3141c5614e891a2005b60405162461bcd60e51b815260048101849052601060248201526f105b1c9958591e48185c1c1c9bdd995960821b6044820152606490fd5b50600354821115610d15565b6064906040519062461bcd60e51b82526004820152600e60248201526d2737ba10309033bab0b93234b0b760911b6044820152fd5b3461027f57602036600319011261027f57610e8f6123e6565b610e97612cf7565b6001600160a01b03168015610ec3576bffffffffffffffffffffffff60a01b600c541617600c55600080f35b60405162461bcd60e51b815260206004820152600f60248201526e496e76616c6964206164647265737360881b6044820152606490fd5b3461027f57602036600319011261027f576020610903600435612b5c565b3461027f5760208060031936011261027f576004359081151580611006575b610f40906126fa565b81600052600481526007604060002001336000528152610f6760ff60406000205416612833565b610f7082612b5c565b15610fc257600082815260048252604090819020600101805460ff60a81b1916600360a81b179055514281527f6b8c33a0757c7c362442f939d793806d985a73d298a8514c21ea1a3d536928079190a2005b6064906040519062461bcd60e51b82526004820152601860248201527f537769746368206e6f74207472696767657265642079657400000000000000006044820152fd5b50600354821115610f37565b3461027f57602036600319011261027f5760043580151580611053575b611038906126fa565b60005260046020526020600d60406000200154604051908152f35b5060035481111561102f565b3461027f57604036600319011261027f57600435600581101561027f57611084612cf7565b6110906024359161230f565b55005b3461027f57602036600319011261027f576020610903600435801515806110c3575b6110be906126fa565b612b0a565b506003548111156110b5565b3461027f57600036600319011261027f576110e8612cf7565b600080546001600160a01b0319811682556001600160a01b03167f8be0079c531659141344cd1fd0a4f28419497f9722a3daafe3b4186f6b6457e08280a3005b3461027f57600036600319011261027f57600c546040516001600160a01b039091168152602090f35b3461027f57602036600319011261027f576001600160a01b036111726123e6565b1660005260076020526020604060002054604051908152f35b60e036600319011261027f576005600435101561027f576003602435101561027f5767ffffffffffffffff60643581811161027f576111ce90369060040161239f565b9060843581811161027f576111e790369060040161239f565b60a43582811161027f576111ff903690600401612555565b9260c43583811161027f5761121890369060040161239f565b91611221612cd4565b611229612d23565b61123233612bc7565b9333600052600560205260406000205460408601511115611626576002600435146115d9575b600186511161158b575b61127961127060043561230f565b5434101561263d565b61128460035461275a565b9384600355846000526004602052606060406000209686885560018801805460ff60b01b60243560b01b169062ffffff60a01b1933169068ffffffffffffffffff60b81b161760ff60a01b60043560a01b1617179055604435600289015542600e8901550151600f87015580519182116114ae576113056010870154612416565b601f8111611544575b50602090601f83116001146114cf5761137194939291600091836114c4575b50508160011b916000199060031b1c19161760108601555b6040519161135283612345565b60443583526020830152604082015260006060820152600d8401612871565b600782019160060160005b8451811015611401576001906001600160a01b036113a68161139e848a612769565b5116856127f8565b806113b18389612769565b51166000528560205260406000208360ff198254161790556113d38288612769565b5116847f44bc4f709c4e281b3f910c44fc3345db17a91d56de534b4ef24dd098c3b155b9600080a30161137c565b82336000526005602052604060002090815491600160401b8310156114ae57826114329160016020950181556125c5565b81549060031b9083821b91600019901b191617905561146560008080803460018060a01b03600c54165af161072a61268d565b604051611474816004356123fc565b60443583820152817f40f38a091e9a2dfc4df4c011dd08fb6d7c767c39e099923c69563d11eebbd59e60403393a360018055604051908152f35b634e487b7160e01b600052604160045260246000fd5b01519050888061132d565b906010870160005260206000209160005b601f198516811061152c5750918391600193611371979695601f19811610611513575b505050811b016010860155611345565b015160001960f88460031b161c19169055888080611503565b919260206001819286850151815501940192016114e0565b601087016000526020600020601f840160051c810160208510611584575b601f830160051c8201811061157857505061130e565b60008155600101611562565b5080611562565b60c08501516112625760405162461bcd60e51b815260206004820152601b60248201527f5570677261646520666f72206d756c74692d726563697069656e7400000000006044820152606490fd5b608085015161125857606460405162461bcd60e51b815260206004820152602060248201527f5570677261646520746f20756e6c6f636b20766964656f2063617073756c65736044820152fd5b60405162461bcd60e51b815260206004820152601560248201527410d85c1cdd5b19481b1a5b5a5d081c995858da1959605a1b6044820152606490fd5b3461027f57600036600319011261027f57602060ff600254166040519015158152f35b3461027f57604036600319011261027f5760243560043580151580611839575b6116af906126fa565b806000526020916004835260076040600020013360005283526116d960ff60406000205416612833565b8160005260048352600d604060002001805482101561180457816116fc9161273e565b5091825442106117ca5760038301805460ff811661178c579161027b9391600161177f979460ff19161790556040519182527f663589242dc1e7796afac507ef8fbdedc2b32ed0eb136aeb8809da0d7139293c833393a361176b600261176460018601612450565b9401612450565b604051948594604086526040860190612518565b9184830390850152612518565b60405162461bcd60e51b815260048101879052601660248201527514dd1859d948185b1c9958591e481d5b9b1bd8dad95960521b6044820152606490fd5b60405162461bcd60e51b815260048101859052601260248201527114dd1859d9481cdd1a5b1b081b1bd8dad95960721b6044820152606490fd5b60405162461bcd60e51b815260048101859052600d60248201526c496e76616c696420737461676560981b6044820152606490fd5b506003548111156116a6565b3461027f57606036600319011261027f576024600435813567ffffffffffffffff811161027f5761187a903690600401612555565b906044803593826000526020600460205260018060a01b036001946118aa8260016040600020015416331461277d565b801515806119e9575b6118bc906126fa565b600052600460205260406000209560ff600188015460a81c166004811015610498576118e890156127b7565b805188116119b057929695949360098601939060088701906000875b611912575b600a89018a9055005b83518110156119ab57846119268286612769565b5116156119755799878b61194987611941849d9e9f89612769565b5116866127f8565b866119548288612769565b511660005288885260406000208260ff1982541617905501909a9998611904565b60405162461bcd60e51b8152600481018790526010818d01526f24b73b30b634b21033bab0b93234b0b760811b81840152606490fd5b611909565b60405162461bcd60e51b8152602060048201526011602482015270125b9d985b1a59081d1a1c995cda1bdb19607a1b6044820152606490fd5b506003548111156118b3565b3461027f5760208060031936011261027f5760043580151580611bfd575b611a1c906126fa565b60009081526004825260408120600d01805490825b828110611bcd5750611a5b611a458461253d565b93611a536040519586612361565b80855261253d565b601f19018460005b828110611b9d5750505060009060005b838110611b0d57604080518781528651818901819052600092600582901b8301810191898b01918b9085015b828710611aac5785850386f35b909192938280600192603f19898203018552875190611af1611adf60808451845285850151908087860152840190612518565b60408401518382036040850152612518565b9160608091015115159101529601920196019592919092611a9f565b611b17818361273e565b5054421015611b29575b600101611a73565b91611b95600191611b3a858561273e565b5060ff600360405192611b4c84612345565b80548452611b5b878201612450565b8c850152611b6b60028201612450565b604085015201541615156060820152611b848289612769565b52611b8f8188612769565b5061275a565b929050611b21565b604051611ba981612345565b60008152600060608085840152806040840152820152828288010152018590611a63565b611bd7818361273e565b5054421015611be9575b600101611a31565b92611bf560019161275a565b939050611be1565b50600354811115611a13565b3461027f57602036600319011261027f57600435600052600460205260606040600020805460018201546002830154906003840154936004810154936005820154600a830154600c840154600e85015491600f860154936011611c6e60108901612450565b97015499611caf6040519d8e61024099815260018060a01b038c166020820152611ca28c60ff604084019160a01c166123fc565b0160ff8b60a81c16612409565b600360ff8a60b01c161015610498578c9b60ff9a60a08e8d611d0d9d60b01c166080820152015260c08d015260e08c01526101008b01526101208a0152610140890152610160880152610180870152806101a0870152850190612518565b9181811615156101c0850152818160081c1615156101e0850152818160101c16151561020085015260181c1615156102208301520390f35b3461027f57600036600319011261027f57611d5e612cf7565b60025460ff811615611d9d5760ff19166002557f5db9ee0a495bf2e6ff9c91a7834c1ba4fdd244a5e8aa4e537bd38aeae4b073aa6020604051338152a1005b604051638dfc202b60e01b8152600490fd5b3461027f5760208060031936011261027f5760043580151580611eec575b611dd6906126fa565b6000526004815260406000209081549160019260018201549360018060a01b0391600284015494600e8501546011600687019601549760405191828489549182815201908199600052856000209060005b818110611ed75750505083611e3d910384612361565b60405198611e7861012093848c01978c52898116878d0152611e6860408d0160ff8360a01c166123fc565b60ff60608d019160a81c16612409565b60808a015260a089015260c088015251809252610140860194936000905b838210611ec05787808860ff8c818160181c16151560e085015260101c1615156101008301520390f35b855181168752958201959482019490840190611e96565b82548b16845292870192918901918901611e27565b50600354811115611dcd565b3461027f5760208060031936011261027f576001600160a01b03611f1a6123e6565b1660005260058152604060002060405190818382549182815201908192600052846000209060005b86828210611f98578686611f5882880383612361565b604051928392818401908285525180915260408401929160005b828110611f8157505050500390f35b835185528695509381019392810192600101611f72565b835485529093019260019283019201611f42565b602036600319011261027f5767ffffffffffffffff60043581811161027f57611fd990369060040161239f565b611fe1612cd4565b6040516020818351611ff681838588016124f5565b8101600e8152030190206040519061200d82612328565b61201681612450565b825260ff60046001830154928360208601526002810154604086015260038101546060860152015481811615156080850152818160081c16151560a0850152818160101c16151560c085015260181c16151560e0830152156122aa57612082602082015134101561263d565b336000526006602052604060002081519384519081116114ae576120a68254612416565b601f8111612266575b506020601f82116001146121f957819060049495966000926121ee575b50508160011b916000199060031b1c19161781555b602083015160018201556040830151600282015560608301516003820155019061211d60808201511515839060ff801983541691151516179055565b60a0810151151590825461ff0063ff00000060e062ff000060c0860151151560101b16940151151560181b169360081b169063ffffff00191617171790556301e1338042018042116107325733600052600760205260406000205561219660008080803460018060a01b03600c54165af161072a61268d565b3360005260076020527fd3a0d4c6fb024554316f1122074a9d46118fadfecb90d5c41812a242c2106dfb604060002054916121dc60405191604083526040830190612518565b9260208201528033930390a260018055005b0151905086806120cc565b8260005260206000209560005b601f198416811061224e57509582916004959697600194601f19811610612235575b505050811b0181556120e1565b015160001960f88460031b161c19169055868080612228565b82820151885560019097019660209283019201612206565b826000526020600020601f830160051c8101602084106122a3575b601f830160051c820181106122975750506120af565b60008155600101612281565b5080612281565b60405162461bcd60e51b815260206004820152600c60248201526b24b73b30b634b2103a34b2b960a11b6044820152606490fd5b3461027f57602036600319011261027f57600435600581101561027f5761230660209161230f565b54604051908152f35b6005811015610498576000526008602052604060002090565b610100810190811067ffffffffffffffff8211176114ae57604052565b6080810190811067ffffffffffffffff8211176114ae57604052565b90601f8019910116810190811067ffffffffffffffff8211176114ae57604052565b67ffffffffffffffff81116114ae57601f01601f191660200190565b81601f8201121561027f578035906123b682612383565b926123c46040519485612361565b8284526020838301011161027f57816000926020809301838601378301015290565b600435906001600160a01b038216820361027f57565b9060058210156104985752565b9060048210156104985752565b90600182811c92168015612446575b602083101461243057565b634e487b7160e01b600052602260045260246000fd5b91607f1691612425565b9060405191826000825461246381612416565b908184526020946001916001811690816000146124d35750600114612494575b50505061249292500383612361565b565b600090815285812095935091905b8183106124bb5750506124929350820101388080612483565b855488840185015294850194879450918301916124a2565b9250505061249294925060ff191682840152151560051b820101388080612483565b60005b8381106125085750506000910152565b81810151838201526020016124f8565b90602091612531815180928185528580860191016124f5565b601f01601f1916010190565b67ffffffffffffffff81116114ae5760051b60200190565b9080601f8301121561027f57602090823561256f8161253d565b9361257d6040519586612361565b81855260208086019260051b82010192831161027f57602001905b8282106125a6575050505090565b81356001600160a01b038116810361027f578152908301908301612598565b80548210156125dd5760005260206000200190600090565b634e487b7160e01b600052603260045260246000fd5b9693909261261160e097949a9996939a610100808b528a0190612518565b9960208901526040880152606087015215156080860152151560a0850152151560c08401521515910152565b1561264457565b60405162461bcd60e51b8152602060048201526014602482015273125b9cdd59999a58da595b9d081c185e5b595b9d60621b6044820152606490fd5b9190820180921161073257565b3d156126b8573d9061269e82612383565b916126ac6040519384612361565b82523d6000602084013e565b606090565b156126c457565b60405162461bcd60e51b815260206004820152600e60248201526d14185e5b595b9d0819985a5b195960921b6044820152606490fd5b1561270157565b60405162461bcd60e51b815260206004820152601560248201527410d85c1cdd5b1948191bd95cdb89dd08195e1a5cdd605a1b6044820152606490fd5b80548210156125dd5760005260206000209060021b0190600090565b60001981146107325760010190565b80518210156125dd5760209160051b010190565b1561278457565b60405162461bcd60e51b815260206004820152600b60248201526a2737ba1031b932b0ba37b960a91b6044820152606490fd5b156127be57565b60405162461bcd60e51b815260206004820152601260248201527143617073756c65206e6f742061637469766560701b6044820152606490fd5b8054600160401b8110156114ae57612815916001820181556125c5565b60018060a09493941b038084549260031b9316831b921b1916179055565b1561283a57565b60405162461bcd60e51b815260206004820152600f60248201526e139bdd0818481c9958da5c1a595b9d608a1b6044820152606490fd5b908154600160401b8110156114ae5761289190600193848201815561273e565b919091612af4578051825582820192602093848301519182519167ffffffffffffffff928381116114ae57806128c78354612416565b95601f96878111612aa0575b508990878311600114612a3d57600092612a32575b5050600019600383901b1c191690831b1790555b600285019260408501519687519384116114ae5761291a8554612416565b8281116129ec575b5080918411600114612979575091808060609593600397956124929a60009461296e575b50501b9160001990871b1c19161790555b0151151591019060ff801983541691151516179055565b015192503880612946565b9193949596601f1984168660005283600020936000905b8282106129d5575050926060959285926124929a999660039996106129bd575b505050811b019055612957565b015160001983891b60f8161c191690553880806129b0565b808886978294978701518155019601940190612990565b85600052816000208380870160051c820192848810612a29575b0160051c019084905b828110612a1d575050612922565b60008155018490612a0f565b92508192612a06565b0151905038806128e8565b90859350601f19831691856000528b6000209260005b8d828210612a8a5750508411612a71575b505050811b0190556128fc565b015160001960f88460031b161c19169055388080612a64565b8385015186558997909501949384019301612a53565b9091506000846000528a6000208880860160051c8201938d8710612aeb575b91889187969594930160051c01925b838110612add575050506128d3565b828155869550889101612ace565b93508193612abf565b634e487b7160e01b600052600060045260246000fd5b6000526004602052604060002060ff600182015460a81c1660048110156104985760018114612b5557600314612b4f5760020154421015612b4a57600090565b600190565b50600190565b5050600190565b612b779080151580612b7a575b612b72906126fa565b612b86565b90565b50600354811115612b69565b6000526004602052604060002060ff601182015460181c1615612bc1578060056102e26003612bbc940154600484015490612680565b421190565b50600090565b60e06040918251612bd781612328565b60608152600092818460208194015282868201528260608201528260808201528260a08201528260c0820152015282612c258260018060a01b03166000526007602052604060002054421090565b612cae5760ff92506004915060249051634652454560e01b8152600e8382015220835193612c5285612328565b612c5b82612450565b85526001820154602086015260028201549085015260038101546060850152015481811615156080840152818160081c16151560a0840152818160101c16151560c084015260181c16151560e082015290565b6001600160a01b0390911682526006602052902081519160ff91600491612c5285612328565b600260015414612ce5576002600155565b604051633ee5aeb560e01b8152600490fd5b6000546001600160a01b03163303612d0b57565b60405163118cdaa760e01b8152336004820152602490fd5b60ff60025416612d2f57565b60405163d93c066560e01b8152600490fdfea26469706673582212202590fc9936e1bb9bc3871a22099ca503e717b3763d1083bfdb94f2953b13146d64736f6c63430008180033",
          "opcodes": "PUSH1 0x80 CALLVALUE PUSH3 0xA7D JUMPI PUSH1 0x1F PUSH3 0x383B CODESIZE DUP2 SWAP1 SUB SWAP2 DUP3 ADD PUSH1 0x1F NOT AND DUP4 ADD SWAP2 PUSH1 0x1 PUSH1 0x1 PUSH1 0x40 SHL SUB DUP4 GT DUP5 DUP5 LT OR PUSH3 0x7D8 JUMPI DUP1 DUP5 SWAP3 PUSH1 0x20 SWAP5 PUSH1 0x40 MSTORE DUP4 CODECOPY DUP2 ADD SUB SLT PUSH3 0xA7D JUMPI MLOAD PUSH1 0x1 PUSH1 0x1 PUSH1 0xA0 SHL SUB DUP1 DUP3 AND SWAP2 DUP3 SWAP1 SUB PUSH3 0xA7D JUMPI CALLER ISZERO PUSH3 0xA64 JUMPI PUSH1 0x0 SLOAD PUSH1 0x1 DUP1 PUSH1 0xA0 SHL SUB NOT SWAP2 CALLER DUP4 DUP4 AND OR PUSH1 0x0 SSTORE CALLER SWAP2 AND PUSH32 0x8BE0079C531659141344CD1FD0A4F28419497F9722A3DAAFE3B4186F6B6457E0 PUSH1 0x0 DUP1 LOG3 PUSH1 0x1 DUP1 SSTORE PUSH1 0xC DUP1 SLOAD SWAP2 SWAP1 SWAP2 AND SWAP2 SWAP1 SWAP2 OR SWAP1 SSTORE PUSH2 0x1F4 PUSH1 0xD SSTORE PUSH1 0x8 PUSH1 0x20 MSTORE PUSH8 0x4563918244F40000 PUSH32 0x5EFF886EA0CE6CA488A3D6E336D6C0F75F46D19B42C06CE5EE98E42C96D256C7 DUP2 SWAP1 SSTORE PUSH8 0x8AC7230489E80000 PUSH32 0xAD67D757C34507F157CACFA2E3153E9F260A2244F30428821BE7BE64587AC55F DUP2 SWAP1 SSTORE PUSH9 0x15AF1D78B58C40000 PUSH32 0x6ADD646517A5B0F6793CD5891B7937D28A5B2981A5D88EBC7CD776088FEA9041 SSTORE PUSH32 0x625B35F5E76F098DD7C3A05B10E2E5E78A4A01228D60C3B143426CDF36D26455 DUP2 SWAP1 SSTORE PUSH1 0x4 PUSH1 0x0 MSTORE PUSH9 0x2B5E3AF16B1880000 PUSH32 0x9321EDEA6E3BE4DF59A344B401FAB4F888B556FDA1F954244CFF9204BAD624B8 SSTORE PUSH9 0x1158E460913D00000 PUSH1 0x9 SSTORE PUSH1 0xA SWAP2 SWAP1 SWAP2 SSTORE PUSH1 0xB SSTORE PUSH3 0x1B2 PUSH3 0xA82 JUMP JUMPDEST PUSH1 0x24 PUSH3 0x1BE PUSH3 0xAA3 JUMP JUMPDEST PUSH1 0x4 DUP2 MSTORE PUSH4 0x46524545 PUSH1 0xE0 SHL SWAP1 DUP2 PUSH1 0x20 DUP3 ADD MSTORE DUP4 MSTORE PUSH1 0x0 PUSH1 0x20 DUP5 ADD MSTORE PUSH1 0x1 PUSH1 0x40 DUP5 ADD MSTORE PUSH3 0x7D000 PUSH1 0x60 DUP5 ADD MSTORE PUSH1 0x0 PUSH1 0x80 DUP5 ADD MSTORE PUSH1 0x0 PUSH1 0xA0 DUP5 ADD MSTORE PUSH1 0x0 PUSH1 0xC0 DUP5 ADD MSTORE PUSH1 0x0 PUSH1 0xE0 DUP5 ADD MSTORE PUSH1 0x40 MLOAD SWAP1 DUP2 MSTORE PUSH1 0xE PUSH1 0x4 DUP3 ADD MSTORE KECCAK256 DUP2 MLOAD DUP1 MLOAD SWAP1 PUSH1 0x1 DUP1 PUSH1 0x40 SHL SUB DUP3 GT PUSH3 0x7D8 JUMPI DUP3 SLOAD PUSH1 0x1 DUP2 DUP2 SHR SWAP2 AND DUP1 ISZERO PUSH3 0xA59 JUMPI JUMPDEST PUSH1 0x20 DUP3 LT EQ PUSH3 0x7B7 JUMPI PUSH1 0x1F DUP2 GT PUSH3 0xA10 JUMPI JUMPDEST POP PUSH1 0x20 SWAP1 PUSH1 0x1F DUP4 GT PUSH1 0x1 EQ PUSH3 0x99E JUMPI PUSH1 0x4 SWAP4 SWAP3 SWAP2 PUSH1 0x0 SWAP2 DUP4 PUSH3 0x992 JUMPI JUMPDEST POP POP DUP2 PUSH1 0x1 SHL SWAP2 PUSH1 0x0 NOT SWAP1 PUSH1 0x3 SHL SHR NOT AND OR DUP2 SSTORE JUMPDEST PUSH1 0x20 DUP4 ADD MLOAD PUSH1 0x1 DUP3 ADD SSTORE PUSH1 0x40 DUP4 ADD MLOAD PUSH1 0x2 DUP3 ADD SSTORE PUSH1 0x60 DUP4 ADD MLOAD PUSH1 0x3 DUP3 ADD SSTORE ADD SWAP1 PUSH1 0x80 DUP2 ADD MLOAD ISZERO ISZERO SWAP1 PUSH3 0xFF0000 DUP4 SLOAD PUSH2 0xFF00 PUSH1 0xA0 DUP5 ADD MLOAD ISZERO ISZERO PUSH1 0x8 SHL AND SWAP1 PUSH1 0xFF PUSH4 0xFF000000 PUSH1 0xE0 PUSH1 0xC0 DUP8 ADD MLOAD ISZERO ISZERO SWAP7 ADD MLOAD ISZERO ISZERO PUSH1 0x18 SHL AND SWAP6 AND SWAP1 PUSH4 0xFFFFFFFF NOT AND OR OR SWAP2 PUSH1 0x10 SHL AND OR OR SWAP1 SSTORE PUSH3 0x2F5 PUSH3 0xA82 JUMP JUMPDEST PUSH3 0x2FF PUSH3 0xAA3 JUMP JUMPDEST PUSH1 0x5 DUP2 MSTORE PUSH5 0x4241534943 PUSH1 0xD8 SHL PUSH1 0x20 DUP3 ADD MSTORE DUP2 MSTORE PUSH9 0x19274B259F6540000 PUSH1 0x20 DUP3 ADD MSTORE PUSH1 0x5 PUSH1 0x40 DUP3 ADD MSTORE PUSH3 0x500000 PUSH1 0x60 DUP3 ADD MSTORE PUSH1 0x0 PUSH1 0x80 DUP3 ADD MSTORE PUSH1 0x0 PUSH1 0xA0 DUP3 ADD MSTORE PUSH1 0x1 PUSH1 0xC0 DUP3 ADD MSTORE PUSH1 0x0 PUSH1 0xE0 DUP3 ADD MSTORE PUSH1 0x25 PUSH1 0x40 MLOAD PUSH5 0x4241534943 PUSH1 0xD8 SHL DUP2 MSTORE PUSH1 0xE PUSH1 0x5 DUP3 ADD MSTORE KECCAK256 DUP2 MLOAD DUP1 MLOAD SWAP1 PUSH1 0x1 DUP1 PUSH1 0x40 SHL SUB DUP3 GT PUSH3 0x7D8 JUMPI DUP3 SLOAD PUSH1 0x1 DUP2 DUP2 SHR SWAP2 AND DUP1 ISZERO PUSH3 0x987 JUMPI JUMPDEST PUSH1 0x20 DUP3 LT EQ PUSH3 0x7B7 JUMPI PUSH1 0x1F DUP2 GT PUSH3 0x93E JUMPI JUMPDEST POP PUSH1 0x20 SWAP1 PUSH1 0x1F DUP4 GT PUSH1 0x1 EQ PUSH3 0x8CC JUMPI PUSH1 0x4 SWAP4 SWAP3 SWAP2 PUSH1 0x0 SWAP2 DUP4 PUSH3 0x8C0 JUMPI JUMPDEST POP POP DUP2 PUSH1 0x1 SHL SWAP2 PUSH1 0x0 NOT SWAP1 PUSH1 0x3 SHL SHR NOT AND OR DUP2 SSTORE JUMPDEST PUSH1 0x20 DUP4 ADD MLOAD PUSH1 0x1 DUP3 ADD SSTORE PUSH1 0x40 DUP4 ADD MLOAD PUSH1 0x2 DUP3 ADD SSTORE PUSH1 0x60 DUP4 ADD MLOAD PUSH1 0x3 DUP3 ADD SSTORE ADD SWAP1 PUSH1 0x80 DUP2 ADD MLOAD ISZERO ISZERO SWAP1 DUP3 SLOAD PUSH2 0xFF00 PUSH1 0xA0 DUP4 ADD MLOAD ISZERO ISZERO PUSH1 0x8 SHL AND SWAP1 PUSH1 0xFF PUSH4 0xFF000000 PUSH1 0xE0 PUSH3 0xFF0000 PUSH1 0xC0 DUP8 ADD MLOAD ISZERO ISZERO PUSH1 0x10 SHL AND SWAP6 ADD MLOAD ISZERO ISZERO PUSH1 0x18 SHL AND SWAP5 AND SWAP1 PUSH4 0xFFFFFFFF NOT AND OR OR OR OR SWAP1 SSTORE PUSH3 0x446 PUSH3 0xA82 JUMP JUMPDEST PUSH3 0x450 PUSH3 0xAA3 JUMP JUMPDEST PUSH1 0x3 DUP2 MSTORE PUSH3 0x50524F PUSH1 0xE8 SHL PUSH1 0x20 DUP3 ADD MSTORE DUP2 MSTORE PUSH9 0x55DE6A779BBAC0000 PUSH1 0x20 DUP3 ADD MSTORE PUSH3 0xF423F PUSH1 0x40 DUP3 ADD MSTORE PUSH4 0x6400000 PUSH1 0x60 DUP3 ADD MSTORE PUSH1 0x1 PUSH1 0x80 DUP3 ADD MSTORE PUSH1 0x1 PUSH1 0xA0 DUP3 ADD MSTORE PUSH1 0x1 PUSH1 0xC0 DUP3 ADD MSTORE PUSH1 0x1 PUSH1 0xE0 DUP3 ADD MSTORE PUSH1 0x23 PUSH1 0x40 MLOAD PUSH3 0x50524F PUSH1 0xE8 SHL DUP2 MSTORE PUSH1 0xE PUSH1 0x3 DUP3 ADD MSTORE KECCAK256 DUP2 MLOAD DUP1 MLOAD SWAP1 PUSH1 0x1 DUP1 PUSH1 0x40 SHL SUB DUP3 GT PUSH3 0x7D8 JUMPI DUP3 SLOAD PUSH1 0x1 DUP2 DUP2 SHR SWAP2 AND DUP1 ISZERO PUSH3 0x8B5 JUMPI JUMPDEST PUSH1 0x20 DUP3 LT EQ PUSH3 0x7B7 JUMPI PUSH1 0x1F DUP2 GT PUSH3 0x86C JUMPI JUMPDEST POP PUSH1 0x20 SWAP1 PUSH1 0x1F DUP4 GT PUSH1 0x1 EQ PUSH3 0x7FA JUMPI PUSH1 0x4 SWAP4 SWAP3 SWAP2 PUSH1 0x0 SWAP2 DUP4 PUSH3 0x7EE JUMPI JUMPDEST POP POP DUP2 PUSH1 0x1 SHL SWAP2 PUSH1 0x0 NOT SWAP1 PUSH1 0x3 SHL SHR NOT AND OR DUP2 SSTORE JUMPDEST PUSH1 0x20 DUP4 ADD MLOAD PUSH1 0x1 DUP3 ADD SSTORE PUSH1 0x40 DUP4 ADD MLOAD PUSH1 0x2 DUP3 ADD SSTORE PUSH1 0x60 DUP4 ADD MLOAD PUSH1 0x3 DUP3 ADD SSTORE ADD SWAP1 PUSH1 0x80 DUP2 ADD MLOAD ISZERO ISZERO SWAP1 DUP3 SLOAD PUSH2 0xFF00 PUSH1 0xA0 DUP4 ADD MLOAD ISZERO ISZERO PUSH1 0x8 SHL AND SWAP1 PUSH1 0xFF PUSH4 0xFF000000 PUSH1 0xE0 PUSH3 0xFF0000 PUSH1 0xC0 DUP8 ADD MLOAD ISZERO ISZERO PUSH1 0x10 SHL AND SWAP6 ADD MLOAD ISZERO ISZERO PUSH1 0x18 SHL AND SWAP5 AND SWAP1 PUSH4 0xFFFFFFFF NOT AND OR OR OR OR SWAP1 SSTORE PUSH3 0x596 PUSH3 0xA82 JUMP JUMPDEST PUSH3 0x5A0 PUSH3 0xAA3 JUMP JUMPDEST PUSH1 0x6 DUP2 MSTORE PUSH6 0x455354415445 PUSH1 0xD0 SHL PUSH1 0x20 DUP3 ADD MSTORE DUP2 MSTORE PUSH9 0x10357563D481CC0000 PUSH1 0x20 DUP3 ADD MSTORE PUSH3 0xF423F PUSH1 0x40 DUP3 ADD MSTORE PUSH4 0x1F400000 PUSH1 0x60 DUP3 ADD MSTORE PUSH1 0x1 PUSH1 0x80 DUP3 ADD MSTORE PUSH1 0x1 PUSH1 0xA0 DUP3 ADD MSTORE PUSH1 0x1 PUSH1 0xC0 DUP3 ADD MSTORE PUSH1 0x1 PUSH1 0xE0 DUP3 ADD MSTORE PUSH1 0x26 PUSH1 0x40 MLOAD PUSH6 0x455354415445 PUSH1 0xD0 SHL DUP2 MSTORE PUSH1 0xE PUSH1 0x6 DUP3 ADD MSTORE KECCAK256 DUP2 MLOAD DUP1 MLOAD SWAP1 PUSH1 0x1 DUP1 PUSH1 0x40 SHL SUB DUP3 GT PUSH3 0x7D8 JUMPI DUP3 SLOAD PUSH1 0x1 DUP2 DUP2 SHR SWAP2 AND DUP1 ISZERO PUSH3 0x7CD JUMPI JUMPDEST PUSH1 0x20 DUP3 LT EQ PUSH3 0x7B7 JUMPI PUSH1 0x1F DUP2 GT PUSH3 0x76E JUMPI JUMPDEST POP PUSH1 0x20 SWAP1 PUSH1 0x1F DUP4 GT PUSH1 0x1 EQ PUSH3 0x6FE JUMPI PUSH1 0x4 SWAP4 SWAP3 SWAP2 PUSH1 0x0 SWAP2 DUP4 PUSH3 0x6F2 JUMPI JUMPDEST POP POP DUP2 PUSH1 0x1 SHL SWAP2 PUSH1 0x0 NOT SWAP1 PUSH1 0x3 SHL SHR NOT AND OR DUP2 SSTORE JUMPDEST PUSH1 0x20 DUP4 ADD MLOAD PUSH1 0x1 DUP3 ADD SSTORE PUSH1 0x40 DUP4 ADD MLOAD PUSH1 0x2 DUP3 ADD SSTORE PUSH1 0x60 DUP4 ADD MLOAD PUSH1 0x3 DUP3 ADD SSTORE ADD SWAP1 PUSH1 0x80 DUP2 ADD MLOAD ISZERO ISZERO SWAP1 DUP3 SLOAD PUSH2 0xFF00 PUSH1 0xA0 DUP4 ADD MLOAD ISZERO ISZERO PUSH1 0x8 SHL AND SWAP1 PUSH1 0xFF PUSH4 0xFF000000 PUSH1 0xE0 PUSH3 0xFF0000 PUSH1 0xC0 DUP8 ADD MLOAD ISZERO ISZERO PUSH1 0x10 SHL AND SWAP6 ADD MLOAD ISZERO ISZERO PUSH1 0x18 SHL AND SWAP5 AND SWAP1 PUSH4 0xFFFFFFFF NOT AND OR OR OR OR SWAP1 SSTORE PUSH1 0x40 MLOAD PUSH2 0x2D77 SWAP1 DUP2 PUSH3 0xAC4 DUP3 CODECOPY RETURN JUMPDEST ADD MLOAD SWAP1 POP CODESIZE DUP1 PUSH3 0x663 JUMP JUMPDEST SWAP1 PUSH1 0x1F NOT DUP4 AND SWAP2 DUP5 PUSH1 0x0 MSTORE PUSH1 0x20 PUSH1 0x0 KECCAK256 SWAP3 PUSH1 0x0 JUMPDEST DUP2 DUP2 LT PUSH3 0x755 JUMPI POP SWAP2 PUSH1 0x1 SWAP4 SWAP2 DUP6 PUSH1 0x4 SWAP8 SWAP7 SWAP5 LT PUSH3 0x73B JUMPI JUMPDEST POP POP POP DUP2 SHL ADD DUP2 SSTORE PUSH3 0x678 JUMP JUMPDEST ADD MLOAD PUSH1 0x0 NOT PUSH1 0xF8 DUP5 PUSH1 0x3 SHL AND SHR NOT AND SWAP1 SSTORE CODESIZE DUP1 DUP1 PUSH3 0x72D JUMP JUMPDEST SWAP3 SWAP4 PUSH1 0x20 PUSH1 0x1 DUP2 SWAP3 DUP8 DUP7 ADD MLOAD DUP2 SSTORE ADD SWAP6 ADD SWAP4 ADD PUSH3 0x712 JUMP JUMPDEST DUP4 PUSH1 0x0 MSTORE PUSH1 0x20 PUSH1 0x0 KECCAK256 PUSH1 0x1F DUP5 ADD PUSH1 0x5 SHR DUP2 ADD PUSH1 0x20 DUP6 LT PUSH3 0x7AF JUMPI JUMPDEST PUSH1 0x1F DUP4 ADD PUSH1 0x5 SHR DUP3 ADD DUP2 LT PUSH3 0x7A2 JUMPI POP POP PUSH3 0x644 JUMP JUMPDEST PUSH1 0x0 DUP2 SSTORE PUSH1 0x1 ADD PUSH3 0x78A JUMP JUMPDEST POP DUP1 PUSH3 0x78A JUMP JUMPDEST PUSH4 0x4E487B71 PUSH1 0xE0 SHL PUSH1 0x0 MSTORE PUSH1 0x22 PUSH1 0x4 MSTORE PUSH1 0x24 PUSH1 0x0 REVERT JUMPDEST SWAP1 PUSH1 0x7F AND SWAP1 PUSH3 0x630 JUMP JUMPDEST PUSH4 0x4E487B71 PUSH1 0xE0 SHL PUSH1 0x0 MSTORE PUSH1 0x41 PUSH1 0x4 MSTORE PUSH1 0x24 PUSH1 0x0 REVERT JUMPDEST ADD MLOAD SWAP1 POP CODESIZE DUP1 PUSH3 0x50D JUMP JUMPDEST SWAP1 DUP4 PUSH1 0x0 MSTORE PUSH1 0x20 PUSH1 0x0 KECCAK256 SWAP2 PUSH1 0x0 JUMPDEST PUSH1 0x1F NOT DUP6 AND DUP2 LT PUSH3 0x853 JUMPI POP SWAP2 DUP4 SWAP2 PUSH1 0x1 SWAP4 PUSH1 0x4 SWAP7 SWAP6 PUSH1 0x1F NOT DUP2 AND LT PUSH3 0x839 JUMPI JUMPDEST POP POP POP DUP2 SHL ADD DUP2 SSTORE PUSH3 0x522 JUMP JUMPDEST ADD MLOAD PUSH1 0x0 NOT PUSH1 0xF8 DUP5 PUSH1 0x3 SHL AND SHR NOT AND SWAP1 SSTORE CODESIZE DUP1 DUP1 PUSH3 0x82B JUMP JUMPDEST SWAP2 SWAP3 PUSH1 0x20 PUSH1 0x1 DUP2 SWAP3 DUP7 DUP6 ADD MLOAD DUP2 SSTORE ADD SWAP5 ADD SWAP3 ADD PUSH3 0x808 JUMP JUMPDEST DUP4 PUSH1 0x0 MSTORE PUSH1 0x20 PUSH1 0x0 KECCAK256 PUSH1 0x1F DUP5 ADD PUSH1 0x5 SHR DUP2 ADD PUSH1 0x20 DUP6 LT PUSH3 0x8AD JUMPI JUMPDEST PUSH1 0x1F DUP4 ADD PUSH1 0x5 SHR DUP3 ADD DUP2 LT PUSH3 0x8A0 JUMPI POP POP PUSH3 0x4EE JUMP JUMPDEST PUSH1 0x0 DUP2 SSTORE PUSH1 0x1 ADD PUSH3 0x888 JUMP JUMPDEST POP DUP1 PUSH3 0x888 JUMP JUMPDEST SWAP1 PUSH1 0x7F AND SWAP1 PUSH3 0x4DA JUMP JUMPDEST ADD MLOAD SWAP1 POP CODESIZE DUP1 PUSH3 0x3BD JUMP JUMPDEST SWAP1 DUP4 PUSH1 0x0 MSTORE PUSH1 0x20 PUSH1 0x0 KECCAK256 SWAP2 PUSH1 0x0 JUMPDEST PUSH1 0x1F NOT DUP6 AND DUP2 LT PUSH3 0x925 JUMPI POP SWAP2 DUP4 SWAP2 PUSH1 0x1 SWAP4 PUSH1 0x4 SWAP7 SWAP6 PUSH1 0x1F NOT DUP2 AND LT PUSH3 0x90B JUMPI JUMPDEST POP POP POP DUP2 SHL ADD DUP2 SSTORE PUSH3 0x3D2 JUMP JUMPDEST ADD MLOAD PUSH1 0x0 NOT PUSH1 0xF8 DUP5 PUSH1 0x3 SHL AND SHR NOT AND SWAP1 SSTORE CODESIZE DUP1 DUP1 PUSH3 0x8FD JUMP JUMPDEST SWAP2 SWAP3 PUSH1 0x20 PUSH1 0x1 DUP2 SWAP3 DUP7 DUP6 ADD MLOAD DUP2 SSTORE ADD SWAP5 ADD SWAP3 ADD PUSH3 0x8DA JUMP JUMPDEST DUP4 PUSH1 0x0 MSTORE PUSH1 0x20 PUSH1 0x0 KECCAK256 PUSH1 0x1F DUP5 ADD PUSH1 0x5 SHR DUP2 ADD PUSH1 0x20 DUP6 LT PUSH3 0x97F JUMPI JUMPDEST PUSH1 0x1F DUP4 ADD PUSH1 0x5 SHR DUP3 ADD DUP2 LT PUSH3 0x972 JUMPI POP POP PUSH3 0x39E JUMP JUMPDEST PUSH1 0x0 DUP2 SSTORE PUSH1 0x1 ADD PUSH3 0x95A JUMP JUMPDEST POP DUP1 PUSH3 0x95A JUMP JUMPDEST SWAP1 PUSH1 0x7F AND SWAP1 PUSH3 0x38A JUMP JUMPDEST ADD MLOAD SWAP1 POP CODESIZE DUP1 PUSH3 0x26B JUMP JUMPDEST SWAP1 DUP4 PUSH1 0x0 MSTORE PUSH1 0x20 PUSH1 0x0 KECCAK256 SWAP2 PUSH1 0x0 JUMPDEST PUSH1 0x1F NOT DUP6 AND DUP2 LT PUSH3 0x9F7 JUMPI POP SWAP2 DUP4 SWAP2 PUSH1 0x1 SWAP4 PUSH1 0x4 SWAP7 SWAP6 PUSH1 0x1F NOT DUP2 AND LT PUSH3 0x9DD JUMPI JUMPDEST POP POP POP DUP2 SHL ADD DUP2 SSTORE PUSH3 0x280 JUMP JUMPDEST ADD MLOAD PUSH1 0x0 NOT PUSH1 0xF8 DUP5 PUSH1 0x3 SHL AND SHR NOT AND SWAP1 SSTORE CODESIZE DUP1 DUP1 PUSH3 0x9CF JUMP JUMPDEST SWAP2 SWAP3 PUSH1 0x20 PUSH1 0x1 DUP2 SWAP3 DUP7 DUP6 ADD MLOAD DUP2 SSTORE ADD SWAP5 ADD SWAP3 ADD PUSH3 0x9AC JUMP JUMPDEST DUP4 PUSH1 0x0 MSTORE PUSH1 0x20 PUSH1 0x0 KECCAK256 PUSH1 0x1F DUP5 ADD PUSH1 0x5 SHR DUP2 ADD PUSH1 0x20 DUP6 LT PUSH3 0xA51 JUMPI JUMPDEST PUSH1 0x1F DUP4 ADD PUSH1 0x5 SHR DUP3 ADD DUP2 LT PUSH3 0xA44 JUMPI POP POP PUSH3 0x24C JUMP JUMPDEST PUSH1 0x0 DUP2 SSTORE PUSH1 0x1 ADD PUSH3 0xA2C JUMP JUMPDEST POP DUP1 PUSH3 0xA2C JUMP JUMPDEST SWAP1 PUSH1 0x7F AND SWAP1 PUSH3 0x238 JUMP JUMPDEST PUSH1 0x40 MLOAD PUSH4 0x1E4FBDF7 PUSH1 0xE0 SHL DUP2 MSTORE PUSH1 0x0 PUSH1 0x4 DUP3 ADD MSTORE PUSH1 0x24 SWAP1 REVERT JUMPDEST PUSH1 0x0 DUP1 REVERT JUMPDEST PUSH1 0x40 MLOAD SWAP1 PUSH2 0x100 DUP3 ADD PUSH1 0x1 PUSH1 0x1 PUSH1 0x40 SHL SUB DUP2 GT DUP4 DUP3 LT OR PUSH3 0x7D8 JUMPI PUSH1 0x40 MSTORE JUMP JUMPDEST PUSH1 0x40 DUP1 MLOAD SWAP2 SWAP1 DUP3 ADD PUSH1 0x1 PUSH1 0x1 PUSH1 0x40 SHL SUB DUP2 GT DUP4 DUP3 LT OR PUSH3 0x7D8 JUMPI PUSH1 0x40 MSTORE JUMP INVALID PUSH1 0x80 PUSH1 0x40 MSTORE PUSH1 0x4 CALLDATASIZE LT ISZERO PUSH2 0x12 JUMPI PUSH1 0x0 DUP1 REVERT JUMPDEST PUSH1 0x0 CALLDATALOAD PUSH1 0xE0 SHR DUP1 PUSH4 0xBB8CD4D EQ PUSH2 0x22DE JUMPI DUP1 PUSH4 0x1D9B30C7 EQ PUSH2 0x1FAC JUMPI DUP1 PUSH4 0x366636F7 EQ PUSH2 0x1EF8 JUMPI DUP1 PUSH4 0x3AAC3858 EQ PUSH2 0x1DAF JUMPI DUP1 PUSH4 0x3F4BA83A EQ PUSH2 0x1D45 JUMPI DUP1 PUSH4 0x517BBF46 EQ PUSH2 0x1C09 JUMPI DUP1 PUSH4 0x56E4F84C EQ PUSH2 0x19F5 JUMPI DUP1 PUSH4 0x583D259F EQ PUSH2 0x1845 JUMPI DUP1 PUSH4 0x59BE33C8 EQ PUSH2 0x1686 JUMPI DUP1 PUSH4 0x5C975ABB EQ PUSH2 0x1663 JUMPI DUP1 PUSH4 0x5D029843 EQ PUSH2 0x118B JUMPI DUP1 PUSH4 0x60A85EF5 EQ PUSH2 0x1151 JUMPI DUP1 PUSH4 0x61D027B3 EQ PUSH2 0x1128 JUMPI DUP1 PUSH4 0x715018A6 EQ PUSH2 0x10CF JUMPI DUP1 PUSH4 0x72ABC8B7 EQ PUSH2 0x1093 JUMPI DUP1 PUSH4 0x7389C630 EQ PUSH2 0x105F JUMPI DUP1 PUSH4 0x7465DA76 EQ PUSH2 0x1012 JUMPI DUP1 PUSH4 0x7B707F01 EQ PUSH2 0xF18 JUMPI DUP1 PUSH4 0x7F33D619 EQ PUSH2 0xEFA JUMPI DUP1 PUSH4 0x7F51BB1F EQ PUSH2 0xE76 JUMPI DUP1 PUSH4 0x83519A92 EQ PUSH2 0xCD2 JUMPI DUP1 PUSH4 0x8456CB59 EQ PUSH2 0xC78 JUMPI DUP1 PUSH4 0x8AB03929 EQ PUSH2 0xB46 JUMPI DUP1 PUSH4 0x8C639A85 EQ PUSH2 0xB28 JUMPI DUP1 PUSH4 0x8DA5CB5B EQ PUSH2 0xAFF JUMPI DUP1 PUSH4 0x96BD9BFE EQ PUSH2 0x983 JUMPI DUP1 PUSH4 0xA0D79FB5 EQ PUSH2 0x92B JUMPI DUP1 PUSH4 0xA90F0C91 EQ PUSH2 0x90D JUMPI DUP1 PUSH4 0xBEBE4A57 EQ PUSH2 0x8C8 JUMPI DUP1 PUSH4 0xC21446C0 EQ PUSH2 0x8AA JUMPI DUP1 PUSH4 0xC446BAC1 EQ PUSH2 0x7EF JUMPI DUP1 PUSH4 0xCF14B9E4 EQ PUSH2 0x7B7 JUMPI DUP1 PUSH4 0xD2DB53D7 EQ PUSH2 0x799 JUMPI DUP1 PUSH4 0xD58E151B EQ PUSH2 0x62A JUMPI DUP1 PUSH4 0xDB2E21BC EQ PUSH2 0x5B1 JUMPI DUP1 PUSH4 0xDDAA01C4 EQ PUSH2 0x593 JUMPI DUP1 PUSH4 0xE4D2620E EQ PUSH2 0x4FF JUMPI DUP1 PUSH4 0xE95A644F EQ PUSH2 0x3C9 JUMPI DUP1 PUSH4 0xF2FDE38B EQ PUSH2 0x33B JUMPI DUP1 PUSH4 0xF426A6F4 EQ PUSH2 0x284 JUMPI PUSH4 0xFE551B05 EQ PUSH2 0x1DF JUMPI PUSH1 0x0 DUP1 REVERT JUMPDEST CALLVALUE PUSH2 0x27F JUMPI PUSH1 0x20 CALLDATASIZE PUSH1 0x3 NOT ADD SLT PUSH2 0x27F JUMPI PUSH1 0x4 CALLDATALOAD PUSH8 0xFFFFFFFFFFFFFFFF DUP2 GT PUSH2 0x27F JUMPI PUSH1 0x20 PUSH2 0x215 PUSH2 0x228 SWAP3 CALLDATASIZE SWAP1 PUSH1 0x4 ADD PUSH2 0x239F JUMP JUMPDEST DUP2 PUSH1 0x40 MLOAD SWAP4 DUP3 DUP6 DUP1 SWAP5 MLOAD SWAP4 DUP5 SWAP3 ADD PUSH2 0x24F5 JUMP JUMPDEST DUP2 ADD PUSH1 0xE DUP2 MSTORE SUB ADD SWAP1 KECCAK256 PUSH2 0x23B DUP2 PUSH2 0x2450 JUMP JUMPDEST SWAP1 PUSH2 0x27B PUSH1 0x1 DUP3 ADD SLOAD PUSH1 0x2 DUP4 ADD SLOAD SWAP1 PUSH1 0x4 PUSH1 0x3 DUP6 ADD SLOAD SWAP5 ADD SLOAD PUSH1 0x40 MLOAD SWAP6 DUP7 SWAP6 PUSH1 0xFF DUP4 PUSH1 0x18 SHR AND SWAP5 PUSH1 0xFF DUP5 PUSH1 0x10 SHR AND SWAP5 PUSH1 0xFF DUP1 DUP7 PUSH1 0x8 SHR AND SWAP6 AND SWAP4 DUP10 PUSH2 0x25F3 JUMP JUMPDEST SUB SWAP1 RETURN JUMPDEST PUSH1 0x0 DUP1 REVERT JUMPDEST CALLVALUE PUSH2 0x27F JUMPI PUSH1 0x20 CALLDATASIZE PUSH1 0x3 NOT ADD SLT PUSH2 0x27F JUMPI PUSH1 0x4 CALLDATALOAD DUP1 ISZERO ISZERO DUP1 PUSH2 0x32F JUMPI JUMPDEST PUSH2 0x2AA SWAP1 PUSH2 0x26FA JUMP JUMPDEST PUSH1 0x0 MSTORE PUSH1 0x4 PUSH1 0x20 MSTORE PUSH1 0x40 PUSH1 0x0 KECCAK256 PUSH1 0xFF PUSH1 0x11 DUP3 ADD SLOAD PUSH1 0x18 SHR AND ISZERO PUSH2 0x2F3 JUMPI PUSH2 0x2EB DUP2 PUSH1 0x5 PUSH2 0x2E2 PUSH1 0x3 PUSH1 0x20 SWAP6 ADD SLOAD PUSH1 0x4 DUP5 ADD SLOAD SWAP1 PUSH2 0x2680 JUMP JUMPDEST SWAP2 ADD SLOAD SWAP1 PUSH2 0x2680 JUMP JUMPDEST PUSH1 0x40 MLOAD SWAP1 DUP2 MSTORE RETURN JUMPDEST PUSH1 0x40 MLOAD PUSH3 0x461BCD PUSH1 0xE5 SHL DUP2 MSTORE PUSH1 0x20 PUSH1 0x4 DUP3 ADD MSTORE PUSH1 0x14 PUSH1 0x24 DUP3 ADD MSTORE PUSH20 0x9CDE40C8CAC2C840DAC2DC4EE640E6EED2E8C6D PUSH1 0x63 SHL PUSH1 0x44 DUP3 ADD MSTORE PUSH1 0x64 SWAP1 REVERT JUMPDEST POP PUSH1 0x3 SLOAD DUP2 GT ISZERO PUSH2 0x2A1 JUMP JUMPDEST CALLVALUE PUSH2 0x27F JUMPI PUSH1 0x20 CALLDATASIZE PUSH1 0x3 NOT ADD SLT PUSH2 0x27F JUMPI PUSH2 0x354 PUSH2 0x23E6 JUMP JUMPDEST PUSH2 0x35C PUSH2 0x2CF7 JUMP JUMPDEST PUSH1 0x1 PUSH1 0x1 PUSH1 0xA0 SHL SUB SWAP1 DUP2 AND SWAP1 DUP2 ISZERO PUSH2 0x3B0 JUMPI PUSH1 0x0 SLOAD DUP3 PUSH12 0xFFFFFFFFFFFFFFFFFFFFFFFF PUSH1 0xA0 SHL DUP3 AND OR PUSH1 0x0 SSTORE AND PUSH32 0x8BE0079C531659141344CD1FD0A4F28419497F9722A3DAAFE3B4186F6B6457E0 PUSH1 0x0 DUP1 LOG3 STOP JUMPDEST PUSH1 0x40 MLOAD PUSH4 0x1E4FBDF7 PUSH1 0xE0 SHL DUP2 MSTORE PUSH1 0x0 PUSH1 0x4 DUP3 ADD MSTORE PUSH1 0x24 SWAP1 REVERT JUMPDEST CALLVALUE PUSH2 0x27F JUMPI PUSH1 0x20 CALLDATASIZE PUSH1 0x3 NOT ADD SLT PUSH2 0x27F JUMPI PUSH1 0x4 CALLDATALOAD DUP1 PUSH1 0x0 MSTORE PUSH1 0x4 PUSH1 0x20 MSTORE PUSH2 0x401 PUSH1 0x1 DUP1 PUSH1 0xA0 SHL SUB PUSH1 0x1 PUSH1 0x40 PUSH1 0x0 KECCAK256 ADD SLOAD AND CALLER EQ PUSH2 0x277D JUMP JUMPDEST DUP1 ISZERO ISZERO DUP1 PUSH2 0x4F3 JUMPI JUMPDEST PUSH2 0x413 SWAP1 PUSH2 0x26FA JUMP JUMPDEST DUP1 PUSH1 0x0 MSTORE PUSH1 0x4 PUSH1 0x20 MSTORE PUSH1 0x40 PUSH1 0x0 KECCAK256 PUSH1 0xFF PUSH1 0x11 DUP3 ADD SLOAD PUSH1 0x18 SHR AND ISZERO PUSH2 0x4AE JUMPI PUSH1 0xFF PUSH1 0x1 DUP3 ADD SLOAD PUSH1 0xA8 SHR AND PUSH1 0x4 DUP2 LT ISZERO PUSH2 0x498 JUMPI PUSH2 0x463 SWAP2 PUSH2 0x455 PUSH1 0x4 SWAP3 ISZERO PUSH2 0x27B7 JUMP JUMPDEST TIMESTAMP PUSH1 0x3 DUP3 ADD SSTORE ADD SLOAD TIMESTAMP PUSH2 0x2680 JUMP JUMPDEST SWAP1 PUSH1 0x40 MLOAD SWAP2 TIMESTAMP DUP4 MSTORE PUSH1 0x20 DUP4 ADD MSTORE PUSH32 0x111ED4211EF860205B4D8582DB1F46027644F8BABAC717D5618D4F43BA3C8181 PUSH1 0x40 CALLER SWAP4 LOG3 STOP JUMPDEST PUSH4 0x4E487B71 PUSH1 0xE0 SHL PUSH1 0x0 MSTORE PUSH1 0x21 PUSH1 0x4 MSTORE PUSH1 0x24 PUSH1 0x0 REVERT JUMPDEST PUSH1 0x40 MLOAD PUSH3 0x461BCD PUSH1 0xE5 SHL DUP2 MSTORE PUSH1 0x20 PUSH1 0x4 DUP3 ADD MSTORE PUSH1 0x1C PUSH1 0x24 DUP3 ADD MSTORE PUSH32 0x4E6F2064656164206D616E27732073776974636820656E61626C656400000000 PUSH1 0x44 DUP3 ADD MSTORE PUSH1 0x64 SWAP1 REVERT JUMPDEST POP PUSH1 0x3 SLOAD DUP2 GT ISZERO PUSH2 0x40A JUMP JUMPDEST CALLVALUE PUSH2 0x27F JUMPI PUSH1 0x20 CALLDATASIZE PUSH1 0x3 NOT ADD SLT PUSH2 0x27F JUMPI PUSH2 0x520 PUSH2 0x51B PUSH2 0x23E6 JUMP JUMPDEST PUSH2 0x2BC7 JUMP JUMPDEST PUSH1 0x40 MLOAD DUP1 SWAP2 PUSH1 0x20 DUP3 MSTORE DUP1 MLOAD PUSH1 0xE0 PUSH2 0x545 PUSH2 0x100 SWAP3 DUP4 PUSH1 0x20 DUP8 ADD MSTORE PUSH2 0x120 DUP7 ADD SWAP1 PUSH2 0x2518 JUMP JUMPDEST SWAP3 PUSH1 0x20 DUP2 ADD MLOAD PUSH1 0x40 DUP7 ADD MSTORE PUSH1 0x40 DUP2 ADD MLOAD PUSH1 0x60 DUP7 ADD MSTORE PUSH1 0x60 DUP2 ADD MLOAD PUSH1 0x80 DUP7 ADD MSTORE PUSH1 0x80 DUP2 ADD MLOAD ISZERO ISZERO PUSH1 0xA0 DUP7 ADD MSTORE PUSH1 0xA0 DUP2 ADD MLOAD ISZERO ISZERO PUSH1 0xC0 DUP7 ADD MSTORE PUSH1 0xC0 DUP2 ADD MLOAD ISZERO ISZERO DUP3 DUP7 ADD MSTORE ADD MLOAD ISZERO ISZERO SWAP1 DUP4 ADD MSTORE SUB SWAP1 RETURN JUMPDEST CALLVALUE PUSH2 0x27F JUMPI PUSH1 0x0 CALLDATASIZE PUSH1 0x3 NOT ADD SLT PUSH2 0x27F JUMPI PUSH1 0x20 PUSH1 0xA SLOAD PUSH1 0x40 MLOAD SWAP1 DUP2 MSTORE RETURN JUMPDEST CALLVALUE PUSH2 0x27F JUMPI PUSH1 0x0 CALLDATASIZE PUSH1 0x3 NOT ADD SLT PUSH2 0x27F JUMPI PUSH2 0x5CA PUSH2 0x2CF7 JUMP JUMPDEST PUSH1 0x0 DUP1 SLOAD DUP2 SWAP1 DUP2 SWAP1 DUP2 SWAP1 SELFBALANCE SWAP1 PUSH1 0x1 PUSH1 0x1 PUSH1 0xA0 SHL SUB AND GAS CALL PUSH2 0x5E9 PUSH2 0x268D JUMP JUMPDEST POP ISZERO PUSH2 0x5F1 JUMPI STOP JUMPDEST PUSH1 0x40 MLOAD PUSH3 0x461BCD PUSH1 0xE5 SHL DUP2 MSTORE PUSH1 0x20 PUSH1 0x4 DUP3 ADD MSTORE PUSH1 0x11 PUSH1 0x24 DUP3 ADD MSTORE PUSH17 0x15DA5D1A191C985DD85B0819985A5B1959 PUSH1 0x7A SHL PUSH1 0x44 DUP3 ADD MSTORE PUSH1 0x64 SWAP1 REVERT JUMPDEST PUSH1 0x60 CALLDATASIZE PUSH1 0x3 NOT ADD SLT PUSH2 0x27F JUMPI PUSH1 0x4 CALLDATALOAD PUSH1 0x24 CALLDATALOAD PUSH1 0x44 CALLDATALOAD SWAP2 DUP1 PUSH1 0x0 MSTORE PUSH1 0x4 PUSH1 0x20 MSTORE PUSH1 0x1 DUP1 PUSH1 0xA0 SHL SUB SWAP1 PUSH2 0x666 DUP3 PUSH1 0x1 PUSH1 0x40 PUSH1 0x0 KECCAK256 ADD SLOAD AND CALLER EQ PUSH2 0x277D JUMP JUMPDEST DUP1 ISZERO ISZERO DUP1 PUSH2 0x78D JUMPI JUMPDEST PUSH2 0x678 SWAP1 PUSH2 0x26FA JUMP JUMPDEST PUSH1 0xA0 PUSH2 0x683 CALLER PUSH2 0x2BC7 JUMP JUMPDEST ADD MLOAD ISZERO PUSH2 0x748 JUMPI PUSH2 0x698 PUSH1 0x9 SLOAD CALLVALUE LT ISZERO PUSH2 0x263D JUMP JUMPDEST PUSH1 0x0 MSTORE PUSH1 0x4 PUSH1 0x20 MSTORE PUSH1 0x40 PUSH1 0x0 KECCAK256 SWAP3 PUSH1 0xFF PUSH1 0x1 DUP6 ADD SLOAD PUSH1 0xA8 SHR AND PUSH1 0x4 DUP2 LT ISZERO PUSH2 0x498 JUMPI PUSH2 0x6C4 SWAP1 ISZERO PUSH2 0x27B7 JUMP JUMPDEST PUSH1 0x11 DUP5 ADD DUP1 SLOAD PUSH4 0xFF000000 NOT AND PUSH4 0x1000000 OR SWAP1 SSTORE PUSH3 0x15180 SWAP3 DUP1 DUP5 MUL SWAP1 DUP1 ISZERO SWAP1 DUP3 DIV DUP6 EQ OR ISZERO PUSH2 0x732 JUMPI PUSH1 0x4 DUP6 ADD SSTORE DUP3 DUP2 MUL SWAP3 DUP2 DUP5 DIV EQ SWAP1 ISZERO OR ISZERO PUSH2 0x732 JUMPI PUSH1 0x0 DUP1 DUP1 DUP1 SWAP4 DUP7 PUSH2 0x730 SWAP7 PUSH1 0x5 DUP3 ADD SSTORE PUSH1 0x3 TIMESTAMP SWAP2 ADD SSTORE CALLVALUE SWAP1 PUSH1 0xC SLOAD AND GAS CALL PUSH2 0x72A PUSH2 0x268D JUMP JUMPDEST POP PUSH2 0x26BD JUMP JUMPDEST STOP JUMPDEST PUSH4 0x4E487B71 PUSH1 0xE0 SHL PUSH1 0x0 MSTORE PUSH1 0x11 PUSH1 0x4 MSTORE PUSH1 0x24 PUSH1 0x0 REVERT JUMPDEST PUSH1 0x40 MLOAD PUSH3 0x461BCD PUSH1 0xE5 SHL DUP2 MSTORE PUSH1 0x20 PUSH1 0x4 DUP3 ADD MSTORE PUSH1 0x1D PUSH1 0x24 DUP3 ADD MSTORE PUSH32 0x5570677261646520666F722064656164206D616E277320737769746368000000 PUSH1 0x44 DUP3 ADD MSTORE PUSH1 0x64 SWAP1 REVERT JUMPDEST POP PUSH1 0x3 SLOAD DUP2 GT ISZERO PUSH2 0x66F JUMP JUMPDEST CALLVALUE PUSH2 0x27F JUMPI PUSH1 0x0 CALLDATASIZE PUSH1 0x3 NOT ADD SLT PUSH2 0x27F JUMPI PUSH1 0x20 PUSH1 0x3 SLOAD PUSH1 0x40 MLOAD SWAP1 DUP2 MSTORE RETURN JUMPDEST CALLVALUE PUSH2 0x27F JUMPI PUSH1 0x20 CALLDATASIZE PUSH1 0x3 NOT ADD SLT PUSH2 0x27F JUMPI PUSH1 0x1 PUSH1 0x1 PUSH1 0xA0 SHL SUB PUSH2 0x7D8 PUSH2 0x23E6 JUMP JUMPDEST AND PUSH1 0x0 MSTORE PUSH1 0x6 PUSH1 0x20 MSTORE PUSH1 0x40 PUSH1 0x0 KECCAK256 PUSH2 0x23B DUP2 PUSH2 0x2450 JUMP JUMPDEST CALLVALUE PUSH2 0x27F JUMPI PUSH1 0x20 CALLDATASIZE PUSH1 0x3 NOT ADD SLT PUSH2 0x27F JUMPI PUSH1 0x4 CALLDATALOAD DUP1 PUSH1 0x0 MSTORE PUSH1 0x4 PUSH1 0x20 MSTORE PUSH2 0x827 PUSH1 0x1 DUP1 PUSH1 0xA0 SHL SUB PUSH1 0x1 PUSH1 0x40 PUSH1 0x0 KECCAK256 ADD SLOAD AND CALLER EQ PUSH2 0x277D JUMP JUMPDEST DUP1 ISZERO ISZERO DUP1 PUSH2 0x89E JUMPI JUMPDEST PUSH2 0x839 SWAP1 PUSH2 0x26FA JUMP JUMPDEST DUP1 PUSH1 0x0 MSTORE PUSH1 0x4 PUSH1 0x20 MSTORE PUSH1 0x1 PUSH1 0x40 PUSH1 0x0 KECCAK256 ADD DUP1 SLOAD PUSH1 0xFF DUP2 PUSH1 0xA8 SHR AND PUSH1 0x4 DUP2 LT ISZERO PUSH2 0x498 JUMPI PUSH2 0x866 SWAP1 ISZERO PUSH2 0x27B7 JUMP JUMPDEST PUSH1 0xFF PUSH1 0xA8 SHL NOT AND PUSH1 0x1 PUSH1 0xA9 SHL OR SWAP1 SSTORE CALLER SWAP1 PUSH32 0xA1D1E86FC4683D85919CA0E086901A54BA5DF5917501641BF9921412A9C3C25C PUSH1 0x0 DUP1 LOG3 STOP JUMPDEST POP PUSH1 0x3 SLOAD DUP2 GT ISZERO PUSH2 0x830 JUMP JUMPDEST CALLVALUE PUSH2 0x27F JUMPI PUSH1 0x0 CALLDATASIZE PUSH1 0x3 NOT ADD SLT PUSH2 0x27F JUMPI PUSH1 0x20 PUSH1 0x9 SLOAD PUSH1 0x40 MLOAD SWAP1 DUP2 MSTORE RETURN JUMPDEST CALLVALUE PUSH2 0x27F JUMPI PUSH1 0x20 CALLDATASIZE PUSH1 0x3 NOT ADD SLT PUSH2 0x27F JUMPI PUSH1 0x20 PUSH2 0x903 PUSH2 0x8E6 PUSH2 0x23E6 JUMP JUMPDEST PUSH1 0x1 PUSH1 0x1 PUSH1 0xA0 SHL SUB AND PUSH1 0x0 SWAP1 DUP2 MSTORE PUSH1 0x7 PUSH1 0x20 MSTORE PUSH1 0x40 SWAP1 KECCAK256 SLOAD TIMESTAMP LT SWAP1 JUMP JUMPDEST PUSH1 0x40 MLOAD SWAP1 ISZERO ISZERO DUP2 MSTORE RETURN JUMPDEST CALLVALUE PUSH2 0x27F JUMPI PUSH1 0x0 CALLDATASIZE PUSH1 0x3 NOT ADD SLT PUSH2 0x27F JUMPI PUSH1 0x20 PUSH1 0xB SLOAD PUSH1 0x40 MLOAD SWAP1 DUP2 MSTORE RETURN JUMPDEST CALLVALUE PUSH2 0x27F JUMPI PUSH1 0x40 CALLDATASIZE PUSH1 0x3 NOT ADD SLT PUSH2 0x27F JUMPI PUSH2 0x944 PUSH2 0x23E6 JUMP JUMPDEST PUSH1 0x1 PUSH1 0x1 PUSH1 0xA0 SHL SUB AND PUSH1 0x0 SWAP1 DUP2 MSTORE PUSH1 0x5 PUSH1 0x20 MSTORE PUSH1 0x40 SWAP1 KECCAK256 DUP1 SLOAD PUSH1 0x24 CALLDATALOAD SWAP2 SWAP1 DUP3 LT ISZERO PUSH2 0x27F JUMPI PUSH1 0x20 SWAP2 PUSH2 0x975 SWAP2 PUSH2 0x25C5 JUMP JUMPDEST SWAP1 SLOAD PUSH1 0x40 MLOAD SWAP2 PUSH1 0x3 SHL SHR DUP2 MSTORE RETURN JUMPDEST PUSH1 0x80 CALLDATASIZE PUSH1 0x3 NOT ADD SLT PUSH2 0x27F JUMPI PUSH1 0x4 CALLDATALOAD PUSH8 0xFFFFFFFFFFFFFFFF PUSH1 0x44 CALLDATALOAD DUP2 DUP2 GT PUSH2 0x27F JUMPI PUSH2 0x9B3 SWAP1 CALLDATASIZE SWAP1 PUSH1 0x4 ADD PUSH2 0x239F JUMP JUMPDEST SWAP1 PUSH1 0x64 CALLDATALOAD SWAP1 DUP2 GT PUSH2 0x27F JUMPI PUSH2 0x9CC SWAP1 CALLDATASIZE SWAP1 PUSH1 0x4 ADD PUSH2 0x239F JUMP JUMPDEST SWAP1 DUP3 PUSH1 0x0 MSTORE PUSH1 0x4 PUSH1 0x20 MSTORE PUSH1 0x1 DUP1 PUSH1 0xA0 SHL SUB SWAP3 PUSH2 0x9F3 DUP5 PUSH1 0x1 PUSH1 0x40 PUSH1 0x0 KECCAK256 ADD SLOAD AND CALLER EQ PUSH2 0x277D JUMP JUMPDEST DUP1 ISZERO ISZERO DUP1 PUSH2 0xAF3 JUMPI JUMPDEST PUSH2 0xA05 SWAP1 PUSH2 0x26FA JUMP JUMPDEST PUSH1 0xE0 PUSH2 0xA10 CALLER PUSH2 0x2BC7 JUMP JUMPDEST ADD MLOAD ISZERO PUSH2 0xAAE JUMPI PUSH2 0xA25 PUSH1 0xB SLOAD CALLVALUE LT ISZERO PUSH2 0x263D JUMP JUMPDEST PUSH1 0x0 MSTORE PUSH1 0x4 PUSH1 0x20 MSTORE PUSH1 0x40 PUSH1 0x0 KECCAK256 SWAP1 PUSH1 0xFF PUSH1 0x1 DUP4 ADD SLOAD PUSH1 0xA8 SHR AND SWAP1 PUSH1 0x4 DUP3 LT ISZERO PUSH2 0x498 JUMPI PUSH1 0x0 DUP1 DUP1 DUP8 PUSH1 0x11 DUP8 PUSH2 0xA8E DUP5 SWAP8 DUP12 PUSH2 0xA63 PUSH2 0x730 SWAP12 ISZERO PUSH2 0x27B7 JUMP JUMPDEST PUSH1 0x40 MLOAD SWAP2 PUSH2 0xA70 DUP4 PUSH2 0x2345 JUMP JUMPDEST PUSH1 0x24 CALLDATALOAD DUP4 MSTORE PUSH1 0x20 DUP4 ADD MSTORE PUSH1 0x40 DUP3 ADD MSTORE DUP6 PUSH1 0x60 DUP3 ADD MSTORE PUSH1 0xD DUP4 ADD PUSH2 0x2871 JUMP JUMPDEST ADD DUP1 SLOAD PUSH3 0xFF0000 NOT AND PUSH3 0x10000 OR SWAP1 SSTORE PUSH1 0xC SLOAD CALLVALUE SWAP2 AND GAS CALL PUSH2 0x72A PUSH2 0x268D JUMP JUMPDEST PUSH1 0x40 MLOAD PUSH3 0x461BCD PUSH1 0xE5 SHL DUP2 MSTORE PUSH1 0x20 PUSH1 0x4 DUP3 ADD MSTORE PUSH1 0x1E PUSH1 0x24 DUP3 ADD MSTORE PUSH32 0x5570677261646520666F722070726F677265737369766520756E6C6F636B0000 PUSH1 0x44 DUP3 ADD MSTORE PUSH1 0x64 SWAP1 REVERT JUMPDEST POP PUSH1 0x3 SLOAD DUP2 GT ISZERO PUSH2 0x9FC JUMP JUMPDEST CALLVALUE PUSH2 0x27F JUMPI PUSH1 0x0 CALLDATASIZE PUSH1 0x3 NOT ADD SLT PUSH2 0x27F JUMPI PUSH1 0x0 SLOAD PUSH1 0x40 MLOAD PUSH1 0x1 PUSH1 0x1 PUSH1 0xA0 SHL SUB SWAP1 SWAP2 AND DUP2 MSTORE PUSH1 0x20 SWAP1 RETURN JUMPDEST CALLVALUE PUSH2 0x27F JUMPI PUSH1 0x0 CALLDATASIZE PUSH1 0x3 NOT ADD SLT PUSH2 0x27F JUMPI PUSH1 0x20 PUSH1 0xD SLOAD PUSH1 0x40 MLOAD SWAP1 DUP2 MSTORE RETURN JUMPDEST CALLVALUE PUSH2 0x27F JUMPI PUSH1 0x40 CALLDATASIZE PUSH1 0x3 NOT ADD SLT PUSH2 0x27F JUMPI PUSH1 0x24 CALLDATALOAD PUSH1 0x1 PUSH1 0x1 PUSH1 0xA0 SHL SUB DUP2 DUP2 AND SWAP2 PUSH1 0x4 CALLDATALOAD SWAP2 DUP4 DUP3 SUB PUSH2 0x27F JUMPI PUSH2 0xB8F SWAP1 DUP4 PUSH1 0x0 MSTORE PUSH1 0x4 PUSH1 0x20 MSTORE PUSH1 0x1 PUSH1 0x40 PUSH1 0x0 KECCAK256 ADD SLOAD AND CALLER EQ PUSH2 0x277D JUMP JUMPDEST DUP2 ISZERO ISZERO DUP1 PUSH2 0xC6C JUMPI JUMPDEST PUSH2 0xBA1 SWAP1 PUSH2 0x26FA JUMP JUMPDEST DUP2 PUSH1 0x0 MSTORE PUSH1 0x4 PUSH1 0x20 MSTORE PUSH1 0x40 PUSH1 0x0 KECCAK256 PUSH1 0xFF PUSH1 0x1 DUP3 ADD SLOAD PUSH1 0xA8 SHR AND PUSH1 0x4 DUP2 LT ISZERO PUSH2 0x498 JUMPI PUSH2 0xBCD SWAP1 ISZERO PUSH2 0x27B7 JUMP JUMPDEST PUSH1 0x7 DUP2 ADD SWAP2 DUP5 PUSH1 0x0 MSTORE DUP3 PUSH1 0x20 MSTORE PUSH1 0xFF PUSH1 0x40 PUSH1 0x0 KECCAK256 SLOAD AND PUSH2 0xC31 JUMPI PUSH1 0x6 PUSH2 0xBF3 SWAP3 ADD PUSH2 0x27F8 JUMP JUMPDEST DUP3 PUSH1 0x0 MSTORE PUSH1 0x20 MSTORE PUSH1 0x40 PUSH1 0x0 KECCAK256 PUSH1 0x1 PUSH1 0xFF NOT DUP3 SLOAD AND OR SWAP1 SSTORE PUSH32 0x44BC4F709C4E281B3F910C44FC3345DB17A91D56DE534B4EF24DD098C3B155B9 PUSH1 0x0 DUP1 LOG3 STOP JUMPDEST PUSH1 0x40 MLOAD PUSH3 0x461BCD PUSH1 0xE5 SHL DUP2 MSTORE PUSH1 0x20 PUSH1 0x4 DUP3 ADD MSTORE PUSH1 0x13 PUSH1 0x24 DUP3 ADD MSTORE PUSH19 0x105B1C9958591E4818481C9958DA5C1A595B9D PUSH1 0x6A SHL PUSH1 0x44 DUP3 ADD MSTORE PUSH1 0x64 SWAP1 REVERT JUMPDEST POP PUSH1 0x3 SLOAD DUP3 GT ISZERO PUSH2 0xB98 JUMP JUMPDEST CALLVALUE PUSH2 0x27F JUMPI PUSH1 0x0 CALLDATASIZE PUSH1 0x3 NOT ADD SLT PUSH2 0x27F JUMPI PUSH2 0xC91 PUSH2 0x2CF7 JUMP JUMPDEST PUSH2 0xC99 PUSH2 0x2D23 JUMP JUMPDEST PUSH1 0x1 PUSH1 0xFF NOT PUSH1 0x2 SLOAD AND OR PUSH1 0x2 SSTORE PUSH32 0x62E78CEA01BEE320CD4E420270B5EA74000D11B0C9F74754EBDBFC544B05A258 PUSH1 0x20 PUSH1 0x40 MLOAD CALLER DUP2 MSTORE LOG1 STOP JUMPDEST CALLVALUE PUSH2 0x27F JUMPI PUSH1 0x20 DUP1 PUSH1 0x3 NOT CALLDATASIZE ADD SLT PUSH2 0x27F JUMPI PUSH1 0x4 CALLDATALOAD SWAP1 DUP2 PUSH1 0x0 MSTORE PUSH1 0x4 DUP2 MSTORE PUSH1 0x9 PUSH1 0x40 PUSH1 0x0 KECCAK256 ADD CALLER PUSH1 0x0 MSTORE DUP2 MSTORE PUSH1 0xFF PUSH1 0x40 PUSH1 0x0 KECCAK256 SLOAD AND ISZERO PUSH2 0xE41 JUMPI DUP2 ISZERO ISZERO DUP1 PUSH2 0xE35 JUMPI JUMPDEST PUSH2 0xD1E SWAP1 PUSH2 0x26FA JUMP JUMPDEST DUP2 PUSH1 0x0 MSTORE PUSH1 0x4 DUP2 MSTORE PUSH1 0x40 PUSH1 0x0 KECCAK256 SWAP1 PUSH1 0x1 DUP3 ADD SWAP2 PUSH1 0xFF DUP4 SLOAD PUSH1 0xA8 SHR AND PUSH1 0x4 DUP2 LT ISZERO PUSH2 0x498 JUMPI PUSH2 0xD4C SWAP1 ISZERO PUSH2 0x27B7 JUMP JUMPDEST PUSH1 0xB DUP2 ADD CALLER PUSH1 0x0 MSTORE DUP1 DUP4 MSTORE PUSH1 0xFF PUSH1 0x40 PUSH1 0x0 KECCAK256 SLOAD AND PUSH2 0xDFD JUMPI CALLER PUSH1 0x0 MSTORE DUP3 MSTORE PUSH1 0x40 PUSH1 0x0 KECCAK256 PUSH1 0x1 PUSH1 0xFF NOT DUP3 SLOAD AND OR SWAP1 SSTORE PUSH1 0xA PUSH1 0xC DUP3 ADD SWAP2 PUSH2 0xD8B DUP4 SLOAD PUSH2 0x275A JUMP JUMPDEST DUP1 SWAP4 SSTORE CALLER DUP7 PUSH32 0x925B995DF16B4BC09194E4B3FF1E8458D5CF751BF06280DD2D5662BB4C178877 PUSH1 0x0 DUP1 LOG3 ADD SLOAD DUP2 LT ISZERO PUSH2 0xDC0 JUMPI STOP JUMPDEST DUP3 SLOAD PUSH1 0xFF PUSH1 0xA8 SHL NOT AND PUSH1 0x1 PUSH1 0xA8 SHL OR SWAP1 SWAP3 SSTORE PUSH1 0x40 MLOAD SWAP2 DUP3 MSTORE PUSH32 0xFDF02667BAF4B7A6093B2B0AF7E909614E1287BB6FB62C08865BD3141C5614E8 SWAP2 LOG2 STOP JUMPDEST PUSH1 0x40 MLOAD PUSH3 0x461BCD PUSH1 0xE5 SHL DUP2 MSTORE PUSH1 0x4 DUP2 ADD DUP5 SWAP1 MSTORE PUSH1 0x10 PUSH1 0x24 DUP3 ADD MSTORE PUSH16 0x105B1C9958591E48185C1C1C9BDD9959 PUSH1 0x82 SHL PUSH1 0x44 DUP3 ADD MSTORE PUSH1 0x64 SWAP1 REVERT JUMPDEST POP PUSH1 0x3 SLOAD DUP3 GT ISZERO PUSH2 0xD15 JUMP JUMPDEST PUSH1 0x64 SWAP1 PUSH1 0x40 MLOAD SWAP1 PUSH3 0x461BCD PUSH1 0xE5 SHL DUP3 MSTORE PUSH1 0x4 DUP3 ADD MSTORE PUSH1 0xE PUSH1 0x24 DUP3 ADD MSTORE PUSH14 0x2737BA10309033BAB0B93234B0B7 PUSH1 0x91 SHL PUSH1 0x44 DUP3 ADD MSTORE REVERT JUMPDEST CALLVALUE PUSH2 0x27F JUMPI PUSH1 0x20 CALLDATASIZE PUSH1 0x3 NOT ADD SLT PUSH2 0x27F JUMPI PUSH2 0xE8F PUSH2 0x23E6 JUMP JUMPDEST PUSH2 0xE97 PUSH2 0x2CF7 JUMP JUMPDEST PUSH1 0x1 PUSH1 0x1 PUSH1 0xA0 SHL SUB AND DUP1 ISZERO PUSH2 0xEC3 JUMPI PUSH12 0xFFFFFFFFFFFFFFFFFFFFFFFF PUSH1 0xA0 SHL PUSH1 0xC SLOAD AND OR PUSH1 0xC SSTORE PUSH1 0x0 DUP1 RETURN JUMPDEST PUSH1 0x40 MLOAD PUSH3 0x461BCD PUSH1 0xE5 SHL DUP2 MSTORE PUSH1 0x20 PUSH1 0x4 DUP3 ADD MSTORE PUSH1 0xF PUSH1 0x24 DUP3 ADD MSTORE PUSH15 0x496E76616C69642061646472657373 PUSH1 0x88 SHL PUSH1 0x44 DUP3 ADD MSTORE PUSH1 0x64 SWAP1 REVERT JUMPDEST CALLVALUE PUSH2 0x27F JUMPI PUSH1 0x20 CALLDATASIZE PUSH1 0x3 NOT ADD SLT PUSH2 0x27F JUMPI PUSH1 0x20 PUSH2 0x903 PUSH1 0x4 CALLDATALOAD PUSH2 0x2B5C JUMP JUMPDEST CALLVALUE PUSH2 0x27F JUMPI PUSH1 0x20 DUP1 PUSH1 0x3 NOT CALLDATASIZE ADD SLT PUSH2 0x27F JUMPI PUSH1 0x4 CALLDATALOAD SWAP1 DUP2 ISZERO ISZERO DUP1 PUSH2 0x1006 JUMPI JUMPDEST PUSH2 0xF40 SWAP1 PUSH2 0x26FA JUMP JUMPDEST DUP2 PUSH1 0x0 MSTORE PUSH1 0x4 DUP2 MSTORE PUSH1 0x7 PUSH1 0x40 PUSH1 0x0 KECCAK256 ADD CALLER PUSH1 0x0 MSTORE DUP2 MSTORE PUSH2 0xF67 PUSH1 0xFF PUSH1 0x40 PUSH1 0x0 KECCAK256 SLOAD AND PUSH2 0x2833 JUMP JUMPDEST PUSH2 0xF70 DUP3 PUSH2 0x2B5C JUMP JUMPDEST ISZERO PUSH2 0xFC2 JUMPI PUSH1 0x0 DUP3 DUP2 MSTORE PUSH1 0x4 DUP3 MSTORE PUSH1 0x40 SWAP1 DUP2 SWAP1 KECCAK256 PUSH1 0x1 ADD DUP1 SLOAD PUSH1 0xFF PUSH1 0xA8 SHL NOT AND PUSH1 0x3 PUSH1 0xA8 SHL OR SWAP1 SSTORE MLOAD TIMESTAMP DUP2 MSTORE PUSH32 0x6B8C33A0757C7C362442F939D793806D985A73D298A8514C21EA1A3D53692807 SWAP2 SWAP1 LOG2 STOP JUMPDEST PUSH1 0x64 SWAP1 PUSH1 0x40 MLOAD SWAP1 PUSH3 0x461BCD PUSH1 0xE5 SHL DUP3 MSTORE PUSH1 0x4 DUP3 ADD MSTORE PUSH1 0x18 PUSH1 0x24 DUP3 ADD MSTORE PUSH32 0x537769746368206E6F7420747269676765726564207965740000000000000000 PUSH1 0x44 DUP3 ADD MSTORE REVERT JUMPDEST POP PUSH1 0x3 SLOAD DUP3 GT ISZERO PUSH2 0xF37 JUMP JUMPDEST CALLVALUE PUSH2 0x27F JUMPI PUSH1 0x20 CALLDATASIZE PUSH1 0x3 NOT ADD SLT PUSH2 0x27F JUMPI PUSH1 0x4 CALLDATALOAD DUP1 ISZERO ISZERO DUP1 PUSH2 0x1053 JUMPI JUMPDEST PUSH2 0x1038 SWAP1 PUSH2 0x26FA JUMP JUMPDEST PUSH1 0x0 MSTORE PUSH1 0x4 PUSH1 0x20 MSTORE PUSH1 0x20 PUSH1 0xD PUSH1 0x40 PUSH1 0x0 KECCAK256 ADD SLOAD PUSH1 0x40 MLOAD SWAP1 DUP2 MSTORE RETURN JUMPDEST POP PUSH1 0x3 SLOAD DUP2 GT ISZERO PUSH2 0x102F JUMP JUMPDEST CALLVALUE PUSH2 0x27F JUMPI PUSH1 0x40 CALLDATASIZE PUSH1 0x3 NOT ADD SLT PUSH2 0x27F JUMPI PUSH1 0x4 CALLDATALOAD PUSH1 0x5 DUP2 LT ISZERO PUSH2 0x27F JUMPI PUSH2 0x1084 PUSH2 0x2CF7 JUMP JUMPDEST PUSH2 0x1090 PUSH1 0x24 CALLDATALOAD SWAP2 PUSH2 0x230F JUMP JUMPDEST SSTORE STOP JUMPDEST CALLVALUE PUSH2 0x27F JUMPI PUSH1 0x20 CALLDATASIZE PUSH1 0x3 NOT ADD SLT PUSH2 0x27F JUMPI PUSH1 0x20 PUSH2 0x903 PUSH1 0x4 CALLDATALOAD DUP1 ISZERO ISZERO DUP1 PUSH2 0x10C3 JUMPI JUMPDEST PUSH2 0x10BE SWAP1 PUSH2 0x26FA JUMP JUMPDEST PUSH2 0x2B0A JUMP JUMPDEST POP PUSH1 0x3 SLOAD DUP2 GT ISZERO PUSH2 0x10B5 JUMP JUMPDEST CALLVALUE PUSH2 0x27F JUMPI PUSH1 0x0 CALLDATASIZE PUSH1 0x3 NOT ADD SLT PUSH2 0x27F JUMPI PUSH2 0x10E8 PUSH2 0x2CF7 JUMP JUMPDEST PUSH1 0x0 DUP1 SLOAD PUSH1 0x1 PUSH1 0x1 PUSH1 0xA0 SHL SUB NOT DUP2 AND DUP3 SSTORE PUSH1 0x1 PUSH1 0x1 PUSH1 0xA0 SHL SUB AND PUSH32 0x8BE0079C531659141344CD1FD0A4F28419497F9722A3DAAFE3B4186F6B6457E0 DUP3 DUP1 LOG3 STOP JUMPDEST CALLVALUE PUSH2 0x27F JUMPI PUSH1 0x0 CALLDATASIZE PUSH1 0x3 NOT ADD SLT PUSH2 0x27F JUMPI PUSH1 0xC SLOAD PUSH1 0x40 MLOAD PUSH1 0x1 PUSH1 0x1 PUSH1 0xA0 SHL SUB SWAP1 SWAP2 AND DUP2 MSTORE PUSH1 0x20 SWAP1 RETURN JUMPDEST CALLVALUE PUSH2 0x27F JUMPI PUSH1 0x20 CALLDATASIZE PUSH1 0x3 NOT ADD SLT PUSH2 0x27F JUMPI PUSH1 0x1 PUSH1 0x1 PUSH1 0xA0 SHL SUB PUSH2 0x1172 PUSH2 0x23E6 JUMP JUMPDEST AND PUSH1 0x0 MSTORE PUSH1 0x7 PUSH1 0x20 MSTORE PUSH1 0x20 PUSH1 0x40 PUSH1 0x0 KECCAK256 SLOAD PUSH1 0x40 MLOAD SWAP1 DUP2 MSTORE RETURN JUMPDEST PUSH1 0xE0 CALLDATASIZE PUSH1 0x3 NOT ADD SLT PUSH2 0x27F JUMPI PUSH1 0x5 PUSH1 0x4 CALLDATALOAD LT ISZERO PUSH2 0x27F JUMPI PUSH1 0x3 PUSH1 0x24 CALLDATALOAD LT ISZERO PUSH2 0x27F JUMPI PUSH8 0xFFFFFFFFFFFFFFFF PUSH1 0x64 CALLDATALOAD DUP2 DUP2 GT PUSH2 0x27F JUMPI PUSH2 0x11CE SWAP1 CALLDATASIZE SWAP1 PUSH1 0x4 ADD PUSH2 0x239F JUMP JUMPDEST SWAP1 PUSH1 0x84 CALLDATALOAD DUP2 DUP2 GT PUSH2 0x27F JUMPI PUSH2 0x11E7 SWAP1 CALLDATASIZE SWAP1 PUSH1 0x4 ADD PUSH2 0x239F JUMP JUMPDEST PUSH1 0xA4 CALLDATALOAD DUP3 DUP2 GT PUSH2 0x27F JUMPI PUSH2 0x11FF SWAP1 CALLDATASIZE SWAP1 PUSH1 0x4 ADD PUSH2 0x2555 JUMP JUMPDEST SWAP3 PUSH1 0xC4 CALLDATALOAD DUP4 DUP2 GT PUSH2 0x27F JUMPI PUSH2 0x1218 SWAP1 CALLDATASIZE SWAP1 PUSH1 0x4 ADD PUSH2 0x239F JUMP JUMPDEST SWAP2 PUSH2 0x1221 PUSH2 0x2CD4 JUMP JUMPDEST PUSH2 0x1229 PUSH2 0x2D23 JUMP JUMPDEST PUSH2 0x1232 CALLER PUSH2 0x2BC7 JUMP JUMPDEST SWAP4 CALLER PUSH1 0x0 MSTORE PUSH1 0x5 PUSH1 0x20 MSTORE PUSH1 0x40 PUSH1 0x0 KECCAK256 SLOAD PUSH1 0x40 DUP7 ADD MLOAD GT ISZERO PUSH2 0x1626 JUMPI PUSH1 0x2 PUSH1 0x4 CALLDATALOAD EQ PUSH2 0x15D9 JUMPI JUMPDEST PUSH1 0x1 DUP7 MLOAD GT PUSH2 0x158B JUMPI JUMPDEST PUSH2 0x1279 PUSH2 0x1270 PUSH1 0x4 CALLDATALOAD PUSH2 0x230F JUMP JUMPDEST SLOAD CALLVALUE LT ISZERO PUSH2 0x263D JUMP JUMPDEST PUSH2 0x1284 PUSH1 0x3 SLOAD PUSH2 0x275A JUMP JUMPDEST SWAP4 DUP5 PUSH1 0x3 SSTORE DUP5 PUSH1 0x0 MSTORE PUSH1 0x4 PUSH1 0x20 MSTORE PUSH1 0x60 PUSH1 0x40 PUSH1 0x0 KECCAK256 SWAP7 DUP7 DUP9 SSTORE PUSH1 0x1 DUP9 ADD DUP1 SLOAD PUSH1 0xFF PUSH1 0xB0 SHL PUSH1 0x24 CALLDATALOAD PUSH1 0xB0 SHL AND SWAP1 PUSH3 0xFFFFFF PUSH1 0xA0 SHL NOT CALLER AND SWAP1 PUSH9 0xFFFFFFFFFFFFFFFFFF PUSH1 0xB8 SHL AND OR PUSH1 0xFF PUSH1 0xA0 SHL PUSH1 0x4 CALLDATALOAD PUSH1 0xA0 SHL AND OR OR SWAP1 SSTORE PUSH1 0x44 CALLDATALOAD PUSH1 0x2 DUP10 ADD SSTORE TIMESTAMP PUSH1 0xE DUP10 ADD SSTORE ADD MLOAD PUSH1 0xF DUP8 ADD SSTORE DUP1 MLOAD SWAP2 DUP3 GT PUSH2 0x14AE JUMPI PUSH2 0x1305 PUSH1 0x10 DUP8 ADD SLOAD PUSH2 0x2416 JUMP JUMPDEST PUSH1 0x1F DUP2 GT PUSH2 0x1544 JUMPI JUMPDEST POP PUSH1 0x20 SWAP1 PUSH1 0x1F DUP4 GT PUSH1 0x1 EQ PUSH2 0x14CF JUMPI PUSH2 0x1371 SWAP5 SWAP4 SWAP3 SWAP2 PUSH1 0x0 SWAP2 DUP4 PUSH2 0x14C4 JUMPI JUMPDEST POP POP DUP2 PUSH1 0x1 SHL SWAP2 PUSH1 0x0 NOT SWAP1 PUSH1 0x3 SHL SHR NOT AND OR PUSH1 0x10 DUP7 ADD SSTORE JUMPDEST PUSH1 0x40 MLOAD SWAP2 PUSH2 0x1352 DUP4 PUSH2 0x2345 JUMP JUMPDEST PUSH1 0x44 CALLDATALOAD DUP4 MSTORE PUSH1 0x20 DUP4 ADD MSTORE PUSH1 0x40 DUP3 ADD MSTORE PUSH1 0x0 PUSH1 0x60 DUP3 ADD MSTORE PUSH1 0xD DUP5 ADD PUSH2 0x2871 JUMP JUMPDEST PUSH1 0x7 DUP3 ADD SWAP2 PUSH1 0x6 ADD PUSH1 0x0 JUMPDEST DUP5 MLOAD DUP2 LT ISZERO PUSH2 0x1401 JUMPI PUSH1 0x1 SWAP1 PUSH1 0x1 PUSH1 0x1 PUSH1 0xA0 SHL SUB PUSH2 0x13A6 DUP2 PUSH2 0x139E DUP5 DUP11 PUSH2 0x2769 JUMP JUMPDEST MLOAD AND DUP6 PUSH2 0x27F8 JUMP JUMPDEST DUP1 PUSH2 0x13B1 DUP4 DUP10 PUSH2 0x2769 JUMP JUMPDEST MLOAD AND PUSH1 0x0 MSTORE DUP6 PUSH1 0x20 MSTORE PUSH1 0x40 PUSH1 0x0 KECCAK256 DUP4 PUSH1 0xFF NOT DUP3 SLOAD AND OR SWAP1 SSTORE PUSH2 0x13D3 DUP3 DUP9 PUSH2 0x2769 JUMP JUMPDEST MLOAD AND DUP5 PUSH32 0x44BC4F709C4E281B3F910C44FC3345DB17A91D56DE534B4EF24DD098C3B155B9 PUSH1 0x0 DUP1 LOG3 ADD PUSH2 0x137C JUMP JUMPDEST DUP3 CALLER PUSH1 0x0 MSTORE PUSH1 0x5 PUSH1 0x20 MSTORE PUSH1 0x40 PUSH1 0x0 KECCAK256 SWAP1 DUP2 SLOAD SWAP2 PUSH1 0x1 PUSH1 0x40 SHL DUP4 LT ISZERO PUSH2 0x14AE JUMPI DUP3 PUSH2 0x1432 SWAP2 PUSH1 0x1 PUSH1 0x20 SWAP6 ADD DUP2 SSTORE PUSH2 0x25C5 JUMP JUMPDEST DUP2 SLOAD SWAP1 PUSH1 0x3 SHL SWAP1 DUP4 DUP3 SHL SWAP2 PUSH1 0x0 NOT SWAP1 SHL NOT AND OR SWAP1 SSTORE PUSH2 0x1465 PUSH1 0x0 DUP1 DUP1 DUP1 CALLVALUE PUSH1 0x1 DUP1 PUSH1 0xA0 SHL SUB PUSH1 0xC SLOAD AND GAS CALL PUSH2 0x72A PUSH2 0x268D JUMP JUMPDEST PUSH1 0x40 MLOAD PUSH2 0x1474 DUP2 PUSH1 0x4 CALLDATALOAD PUSH2 0x23FC JUMP JUMPDEST PUSH1 0x44 CALLDATALOAD DUP4 DUP3 ADD MSTORE DUP2 PUSH32 0x40F38A091E9A2DFC4DF4C011DD08FB6D7C767C39E099923C69563D11EEBBD59E PUSH1 0x40 CALLER SWAP4 LOG3 PUSH1 0x1 DUP1 SSTORE PUSH1 0x40 MLOAD SWAP1 DUP2 MSTORE RETURN JUMPDEST PUSH4 0x4E487B71 PUSH1 0xE0 SHL PUSH1 0x0 MSTORE PUSH1 0x41 PUSH1 0x4 MSTORE PUSH1 0x24 PUSH1 0x0 REVERT JUMPDEST ADD MLOAD SWAP1 POP DUP9 DUP1 PUSH2 0x132D JUMP JUMPDEST SWAP1 PUSH1 0x10 DUP8 ADD PUSH1 0x0 MSTORE PUSH1 0x20 PUSH1 0x0 KECCAK256 SWAP2 PUSH1 0x0 JUMPDEST PUSH1 0x1F NOT DUP6 AND DUP2 LT PUSH2 0x152C JUMPI POP SWAP2 DUP4 SWAP2 PUSH1 0x1 SWAP4 PUSH2 0x1371 SWAP8 SWAP7 SWAP6 PUSH1 0x1F NOT DUP2 AND LT PUSH2 0x1513 JUMPI JUMPDEST POP POP POP DUP2 SHL ADD PUSH1 0x10 DUP7 ADD SSTORE PUSH2 0x1345 JUMP JUMPDEST ADD MLOAD PUSH1 0x0 NOT PUSH1 0xF8 DUP5 PUSH1 0x3 SHL AND SHR NOT AND SWAP1 SSTORE DUP9 DUP1 DUP1 PUSH2 0x1503 JUMP JUMPDEST SWAP2 SWAP3 PUSH1 0x20 PUSH1 0x1 DUP2 SWAP3 DUP7 DUP6 ADD MLOAD DUP2 SSTORE ADD SWAP5 ADD SWAP3 ADD PUSH2 0x14E0 JUMP JUMPDEST PUSH1 0x10 DUP8 ADD PUSH1 0x0 MSTORE PUSH1 0x20 PUSH1 0x0 KECCAK256 PUSH1 0x1F DUP5 ADD PUSH1 0x5 SHR DUP2 ADD PUSH1 0x20 DUP6 LT PUSH2 0x1584 JUMPI JUMPDEST PUSH1 0x1F DUP4 ADD PUSH1 0x5 SHR DUP3 ADD DUP2 LT PUSH2 0x1578 JUMPI POP POP PUSH2 0x130E JUMP JUMPDEST PUSH1 0x0 DUP2 SSTORE PUSH1 0x1 ADD PUSH2 0x1562 JUMP JUMPDEST POP DUP1 PUSH2 0x1562 JUMP JUMPDEST PUSH1 0xC0 DUP6 ADD MLOAD PUSH2 0x1262 JUMPI PUSH1 0x40 MLOAD PUSH3 0x461BCD PUSH1 0xE5 SHL DUP2 MSTORE PUSH1 0x20 PUSH1 0x4 DUP3 ADD MSTORE PUSH1 0x1B PUSH1 0x24 DUP3 ADD MSTORE PUSH32 0x5570677261646520666F72206D756C74692D726563697069656E740000000000 PUSH1 0x44 DUP3 ADD MSTORE PUSH1 0x64 SWAP1 REVERT JUMPDEST PUSH1 0x80 DUP6 ADD MLOAD PUSH2 0x1258 JUMPI PUSH1 0x64 PUSH1 0x40 MLOAD PUSH3 0x461BCD PUSH1 0xE5 SHL DUP2 MSTORE PUSH1 0x20 PUSH1 0x4 DUP3 ADD MSTORE PUSH1 0x20 PUSH1 0x24 DUP3 ADD MSTORE PUSH32 0x5570677261646520746F20756E6C6F636B20766964656F2063617073756C6573 PUSH1 0x44 DUP3 ADD MSTORE REVERT JUMPDEST PUSH1 0x40 MLOAD PUSH3 0x461BCD PUSH1 0xE5 SHL DUP2 MSTORE PUSH1 0x20 PUSH1 0x4 DUP3 ADD MSTORE PUSH1 0x15 PUSH1 0x24 DUP3 ADD MSTORE PUSH21 0x10D85C1CDD5B19481B1A5B5A5D081C995858DA1959 PUSH1 0x5A SHL PUSH1 0x44 DUP3 ADD MSTORE PUSH1 0x64 SWAP1 REVERT JUMPDEST CALLVALUE PUSH2 0x27F JUMPI PUSH1 0x0 CALLDATASIZE PUSH1 0x3 NOT ADD SLT PUSH2 0x27F JUMPI PUSH1 0x20 PUSH1 0xFF PUSH1 0x2 SLOAD AND PUSH1 0x40 MLOAD SWAP1 ISZERO ISZERO DUP2 MSTORE RETURN JUMPDEST CALLVALUE PUSH2 0x27F JUMPI PUSH1 0x40 CALLDATASIZE PUSH1 0x3 NOT ADD SLT PUSH2 0x27F JUMPI PUSH1 0x24 CALLDATALOAD PUSH1 0x4 CALLDATALOAD DUP1 ISZERO ISZERO DUP1 PUSH2 0x1839 JUMPI JUMPDEST PUSH2 0x16AF SWAP1 PUSH2 0x26FA JUMP JUMPDEST DUP1 PUSH1 0x0 MSTORE PUSH1 0x20 SWAP2 PUSH1 0x4 DUP4 MSTORE PUSH1 0x7 PUSH1 0x40 PUSH1 0x0 KECCAK256 ADD CALLER PUSH1 0x0 MSTORE DUP4 MSTORE PUSH2 0x16D9 PUSH1 0xFF PUSH1 0x40 PUSH1 0x0 KECCAK256 SLOAD AND PUSH2 0x2833 JUMP JUMPDEST DUP2 PUSH1 0x0 MSTORE PUSH1 0x4 DUP4 MSTORE PUSH1 0xD PUSH1 0x40 PUSH1 0x0 KECCAK256 ADD DUP1 SLOAD DUP3 LT ISZERO PUSH2 0x1804 JUMPI DUP2 PUSH2 0x16FC SWAP2 PUSH2 0x273E JUMP JUMPDEST POP SWAP2 DUP3 SLOAD TIMESTAMP LT PUSH2 0x17CA JUMPI PUSH1 0x3 DUP4 ADD DUP1 SLOAD PUSH1 0xFF DUP2 AND PUSH2 0x178C JUMPI SWAP2 PUSH2 0x27B SWAP4 SWAP2 PUSH1 0x1 PUSH2 0x177F SWAP8 SWAP5 PUSH1 0xFF NOT AND OR SWAP1 SSTORE PUSH1 0x40 MLOAD SWAP2 DUP3 MSTORE PUSH32 0x663589242DC1E7796AFAC507EF8FBDEDC2B32ED0EB136AEB8809DA0D7139293C DUP4 CALLER SWAP4 LOG3 PUSH2 0x176B PUSH1 0x2 PUSH2 0x1764 PUSH1 0x1 DUP7 ADD PUSH2 0x2450 JUMP JUMPDEST SWAP5 ADD PUSH2 0x2450 JUMP JUMPDEST PUSH1 0x40 MLOAD SWAP5 DUP6 SWAP5 PUSH1 0x40 DUP7 MSTORE PUSH1 0x40 DUP7 ADD SWAP1 PUSH2 0x2518 JUMP JUMPDEST SWAP2 DUP5 DUP4 SUB SWAP1 DUP6 ADD MSTORE PUSH2 0x2518 JUMP JUMPDEST PUSH1 0x40 MLOAD PUSH3 0x461BCD PUSH1 0xE5 SHL DUP2 MSTORE PUSH1 0x4 DUP2 ADD DUP8 SWAP1 MSTORE PUSH1 0x16 PUSH1 0x24 DUP3 ADD MSTORE PUSH22 0x14DD1859D948185B1C9958591E481D5B9B1BD8DAD959 PUSH1 0x52 SHL PUSH1 0x44 DUP3 ADD MSTORE PUSH1 0x64 SWAP1 REVERT JUMPDEST PUSH1 0x40 MLOAD PUSH3 0x461BCD PUSH1 0xE5 SHL DUP2 MSTORE PUSH1 0x4 DUP2 ADD DUP6 SWAP1 MSTORE PUSH1 0x12 PUSH1 0x24 DUP3 ADD MSTORE PUSH18 0x14DD1859D9481CDD1A5B1B081B1BD8DAD959 PUSH1 0x72 SHL PUSH1 0x44 DUP3 ADD MSTORE PUSH1 0x64 SWAP1 REVERT JUMPDEST PUSH1 0x40 MLOAD PUSH3 0x461BCD PUSH1 0xE5 SHL DUP2 MSTORE PUSH1 0x4 DUP2 ADD DUP6 SWAP1 MSTORE PUSH1 0xD PUSH1 0x24 DUP3 ADD MSTORE PUSH13 0x496E76616C6964207374616765 PUSH1 0x98 SHL PUSH1 0x44 DUP3 ADD MSTORE PUSH1 0x64 SWAP1 REVERT JUMPDEST POP PUSH1 0x3 SLOAD DUP2 GT ISZERO PUSH2 0x16A6 JUMP JUMPDEST CALLVALUE PUSH2 0x27F JUMPI PUSH1 0x60 CALLDATASIZE PUSH1 0x3 NOT ADD SLT PUSH2 0x27F JUMPI PUSH1 0x24 PUSH1 0x4 CALLDATALOAD DUP2 CALLDATALOAD PUSH8 0xFFFFFFFFFFFFFFFF DUP2 GT PUSH2 0x27F JUMPI PUSH2 0x187A SWAP1 CALLDATASIZE SWAP1 PUSH1 0x4 ADD PUSH2 0x2555 JUMP JUMPDEST SWAP1 PUSH1 0x44 DUP1 CALLDATALOAD SWAP4 DUP3 PUSH1 0x0 MSTORE PUSH1 0x20 PUSH1 0x4 PUSH1 0x20 MSTORE PUSH1 0x1 DUP1 PUSH1 0xA0 SHL SUB PUSH1 0x1 SWAP5 PUSH2 0x18AA DUP3 PUSH1 0x1 PUSH1 0x40 PUSH1 0x0 KECCAK256 ADD SLOAD AND CALLER EQ PUSH2 0x277D JUMP JUMPDEST DUP1 ISZERO ISZERO DUP1 PUSH2 0x19E9 JUMPI JUMPDEST PUSH2 0x18BC SWAP1 PUSH2 0x26FA JUMP JUMPDEST PUSH1 0x0 MSTORE PUSH1 0x4 PUSH1 0x20 MSTORE PUSH1 0x40 PUSH1 0x0 KECCAK256 SWAP6 PUSH1 0xFF PUSH1 0x1 DUP9 ADD SLOAD PUSH1 0xA8 SHR AND PUSH1 0x4 DUP2 LT ISZERO PUSH2 0x498 JUMPI PUSH2 0x18E8 SWAP1 ISZERO PUSH2 0x27B7 JUMP JUMPDEST DUP1 MLOAD DUP9 GT PUSH2 0x19B0 JUMPI SWAP3 SWAP7 SWAP6 SWAP5 SWAP4 PUSH1 0x9 DUP7 ADD SWAP4 SWAP1 PUSH1 0x8 DUP8 ADD SWAP1 PUSH1 0x0 DUP8 JUMPDEST PUSH2 0x1912 JUMPI JUMPDEST PUSH1 0xA DUP10 ADD DUP11 SWAP1 SSTORE STOP JUMPDEST DUP4 MLOAD DUP2 LT ISZERO PUSH2 0x19AB JUMPI DUP5 PUSH2 0x1926 DUP3 DUP7 PUSH2 0x2769 JUMP JUMPDEST MLOAD AND ISZERO PUSH2 0x1975 JUMPI SWAP10 DUP8 DUP12 PUSH2 0x1949 DUP8 PUSH2 0x1941 DUP5 SWAP14 SWAP15 SWAP16 DUP10 PUSH2 0x2769 JUMP JUMPDEST MLOAD AND DUP7 PUSH2 0x27F8 JUMP JUMPDEST DUP7 PUSH2 0x1954 DUP3 DUP9 PUSH2 0x2769 JUMP JUMPDEST MLOAD AND PUSH1 0x0 MSTORE DUP9 DUP9 MSTORE PUSH1 0x40 PUSH1 0x0 KECCAK256 DUP3 PUSH1 0xFF NOT DUP3 SLOAD AND OR SWAP1 SSTORE ADD SWAP1 SWAP11 SWAP10 SWAP9 PUSH2 0x1904 JUMP JUMPDEST PUSH1 0x40 MLOAD PUSH3 0x461BCD PUSH1 0xE5 SHL DUP2 MSTORE PUSH1 0x4 DUP2 ADD DUP8 SWAP1 MSTORE PUSH1 0x10 DUP2 DUP14 ADD MSTORE PUSH16 0x24B73B30B634B21033BAB0B93234B0B7 PUSH1 0x81 SHL DUP2 DUP5 ADD MSTORE PUSH1 0x64 SWAP1 REVERT JUMPDEST PUSH2 0x1909 JUMP JUMPDEST PUSH1 0x40 MLOAD PUSH3 0x461BCD PUSH1 0xE5 SHL DUP2 MSTORE PUSH1 0x20 PUSH1 0x4 DUP3 ADD MSTORE PUSH1 0x11 PUSH1 0x24 DUP3 ADD MSTORE PUSH17 0x125B9D985B1A59081D1A1C995CDA1BDB19 PUSH1 0x7A SHL PUSH1 0x44 DUP3 ADD MSTORE PUSH1 0x64 SWAP1 REVERT JUMPDEST POP PUSH1 0x3 SLOAD DUP2 GT ISZERO PUSH2 0x18B3 JUMP JUMPDEST CALLVALUE PUSH2 0x27F JUMPI PUSH1 0x20 DUP1 PUSH1 0x3 NOT CALLDATASIZE ADD SLT PUSH2 0x27F JUMPI PUSH1 0x4 CALLDATALOAD DUP1 ISZERO ISZERO DUP1 PUSH2 0x1BFD JUMPI JUMPDEST PUSH2 0x1A1C SWAP1 PUSH2 0x26FA JUMP JUMPDEST PUSH1 0x0 SWAP1 DUP2 MSTORE PUSH1 0x4 DUP3 MSTORE PUSH1 0x40 DUP2 KECCAK256 PUSH1 0xD ADD DUP1 SLOAD SWAP1 DUP3 JUMPDEST DUP3 DUP2 LT PUSH2 0x1BCD JUMPI POP PUSH2 0x1A5B PUSH2 0x1A45 DUP5 PUSH2 0x253D JUMP JUMPDEST SWAP4 PUSH2 0x1A53 PUSH1 0x40 MLOAD SWAP6 DUP7 PUSH2 0x2361 JUMP JUMPDEST DUP1 DUP6 MSTORE PUSH2 0x253D JUMP JUMPDEST PUSH1 0x1F NOT ADD DUP5 PUSH1 0x0 JUMPDEST DUP3 DUP2 LT PUSH2 0x1B9D JUMPI POP POP POP PUSH1 0x0 SWAP1 PUSH1 0x0 JUMPDEST DUP4 DUP2 LT PUSH2 0x1B0D JUMPI PUSH1 0x40 DUP1 MLOAD DUP8 DUP2 MSTORE DUP7 MLOAD DUP2 DUP10 ADD DUP2 SWAP1 MSTORE PUSH1 0x0 SWAP3 PUSH1 0x5 DUP3 SWAP1 SHL DUP4 ADD DUP2 ADD SWAP2 DUP10 DUP12 ADD SWAP2 DUP12 SWAP1 DUP6 ADD JUMPDEST DUP3 DUP8 LT PUSH2 0x1AAC JUMPI DUP6 DUP6 SUB DUP7 RETURN JUMPDEST SWAP1 SWAP2 SWAP3 SWAP4 DUP3 DUP1 PUSH1 0x1 SWAP3 PUSH1 0x3F NOT DUP10 DUP3 SUB ADD DUP6 MSTORE DUP8 MLOAD SWAP1 PUSH2 0x1AF1 PUSH2 0x1ADF PUSH1 0x80 DUP5 MLOAD DUP5 MSTORE DUP6 DUP6 ADD MLOAD SWAP1 DUP1 DUP8 DUP7 ADD MSTORE DUP5 ADD SWAP1 PUSH2 0x2518 JUMP JUMPDEST PUSH1 0x40 DUP5 ADD MLOAD DUP4 DUP3 SUB PUSH1 0x40 DUP6 ADD MSTORE PUSH2 0x2518 JUMP JUMPDEST SWAP2 PUSH1 0x60 DUP1 SWAP2 ADD MLOAD ISZERO ISZERO SWAP2 ADD MSTORE SWAP7 ADD SWAP3 ADD SWAP7 ADD SWAP6 SWAP3 SWAP2 SWAP1 SWAP3 PUSH2 0x1A9F JUMP JUMPDEST PUSH2 0x1B17 DUP2 DUP4 PUSH2 0x273E JUMP JUMPDEST POP SLOAD TIMESTAMP LT ISZERO PUSH2 0x1B29 JUMPI JUMPDEST PUSH1 0x1 ADD PUSH2 0x1A73 JUMP JUMPDEST SWAP2 PUSH2 0x1B95 PUSH1 0x1 SWAP2 PUSH2 0x1B3A DUP6 DUP6 PUSH2 0x273E JUMP JUMPDEST POP PUSH1 0xFF PUSH1 0x3 PUSH1 0x40 MLOAD SWAP3 PUSH2 0x1B4C DUP5 PUSH2 0x2345 JUMP JUMPDEST DUP1 SLOAD DUP5 MSTORE PUSH2 0x1B5B DUP8 DUP3 ADD PUSH2 0x2450 JUMP JUMPDEST DUP13 DUP6 ADD MSTORE PUSH2 0x1B6B PUSH1 0x2 DUP3 ADD PUSH2 0x2450 JUMP JUMPDEST PUSH1 0x40 DUP6 ADD MSTORE ADD SLOAD AND ISZERO ISZERO PUSH1 0x60 DUP3 ADD MSTORE PUSH2 0x1B84 DUP3 DUP10 PUSH2 0x2769 JUMP JUMPDEST MSTORE PUSH2 0x1B8F DUP2 DUP9 PUSH2 0x2769 JUMP JUMPDEST POP PUSH2 0x275A JUMP JUMPDEST SWAP3 SWAP1 POP PUSH2 0x1B21 JUMP JUMPDEST PUSH1 0x40 MLOAD PUSH2 0x1BA9 DUP2 PUSH2 0x2345 JUMP JUMPDEST PUSH1 0x0 DUP2 MSTORE PUSH1 0x0 PUSH1 0x60 DUP1 DUP6 DUP5 ADD MSTORE DUP1 PUSH1 0x40 DUP5 ADD MSTORE DUP3 ADD MSTORE DUP3 DUP3 DUP9 ADD ADD MSTORE ADD DUP6 SWAP1 PUSH2 0x1A63 JUMP JUMPDEST PUSH2 0x1BD7 DUP2 DUP4 PUSH2 0x273E JUMP JUMPDEST POP SLOAD TIMESTAMP LT ISZERO PUSH2 0x1BE9 JUMPI JUMPDEST PUSH1 0x1 ADD PUSH2 0x1A31 JUMP JUMPDEST SWAP3 PUSH2 0x1BF5 PUSH1 0x1 SWAP2 PUSH2 0x275A JUMP JUMPDEST SWAP4 SWAP1 POP PUSH2 0x1BE1 JUMP JUMPDEST POP PUSH1 0x3 SLOAD DUP2 GT ISZERO PUSH2 0x1A13 JUMP JUMPDEST CALLVALUE PUSH2 0x27F JUMPI PUSH1 0x20 CALLDATASIZE PUSH1 0x3 NOT ADD SLT PUSH2 0x27F JUMPI PUSH1 0x4 CALLDATALOAD PUSH1 0x0 MSTORE PUSH1 0x4 PUSH1 0x20 MSTORE PUSH1 0x60 PUSH1 0x40 PUSH1 0x0 KECCAK256 DUP1 SLOAD PUSH1 0x1 DUP3 ADD SLOAD PUSH1 0x2 DUP4 ADD SLOAD SWAP1 PUSH1 0x3 DUP5 ADD SLOAD SWAP4 PUSH1 0x4 DUP2 ADD SLOAD SWAP4 PUSH1 0x5 DUP3 ADD SLOAD PUSH1 0xA DUP4 ADD SLOAD PUSH1 0xC DUP5 ADD SLOAD PUSH1 0xE DUP6 ADD SLOAD SWAP2 PUSH1 0xF DUP7 ADD SLOAD SWAP4 PUSH1 0x11 PUSH2 0x1C6E PUSH1 0x10 DUP10 ADD PUSH2 0x2450 JUMP JUMPDEST SWAP8 ADD SLOAD SWAP10 PUSH2 0x1CAF PUSH1 0x40 MLOAD SWAP14 DUP15 PUSH2 0x240 SWAP10 DUP2 MSTORE PUSH1 0x1 DUP1 PUSH1 0xA0 SHL SUB DUP13 AND PUSH1 0x20 DUP3 ADD MSTORE PUSH2 0x1CA2 DUP13 PUSH1 0xFF PUSH1 0x40 DUP5 ADD SWAP2 PUSH1 0xA0 SHR AND PUSH2 0x23FC JUMP JUMPDEST ADD PUSH1 0xFF DUP12 PUSH1 0xA8 SHR AND PUSH2 0x2409 JUMP JUMPDEST PUSH1 0x3 PUSH1 0xFF DUP11 PUSH1 0xB0 SHR AND LT ISZERO PUSH2 0x498 JUMPI DUP13 SWAP12 PUSH1 0xFF SWAP11 PUSH1 0xA0 DUP15 DUP14 PUSH2 0x1D0D SWAP14 PUSH1 0xB0 SHR AND PUSH1 0x80 DUP3 ADD MSTORE ADD MSTORE PUSH1 0xC0 DUP14 ADD MSTORE PUSH1 0xE0 DUP13 ADD MSTORE PUSH2 0x100 DUP12 ADD MSTORE PUSH2 0x120 DUP11 ADD MSTORE PUSH2 0x140 DUP10 ADD MSTORE PUSH2 0x160 DUP9 ADD MSTORE PUSH2 0x180 DUP8 ADD MSTORE DUP1 PUSH2 0x1A0 DUP8 ADD MSTORE DUP6 ADD SWAP1 PUSH2 0x2518 JUMP JUMPDEST SWAP2 DUP2 DUP2 AND ISZERO ISZERO PUSH2 0x1C0 DUP6 ADD MSTORE DUP2 DUP2 PUSH1 0x8 SHR AND ISZERO ISZERO PUSH2 0x1E0 DUP6 ADD MSTORE DUP2 DUP2 PUSH1 0x10 SHR AND ISZERO ISZERO PUSH2 0x200 DUP6 ADD MSTORE PUSH1 0x18 SHR AND ISZERO ISZERO PUSH2 0x220 DUP4 ADD MSTORE SUB SWAP1 RETURN JUMPDEST CALLVALUE PUSH2 0x27F JUMPI PUSH1 0x0 CALLDATASIZE PUSH1 0x3 NOT ADD SLT PUSH2 0x27F JUMPI PUSH2 0x1D5E PUSH2 0x2CF7 JUMP JUMPDEST PUSH1 0x2 SLOAD PUSH1 0xFF DUP2 AND ISZERO PUSH2 0x1D9D JUMPI PUSH1 0xFF NOT AND PUSH1 0x2 SSTORE PUSH32 0x5DB9EE0A495BF2E6FF9C91A7834C1BA4FDD244A5E8AA4E537BD38AEAE4B073AA PUSH1 0x20 PUSH1 0x40 MLOAD CALLER DUP2 MSTORE LOG1 STOP JUMPDEST PUSH1 0x40 MLOAD PUSH4 0x8DFC202B PUSH1 0xE0 SHL DUP2 MSTORE PUSH1 0x4 SWAP1 REVERT JUMPDEST CALLVALUE PUSH2 0x27F JUMPI PUSH1 0x20 DUP1 PUSH1 0x3 NOT CALLDATASIZE ADD SLT PUSH2 0x27F JUMPI PUSH1 0x4 CALLDATALOAD DUP1 ISZERO ISZERO DUP1 PUSH2 0x1EEC JUMPI JUMPDEST PUSH2 0x1DD6 SWAP1 PUSH2 0x26FA JUMP JUMPDEST PUSH1 0x0 MSTORE PUSH1 0x4 DUP2 MSTORE PUSH1 0x40 PUSH1 0x0 KECCAK256 SWAP1 DUP2 SLOAD SWAP2 PUSH1 0x1 SWAP3 PUSH1 0x1 DUP3 ADD SLOAD SWAP4 PUSH1 0x1 DUP1 PUSH1 0xA0 SHL SUB SWAP2 PUSH1 0x2 DUP5 ADD SLOAD SWAP5 PUSH1 0xE DUP6 ADD SLOAD PUSH1 0x11 PUSH1 0x6 DUP8 ADD SWAP7 ADD SLOAD SWAP8 PUSH1 0x40 MLOAD SWAP2 DUP3 DUP5 DUP10 SLOAD SWAP2 DUP3 DUP2 MSTORE ADD SWAP1 DUP2 SWAP10 PUSH1 0x0 MSTORE DUP6 PUSH1 0x0 KECCAK256 SWAP1 PUSH1 0x0 JUMPDEST DUP2 DUP2 LT PUSH2 0x1ED7 JUMPI POP POP POP DUP4 PUSH2 0x1E3D SWAP2 SUB DUP5 PUSH2 0x2361 JUMP JUMPDEST PUSH1 0x40 MLOAD SWAP9 PUSH2 0x1E78 PUSH2 0x120 SWAP4 DUP5 DUP13 ADD SWAP8 DUP13 MSTORE DUP10 DUP2 AND DUP8 DUP14 ADD MSTORE PUSH2 0x1E68 PUSH1 0x40 DUP14 ADD PUSH1 0xFF DUP4 PUSH1 0xA0 SHR AND PUSH2 0x23FC JUMP JUMPDEST PUSH1 0xFF PUSH1 0x60 DUP14 ADD SWAP2 PUSH1 0xA8 SHR AND PUSH2 0x2409 JUMP JUMPDEST PUSH1 0x80 DUP11 ADD MSTORE PUSH1 0xA0 DUP10 ADD MSTORE PUSH1 0xC0 DUP9 ADD MSTORE MLOAD DUP1 SWAP3 MSTORE PUSH2 0x140 DUP7 ADD SWAP5 SWAP4 PUSH1 0x0 SWAP1 JUMPDEST DUP4 DUP3 LT PUSH2 0x1EC0 JUMPI DUP8 DUP1 DUP9 PUSH1 0xFF DUP13 DUP2 DUP2 PUSH1 0x18 SHR AND ISZERO ISZERO PUSH1 0xE0 DUP6 ADD MSTORE PUSH1 0x10 SHR AND ISZERO ISZERO PUSH2 0x100 DUP4 ADD MSTORE SUB SWAP1 RETURN JUMPDEST DUP6 MLOAD DUP2 AND DUP8 MSTORE SWAP6 DUP3 ADD SWAP6 SWAP5 DUP3 ADD SWAP5 SWAP1 DUP5 ADD SWAP1 PUSH2 0x1E96 JUMP JUMPDEST DUP3 SLOAD DUP12 AND DUP5 MSTORE SWAP3 DUP8 ADD SWAP3 SWAP2 DUP10 ADD SWAP2 DUP10 ADD PUSH2 0x1E27 JUMP JUMPDEST POP PUSH1 0x3 SLOAD DUP2 GT ISZERO PUSH2 0x1DCD JUMP JUMPDEST CALLVALUE PUSH2 0x27F JUMPI PUSH1 0x20 DUP1 PUSH1 0x3 NOT CALLDATASIZE ADD SLT PUSH2 0x27F JUMPI PUSH1 0x1 PUSH1 0x1 PUSH1 0xA0 SHL SUB PUSH2 0x1F1A PUSH2 0x23E6 JUMP JUMPDEST AND PUSH1 0x0 MSTORE PUSH1 0x5 DUP2 MSTORE PUSH1 0x40 PUSH1 0x0 KECCAK256 PUSH1 0x40 MLOAD SWAP1 DUP2 DUP4 DUP3 SLOAD SWAP2 DUP3 DUP2 MSTORE ADD SWAP1 DUP2 SWAP3 PUSH1 0x0 MSTORE DUP5 PUSH1 0x0 KECCAK256 SWAP1 PUSH1 0x0 JUMPDEST DUP7 DUP3 DUP3 LT PUSH2 0x1F98 JUMPI DUP7 DUP7 PUSH2 0x1F58 DUP3 DUP9 SUB DUP4 PUSH2 0x2361 JUMP JUMPDEST PUSH1 0x40 MLOAD SWAP3 DUP4 SWAP3 DUP2 DUP5 ADD SWAP1 DUP3 DUP6 MSTORE MLOAD DUP1 SWAP2 MSTORE PUSH1 0x40 DUP5 ADD SWAP3 SWAP2 PUSH1 0x0 JUMPDEST DUP3 DUP2 LT PUSH2 0x1F81 JUMPI POP POP POP POP SUB SWAP1 RETURN JUMPDEST DUP4 MLOAD DUP6 MSTORE DUP7 SWAP6 POP SWAP4 DUP2 ADD SWAP4 SWAP3 DUP2 ADD SWAP3 PUSH1 0x1 ADD PUSH2 0x1F72 JUMP JUMPDEST DUP4 SLOAD DUP6 MSTORE SWAP1 SWAP4 ADD SWAP3 PUSH1 0x1 SWAP3 DUP4 ADD SWAP3 ADD PUSH2 0x1F42 JUMP JUMPDEST PUSH1 0x20 CALLDATASIZE PUSH1 0x3 NOT ADD SLT PUSH2 0x27F JUMPI PUSH8 0xFFFFFFFFFFFFFFFF PUSH1 0x4 CALLDATALOAD DUP2 DUP2 GT PUSH2 0x27F JUMPI PUSH2 0x1FD9 SWAP1 CALLDATASIZE SWAP1 PUSH1 0x4 ADD PUSH2 0x239F JUMP JUMPDEST PUSH2 0x1FE1 PUSH2 0x2CD4 JUMP JUMPDEST PUSH1 0x40 MLOAD PUSH1 0x20 DUP2 DUP4 MLOAD PUSH2 0x1FF6 DUP2 DUP4 DUP6 DUP9 ADD PUSH2 0x24F5 JUMP JUMPDEST DUP2 ADD PUSH1 0xE DUP2 MSTORE SUB ADD SWAP1 KECCAK256 PUSH1 0x40 MLOAD SWAP1 PUSH2 0x200D DUP3 PUSH2 0x2328 JUMP JUMPDEST PUSH2 0x2016 DUP2 PUSH2 0x2450 JUMP JUMPDEST DUP3 MSTORE PUSH1 0xFF PUSH1 0x4 PUSH1 0x1 DUP4 ADD SLOAD SWAP3 DUP4 PUSH1 0x20 DUP7 ADD MSTORE PUSH1 0x2 DUP2 ADD SLOAD PUSH1 0x40 DUP7 ADD MSTORE PUSH1 0x3 DUP2 ADD SLOAD PUSH1 0x60 DUP7 ADD MSTORE ADD SLOAD DUP2 DUP2 AND ISZERO ISZERO PUSH1 0x80 DUP6 ADD MSTORE DUP2 DUP2 PUSH1 0x8 SHR AND ISZERO ISZERO PUSH1 0xA0 DUP6 ADD MSTORE DUP2 DUP2 PUSH1 0x10 SHR AND ISZERO ISZERO PUSH1 0xC0 DUP6 ADD MSTORE PUSH1 0x18 SHR AND ISZERO ISZERO PUSH1 0xE0 DUP4 ADD MSTORE ISZERO PUSH2 0x22AA JUMPI PUSH2 0x2082 PUSH1 0x20 DUP3 ADD MLOAD CALLVALUE LT ISZERO PUSH2 0x263D JUMP JUMPDEST CALLER PUSH1 0x0 MSTORE PUSH1 0x6 PUSH1 0x20 MSTORE PUSH1 0x40 PUSH1 0x0 KECCAK256 DUP2 MLOAD SWAP4 DUP5 MLOAD SWAP1 DUP2 GT PUSH2 0x14AE JUMPI PUSH2 0x20A6 DUP3 SLOAD PUSH2 0x2416 JUMP JUMPDEST PUSH1 0x1F DUP2 GT PUSH2 0x2266 JUMPI JUMPDEST POP PUSH1 0x20 PUSH1 0x1F DUP3 GT PUSH1 0x1 EQ PUSH2 0x21F9 JUMPI DUP2 SWAP1 PUSH1 0x4 SWAP5 SWAP6 SWAP7 PUSH1 0x0 SWAP3 PUSH2 0x21EE JUMPI JUMPDEST POP POP DUP2 PUSH1 0x1 SHL SWAP2 PUSH1 0x0 NOT SWAP1 PUSH1 0x3 SHL SHR NOT AND OR DUP2 SSTORE JUMPDEST PUSH1 0x20 DUP4 ADD MLOAD PUSH1 0x1 DUP3 ADD SSTORE PUSH1 0x40 DUP4 ADD MLOAD PUSH1 0x2 DUP3 ADD SSTORE PUSH1 0x60 DUP4 ADD MLOAD PUSH1 0x3 DUP3 ADD SSTORE ADD SWAP1 PUSH2 0x211D PUSH1 0x80 DUP3 ADD MLOAD ISZERO ISZERO DUP4 SWAP1 PUSH1 0xFF DUP1 NOT DUP4 SLOAD AND SWAP2 ISZERO ISZERO AND OR SWAP1 SSTORE JUMP JUMPDEST PUSH1 0xA0 DUP2 ADD MLOAD ISZERO ISZERO SWAP1 DUP3 SLOAD PUSH2 0xFF00 PUSH4 0xFF000000 PUSH1 0xE0 PUSH3 0xFF0000 PUSH1 0xC0 DUP7 ADD MLOAD ISZERO ISZERO PUSH1 0x10 SHL AND SWAP5 ADD MLOAD ISZERO ISZERO PUSH1 0x18 SHL AND SWAP4 PUSH1 0x8 SHL AND SWAP1 PUSH4 0xFFFFFF00 NOT AND OR OR OR SWAP1 SSTORE PUSH4 0x1E13380 TIMESTAMP ADD DUP1 TIMESTAMP GT PUSH2 0x732 JUMPI CALLER PUSH1 0x0 MSTORE PUSH1 0x7 PUSH1 0x20 MSTORE PUSH1 0x40 PUSH1 0x0 KECCAK256 SSTORE PUSH2 0x2196 PUSH1 0x0 DUP1 DUP1 DUP1 CALLVALUE PUSH1 0x1 DUP1 PUSH1 0xA0 SHL SUB PUSH1 0xC SLOAD AND GAS CALL PUSH2 0x72A PUSH2 0x268D JUMP JUMPDEST CALLER PUSH1 0x0 MSTORE PUSH1 0x7 PUSH1 0x20 MSTORE PUSH32 0xD3A0D4C6FB024554316F1122074A9D46118FADFECB90D5C41812A242C2106DFB PUSH1 0x40 PUSH1 0x0 KECCAK256 SLOAD SWAP2 PUSH2 0x21DC PUSH1 0x40 MLOAD SWAP2 PUSH1 0x40 DUP4 MSTORE PUSH1 0x40 DUP4 ADD SWAP1 PUSH2 0x2518 JUMP JUMPDEST SWAP3 PUSH1 0x20 DUP3 ADD MSTORE DUP1 CALLER SWAP4 SUB SWAP1 LOG2 PUSH1 0x1 DUP1 SSTORE STOP JUMPDEST ADD MLOAD SWAP1 POP DUP7 DUP1 PUSH2 0x20CC JUMP JUMPDEST DUP3 PUSH1 0x0 MSTORE PUSH1 0x20 PUSH1 0x0 KECCAK256 SWAP6 PUSH1 0x0 JUMPDEST PUSH1 0x1F NOT DUP5 AND DUP2 LT PUSH2 0x224E JUMPI POP SWAP6 DUP3 SWAP2 PUSH1 0x4 SWAP6 SWAP7 SWAP8 PUSH1 0x1 SWAP5 PUSH1 0x1F NOT DUP2 AND LT PUSH2 0x2235 JUMPI JUMPDEST POP POP POP DUP2 SHL ADD DUP2 SSTORE PUSH2 0x20E1 JUMP JUMPDEST ADD MLOAD PUSH1 0x0 NOT PUSH1 0xF8 DUP5 PUSH1 0x3 SHL AND SHR NOT AND SWAP1 SSTORE DUP7 DUP1 DUP1 PUSH2 0x2228 JUMP JUMPDEST DUP3 DUP3 ADD MLOAD DUP9 SSTORE PUSH1 0x1 SWAP1 SWAP8 ADD SWAP7 PUSH1 0x20 SWAP3 DUP4 ADD SWAP3 ADD PUSH2 0x2206 JUMP JUMPDEST DUP3 PUSH1 0x0 MSTORE PUSH1 0x20 PUSH1 0x0 KECCAK256 PUSH1 0x1F DUP4 ADD PUSH1 0x5 SHR DUP2 ADD PUSH1 0x20 DUP5 LT PUSH2 0x22A3 JUMPI JUMPDEST PUSH1 0x1F DUP4 ADD PUSH1 0x5 SHR DUP3 ADD DUP2 LT PUSH2 0x2297 JUMPI POP POP PUSH2 0x20AF JUMP JUMPDEST PUSH1 0x0 DUP2 SSTORE PUSH1 0x1 ADD PUSH2 0x2281 JUMP JUMPDEST POP DUP1 PUSH2 0x2281 JUMP JUMPDEST PUSH1 0x40 MLOAD PUSH3 0x461BCD PUSH1 0xE5 SHL DUP2 MSTORE PUSH1 0x20 PUSH1 0x4 DUP3 ADD MSTORE PUSH1 0xC PUSH1 0x24 DUP3 ADD MSTORE PUSH12 0x24B73B30B634B2103A34B2B9 PUSH1 0xA1 SHL PUSH1 0x44 DUP3 ADD MSTORE PUSH1 0x64 SWAP1 REVERT JUMPDEST CALLVALUE PUSH2 0x27F JUMPI PUSH1 0x20 CALLDATASIZE PUSH1 0x3 NOT ADD SLT PUSH2 0x27F JUMPI PUSH1 0x4 CALLDATALOAD PUSH1 0x5 DUP2 LT ISZERO PUSH2 0x27F JUMPI PUSH2 0x2306 PUSH1 0x20 SWAP2 PUSH2 0x230F JUMP JUMPDEST SLOAD PUSH1 0x40 MLOAD SWAP1 DUP2 MSTORE RETURN JUMPDEST PUSH1 0x5 DUP2 LT ISZERO PUSH2 0x498 JUMPI PUSH1 0x0 MSTORE PUSH1 0x8 PUSH1 0x20 MSTORE PUSH1 0x40 PUSH1 0x0 KECCAK256 SWAP1 JUMP JUMPDEST PUSH2 0x100 DUP2 ADD SWAP1 DUP2 LT PUSH8 0xFFFFFFFFFFFFFFFF DUP3 GT OR PUSH2 0x14AE JUMPI PUSH1 0x40 MSTORE JUMP JUMPDEST PUSH1 0x80 DUP2 ADD SWAP1 DUP2 LT PUSH8 0xFFFFFFFFFFFFFFFF DUP3 GT OR PUSH2 0x14AE JUMPI PUSH1 0x40 MSTORE JUMP JUMPDEST SWAP1 PUSH1 0x1F DUP1 NOT SWAP2 ADD AND DUP2 ADD SWAP1 DUP2 LT PUSH8 0xFFFFFFFFFFFFFFFF DUP3 GT OR PUSH2 0x14AE JUMPI PUSH1 0x40 MSTORE JUMP JUMPDEST PUSH8 0xFFFFFFFFFFFFFFFF DUP2 GT PUSH2 0x14AE JUMPI PUSH1 0x1F ADD PUSH1 0x1F NOT AND PUSH1 0x20 ADD SWAP1 JUMP JUMPDEST DUP2 PUSH1 0x1F DUP3 ADD SLT ISZERO PUSH2 0x27F JUMPI DUP1 CALLDATALOAD SWAP1 PUSH2 0x23B6 DUP3 PUSH2 0x2383 JUMP JUMPDEST SWAP3 PUSH2 0x23C4 PUSH1 0x40 MLOAD SWAP5 DUP6 PUSH2 0x2361 JUMP JUMPDEST DUP3 DUP5 MSTORE PUSH1 0x20 DUP4 DUP4 ADD ADD GT PUSH2 0x27F JUMPI DUP2 PUSH1 0x0 SWAP3 PUSH1 0x20 DUP1 SWAP4 ADD DUP4 DUP7 ADD CALLDATACOPY DUP4 ADD ADD MSTORE SWAP1 JUMP JUMPDEST PUSH1 0x4 CALLDATALOAD SWAP1 PUSH1 0x1 PUSH1 0x1 PUSH1 0xA0 SHL SUB DUP3 AND DUP3 SUB PUSH2 0x27F JUMPI JUMP JUMPDEST SWAP1 PUSH1 0x5 DUP3 LT ISZERO PUSH2 0x498 JUMPI MSTORE JUMP JUMPDEST SWAP1 PUSH1 0x4 DUP3 LT ISZERO PUSH2 0x498 JUMPI MSTORE JUMP JUMPDEST SWAP1 PUSH1 0x1 DUP3 DUP2 SHR SWAP3 AND DUP1 ISZERO PUSH2 0x2446 JUMPI JUMPDEST PUSH1 0x20 DUP4 LT EQ PUSH2 0x2430 JUMPI JUMP JUMPDEST PUSH4 0x4E487B71 PUSH1 0xE0 SHL PUSH1 0x0 MSTORE PUSH1 0x22 PUSH1 0x4 MSTORE PUSH1 0x24 PUSH1 0x0 REVERT JUMPDEST SWAP2 PUSH1 0x7F AND SWAP2 PUSH2 0x2425 JUMP JUMPDEST SWAP1 PUSH1 0x40 MLOAD SWAP2 DUP3 PUSH1 0x0 DUP3 SLOAD PUSH2 0x2463 DUP2 PUSH2 0x2416 JUMP JUMPDEST SWAP1 DUP2 DUP5 MSTORE PUSH1 0x20 SWAP5 PUSH1 0x1 SWAP2 PUSH1 0x1 DUP2 AND SWAP1 DUP2 PUSH1 0x0 EQ PUSH2 0x24D3 JUMPI POP PUSH1 0x1 EQ PUSH2 0x2494 JUMPI JUMPDEST POP POP POP PUSH2 0x2492 SWAP3 POP SUB DUP4 PUSH2 0x2361 JUMP JUMPDEST JUMP JUMPDEST PUSH1 0x0 SWAP1 DUP2 MSTORE DUP6 DUP2 KECCAK256 SWAP6 SWAP4 POP SWAP2 SWAP1 JUMPDEST DUP2 DUP4 LT PUSH2 0x24BB JUMPI POP POP PUSH2 0x2492 SWAP4 POP DUP3 ADD ADD CODESIZE DUP1 DUP1 PUSH2 0x2483 JUMP JUMPDEST DUP6 SLOAD DUP9 DUP5 ADD DUP6 ADD MSTORE SWAP5 DUP6 ADD SWAP5 DUP8 SWAP5 POP SWAP2 DUP4 ADD SWAP2 PUSH2 0x24A2 JUMP JUMPDEST SWAP3 POP POP POP PUSH2 0x2492 SWAP5 SWAP3 POP PUSH1 0xFF NOT AND DUP3 DUP5 ADD MSTORE ISZERO ISZERO PUSH1 0x5 SHL DUP3 ADD ADD CODESIZE DUP1 DUP1 PUSH2 0x2483 JUMP JUMPDEST PUSH1 0x0 JUMPDEST DUP4 DUP2 LT PUSH2 0x2508 JUMPI POP POP PUSH1 0x0 SWAP2 ADD MSTORE JUMP JUMPDEST DUP2 DUP2 ADD MLOAD DUP4 DUP3 ADD MSTORE PUSH1 0x20 ADD PUSH2 0x24F8 JUMP JUMPDEST SWAP1 PUSH1 0x20 SWAP2 PUSH2 0x2531 DUP2 MLOAD DUP1 SWAP3 DUP2 DUP6 MSTORE DUP6 DUP1 DUP7 ADD SWAP2 ADD PUSH2 0x24F5 JUMP JUMPDEST PUSH1 0x1F ADD PUSH1 0x1F NOT AND ADD ADD SWAP1 JUMP JUMPDEST PUSH8 0xFFFFFFFFFFFFFFFF DUP2 GT PUSH2 0x14AE JUMPI PUSH1 0x5 SHL PUSH1 0x20 ADD SWAP1 JUMP JUMPDEST SWAP1 DUP1 PUSH1 0x1F DUP4 ADD SLT ISZERO PUSH2 0x27F JUMPI PUSH1 0x20 SWAP1 DUP3 CALLDATALOAD PUSH2 0x256F DUP2 PUSH2 0x253D JUMP JUMPDEST SWAP4 PUSH2 0x257D PUSH1 0x40 MLOAD SWAP6 DUP7 PUSH2 0x2361 JUMP JUMPDEST DUP2 DUP6 MSTORE PUSH1 0x20 DUP1 DUP7 ADD SWAP3 PUSH1 0x5 SHL DUP3 ADD ADD SWAP3 DUP4 GT PUSH2 0x27F JUMPI PUSH1 0x20 ADD SWAP1 JUMPDEST DUP3 DUP3 LT PUSH2 0x25A6 JUMPI POP POP POP POP SWAP1 JUMP JUMPDEST DUP2 CALLDATALOAD PUSH1 0x1 PUSH1 0x1 PUSH1 0xA0 SHL SUB DUP2 AND DUP2 SUB PUSH2 0x27F JUMPI DUP2 MSTORE SWAP1 DUP4 ADD SWAP1 DUP4 ADD PUSH2 0x2598 JUMP JUMPDEST DUP1 SLOAD DUP3 LT ISZERO PUSH2 0x25DD JUMPI PUSH1 0x0 MSTORE PUSH1 0x20 PUSH1 0x0 KECCAK256 ADD SWAP1 PUSH1 0x0 SWAP1 JUMP JUMPDEST PUSH4 0x4E487B71 PUSH1 0xE0 SHL PUSH1 0x0 MSTORE PUSH1 0x32 PUSH1 0x4 MSTORE PUSH1 0x24 PUSH1 0x0 REVERT JUMPDEST SWAP7 SWAP4 SWAP1 SWAP3 PUSH2 0x2611 PUSH1 0xE0 SWAP8 SWAP5 SWAP11 SWAP10 SWAP7 SWAP4 SWAP11 PUSH2 0x100 DUP1 DUP12 MSTORE DUP11 ADD SWAP1 PUSH2 0x2518 JUMP JUMPDEST SWAP10 PUSH1 0x20 DUP10 ADD MSTORE PUSH1 0x40 DUP9 ADD MSTORE PUSH1 0x60 DUP8 ADD MSTORE ISZERO ISZERO PUSH1 0x80 DUP7 ADD MSTORE ISZERO ISZERO PUSH1 0xA0 DUP6 ADD MSTORE ISZERO ISZERO PUSH1 0xC0 DUP5 ADD MSTORE ISZERO ISZERO SWAP2 ADD MSTORE JUMP JUMPDEST ISZERO PUSH2 0x2644 JUMPI JUMP JUMPDEST PUSH1 0x40 MLOAD PUSH3 0x461BCD PUSH1 0xE5 SHL DUP2 MSTORE PUSH1 0x20 PUSH1 0x4 DUP3 ADD MSTORE PUSH1 0x14 PUSH1 0x24 DUP3 ADD MSTORE PUSH20 0x125B9CDD59999A58DA595B9D081C185E5B595B9D PUSH1 0x62 SHL PUSH1 0x44 DUP3 ADD MSTORE PUSH1 0x64 SWAP1 REVERT JUMPDEST SWAP2 SWAP1 DUP3 ADD DUP1 SWAP3 GT PUSH2 0x732 JUMPI JUMP JUMPDEST RETURNDATASIZE ISZERO PUSH2 0x26B8 JUMPI RETURNDATASIZE SWAP1 PUSH2 0x269E DUP3 PUSH2 0x2383 JUMP JUMPDEST SWAP2 PUSH2 0x26AC PUSH1 0x40 MLOAD SWAP4 DUP5 PUSH2 0x2361 JUMP JUMPDEST DUP3 MSTORE RETURNDATASIZE PUSH1 0x0 PUSH1 0x20 DUP5 ADD RETURNDATACOPY JUMP JUMPDEST PUSH1 0x60 SWAP1 JUMP JUMPDEST ISZERO PUSH2 0x26C4 JUMPI JUMP JUMPDEST PUSH1 0x40 MLOAD PUSH3 0x461BCD PUSH1 0xE5 SHL DUP2 MSTORE PUSH1 0x20 PUSH1 0x4 DUP3 ADD MSTORE PUSH1 0xE PUSH1 0x24 DUP3 ADD MSTORE PUSH14 0x14185E5B595B9D0819985A5B1959 PUSH1 0x92 SHL PUSH1 0x44 DUP3 ADD MSTORE PUSH1 0x64 SWAP1 REVERT JUMPDEST ISZERO PUSH2 0x2701 JUMPI JUMP JUMPDEST PUSH1 0x40 MLOAD PUSH3 0x461BCD PUSH1 0xE5 SHL DUP2 MSTORE PUSH1 0x20 PUSH1 0x4 DUP3 ADD MSTORE PUSH1 0x15 PUSH1 0x24 DUP3 ADD MSTORE PUSH21 0x10D85C1CDD5B1948191BD95CDB89DD08195E1A5CDD PUSH1 0x5A SHL PUSH1 0x44 DUP3 ADD MSTORE PUSH1 0x64 SWAP1 REVERT JUMPDEST DUP1 SLOAD DUP3 LT ISZERO PUSH2 0x25DD JUMPI PUSH1 0x0 MSTORE PUSH1 0x20 PUSH1 0x0 KECCAK256 SWAP1 PUSH1 0x2 SHL ADD SWAP1 PUSH1 0x0 SWAP1 JUMP JUMPDEST PUSH1 0x0 NOT DUP2 EQ PUSH2 0x732 JUMPI PUSH1 0x1 ADD SWAP1 JUMP JUMPDEST DUP1 MLOAD DUP3 LT ISZERO PUSH2 0x25DD JUMPI PUSH1 0x20 SWAP2 PUSH1 0x5 SHL ADD ADD SWAP1 JUMP JUMPDEST ISZERO PUSH2 0x2784 JUMPI JUMP JUMPDEST PUSH1 0x40 MLOAD PUSH3 0x461BCD PUSH1 0xE5 SHL DUP2 MSTORE PUSH1 0x20 PUSH1 0x4 DUP3 ADD MSTORE PUSH1 0xB PUSH1 0x24 DUP3 ADD MSTORE PUSH11 0x2737BA1031B932B0BA37B9 PUSH1 0xA9 SHL PUSH1 0x44 DUP3 ADD MSTORE PUSH1 0x64 SWAP1 REVERT JUMPDEST ISZERO PUSH2 0x27BE JUMPI JUMP JUMPDEST PUSH1 0x40 MLOAD PUSH3 0x461BCD PUSH1 0xE5 SHL DUP2 MSTORE PUSH1 0x20 PUSH1 0x4 DUP3 ADD MSTORE PUSH1 0x12 PUSH1 0x24 DUP3 ADD MSTORE PUSH18 0x43617073756C65206E6F7420616374697665 PUSH1 0x70 SHL PUSH1 0x44 DUP3 ADD MSTORE PUSH1 0x64 SWAP1 REVERT JUMPDEST DUP1 SLOAD PUSH1 0x1 PUSH1 0x40 SHL DUP2 LT ISZERO PUSH2 0x14AE JUMPI PUSH2 0x2815 SWAP2 PUSH1 0x1 DUP3 ADD DUP2 SSTORE PUSH2 0x25C5 JUMP JUMPDEST PUSH1 0x1 DUP1 PUSH1 0xA0 SWAP5 SWAP4 SWAP5 SHL SUB DUP1 DUP5 SLOAD SWAP3 PUSH1 0x3 SHL SWAP4 AND DUP4 SHL SWAP3 SHL NOT AND OR SWAP1 SSTORE JUMP JUMPDEST ISZERO PUSH2 0x283A JUMPI JUMP JUMPDEST PUSH1 0x40 MLOAD PUSH3 0x461BCD PUSH1 0xE5 SHL DUP2 MSTORE PUSH1 0x20 PUSH1 0x4 DUP3 ADD MSTORE PUSH1 0xF PUSH1 0x24 DUP3 ADD MSTORE PUSH15 0x139BDD0818481C9958DA5C1A595B9D PUSH1 0x8A SHL PUSH1 0x44 DUP3 ADD MSTORE PUSH1 0x64 SWAP1 REVERT JUMPDEST SWAP1 DUP2 SLOAD PUSH1 0x1 PUSH1 0x40 SHL DUP2 LT ISZERO PUSH2 0x14AE JUMPI PUSH2 0x2891 SWAP1 PUSH1 0x1 SWAP4 DUP5 DUP3 ADD DUP2 SSTORE PUSH2 0x273E JUMP JUMPDEST SWAP2 SWAP1 SWAP2 PUSH2 0x2AF4 JUMPI DUP1 MLOAD DUP3 SSTORE DUP3 DUP3 ADD SWAP3 PUSH1 0x20 SWAP4 DUP5 DUP4 ADD MLOAD SWAP2 DUP3 MLOAD SWAP2 PUSH8 0xFFFFFFFFFFFFFFFF SWAP3 DUP4 DUP2 GT PUSH2 0x14AE JUMPI DUP1 PUSH2 0x28C7 DUP4 SLOAD PUSH2 0x2416 JUMP JUMPDEST SWAP6 PUSH1 0x1F SWAP7 DUP8 DUP2 GT PUSH2 0x2AA0 JUMPI JUMPDEST POP DUP10 SWAP1 DUP8 DUP4 GT PUSH1 0x1 EQ PUSH2 0x2A3D JUMPI PUSH1 0x0 SWAP3 PUSH2 0x2A32 JUMPI JUMPDEST POP POP PUSH1 0x0 NOT PUSH1 0x3 DUP4 SWAP1 SHL SHR NOT AND SWAP1 DUP4 SHL OR SWAP1 SSTORE JUMPDEST PUSH1 0x2 DUP6 ADD SWAP3 PUSH1 0x40 DUP6 ADD MLOAD SWAP7 DUP8 MLOAD SWAP4 DUP5 GT PUSH2 0x14AE JUMPI PUSH2 0x291A DUP6 SLOAD PUSH2 0x2416 JUMP JUMPDEST DUP3 DUP2 GT PUSH2 0x29EC JUMPI JUMPDEST POP DUP1 SWAP2 DUP5 GT PUSH1 0x1 EQ PUSH2 0x2979 JUMPI POP SWAP2 DUP1 DUP1 PUSH1 0x60 SWAP6 SWAP4 PUSH1 0x3 SWAP8 SWAP6 PUSH2 0x2492 SWAP11 PUSH1 0x0 SWAP5 PUSH2 0x296E JUMPI JUMPDEST POP POP SHL SWAP2 PUSH1 0x0 NOT SWAP1 DUP8 SHL SHR NOT AND OR SWAP1 SSTORE JUMPDEST ADD MLOAD ISZERO ISZERO SWAP2 ADD SWAP1 PUSH1 0xFF DUP1 NOT DUP4 SLOAD AND SWAP2 ISZERO ISZERO AND OR SWAP1 SSTORE JUMP JUMPDEST ADD MLOAD SWAP3 POP CODESIZE DUP1 PUSH2 0x2946 JUMP JUMPDEST SWAP2 SWAP4 SWAP5 SWAP6 SWAP7 PUSH1 0x1F NOT DUP5 AND DUP7 PUSH1 0x0 MSTORE DUP4 PUSH1 0x0 KECCAK256 SWAP4 PUSH1 0x0 SWAP1 JUMPDEST DUP3 DUP3 LT PUSH2 0x29D5 JUMPI POP POP SWAP3 PUSH1 0x60 SWAP6 SWAP3 DUP6 SWAP3 PUSH2 0x2492 SWAP11 SWAP10 SWAP7 PUSH1 0x3 SWAP10 SWAP7 LT PUSH2 0x29BD JUMPI JUMPDEST POP POP POP DUP2 SHL ADD SWAP1 SSTORE PUSH2 0x2957 JUMP JUMPDEST ADD MLOAD PUSH1 0x0 NOT DUP4 DUP10 SHL PUSH1 0xF8 AND SHR NOT AND SWAP1 SSTORE CODESIZE DUP1 DUP1 PUSH2 0x29B0 JUMP JUMPDEST DUP1 DUP9 DUP7 SWAP8 DUP3 SWAP5 SWAP8 DUP8 ADD MLOAD DUP2 SSTORE ADD SWAP7 ADD SWAP5 ADD SWAP1 PUSH2 0x2990 JUMP JUMPDEST DUP6 PUSH1 0x0 MSTORE DUP2 PUSH1 0x0 KECCAK256 DUP4 DUP1 DUP8 ADD PUSH1 0x5 SHR DUP3 ADD SWAP3 DUP5 DUP9 LT PUSH2 0x2A29 JUMPI JUMPDEST ADD PUSH1 0x5 SHR ADD SWAP1 DUP5 SWAP1 JUMPDEST DUP3 DUP2 LT PUSH2 0x2A1D JUMPI POP POP PUSH2 0x2922 JUMP JUMPDEST PUSH1 0x0 DUP2 SSTORE ADD DUP5 SWAP1 PUSH2 0x2A0F JUMP JUMPDEST SWAP3 POP DUP2 SWAP3 PUSH2 0x2A06 JUMP JUMPDEST ADD MLOAD SWAP1 POP CODESIZE DUP1 PUSH2 0x28E8 JUMP JUMPDEST SWAP1 DUP6 SWAP4 POP PUSH1 0x1F NOT DUP4 AND SWAP2 DUP6 PUSH1 0x0 MSTORE DUP12 PUSH1 0x0 KECCAK256 SWAP3 PUSH1 0x0 JUMPDEST DUP14 DUP3 DUP3 LT PUSH2 0x2A8A JUMPI POP POP DUP5 GT PUSH2 0x2A71 JUMPI JUMPDEST POP POP POP DUP2 SHL ADD SWAP1 SSTORE PUSH2 0x28FC JUMP JUMPDEST ADD MLOAD PUSH1 0x0 NOT PUSH1 0xF8 DUP5 PUSH1 0x3 SHL AND SHR NOT AND SWAP1 SSTORE CODESIZE DUP1 DUP1 PUSH2 0x2A64 JUMP JUMPDEST DUP4 DUP6 ADD MLOAD DUP7 SSTORE DUP10 SWAP8 SWAP1 SWAP6 ADD SWAP5 SWAP4 DUP5 ADD SWAP4 ADD PUSH2 0x2A53 JUMP JUMPDEST SWAP1 SWAP2 POP PUSH1 0x0 DUP5 PUSH1 0x0 MSTORE DUP11 PUSH1 0x0 KECCAK256 DUP9 DUP1 DUP7 ADD PUSH1 0x5 SHR DUP3 ADD SWAP4 DUP14 DUP8 LT PUSH2 0x2AEB JUMPI JUMPDEST SWAP2 DUP9 SWAP2 DUP8 SWAP7 SWAP6 SWAP5 SWAP4 ADD PUSH1 0x5 SHR ADD SWAP3 JUMPDEST DUP4 DUP2 LT PUSH2 0x2ADD JUMPI POP POP POP PUSH2 0x28D3 JUMP JUMPDEST DUP3 DUP2 SSTORE DUP7 SWAP6 POP DUP9 SWAP2 ADD PUSH2 0x2ACE JUMP JUMPDEST SWAP4 POP DUP2 SWAP4 PUSH2 0x2ABF JUMP JUMPDEST PUSH4 0x4E487B71 PUSH1 0xE0 SHL PUSH1 0x0 MSTORE PUSH1 0x0 PUSH1 0x4 MSTORE PUSH1 0x24 PUSH1 0x0 REVERT JUMPDEST PUSH1 0x0 MSTORE PUSH1 0x4 PUSH1 0x20 MSTORE PUSH1 0x40 PUSH1 0x0 KECCAK256 PUSH1 0xFF PUSH1 0x1 DUP3 ADD SLOAD PUSH1 0xA8 SHR AND PUSH1 0x4 DUP2 LT ISZERO PUSH2 0x498 JUMPI PUSH1 0x1 DUP2 EQ PUSH2 0x2B55 JUMPI PUSH1 0x3 EQ PUSH2 0x2B4F JUMPI PUSH1 0x2 ADD SLOAD TIMESTAMP LT ISZERO PUSH2 0x2B4A JUMPI PUSH1 0x0 SWAP1 JUMP JUMPDEST PUSH1 0x1 SWAP1 JUMP JUMPDEST POP PUSH1 0x1 SWAP1 JUMP JUMPDEST POP POP PUSH1 0x1 SWAP1 JUMP JUMPDEST PUSH2 0x2B77 SWAP1 DUP1 ISZERO ISZERO DUP1 PUSH2 0x2B7A JUMPI JUMPDEST PUSH2 0x2B72 SWAP1 PUSH2 0x26FA JUMP JUMPDEST PUSH2 0x2B86 JUMP JUMPDEST SWAP1 JUMP JUMPDEST POP PUSH1 0x3 SLOAD DUP2 GT ISZERO PUSH2 0x2B69 JUMP JUMPDEST PUSH1 0x0 MSTORE PUSH1 0x4 PUSH1 0x20 MSTORE PUSH1 0x40 PUSH1 0x0 KECCAK256 PUSH1 0xFF PUSH1 0x11 DUP3 ADD SLOAD PUSH1 0x18 SHR AND ISZERO PUSH2 0x2BC1 JUMPI DUP1 PUSH1 0x5 PUSH2 0x2E2 PUSH1 0x3 PUSH2 0x2BBC SWAP5 ADD SLOAD PUSH1 0x4 DUP5 ADD SLOAD SWAP1 PUSH2 0x2680 JUMP JUMPDEST TIMESTAMP GT SWAP1 JUMP JUMPDEST POP PUSH1 0x0 SWAP1 JUMP JUMPDEST PUSH1 0xE0 PUSH1 0x40 SWAP2 DUP3 MLOAD PUSH2 0x2BD7 DUP2 PUSH2 0x2328 JUMP JUMPDEST PUSH1 0x60 DUP2 MSTORE PUSH1 0x0 SWAP3 DUP2 DUP5 PUSH1 0x20 DUP2 SWAP5 ADD MSTORE DUP3 DUP7 DUP3 ADD MSTORE DUP3 PUSH1 0x60 DUP3 ADD MSTORE DUP3 PUSH1 0x80 DUP3 ADD MSTORE DUP3 PUSH1 0xA0 DUP3 ADD MSTORE DUP3 PUSH1 0xC0 DUP3 ADD MSTORE ADD MSTORE DUP3 PUSH2 0x2C25 DUP3 PUSH1 0x1 DUP1 PUSH1 0xA0 SHL SUB AND PUSH1 0x0 MSTORE PUSH1 0x7 PUSH1 0x20 MSTORE PUSH1 0x40 PUSH1 0x0 KECCAK256 SLOAD TIMESTAMP LT SWAP1 JUMP JUMPDEST PUSH2 0x2CAE JUMPI PUSH1 0xFF SWAP3 POP PUSH1 0x4 SWAP2 POP PUSH1 0x24 SWAP1 MLOAD PUSH4 0x46524545 PUSH1 0xE0 SHL DUP2 MSTORE PUSH1 0xE DUP4 DUP3 ADD MSTORE KECCAK256 DUP4 MLOAD SWAP4 PUSH2 0x2C52 DUP6 PUSH2 0x2328 JUMP JUMPDEST PUSH2 0x2C5B DUP3 PUSH2 0x2450 JUMP JUMPDEST DUP6 MSTORE PUSH1 0x1 DUP3 ADD SLOAD PUSH1 0x20 DUP7 ADD MSTORE PUSH1 0x2 DUP3 ADD SLOAD SWAP1 DUP6 ADD MSTORE PUSH1 0x3 DUP2 ADD SLOAD PUSH1 0x60 DUP6 ADD MSTORE ADD SLOAD DUP2 DUP2 AND ISZERO ISZERO PUSH1 0x80 DUP5 ADD MSTORE DUP2 DUP2 PUSH1 0x8 SHR AND ISZERO ISZERO PUSH1 0xA0 DUP5 ADD MSTORE DUP2 DUP2 PUSH1 0x10 SHR AND ISZERO ISZERO PUSH1 0xC0 DUP5 ADD MSTORE PUSH1 0x18 SHR AND ISZERO ISZERO PUSH1 0xE0 DUP3 ADD MSTORE SWAP1 JUMP JUMPDEST PUSH1 0x1 PUSH1 0x1 PUSH1 0xA0 SHL SUB SWAP1 SWAP2 AND DUP3 MSTORE PUSH1 0x6 PUSH1 0x20 MSTORE SWAP1 KECCAK256 DUP2 MLOAD SWAP2 PUSH1 0xFF SWAP2 PUSH1 0x4 SWAP2 PUSH2 0x2C52 DUP6 PUSH2 0x2328 JUMP JUMPDEST PUSH1 0x2 PUSH1 0x1 SLOAD EQ PUSH2 0x2CE5 JUMPI PUSH1 0x2 PUSH1 0x1 SSTORE JUMP JUMPDEST PUSH1 0x40 MLOAD PUSH4 0x3EE5AEB5 PUSH1 0xE0 SHL DUP2 MSTORE PUSH1 0x4 SWAP1 REVERT JUMPDEST PUSH1 0x0 SLOAD PUSH1 0x1 PUSH1 0x1 PUSH1 0xA0 SHL SUB AND CALLER SUB PUSH2 0x2D0B JUMPI JUMP JUMPDEST PUSH1 0x40 MLOAD PUSH4 0x118CDAA7 PUSH1 0xE0 SHL DUP2 MSTORE CALLER PUSH1 0x4 DUP3 ADD MSTORE PUSH1 0x24 SWAP1 REVERT JUMPDEST PUSH1 0xFF PUSH1 0x2 SLOAD AND PUSH2 0x2D2F JUMPI JUMP JUMPDEST PUSH1 0x40 MLOAD PUSH4 0xD93C0665 PUSH1 0xE0 SHL DUP2 MSTORE PUSH1 0x4 SWAP1 REVERT INVALID LOG2 PUSH5 0x6970667358 0x22 SLT KECCAK256 0x25 SWAP1 0xFC SWAP10 CALLDATASIZE 0xE1 0xBB SWAP12 0xC3 DUP8 BYTE 0x22 MULMOD SWAP13 0xA5 SUB 0xE7 OR 0xB3 PUSH23 0x3D1083BFDB94F2953B13146D64736F6C63430008180033 "
        },
        "methodIdentifiers": {
          "addGuardians(uint256,address[],uint256)": "583d259f",
          "addRecipient(uint256,address)": "8ab03929",
          "addUnlockStage(uint256,uint256,string,string)": "96bd9bfe",
          "cancelCapsule(uint256)": "c446bac1",
          "capsuleCounter()": "d2db53d7",
          "capsules(uint256)": "517bbf46",
          "checkIn(uint256)": "e95a644f",
          "createCapsule(uint8,uint8,uint256,string,string,address[],string)": "5d029843",
          "creationFees(uint8)": "0bb8cd4d",
          "deadMansSwitchFeePerYear()": "c21446c0",
          "emergencyWithdraw()": "db2e21bc",
          "enableDeadMansSwitch(uint256,uint256,uint256)": "d58e151b",
          "getCapsule(uint256)": "3aac3858",
          "getCapsuleStageCount(uint256)": "7465da76",
          "getNextCheckInDeadline(uint256)": "f426a6f4",
          "getUnlockedStages(uint256)": "56e4f84c",
          "getUserCapsules(address)": "366636f7",
          "getUserTier(address)": "e4d2620e",
          "guardianApprove(uint256)": "83519a92",
          "hasActiveSubscription(address)": "bebe4a57",
          "isDeadMansSwitchTriggered(uint256)": "7f33d619",
          "isUnlocked(uint256)": "72abc8b7",
          "multiRecipientFee()": "ddaa01c4",
          "owner()": "8da5cb5b",
          "pause()": "8456cb59",
          "paused()": "5c975abb",
          "platformFeePercent()": "8c639a85",
          "progressiveUnlockFee()": "a90f0c91",
          "purchaseSubscription(string)": "1d9b30c7",
          "renounceOwnership()": "715018a6",
          "subscriptionExpiry(address)": "60a85ef5",
          "tiers(string)": "fe551b05",
          "transferOwnership(address)": "f2fde38b",
          "treasury()": "61d027b3",
          "triggerDeadMansSwitch(uint256)": "7b707f01",
          "unlockStage(uint256,uint256)": "59be33c8",
          "unpause()": "3f4ba83a",
          "updatePricing(uint8,uint256)": "7389c630",
          "updateTreasury(address)": "7f51bb1f",
          "userCapsules(address,uint256)": "a0d79fb5",
          "userSubscriptions(address)": "cf14b9e4"
        }
      }
    }
  }
}