{
  "contracts/EchoVaultV3.sol": {
    "EchoVaultV3": {
      "abi": [
        {
          "inputs": [],
          "stateMutability": "nonpayable",
          "type": "constructor"
        },
        {
          "anonymous": false,
          "inputs": [
            {
              "indexed": true,
              "internalType": "address",
              "name": "admin",
              "type": "address"
            }
          ],
          "name": "AdminAdded",
          "type": "event"
        },
        {
          "anonymous": false,
          "inputs": [
            {
              "indexed": true,
              "internalType": "address",
              "name": "admin",
              "type": "address"
            }
          ],
          "name": "AdminRemoved",
          "type": "event"
        },
        {
          "anonymous": false,
          "inputs": [
            {
              "indexed": true,
              "internalType": "uint256",
              "name": "capsuleId",
              "type": "uint256"
            }
          ],
          "name": "CapsuleCancelled",
          "type": "event"
        },
        {
          "anonymous": false,
          "inputs": [
            {
              "indexed": true,
              "internalType": "uint256",
              "name": "capsuleId",
              "type": "uint256"
            },
            {
              "indexed": true,
              "internalType": "address",
              "name": "creator",
              "type": "address"
            },
            {
              "indexed": false,
              "internalType": "enum EchoVaultV3.CapsuleType",
              "name": "capsuleType",
              "type": "uint8"
            },
            {
              "indexed": false,
              "internalType": "enum EchoVaultV3.TriggerType",
              "name": "triggerType",
              "type": "uint8"
            },
            {
              "indexed": false,
              "internalType": "uint256",
              "name": "unlockTime",
              "type": "uint256"
            },
            {
              "indexed": false,
              "internalType": "uint256",
              "name": "heartbeatInterval",
              "type": "uint256"
            }
          ],
          "name": "CapsuleCreated",
          "type": "event"
        },
        {
          "anonymous": false,
          "inputs": [
            {
              "indexed": true,
              "internalType": "uint256",
              "name": "capsuleId",
              "type": "uint256"
            },
            {
              "indexed": true,
              "internalType": "address",
              "name": "unlocker",
              "type": "address"
            },
            {
              "indexed": false,
              "internalType": "bool",
              "name": "isEmergency",
              "type": "bool"
            }
          ],
          "name": "CapsuleUnlocked",
          "type": "event"
        },
        {
          "anonymous": false,
          "inputs": [
            {
              "indexed": true,
              "internalType": "uint256",
              "name": "capsuleId",
              "type": "uint256"
            },
            {
              "indexed": true,
              "internalType": "address",
              "name": "creator",
              "type": "address"
            }
          ],
          "name": "EmergencyUnlock",
          "type": "event"
        },
        {
          "anonymous": false,
          "inputs": [
            {
              "indexed": true,
              "internalType": "uint256",
              "name": "capsuleId",
              "type": "uint256"
            },
            {
              "indexed": true,
              "internalType": "address",
              "name": "checker",
              "type": "address"
            },
            {
              "indexed": false,
              "internalType": "uint256",
              "name": "timestamp",
              "type": "uint256"
            }
          ],
          "name": "HeartbeatCheckedIn",
          "type": "event"
        },
        {
          "anonymous": false,
          "inputs": [
            {
              "indexed": true,
              "internalType": "address",
              "name": "user",
              "type": "address"
            },
            {
              "indexed": false,
              "internalType": "enum EchoVaultV3.SubscriptionTier",
              "name": "tier",
              "type": "uint8"
            }
          ],
          "name": "UserTierUpdated",
          "type": "event"
        },
        {
          "inputs": [],
          "name": "MAX_FREE_CAPSULES",
          "outputs": [
            {
              "internalType": "uint256",
              "name": "",
              "type": "uint256"
            }
          ],
          "stateMutability": "view",
          "type": "function"
        },
        {
          "inputs": [],
          "name": "MAX_PREMIUM_CAPSULES",
          "outputs": [
            {
              "internalType": "uint256",
              "name": "",
              "type": "uint256"
            }
          ],
          "stateMutability": "view",
          "type": "function"
        },
        {
          "inputs": [],
          "name": "MAX_PRO_CAPSULES",
          "outputs": [
            {
              "internalType": "uint256",
              "name": "",
              "type": "uint256"
            }
          ],
          "stateMutability": "view",
          "type": "function"
        },
        {
          "inputs": [
            {
              "internalType": "address",
              "name": "_admin",
              "type": "address"
            }
          ],
          "name": "addAdmin",
          "outputs": [],
          "stateMutability": "nonpayable",
          "type": "function"
        },
        {
          "inputs": [
            {
              "internalType": "address",
              "name": "",
              "type": "address"
            }
          ],
          "name": "admins",
          "outputs": [
            {
              "internalType": "bool",
              "name": "",
              "type": "bool"
            }
          ],
          "stateMutability": "view",
          "type": "function"
        },
        {
          "inputs": [
            {
              "internalType": "uint256",
              "name": "_capsuleId",
              "type": "uint256"
            }
          ],
          "name": "cancelCapsule",
          "outputs": [],
          "stateMutability": "nonpayable",
          "type": "function"
        },
        {
          "inputs": [
            {
              "internalType": "uint256",
              "name": "",
              "type": "uint256"
            }
          ],
          "name": "capsuleMetadata",
          "outputs": [
            {
              "internalType": "string",
              "name": "",
              "type": "string"
            }
          ],
          "stateMutability": "view",
          "type": "function"
        },
        {
          "inputs": [
            {
              "internalType": "uint256",
              "name": "",
              "type": "uint256"
            },
            {
              "internalType": "uint256",
              "name": "",
              "type": "uint256"
            }
          ],
          "name": "capsuleStages",
          "outputs": [
            {
              "internalType": "string",
              "name": "ipfsHash",
              "type": "string"
            },
            {
              "internalType": "string",
              "name": "encryptedKeys",
              "type": "string"
            }
          ],
          "stateMutability": "view",
          "type": "function"
        },
        {
          "inputs": [
            {
              "internalType": "uint256",
              "name": "",
              "type": "uint256"
            }
          ],
          "name": "capsules",
          "outputs": [
            {
              "internalType": "uint256",
              "name": "id",
              "type": "uint256"
            },
            {
              "internalType": "address",
              "name": "creator",
              "type": "address"
            },
            {
              "internalType": "enum EchoVaultV3.CapsuleType",
              "name": "capsuleType",
              "type": "uint8"
            },
            {
              "internalType": "enum EchoVaultV3.TriggerType",
              "name": "triggerType",
              "type": "uint8"
            },
            {
              "internalType": "uint256",
              "name": "unlockTime",
              "type": "uint256"
            },
            {
              "internalType": "uint256",
              "name": "createdAt",
              "type": "uint256"
            },
            {
              "internalType": "bool",
              "name": "isUnlocked",
              "type": "bool"
            },
            {
              "internalType": "bool",
              "name": "isCancelled",
              "type": "bool"
            },
            {
              "internalType": "bool",
              "name": "isEmergencyUnlocked",
              "type": "bool"
            },
            {
              "internalType": "uint256",
              "name": "heartbeatInterval",
              "type": "uint256"
            },
            {
              "internalType": "uint256",
              "name": "lastCheckIn",
              "type": "uint256"
            }
          ],
          "stateMutability": "view",
          "type": "function"
        },
        {
          "inputs": [
            {
              "internalType": "uint256",
              "name": "_capsuleId",
              "type": "uint256"
            }
          ],
          "name": "checkIn",
          "outputs": [],
          "stateMutability": "nonpayable",
          "type": "function"
        },
        {
          "inputs": [
            {
              "internalType": "enum EchoVaultV3.CapsuleType",
              "name": "_capsuleType",
              "type": "uint8"
            },
            {
              "internalType": "enum EchoVaultV3.TriggerType",
              "name": "_triggerType",
              "type": "uint8"
            },
            {
              "internalType": "uint256",
              "name": "_unlockTime",
              "type": "uint256"
            },
            {
              "internalType": "string",
              "name": "_encryptedKeys",
              "type": "string"
            },
            {
              "internalType": "string",
              "name": "_ipfsHash",
              "type": "string"
            },
            {
              "internalType": "address[]",
              "name": "_recipients",
              "type": "address[]"
            },
            {
              "internalType": "string",
              "name": "_metadata",
              "type": "string"
            },
            {
              "internalType": "uint256",
              "name": "_heartbeatInterval",
              "type": "uint256"
            }
          ],
          "name": "createCapsule",
          "outputs": [
            {
              "internalType": "uint256",
              "name": "",
              "type": "uint256"
            }
          ],
          "stateMutability": "payable",
          "type": "function"
        },
        {
          "inputs": [
            {
              "internalType": "enum EchoVaultV3.CapsuleType",
              "name": "",
              "type": "uint8"
            }
          ],
          "name": "creationFees",
          "outputs": [
            {
              "internalType": "uint256",
              "name": "",
              "type": "uint256"
            }
          ],
          "stateMutability": "view",
          "type": "function"
        },
        {
          "inputs": [
            {
              "internalType": "uint256",
              "name": "_capsuleId",
              "type": "uint256"
            }
          ],
          "name": "emergencyUnlock",
          "outputs": [],
          "stateMutability": "nonpayable",
          "type": "function"
        },
        {
          "inputs": [
            {
              "internalType": "uint256",
              "name": "_capsuleId",
              "type": "uint256"
            }
          ],
          "name": "getCapsule",
          "outputs": [
            {
              "internalType": "uint256",
              "name": "",
              "type": "uint256"
            },
            {
              "internalType": "address",
              "name": "",
              "type": "address"
            },
            {
              "internalType": "enum EchoVaultV3.CapsuleType",
              "name": "",
              "type": "uint8"
            },
            {
              "internalType": "enum EchoVaultV3.TriggerType",
              "name": "",
              "type": "uint8"
            },
            {
              "internalType": "uint256",
              "name": "",
              "type": "uint256"
            },
            {
              "internalType": "uint256",
              "name": "",
              "type": "uint256"
            },
            {
              "internalType": "address[]",
              "name": "",
              "type": "address[]"
            },
            {
              "internalType": "bool",
              "name": "",
              "type": "bool"
            },
            {
              "internalType": "bool",
              "name": "",
              "type": "bool"
            },
            {
              "internalType": "bool",
              "name": "",
              "type": "bool"
            },
            {
              "internalType": "uint256",
              "name": "",
              "type": "uint256"
            },
            {
              "internalType": "uint256",
              "name": "",
              "type": "uint256"
            }
          ],
          "stateMutability": "view",
          "type": "function"
        },
        {
          "inputs": [
            {
              "internalType": "uint256",
              "name": "_capsuleId",
              "type": "uint256"
            }
          ],
          "name": "getUnlockedStages",
          "outputs": [
            {
              "components": [
                {
                  "internalType": "string",
                  "name": "ipfsHash",
                  "type": "string"
                },
                {
                  "internalType": "string",
                  "name": "encryptedKeys",
                  "type": "string"
                }
              ],
              "internalType": "struct EchoVaultV3.UnlockStage[]",
              "name": "",
              "type": "tuple[]"
            }
          ],
          "stateMutability": "view",
          "type": "function"
        },
        {
          "inputs": [
            {
              "internalType": "address",
              "name": "_user",
              "type": "address"
            }
          ],
          "name": "getUserCapsules",
          "outputs": [
            {
              "internalType": "uint256[]",
              "name": "",
              "type": "uint256[]"
            }
          ],
          "stateMutability": "view",
          "type": "function"
        },
        {
          "inputs": [
            {
              "internalType": "address",
              "name": "_address",
              "type": "address"
            }
          ],
          "name": "isAdmin",
          "outputs": [
            {
              "internalType": "bool",
              "name": "",
              "type": "bool"
            }
          ],
          "stateMutability": "view",
          "type": "function"
        },
        {
          "inputs": [
            {
              "internalType": "uint256",
              "name": "_capsuleId",
              "type": "uint256"
            }
          ],
          "name": "isUnlocked",
          "outputs": [
            {
              "internalType": "bool",
              "name": "",
              "type": "bool"
            }
          ],
          "stateMutability": "view",
          "type": "function"
        },
        {
          "inputs": [],
          "name": "owner",
          "outputs": [
            {
              "internalType": "address",
              "name": "",
              "type": "address"
            }
          ],
          "stateMutability": "view",
          "type": "function"
        },
        {
          "inputs": [
            {
              "internalType": "address",
              "name": "_admin",
              "type": "address"
            }
          ],
          "name": "removeAdmin",
          "outputs": [],
          "stateMutability": "nonpayable",
          "type": "function"
        },
        {
          "inputs": [],
          "name": "totalCapsules",
          "outputs": [
            {
              "internalType": "uint256",
              "name": "",
              "type": "uint256"
            }
          ],
          "stateMutability": "view",
          "type": "function"
        },
        {
          "inputs": [
            {
              "internalType": "enum EchoVaultV3.CapsuleType",
              "name": "_type",
              "type": "uint8"
            },
            {
              "internalType": "uint256",
              "name": "_fee",
              "type": "uint256"
            }
          ],
          "name": "updatePricing",
          "outputs": [],
          "stateMutability": "nonpayable",
          "type": "function"
        },
        {
          "inputs": [
            {
              "internalType": "address",
              "name": "_user",
              "type": "address"
            },
            {
              "internalType": "enum EchoVaultV3.SubscriptionTier",
              "name": "_tier",
              "type": "uint8"
            }
          ],
          "name": "updateUserTier",
          "outputs": [],
          "stateMutability": "nonpayable",
          "type": "function"
        },
        {
          "inputs": [
            {
              "internalType": "address",
              "name": "",
              "type": "address"
            },
            {
              "internalType": "uint256",
              "name": "",
              "type": "uint256"
            }
          ],
          "name": "userCapsules",
          "outputs": [
            {
              "internalType": "uint256",
              "name": "",
              "type": "uint256"
            }
          ],
          "stateMutability": "view",
          "type": "function"
        },
        {
          "inputs": [
            {
              "internalType": "address",
              "name": "",
              "type": "address"
            }
          ],
          "name": "userTiers",
          "outputs": [
            {
              "internalType": "enum EchoVaultV3.SubscriptionTier",
              "name": "",
              "type": "uint8"
            }
          ],
          "stateMutability": "view",
          "type": "function"
        },
        {
          "inputs": [],
          "name": "withdraw",
          "outputs": [],
          "stateMutability": "nonpayable",
          "type": "function"
        },
        {
          "stateMutability": "payable",
          "type": "receive"
        }
      ],
      "evm": {
        "bytecode": {
          "linkReferences": {},
          "object": "608080604052346100de57600880546001600160a01b03191633179055600760205267016345785d8a00007f6d5257204ebe7d88fd91ae87941cb2dd9d8062b64ae5a2bd2d28ec40b9fbf6df556702c68af0bb1400007fb39221ace053465ec3453ce2b36430bd138b997ecea25c1043da0c366812b828556706f05b59d3b200007fb7c774451310d1be4108bc180d1b52823cb0ee0274a6c0081bcaf94f115fb96d556003600052670214e8348c4f00007f3be6fd20d5acfde5b873b48692cd31f4d3c7e8ee8a813af4696af8859e5ca6c655611e9190816100e48239f35b600080fdfe6080604052600436101561001b575b361561001957600080fd5b005b60003560e01c80630bb8cd4d146118a65780630db08dbb14610ee05780630e09160e14610ec45780631785f53c14610e53578063224646dc14610e3757806324063c8214610df557806324d7806c14610d9d578063366636f714610ce95780633aac385814610acc5780633ccfd60b14610a79578063429b62e514610a3a57806344762d76146109fa578063517bbf461461093d57806356e4f84c146107d5578063704802751461072457806372abc8b7146106fc5780637389c630146106bb5780638da5cb5b146106925780639a6cff1c146105aa578063a0d79fb514610551578063b079331314610452578063b49ce17f14610434578063c446bac114610326578063cf1dba66146102ad578063d674e192146102915763e95a644f0361000e573461028c5760208060031936011261028c57600435806000526000825261017660018060a01b03600160406000200154163314611dda565b8060005260008252604060002060ff6005820154610199828260081c1615611e18565b166102475760ff600182015460a81c166002811015610231576001036101ec576007429101557f4a01bfc7a5991d2cb940c64b2fb1dcd8e5bc580108ed8727d01320af671e80bb604051924284523393a3005b60405162461bcd60e51b815260048101849052601760248201527f4e6f742061206865617274626561742063617073756c650000000000000000006044820152606490fd5b634e487b7160e01b600052602160045260246000fd5b60405162461bcd60e51b815260048101849052601860248201527f43617073756c6520616c726561647920756e6c6f636b656400000000000000006044820152606490fd5b600080fd5b3461028c57600036600319011261028c57602060405160648152f35b3461028c57604036600319011261028c5760243560043560005260016020526040600020805482101561028c57610314916102e791611b45565b5061032261030060016102f984611a32565b9301611a32565b604051938493604085526040850190611ad7565b908382036020850152611ad7565b0390f35b3461028c57602036600319011261028c5760043580600052600060205261035e60018060a01b03600160406000200154163314611dda565b8060005260006020526005604060002001805460ff81166103ef5760ff8160081c166103b65761ff0019166101001790557f17922d653f81c4d4a6b9e3ed39d33f40f66d9baca3f3541c71a058580beee70c600080a2005b60405162461bcd60e51b8152602060048201526011602482015270105b1c9958591e4818d85b98d95b1b1959607a1b6044820152606490fd5b60405162461bcd60e51b815260206004820152601e60248201527f43616e6e6f742063616e63656c20756e6c6f636b65642063617073756c6500006044820152606490fd5b3461028c57600036600319011261028c576020600654604051908152f35b3461028c57602036600319011261028c5760043580600052600060205261048a60018060a01b03600160406000200154163314611dda565b806000526000602052600560406000200180546104ad60ff8260081c1615611e18565b60ff81166105195762ff00ff1916620100011790556040519033817f207e7c8891233726262fbf1d4ff217a34c75716418ef79ed734adca0ea9a2256600080a3600182527f72f2840008c6eeb7f9666aa9a8444be77c147559560b0048ed72c1e3c2b84b3b60203393a3005b60405162461bcd60e51b815260206004820152601060248201526f105b1c9958591e481d5b9b1bd8dad95960821b6044820152606490fd5b3461028c57604036600319011261028c5761056a6119b5565b6001600160a01b031660009081526003602052604090208054602435919082101561028c5760209161059b91611b17565b90549060031b1c604051908152f35b3461028c57604036600319011261028c576105c36119b5565b60243590600382101561028c5733600052600560205260ff60406000205416801561067e575b15610648576106437f2c5058e6b62e3a051b49924004ba426cffa04fb4ab6788a057ca44c2da3c8f559160018060a01b031692836000526004602052604060002060ff1981541660ff8316179055604051918291826119cb565b0390a2005b60405162461bcd60e51b815260206004820152600e60248201526d139bdd08185d5d1a1bdc9a5e995960921b6044820152606490fd5b506008546001600160a01b031633146105e9565b3461028c57600036600319011261028c576008546040516001600160a01b039091168152602090f35b3461028c57604036600319011261028c57600435600481101561028c576106ed60018060a01b03600854163314611bd4565b6106f9602435916118d7565b55005b3461028c57602036600319011261028c57602061071a600435611c20565b6040519015158152f35b3461028c57602036600319011261028c5761073d6119b5565b6008546001600160a01b0391906107579083163314611bd4565b16801561079e578060005260056020526040600020600160ff198254161790557f44d6d25963f097ad14f29f06854a01f575648a1ef82f30e562ccd3889717e339600080a2005b60405162461bcd60e51b815260206004820152600f60248201526e496e76616c6964206164647265737360881b6044820152606490fd5b3461028c5760208060031936011261028c576004356107f381611c20565b1561090157600052600190600181526040600020918254916108148361199e565b926108226040519485611927565b8084528184018095600052826000206000915b8383106108bd5750505050604051928184019082855251809152604084019160408260051b86010195926000905b8382106108705786880387f35b909192939483806108ac839a603f198b82030186528951908361089c8351604084526040840190611ad7565b9201519084818403910152611ad7565b999701959493919091019101610863565b946002858299976040999799516108d38161190c565b6108dc86611a32565b81526108e9858701611a32565b83820152815201920192019190969496959395610835565b60405162461bcd60e51b815260048101839052601460248201527310d85c1cdd5b19481b9bdd081d5b9b1bd8dad95960621b6044820152606490fd5b3461028c57602036600319011261028c576004356000526000602052610160604060002080549060018101549060ff600282015460038301546005840154916109bf600760068701549601549660405198895260018060a01b03811660208a01526109b060408a01878360a01c166119de565b8560608a019160a81c166119eb565b608087015260a0860152818116151560c0860152818160081c16151560e086015260101c161515610100840152610120830152610140820152f35b3461028c57602036600319011261028c576004356000526002602052610322610a266040600020611a32565b604051918291602083526020830190611ad7565b3461028c57602036600319011261028c576001600160a01b03610a5b6119b5565b166000526005602052602060ff604060002054166040519015158152f35b3461028c57600036600319011261028c57600080808060018060a01b0360085416610aa5813314611bd4565b4790828215610ac3575bf115610ab757005b6040513d6000823e3d90fd5b506108fc610aaf565b3461028c57602036600319011261028c5760043560005260006020526040600020604051610af9816118f0565b8154815260018201546001600160a01b0381166020830152610b389060ff90610b2b60a082901c831660408601611ba5565b60a81c1660608301611bb1565b60028201546080820152600382015460a08201526004820191604051806020855491828152019460005260206000209060005b818110610cca57505050610b8481600794950382611927565b60c084015260ff6005820154818116151560e0860152818160081c16151561010086015260101c1615156101208401526006810154610140840152015461016082015280519060018060a01b03602082015116604082015191600483101561023157606081015190600282101561023157608081015160a082015160c08301519460e0840151151590610100850151151592610120860151151594610140870151966101600151976040519a61018094858d019d8d5260208d015260408c01610c4c916119de565b60608b01610c59916119eb565b60808a015260a089015260c088015285518098526101a08701956020016000985b808a10610ca757505086975060e08701526101008601526101208501526101408401526101608301520390f35b81516001600160a01b031688526001999099019860209788019790910190610c7a565b82546001600160a01b0316875260209096019560019283019201610b6b565b3461028c5760208060031936011261028c576001600160a01b03610d0b6119b5565b1660005260038152604060002060405190818382549182815201908192600052846000209060005b86828210610d89578686610d4982880383611927565b604051928392818401908285525180915260408401929160005b828110610d7257505050500390f35b835185528695509381019392810192600101610d63565b835485529093019260019283019201610d33565b3461028c57602036600319011261028c5760206001600160a01b0380610dc16119b5565b16806000526005835260ff60406000205416918215610de7575b50506040519015158152f35b600854161490508280610ddb565b3461028c57602036600319011261028c576001600160a01b03610e166119b5565b16600052600460205261032260ff60406000205416604051918291826119cb565b3461028c57600036600319011261028c576020604051600a8152f35b3461028c57602036600319011261028c57610e6c6119b5565b6008546001600160a01b039190610e869083163314611bd4565b16806000526005602052604060002060ff1981541690557fa3b62bc36326052d97ea62d63c3d60308ed4c3ea8ac079dd8499f1e9c4f80c0f600080a2005b3461028c57600036600319011261028c57602060405160018152f35b61010036600319011261028c5760048035101561028c576002602435101561028c576064356001600160401b03811161028c57610f21903690600401611948565b6084356001600160401b03811161028c57610f40903690600401611948565b9060a435916001600160401b03831161028c573660238401121561028c57826004013592610f6d8461199e565b93610f7b6040519586611927565b80855260208501913660248360051b8301011161028c579160248301925b60248360051b820101841061187f575050505060c4356001600160401b03811161028c57610fcb903690600401611948565b9183511561183a57610fde6004356118d7565b5434106117f55733600052600460205260ff60406000205416600360205260406000205490600381101561023157806117bb5750600161101e9110611b61565b602435611712574260443511156116cd5760e435611674575b60065493600019851461165e5760018501600655604051611057816118f0565b600186018152602081019133835261107460043560408401611ba5565b61108360243560608401611bb1565b60443560808301524260a083015260c0820152600060e08201526000610100820152600061012082015260e435610140820152426101608201526001860160005260006020526040600020918151835560018060a01b03905116600183015490604083015190600482101561023157606084015160028110156102315760ff60a81b9060a81b169269ffffffffffffffffffff60b01b16179060ff60a01b9060a01b16171760018301556080810151600283015560a0810151600383015560c08101518051906001600160401b03821161149b57600160401b821161149b57602090600485015483600487015580841061163e575b500160048401600052602060002060005b83811061162157505050506101606007916005840160e08201511515815461ff00610100850151151560081b169060ff62ff0000610120870151151560101b1693169062ffffff191617171790556101408101516006850155015191015533600052600360205260406000208054600160401b81101561149b5761121291600182018155611b17565b81549060031b9060018701821b91600019901b1916179055604051916112378361190c565b8252602082015260018301600052600160205260406000208054600160401b81101561149b5761126c91600182018155611b45565b91909161160b5780518051906001600160401b03821161149b5761129084546119f8565b601f81116115d9575b50602090601f831160011461156c57602093929160009183611561575b50508160011b916000199060031b1c19161783555b01518051906001600160401b03821161149b576112eb60018401546119f8565b601f811161152c575b50602090601f83116001146114bc5760019291600091836114b1575b5050600019600383901b1c191690821b179101555b6001820160005260026020526040600020918151926001600160401b03841161149b5760209361135582546119f8565b601f8111611460575b5084601f82116001146113fa57819293946000926113ef575b50508160011b916000199060031b1c19161790555b60405161139b816004356119de565b6113a98382016024356119eb565b604435604082015260e435606082015233907f6ee80eee06ad783b22addb627af53564ff50aa18f2952c368ec3b6f273ee0d2e60806001850192a3600160405191018152f35b015190508580611377565b82600052856000209060005b601f19841681106114495750600193949583601f19811610611430575b505050811b01905561138c565b015160001960f88460031b161c19169055858080611423565b90918760018192858a015181550193019101611406565b61148b908360005286600020601f840160051c810191888510611491575b601f0160051c0190611bbd565b8561135e565b909150819061147e565b634e487b7160e01b600052604160045260246000fd5b015190508680611310565b906001840160005260206000209160005b601f19851681106115145750918391600194938594601f198116106114fb575b505050811b01910155611325565b015160001960f88460031b161c191690558680806114ed565b919260206001819286850151815501940192016114cd565b61155b90600185016000526020600020601f850160051c8101916020861061149157601f0160051c0190611bbd565b856112f4565b0151905087806112b6565b908460005260206000209160005b601f19851681106115c1575091839160019360209695601f198116106115a8575b505050811b0183556112cb565b015160001960f88460031b161c1916905587808061159b565b9192602060018192868501518155019401920161157a565b61160590856000526020600020601f850160051c8101916020861061149157601f0160051c0190611bbd565b86611299565b634e487b7160e01b600052600060045260246000fd5b82516001600160a01b031681830155602090920191600101611189565b611658906004870160005284846000209182019101611bbd565b89611178565b634e487b7160e01b600052601160045260246000fd5b60405162461bcd60e51b815260206004820152602b60248201527f48656172746265617420696e74657276616c206d757374206265203020666f7260448201526a081d1a5b594b58985cd95960aa1b6064820152608490fd5b60405162461bcd60e51b815260206004820152601d60248201527f556e6c6f636b2074696d65206d75737420626520696e206675747572650000006044820152606490fd5b6001602435036110375760e43515611776576201518060e43510156110375760405162461bcd60e51b815260206004820152601c60248201527f48656172746265617420696e74657276616c20746f6f2073686f7274000000006044820152606490fd5b60405162461bcd60e51b815260206004820152601b60248201527f48656172746265617420696e74657276616c20726571756972656400000000006044820152606490fd5b600181036117d55750600a6117d09110611b61565b61101e565b6002146117e3575b5061101e565b60646117ef9110611b61565b846117dd565b60405162461bcd60e51b815260206004820152601960248201527f496e73756666696369656e74206372656174696f6e20666565000000000000006044820152606490fd5b60405162461bcd60e51b815260206004820152601f60248201527f4174206c65617374206f6e6520726563697069656e74207265717569726564006044820152606490fd5b83356001600160a01b038116900361028c5760208060249386358152019401939150610f99565b3461028c57602036600319011261028c57600435600481101561028c576118ce6020916118d7565b54604051908152f35b6004811015610231576000526007602052604060002090565b61018081019081106001600160401b0382111761149b57604052565b604081019081106001600160401b0382111761149b57604052565b90601f801991011681019081106001600160401b0382111761149b57604052565b81601f8201121561028c578035906001600160401b03821161149b576040519261197c601f8401601f191660200185611927565b8284526020838301011161028c57816000926020809301838601378301015290565b6001600160401b03811161149b5760051b60200190565b600435906001600160a01b038216820361028c57565b9190602083019260038210156102315752565b9060048210156102315752565b9060028210156102315752565b90600182811c92168015611a28575b6020831014611a1257565b634e487b7160e01b600052602260045260246000fd5b91607f1691611a07565b90604051918260008254611a45816119f8565b90818452602094600191600181169081600014611ab55750600114611a76575b505050611a7492500383611927565b565b600090815285812095935091905b818310611a9d575050611a749350820101388080611a65565b85548884018501529485019487945091830191611a84565b92505050611a7494925060ff191682840152151560051b820101388080611a65565b919082519283825260005b848110611b03575050826000602080949584010152601f8019910116010190565b602081830181015184830182015201611ae2565b8054821015611b2f5760005260206000200190600090565b634e487b7160e01b600052603260045260246000fd5b8054821015611b2f5760005260206000209060011b0190600090565b15611b6857565b60405162461bcd60e51b815260206004820152601560248201527410d85c1cdd5b19481b1a5b5a5d081c995858da1959605a1b6044820152606490fd5b60048210156102315752565b60028210156102315752565b818110611bc8575050565b60008155600101611bbd565b15611bdb57565b60405162461bcd60e51b815260206004820152601860248201527f4f6e6c79206f776e65722063616e2063616c6c207468697300000000000000006044820152606490fd5b6000908152602090806020526040812090604051611c3d816118f0565b825481526001808401546001600160a01b03808216602085015295909190611c6f60a084901c60ff1660408601611ba5565b611c8360ff606086019460a81c1684611bb1565b60028601549660808501978852600387015460a08601526004870160405193848593602084549283815201938a5260208a20958a915b838310611dc0575050505050611cd192500382611927565b60c0830152600584015460ff81161515908160e085015260ff808260081c161515918261010087015260101c1615156101208501526101606007600688015497610140870198895201549401938452611db757611dad5780516002811015611d9957611d4257505050505142101590565b9091929350516002811015611d8557600114611d5e5750905090565b5191518201809211611d71575042101590565b634e487b7160e01b81526011600452602490fd5b634e487b7160e01b83526021600452602483fd5b634e487b7160e01b84526021600452602484fd5b5050505050600190565b50505091505090565b875481168652968401968896509481019491840191611cb9565b15611de157565b60405162461bcd60e51b815260206004820152600f60248201526e2737ba103a34329031b932b0ba37b960891b6044820152606490fd5b15611e1f57565b60405162461bcd60e51b815260206004820152601460248201527310d85c1cdd5b19481a5cc818d85b98d95b1b195960621b6044820152606490fdfea26469706673582212202662756483e59f10621d7fb61624fb2d8ca28aab3daac9bd7998078bc7e01d1d64736f6c63430008180033",
          "opcodes": "PUSH1 0x80 DUP1 PUSH1 0x40 MSTORE CALLVALUE PUSH2 0xDE JUMPI PUSH1 0x8 DUP1 SLOAD PUSH1 0x1 PUSH1 0x1 PUSH1 0xA0 SHL SUB NOT AND CALLER OR SWAP1 SSTORE PUSH1 0x7 PUSH1 0x20 MSTORE PUSH8 0x16345785D8A0000 PUSH32 0x6D5257204EBE7D88FD91AE87941CB2DD9D8062B64AE5A2BD2D28EC40B9FBF6DF SSTORE PUSH8 0x2C68AF0BB140000 PUSH32 0xB39221ACE053465EC3453CE2B36430BD138B997ECEA25C1043DA0C366812B828 SSTORE PUSH8 0x6F05B59D3B20000 PUSH32 0xB7C774451310D1BE4108BC180D1B52823CB0EE0274A6C0081BCAF94F115FB96D SSTORE PUSH1 0x3 PUSH1 0x0 MSTORE PUSH8 0x214E8348C4F0000 PUSH32 0x3BE6FD20D5ACFDE5B873B48692CD31F4D3C7E8EE8A813AF4696AF8859E5CA6C6 SSTORE PUSH2 0x1E91 SWAP1 DUP2 PUSH2 0xE4 DUP3 CODECOPY RETURN JUMPDEST PUSH1 0x0 DUP1 REVERT INVALID PUSH1 0x80 PUSH1 0x40 MSTORE PUSH1 0x4 CALLDATASIZE LT ISZERO PUSH2 0x1B JUMPI JUMPDEST CALLDATASIZE ISZERO PUSH2 0x19 JUMPI PUSH1 0x0 DUP1 REVERT JUMPDEST STOP JUMPDEST PUSH1 0x0 CALLDATALOAD PUSH1 0xE0 SHR DUP1 PUSH4 0xBB8CD4D EQ PUSH2 0x18A6 JUMPI DUP1 PUSH4 0xDB08DBB EQ PUSH2 0xEE0 JUMPI DUP1 PUSH4 0xE09160E EQ PUSH2 0xEC4 JUMPI DUP1 PUSH4 0x1785F53C EQ PUSH2 0xE53 JUMPI DUP1 PUSH4 0x224646DC EQ PUSH2 0xE37 JUMPI DUP1 PUSH4 0x24063C82 EQ PUSH2 0xDF5 JUMPI DUP1 PUSH4 0x24D7806C EQ PUSH2 0xD9D JUMPI DUP1 PUSH4 0x366636F7 EQ PUSH2 0xCE9 JUMPI DUP1 PUSH4 0x3AAC3858 EQ PUSH2 0xACC JUMPI DUP1 PUSH4 0x3CCFD60B EQ PUSH2 0xA79 JUMPI DUP1 PUSH4 0x429B62E5 EQ PUSH2 0xA3A JUMPI DUP1 PUSH4 0x44762D76 EQ PUSH2 0x9FA JUMPI DUP1 PUSH4 0x517BBF46 EQ PUSH2 0x93D JUMPI DUP1 PUSH4 0x56E4F84C EQ PUSH2 0x7D5 JUMPI DUP1 PUSH4 0x70480275 EQ PUSH2 0x724 JUMPI DUP1 PUSH4 0x72ABC8B7 EQ PUSH2 0x6FC JUMPI DUP1 PUSH4 0x7389C630 EQ PUSH2 0x6BB JUMPI DUP1 PUSH4 0x8DA5CB5B EQ PUSH2 0x692 JUMPI DUP1 PUSH4 0x9A6CFF1C EQ PUSH2 0x5AA JUMPI DUP1 PUSH4 0xA0D79FB5 EQ PUSH2 0x551 JUMPI DUP1 PUSH4 0xB0793313 EQ PUSH2 0x452 JUMPI DUP1 PUSH4 0xB49CE17F EQ PUSH2 0x434 JUMPI DUP1 PUSH4 0xC446BAC1 EQ PUSH2 0x326 JUMPI DUP1 PUSH4 0xCF1DBA66 EQ PUSH2 0x2AD JUMPI DUP1 PUSH4 0xD674E192 EQ PUSH2 0x291 JUMPI PUSH4 0xE95A644F SUB PUSH2 0xE JUMPI CALLVALUE PUSH2 0x28C JUMPI PUSH1 0x20 DUP1 PUSH1 0x3 NOT CALLDATASIZE ADD SLT PUSH2 0x28C JUMPI PUSH1 0x4 CALLDATALOAD DUP1 PUSH1 0x0 MSTORE PUSH1 0x0 DUP3 MSTORE PUSH2 0x176 PUSH1 0x1 DUP1 PUSH1 0xA0 SHL SUB PUSH1 0x1 PUSH1 0x40 PUSH1 0x0 KECCAK256 ADD SLOAD AND CALLER EQ PUSH2 0x1DDA JUMP JUMPDEST DUP1 PUSH1 0x0 MSTORE PUSH1 0x0 DUP3 MSTORE PUSH1 0x40 PUSH1 0x0 KECCAK256 PUSH1 0xFF PUSH1 0x5 DUP3 ADD SLOAD PUSH2 0x199 DUP3 DUP3 PUSH1 0x8 SHR AND ISZERO PUSH2 0x1E18 JUMP JUMPDEST AND PUSH2 0x247 JUMPI PUSH1 0xFF PUSH1 0x1 DUP3 ADD SLOAD PUSH1 0xA8 SHR AND PUSH1 0x2 DUP2 LT ISZERO PUSH2 0x231 JUMPI PUSH1 0x1 SUB PUSH2 0x1EC JUMPI PUSH1 0x7 TIMESTAMP SWAP2 ADD SSTORE PUSH32 0x4A01BFC7A5991D2CB940C64B2FB1DCD8E5BC580108ED8727D01320AF671E80BB PUSH1 0x40 MLOAD SWAP3 TIMESTAMP DUP5 MSTORE CALLER SWAP4 LOG3 STOP JUMPDEST PUSH1 0x40 MLOAD PUSH3 0x461BCD PUSH1 0xE5 SHL DUP2 MSTORE PUSH1 0x4 DUP2 ADD DUP5 SWAP1 MSTORE PUSH1 0x17 PUSH1 0x24 DUP3 ADD MSTORE PUSH32 0x4E6F742061206865617274626561742063617073756C65000000000000000000 PUSH1 0x44 DUP3 ADD MSTORE PUSH1 0x64 SWAP1 REVERT JUMPDEST PUSH4 0x4E487B71 PUSH1 0xE0 SHL PUSH1 0x0 MSTORE PUSH1 0x21 PUSH1 0x4 MSTORE PUSH1 0x24 PUSH1 0x0 REVERT JUMPDEST PUSH1 0x40 MLOAD PUSH3 0x461BCD PUSH1 0xE5 SHL DUP2 MSTORE PUSH1 0x4 DUP2 ADD DUP5 SWAP1 MSTORE PUSH1 0x18 PUSH1 0x24 DUP3 ADD MSTORE PUSH32 0x43617073756C6520616C726561647920756E6C6F636B65640000000000000000 PUSH1 0x44 DUP3 ADD MSTORE PUSH1 0x64 SWAP1 REVERT JUMPDEST PUSH1 0x0 DUP1 REVERT JUMPDEST CALLVALUE PUSH2 0x28C JUMPI PUSH1 0x0 CALLDATASIZE PUSH1 0x3 NOT ADD SLT PUSH2 0x28C JUMPI PUSH1 0x20 PUSH1 0x40 MLOAD PUSH1 0x64 DUP2 MSTORE RETURN JUMPDEST CALLVALUE PUSH2 0x28C JUMPI PUSH1 0x40 CALLDATASIZE PUSH1 0x3 NOT ADD SLT PUSH2 0x28C JUMPI PUSH1 0x24 CALLDATALOAD PUSH1 0x4 CALLDATALOAD PUSH1 0x0 MSTORE PUSH1 0x1 PUSH1 0x20 MSTORE PUSH1 0x40 PUSH1 0x0 KECCAK256 DUP1 SLOAD DUP3 LT ISZERO PUSH2 0x28C JUMPI PUSH2 0x314 SWAP2 PUSH2 0x2E7 SWAP2 PUSH2 0x1B45 JUMP JUMPDEST POP PUSH2 0x322 PUSH2 0x300 PUSH1 0x1 PUSH2 0x2F9 DUP5 PUSH2 0x1A32 JUMP JUMPDEST SWAP4 ADD PUSH2 0x1A32 JUMP JUMPDEST PUSH1 0x40 MLOAD SWAP4 DUP5 SWAP4 PUSH1 0x40 DUP6 MSTORE PUSH1 0x40 DUP6 ADD SWAP1 PUSH2 0x1AD7 JUMP JUMPDEST SWAP1 DUP4 DUP3 SUB PUSH1 0x20 DUP6 ADD MSTORE PUSH2 0x1AD7 JUMP JUMPDEST SUB SWAP1 RETURN JUMPDEST CALLVALUE PUSH2 0x28C JUMPI PUSH1 0x20 CALLDATASIZE PUSH1 0x3 NOT ADD SLT PUSH2 0x28C JUMPI PUSH1 0x4 CALLDATALOAD DUP1 PUSH1 0x0 MSTORE PUSH1 0x0 PUSH1 0x20 MSTORE PUSH2 0x35E PUSH1 0x1 DUP1 PUSH1 0xA0 SHL SUB PUSH1 0x1 PUSH1 0x40 PUSH1 0x0 KECCAK256 ADD SLOAD AND CALLER EQ PUSH2 0x1DDA JUMP JUMPDEST DUP1 PUSH1 0x0 MSTORE PUSH1 0x0 PUSH1 0x20 MSTORE PUSH1 0x5 PUSH1 0x40 PUSH1 0x0 KECCAK256 ADD DUP1 SLOAD PUSH1 0xFF DUP2 AND PUSH2 0x3EF JUMPI PUSH1 0xFF DUP2 PUSH1 0x8 SHR AND PUSH2 0x3B6 JUMPI PUSH2 0xFF00 NOT AND PUSH2 0x100 OR SWAP1 SSTORE PUSH32 0x17922D653F81C4D4A6B9E3ED39D33F40F66D9BACA3F3541C71A058580BEEE70C PUSH1 0x0 DUP1 LOG2 STOP JUMPDEST PUSH1 0x40 MLOAD PUSH3 0x461BCD PUSH1 0xE5 SHL DUP2 MSTORE PUSH1 0x20 PUSH1 0x4 DUP3 ADD MSTORE PUSH1 0x11 PUSH1 0x24 DUP3 ADD MSTORE PUSH17 0x105B1C9958591E4818D85B98D95B1B1959 PUSH1 0x7A SHL PUSH1 0x44 DUP3 ADD MSTORE PUSH1 0x64 SWAP1 REVERT JUMPDEST PUSH1 0x40 MLOAD PUSH3 0x461BCD PUSH1 0xE5 SHL DUP2 MSTORE PUSH1 0x20 PUSH1 0x4 DUP3 ADD MSTORE PUSH1 0x1E PUSH1 0x24 DUP3 ADD MSTORE PUSH32 0x43616E6E6F742063616E63656C20756E6C6F636B65642063617073756C650000 PUSH1 0x44 DUP3 ADD MSTORE PUSH1 0x64 SWAP1 REVERT JUMPDEST CALLVALUE PUSH2 0x28C JUMPI PUSH1 0x0 CALLDATASIZE PUSH1 0x3 NOT ADD SLT PUSH2 0x28C JUMPI PUSH1 0x20 PUSH1 0x6 SLOAD PUSH1 0x40 MLOAD SWAP1 DUP2 MSTORE RETURN JUMPDEST CALLVALUE PUSH2 0x28C JUMPI PUSH1 0x20 CALLDATASIZE PUSH1 0x3 NOT ADD SLT PUSH2 0x28C JUMPI PUSH1 0x4 CALLDATALOAD DUP1 PUSH1 0x0 MSTORE PUSH1 0x0 PUSH1 0x20 MSTORE PUSH2 0x48A PUSH1 0x1 DUP1 PUSH1 0xA0 SHL SUB PUSH1 0x1 PUSH1 0x40 PUSH1 0x0 KECCAK256 ADD SLOAD AND CALLER EQ PUSH2 0x1DDA JUMP JUMPDEST DUP1 PUSH1 0x0 MSTORE PUSH1 0x0 PUSH1 0x20 MSTORE PUSH1 0x5 PUSH1 0x40 PUSH1 0x0 KECCAK256 ADD DUP1 SLOAD PUSH2 0x4AD PUSH1 0xFF DUP3 PUSH1 0x8 SHR AND ISZERO PUSH2 0x1E18 JUMP JUMPDEST PUSH1 0xFF DUP2 AND PUSH2 0x519 JUMPI PUSH3 0xFF00FF NOT AND PUSH3 0x10001 OR SWAP1 SSTORE PUSH1 0x40 MLOAD SWAP1 CALLER DUP2 PUSH32 0x207E7C8891233726262FBF1D4FF217A34C75716418EF79ED734ADCA0EA9A2256 PUSH1 0x0 DUP1 LOG3 PUSH1 0x1 DUP3 MSTORE PUSH32 0x72F2840008C6EEB7F9666AA9A8444BE77C147559560B0048ED72C1E3C2B84B3B PUSH1 0x20 CALLER SWAP4 LOG3 STOP JUMPDEST PUSH1 0x40 MLOAD PUSH3 0x461BCD PUSH1 0xE5 SHL DUP2 MSTORE PUSH1 0x20 PUSH1 0x4 DUP3 ADD MSTORE PUSH1 0x10 PUSH1 0x24 DUP3 ADD MSTORE PUSH16 0x105B1C9958591E481D5B9B1BD8DAD959 PUSH1 0x82 SHL PUSH1 0x44 DUP3 ADD MSTORE PUSH1 0x64 SWAP1 REVERT JUMPDEST CALLVALUE PUSH2 0x28C JUMPI PUSH1 0x40 CALLDATASIZE PUSH1 0x3 NOT ADD SLT PUSH2 0x28C JUMPI PUSH2 0x56A PUSH2 0x19B5 JUMP JUMPDEST PUSH1 0x1 PUSH1 0x1 PUSH1 0xA0 SHL SUB AND PUSH1 0x0 SWAP1 DUP2 MSTORE PUSH1 0x3 PUSH1 0x20 MSTORE PUSH1 0x40 SWAP1 KECCAK256 DUP1 SLOAD PUSH1 0x24 CALLDATALOAD SWAP2 SWAP1 DUP3 LT ISZERO PUSH2 0x28C JUMPI PUSH1 0x20 SWAP2 PUSH2 0x59B SWAP2 PUSH2 0x1B17 JUMP JUMPDEST SWAP1 SLOAD SWAP1 PUSH1 0x3 SHL SHR PUSH1 0x40 MLOAD SWAP1 DUP2 MSTORE RETURN JUMPDEST CALLVALUE PUSH2 0x28C JUMPI PUSH1 0x40 CALLDATASIZE PUSH1 0x3 NOT ADD SLT PUSH2 0x28C JUMPI PUSH2 0x5C3 PUSH2 0x19B5 JUMP JUMPDEST PUSH1 0x24 CALLDATALOAD SWAP1 PUSH1 0x3 DUP3 LT ISZERO PUSH2 0x28C JUMPI CALLER PUSH1 0x0 MSTORE PUSH1 0x5 PUSH1 0x20 MSTORE PUSH1 0xFF PUSH1 0x40 PUSH1 0x0 KECCAK256 SLOAD AND DUP1 ISZERO PUSH2 0x67E JUMPI JUMPDEST ISZERO PUSH2 0x648 JUMPI PUSH2 0x643 PUSH32 0x2C5058E6B62E3A051B49924004BA426CFFA04FB4AB6788A057CA44C2DA3C8F55 SWAP2 PUSH1 0x1 DUP1 PUSH1 0xA0 SHL SUB AND SWAP3 DUP4 PUSH1 0x0 MSTORE PUSH1 0x4 PUSH1 0x20 MSTORE PUSH1 0x40 PUSH1 0x0 KECCAK256 PUSH1 0xFF NOT DUP2 SLOAD AND PUSH1 0xFF DUP4 AND OR SWAP1 SSTORE PUSH1 0x40 MLOAD SWAP2 DUP3 SWAP2 DUP3 PUSH2 0x19CB JUMP JUMPDEST SUB SWAP1 LOG2 STOP JUMPDEST PUSH1 0x40 MLOAD PUSH3 0x461BCD PUSH1 0xE5 SHL DUP2 MSTORE PUSH1 0x20 PUSH1 0x4 DUP3 ADD MSTORE PUSH1 0xE PUSH1 0x24 DUP3 ADD MSTORE PUSH14 0x139BDD08185D5D1A1BDC9A5E9959 PUSH1 0x92 SHL PUSH1 0x44 DUP3 ADD MSTORE PUSH1 0x64 SWAP1 REVERT JUMPDEST POP PUSH1 0x8 SLOAD PUSH1 0x1 PUSH1 0x1 PUSH1 0xA0 SHL SUB AND CALLER EQ PUSH2 0x5E9 JUMP JUMPDEST CALLVALUE PUSH2 0x28C JUMPI PUSH1 0x0 CALLDATASIZE PUSH1 0x3 NOT ADD SLT PUSH2 0x28C JUMPI PUSH1 0x8 SLOAD PUSH1 0x40 MLOAD PUSH1 0x1 PUSH1 0x1 PUSH1 0xA0 SHL SUB SWAP1 SWAP2 AND DUP2 MSTORE PUSH1 0x20 SWAP1 RETURN JUMPDEST CALLVALUE PUSH2 0x28C JUMPI PUSH1 0x40 CALLDATASIZE PUSH1 0x3 NOT ADD SLT PUSH2 0x28C JUMPI PUSH1 0x4 CALLDATALOAD PUSH1 0x4 DUP2 LT ISZERO PUSH2 0x28C JUMPI PUSH2 0x6ED PUSH1 0x1 DUP1 PUSH1 0xA0 SHL SUB PUSH1 0x8 SLOAD AND CALLER EQ PUSH2 0x1BD4 JUMP JUMPDEST PUSH2 0x6F9 PUSH1 0x24 CALLDATALOAD SWAP2 PUSH2 0x18D7 JUMP JUMPDEST SSTORE STOP JUMPDEST CALLVALUE PUSH2 0x28C JUMPI PUSH1 0x20 CALLDATASIZE PUSH1 0x3 NOT ADD SLT PUSH2 0x28C JUMPI PUSH1 0x20 PUSH2 0x71A PUSH1 0x4 CALLDATALOAD PUSH2 0x1C20 JUMP JUMPDEST PUSH1 0x40 MLOAD SWAP1 ISZERO ISZERO DUP2 MSTORE RETURN JUMPDEST CALLVALUE PUSH2 0x28C JUMPI PUSH1 0x20 CALLDATASIZE PUSH1 0x3 NOT ADD SLT PUSH2 0x28C JUMPI PUSH2 0x73D PUSH2 0x19B5 JUMP JUMPDEST PUSH1 0x8 SLOAD PUSH1 0x1 PUSH1 0x1 PUSH1 0xA0 SHL SUB SWAP2 SWAP1 PUSH2 0x757 SWAP1 DUP4 AND CALLER EQ PUSH2 0x1BD4 JUMP JUMPDEST AND DUP1 ISZERO PUSH2 0x79E JUMPI DUP1 PUSH1 0x0 MSTORE PUSH1 0x5 PUSH1 0x20 MSTORE PUSH1 0x40 PUSH1 0x0 KECCAK256 PUSH1 0x1 PUSH1 0xFF NOT DUP3 SLOAD AND OR SWAP1 SSTORE PUSH32 0x44D6D25963F097AD14F29F06854A01F575648A1EF82F30E562CCD3889717E339 PUSH1 0x0 DUP1 LOG2 STOP JUMPDEST PUSH1 0x40 MLOAD PUSH3 0x461BCD PUSH1 0xE5 SHL DUP2 MSTORE PUSH1 0x20 PUSH1 0x4 DUP3 ADD MSTORE PUSH1 0xF PUSH1 0x24 DUP3 ADD MSTORE PUSH15 0x496E76616C69642061646472657373 PUSH1 0x88 SHL PUSH1 0x44 DUP3 ADD MSTORE PUSH1 0x64 SWAP1 REVERT JUMPDEST CALLVALUE PUSH2 0x28C JUMPI PUSH1 0x20 DUP1 PUSH1 0x3 NOT CALLDATASIZE ADD SLT PUSH2 0x28C JUMPI PUSH1 0x4 CALLDATALOAD PUSH2 0x7F3 DUP2 PUSH2 0x1C20 JUMP JUMPDEST ISZERO PUSH2 0x901 JUMPI PUSH1 0x0 MSTORE PUSH1 0x1 SWAP1 PUSH1 0x1 DUP2 MSTORE PUSH1 0x40 PUSH1 0x0 KECCAK256 SWAP2 DUP3 SLOAD SWAP2 PUSH2 0x814 DUP4 PUSH2 0x199E JUMP JUMPDEST SWAP3 PUSH2 0x822 PUSH1 0x40 MLOAD SWAP5 DUP6 PUSH2 0x1927 JUMP JUMPDEST DUP1 DUP5 MSTORE DUP2 DUP5 ADD DUP1 SWAP6 PUSH1 0x0 MSTORE DUP3 PUSH1 0x0 KECCAK256 PUSH1 0x0 SWAP2 JUMPDEST DUP4 DUP4 LT PUSH2 0x8BD JUMPI POP POP POP POP PUSH1 0x40 MLOAD SWAP3 DUP2 DUP5 ADD SWAP1 DUP3 DUP6 MSTORE MLOAD DUP1 SWAP2 MSTORE PUSH1 0x40 DUP5 ADD SWAP2 PUSH1 0x40 DUP3 PUSH1 0x5 SHL DUP7 ADD ADD SWAP6 SWAP3 PUSH1 0x0 SWAP1 JUMPDEST DUP4 DUP3 LT PUSH2 0x870 JUMPI DUP7 DUP9 SUB DUP8 RETURN JUMPDEST SWAP1 SWAP2 SWAP3 SWAP4 SWAP5 DUP4 DUP1 PUSH2 0x8AC DUP4 SWAP11 PUSH1 0x3F NOT DUP12 DUP3 SUB ADD DUP7 MSTORE DUP10 MLOAD SWAP1 DUP4 PUSH2 0x89C DUP4 MLOAD PUSH1 0x40 DUP5 MSTORE PUSH1 0x40 DUP5 ADD SWAP1 PUSH2 0x1AD7 JUMP JUMPDEST SWAP3 ADD MLOAD SWAP1 DUP5 DUP2 DUP5 SUB SWAP2 ADD MSTORE PUSH2 0x1AD7 JUMP JUMPDEST SWAP10 SWAP8 ADD SWAP6 SWAP5 SWAP4 SWAP2 SWAP1 SWAP2 ADD SWAP2 ADD PUSH2 0x863 JUMP JUMPDEST SWAP5 PUSH1 0x2 DUP6 DUP3 SWAP10 SWAP8 PUSH1 0x40 SWAP10 SWAP8 SWAP10 MLOAD PUSH2 0x8D3 DUP2 PUSH2 0x190C JUMP JUMPDEST PUSH2 0x8DC DUP7 PUSH2 0x1A32 JUMP JUMPDEST DUP2 MSTORE PUSH2 0x8E9 DUP6 DUP8 ADD PUSH2 0x1A32 JUMP JUMPDEST DUP4 DUP3 ADD MSTORE DUP2 MSTORE ADD SWAP3 ADD SWAP3 ADD SWAP2 SWAP1 SWAP7 SWAP5 SWAP7 SWAP6 SWAP4 SWAP6 PUSH2 0x835 JUMP JUMPDEST PUSH1 0x40 MLOAD PUSH3 0x461BCD PUSH1 0xE5 SHL DUP2 MSTORE PUSH1 0x4 DUP2 ADD DUP4 SWAP1 MSTORE PUSH1 0x14 PUSH1 0x24 DUP3 ADD MSTORE PUSH20 0x10D85C1CDD5B19481B9BDD081D5B9B1BD8DAD959 PUSH1 0x62 SHL PUSH1 0x44 DUP3 ADD MSTORE PUSH1 0x64 SWAP1 REVERT JUMPDEST CALLVALUE PUSH2 0x28C JUMPI PUSH1 0x20 CALLDATASIZE PUSH1 0x3 NOT ADD SLT PUSH2 0x28C JUMPI PUSH1 0x4 CALLDATALOAD PUSH1 0x0 MSTORE PUSH1 0x0 PUSH1 0x20 MSTORE PUSH2 0x160 PUSH1 0x40 PUSH1 0x0 KECCAK256 DUP1 SLOAD SWAP1 PUSH1 0x1 DUP2 ADD SLOAD SWAP1 PUSH1 0xFF PUSH1 0x2 DUP3 ADD SLOAD PUSH1 0x3 DUP4 ADD SLOAD PUSH1 0x5 DUP5 ADD SLOAD SWAP2 PUSH2 0x9BF PUSH1 0x7 PUSH1 0x6 DUP8 ADD SLOAD SWAP7 ADD SLOAD SWAP7 PUSH1 0x40 MLOAD SWAP9 DUP10 MSTORE PUSH1 0x1 DUP1 PUSH1 0xA0 SHL SUB DUP2 AND PUSH1 0x20 DUP11 ADD MSTORE PUSH2 0x9B0 PUSH1 0x40 DUP11 ADD DUP8 DUP4 PUSH1 0xA0 SHR AND PUSH2 0x19DE JUMP JUMPDEST DUP6 PUSH1 0x60 DUP11 ADD SWAP2 PUSH1 0xA8 SHR AND PUSH2 0x19EB JUMP JUMPDEST PUSH1 0x80 DUP8 ADD MSTORE PUSH1 0xA0 DUP7 ADD MSTORE DUP2 DUP2 AND ISZERO ISZERO PUSH1 0xC0 DUP7 ADD MSTORE DUP2 DUP2 PUSH1 0x8 SHR AND ISZERO ISZERO PUSH1 0xE0 DUP7 ADD MSTORE PUSH1 0x10 SHR AND ISZERO ISZERO PUSH2 0x100 DUP5 ADD MSTORE PUSH2 0x120 DUP4 ADD MSTORE PUSH2 0x140 DUP3 ADD MSTORE RETURN JUMPDEST CALLVALUE PUSH2 0x28C JUMPI PUSH1 0x20 CALLDATASIZE PUSH1 0x3 NOT ADD SLT PUSH2 0x28C JUMPI PUSH1 0x4 CALLDATALOAD PUSH1 0x0 MSTORE PUSH1 0x2 PUSH1 0x20 MSTORE PUSH2 0x322 PUSH2 0xA26 PUSH1 0x40 PUSH1 0x0 KECCAK256 PUSH2 0x1A32 JUMP JUMPDEST PUSH1 0x40 MLOAD SWAP2 DUP3 SWAP2 PUSH1 0x20 DUP4 MSTORE PUSH1 0x20 DUP4 ADD SWAP1 PUSH2 0x1AD7 JUMP JUMPDEST CALLVALUE PUSH2 0x28C JUMPI PUSH1 0x20 CALLDATASIZE PUSH1 0x3 NOT ADD SLT PUSH2 0x28C JUMPI PUSH1 0x1 PUSH1 0x1 PUSH1 0xA0 SHL SUB PUSH2 0xA5B PUSH2 0x19B5 JUMP JUMPDEST AND PUSH1 0x0 MSTORE PUSH1 0x5 PUSH1 0x20 MSTORE PUSH1 0x20 PUSH1 0xFF PUSH1 0x40 PUSH1 0x0 KECCAK256 SLOAD AND PUSH1 0x40 MLOAD SWAP1 ISZERO ISZERO DUP2 MSTORE RETURN JUMPDEST CALLVALUE PUSH2 0x28C JUMPI PUSH1 0x0 CALLDATASIZE PUSH1 0x3 NOT ADD SLT PUSH2 0x28C JUMPI PUSH1 0x0 DUP1 DUP1 DUP1 PUSH1 0x1 DUP1 PUSH1 0xA0 SHL SUB PUSH1 0x8 SLOAD AND PUSH2 0xAA5 DUP2 CALLER EQ PUSH2 0x1BD4 JUMP JUMPDEST SELFBALANCE SWAP1 DUP3 DUP3 ISZERO PUSH2 0xAC3 JUMPI JUMPDEST CALL ISZERO PUSH2 0xAB7 JUMPI STOP JUMPDEST PUSH1 0x40 MLOAD RETURNDATASIZE PUSH1 0x0 DUP3 RETURNDATACOPY RETURNDATASIZE SWAP1 REVERT JUMPDEST POP PUSH2 0x8FC PUSH2 0xAAF JUMP JUMPDEST CALLVALUE PUSH2 0x28C JUMPI PUSH1 0x20 CALLDATASIZE PUSH1 0x3 NOT ADD SLT PUSH2 0x28C JUMPI PUSH1 0x4 CALLDATALOAD PUSH1 0x0 MSTORE PUSH1 0x0 PUSH1 0x20 MSTORE PUSH1 0x40 PUSH1 0x0 KECCAK256 PUSH1 0x40 MLOAD PUSH2 0xAF9 DUP2 PUSH2 0x18F0 JUMP JUMPDEST DUP2 SLOAD DUP2 MSTORE PUSH1 0x1 DUP3 ADD SLOAD PUSH1 0x1 PUSH1 0x1 PUSH1 0xA0 SHL SUB DUP2 AND PUSH1 0x20 DUP4 ADD MSTORE PUSH2 0xB38 SWAP1 PUSH1 0xFF SWAP1 PUSH2 0xB2B PUSH1 0xA0 DUP3 SWAP1 SHR DUP4 AND PUSH1 0x40 DUP7 ADD PUSH2 0x1BA5 JUMP JUMPDEST PUSH1 0xA8 SHR AND PUSH1 0x60 DUP4 ADD PUSH2 0x1BB1 JUMP JUMPDEST PUSH1 0x2 DUP3 ADD SLOAD PUSH1 0x80 DUP3 ADD MSTORE PUSH1 0x3 DUP3 ADD SLOAD PUSH1 0xA0 DUP3 ADD MSTORE PUSH1 0x4 DUP3 ADD SWAP2 PUSH1 0x40 MLOAD DUP1 PUSH1 0x20 DUP6 SLOAD SWAP2 DUP3 DUP2 MSTORE ADD SWAP5 PUSH1 0x0 MSTORE PUSH1 0x20 PUSH1 0x0 KECCAK256 SWAP1 PUSH1 0x0 JUMPDEST DUP2 DUP2 LT PUSH2 0xCCA JUMPI POP POP POP PUSH2 0xB84 DUP2 PUSH1 0x7 SWAP5 SWAP6 SUB DUP3 PUSH2 0x1927 JUMP JUMPDEST PUSH1 0xC0 DUP5 ADD MSTORE PUSH1 0xFF PUSH1 0x5 DUP3 ADD SLOAD DUP2 DUP2 AND ISZERO ISZERO PUSH1 0xE0 DUP7 ADD MSTORE DUP2 DUP2 PUSH1 0x8 SHR AND ISZERO ISZERO PUSH2 0x100 DUP7 ADD MSTORE PUSH1 0x10 SHR AND ISZERO ISZERO PUSH2 0x120 DUP5 ADD MSTORE PUSH1 0x6 DUP2 ADD SLOAD PUSH2 0x140 DUP5 ADD MSTORE ADD SLOAD PUSH2 0x160 DUP3 ADD MSTORE DUP1 MLOAD SWAP1 PUSH1 0x1 DUP1 PUSH1 0xA0 SHL SUB PUSH1 0x20 DUP3 ADD MLOAD AND PUSH1 0x40 DUP3 ADD MLOAD SWAP2 PUSH1 0x4 DUP4 LT ISZERO PUSH2 0x231 JUMPI PUSH1 0x60 DUP2 ADD MLOAD SWAP1 PUSH1 0x2 DUP3 LT ISZERO PUSH2 0x231 JUMPI PUSH1 0x80 DUP2 ADD MLOAD PUSH1 0xA0 DUP3 ADD MLOAD PUSH1 0xC0 DUP4 ADD MLOAD SWAP5 PUSH1 0xE0 DUP5 ADD MLOAD ISZERO ISZERO SWAP1 PUSH2 0x100 DUP6 ADD MLOAD ISZERO ISZERO SWAP3 PUSH2 0x120 DUP7 ADD MLOAD ISZERO ISZERO SWAP5 PUSH2 0x140 DUP8 ADD MLOAD SWAP7 PUSH2 0x160 ADD MLOAD SWAP8 PUSH1 0x40 MLOAD SWAP11 PUSH2 0x180 SWAP5 DUP6 DUP14 ADD SWAP14 DUP14 MSTORE PUSH1 0x20 DUP14 ADD MSTORE PUSH1 0x40 DUP13 ADD PUSH2 0xC4C SWAP2 PUSH2 0x19DE JUMP JUMPDEST PUSH1 0x60 DUP12 ADD PUSH2 0xC59 SWAP2 PUSH2 0x19EB JUMP JUMPDEST PUSH1 0x80 DUP11 ADD MSTORE PUSH1 0xA0 DUP10 ADD MSTORE PUSH1 0xC0 DUP9 ADD MSTORE DUP6 MLOAD DUP1 SWAP9 MSTORE PUSH2 0x1A0 DUP8 ADD SWAP6 PUSH1 0x20 ADD PUSH1 0x0 SWAP9 JUMPDEST DUP1 DUP11 LT PUSH2 0xCA7 JUMPI POP POP DUP7 SWAP8 POP PUSH1 0xE0 DUP8 ADD MSTORE PUSH2 0x100 DUP7 ADD MSTORE PUSH2 0x120 DUP6 ADD MSTORE PUSH2 0x140 DUP5 ADD MSTORE PUSH2 0x160 DUP4 ADD MSTORE SUB SWAP1 RETURN JUMPDEST DUP2 MLOAD PUSH1 0x1 PUSH1 0x1 PUSH1 0xA0 SHL SUB AND DUP9 MSTORE PUSH1 0x1 SWAP10 SWAP1 SWAP10 ADD SWAP9 PUSH1 0x20 SWAP8 DUP9 ADD SWAP8 SWAP1 SWAP2 ADD SWAP1 PUSH2 0xC7A JUMP JUMPDEST DUP3 SLOAD PUSH1 0x1 PUSH1 0x1 PUSH1 0xA0 SHL SUB AND DUP8 MSTORE PUSH1 0x20 SWAP1 SWAP7 ADD SWAP6 PUSH1 0x1 SWAP3 DUP4 ADD SWAP3 ADD PUSH2 0xB6B JUMP JUMPDEST CALLVALUE PUSH2 0x28C JUMPI PUSH1 0x20 DUP1 PUSH1 0x3 NOT CALLDATASIZE ADD SLT PUSH2 0x28C JUMPI PUSH1 0x1 PUSH1 0x1 PUSH1 0xA0 SHL SUB PUSH2 0xD0B PUSH2 0x19B5 JUMP JUMPDEST AND PUSH1 0x0 MSTORE PUSH1 0x3 DUP2 MSTORE PUSH1 0x40 PUSH1 0x0 KECCAK256 PUSH1 0x40 MLOAD SWAP1 DUP2 DUP4 DUP3 SLOAD SWAP2 DUP3 DUP2 MSTORE ADD SWAP1 DUP2 SWAP3 PUSH1 0x0 MSTORE DUP5 PUSH1 0x0 KECCAK256 SWAP1 PUSH1 0x0 JUMPDEST DUP7 DUP3 DUP3 LT PUSH2 0xD89 JUMPI DUP7 DUP7 PUSH2 0xD49 DUP3 DUP9 SUB DUP4 PUSH2 0x1927 JUMP JUMPDEST PUSH1 0x40 MLOAD SWAP3 DUP4 SWAP3 DUP2 DUP5 ADD SWAP1 DUP3 DUP6 MSTORE MLOAD DUP1 SWAP2 MSTORE PUSH1 0x40 DUP5 ADD SWAP3 SWAP2 PUSH1 0x0 JUMPDEST DUP3 DUP2 LT PUSH2 0xD72 JUMPI POP POP POP POP SUB SWAP1 RETURN JUMPDEST DUP4 MLOAD DUP6 MSTORE DUP7 SWAP6 POP SWAP4 DUP2 ADD SWAP4 SWAP3 DUP2 ADD SWAP3 PUSH1 0x1 ADD PUSH2 0xD63 JUMP JUMPDEST DUP4 SLOAD DUP6 MSTORE SWAP1 SWAP4 ADD SWAP3 PUSH1 0x1 SWAP3 DUP4 ADD SWAP3 ADD PUSH2 0xD33 JUMP JUMPDEST CALLVALUE PUSH2 0x28C JUMPI PUSH1 0x20 CALLDATASIZE PUSH1 0x3 NOT ADD SLT PUSH2 0x28C JUMPI PUSH1 0x20 PUSH1 0x1 PUSH1 0x1 PUSH1 0xA0 SHL SUB DUP1 PUSH2 0xDC1 PUSH2 0x19B5 JUMP JUMPDEST AND DUP1 PUSH1 0x0 MSTORE PUSH1 0x5 DUP4 MSTORE PUSH1 0xFF PUSH1 0x40 PUSH1 0x0 KECCAK256 SLOAD AND SWAP2 DUP3 ISZERO PUSH2 0xDE7 JUMPI JUMPDEST POP POP PUSH1 0x40 MLOAD SWAP1 ISZERO ISZERO DUP2 MSTORE RETURN JUMPDEST PUSH1 0x8 SLOAD AND EQ SWAP1 POP DUP3 DUP1 PUSH2 0xDDB JUMP JUMPDEST CALLVALUE PUSH2 0x28C JUMPI PUSH1 0x20 CALLDATASIZE PUSH1 0x3 NOT ADD SLT PUSH2 0x28C JUMPI PUSH1 0x1 PUSH1 0x1 PUSH1 0xA0 SHL SUB PUSH2 0xE16 PUSH2 0x19B5 JUMP JUMPDEST AND PUSH1 0x0 MSTORE PUSH1 0x4 PUSH1 0x20 MSTORE PUSH2 0x322 PUSH1 0xFF PUSH1 0x40 PUSH1 0x0 KECCAK256 SLOAD AND PUSH1 0x40 MLOAD SWAP2 DUP3 SWAP2 DUP3 PUSH2 0x19CB JUMP JUMPDEST CALLVALUE PUSH2 0x28C JUMPI PUSH1 0x0 CALLDATASIZE PUSH1 0x3 NOT ADD SLT PUSH2 0x28C JUMPI PUSH1 0x20 PUSH1 0x40 MLOAD PUSH1 0xA DUP2 MSTORE RETURN JUMPDEST CALLVALUE PUSH2 0x28C JUMPI PUSH1 0x20 CALLDATASIZE PUSH1 0x3 NOT ADD SLT PUSH2 0x28C JUMPI PUSH2 0xE6C PUSH2 0x19B5 JUMP JUMPDEST PUSH1 0x8 SLOAD PUSH1 0x1 PUSH1 0x1 PUSH1 0xA0 SHL SUB SWAP2 SWAP1 PUSH2 0xE86 SWAP1 DUP4 AND CALLER EQ PUSH2 0x1BD4 JUMP JUMPDEST AND DUP1 PUSH1 0x0 MSTORE PUSH1 0x5 PUSH1 0x20 MSTORE PUSH1 0x40 PUSH1 0x0 KECCAK256 PUSH1 0xFF NOT DUP2 SLOAD AND SWAP1 SSTORE PUSH32 0xA3B62BC36326052D97EA62D63C3D60308ED4C3EA8AC079DD8499F1E9C4F80C0F PUSH1 0x0 DUP1 LOG2 STOP JUMPDEST CALLVALUE PUSH2 0x28C JUMPI PUSH1 0x0 CALLDATASIZE PUSH1 0x3 NOT ADD SLT PUSH2 0x28C JUMPI PUSH1 0x20 PUSH1 0x40 MLOAD PUSH1 0x1 DUP2 MSTORE RETURN JUMPDEST PUSH2 0x100 CALLDATASIZE PUSH1 0x3 NOT ADD SLT PUSH2 0x28C JUMPI PUSH1 0x4 DUP1 CALLDATALOAD LT ISZERO PUSH2 0x28C JUMPI PUSH1 0x2 PUSH1 0x24 CALLDATALOAD LT ISZERO PUSH2 0x28C JUMPI PUSH1 0x64 CALLDATALOAD PUSH1 0x1 PUSH1 0x1 PUSH1 0x40 SHL SUB DUP2 GT PUSH2 0x28C JUMPI PUSH2 0xF21 SWAP1 CALLDATASIZE SWAP1 PUSH1 0x4 ADD PUSH2 0x1948 JUMP JUMPDEST PUSH1 0x84 CALLDATALOAD PUSH1 0x1 PUSH1 0x1 PUSH1 0x40 SHL SUB DUP2 GT PUSH2 0x28C JUMPI PUSH2 0xF40 SWAP1 CALLDATASIZE SWAP1 PUSH1 0x4 ADD PUSH2 0x1948 JUMP JUMPDEST SWAP1 PUSH1 0xA4 CALLDATALOAD SWAP2 PUSH1 0x1 PUSH1 0x1 PUSH1 0x40 SHL SUB DUP4 GT PUSH2 0x28C JUMPI CALLDATASIZE PUSH1 0x23 DUP5 ADD SLT ISZERO PUSH2 0x28C JUMPI DUP3 PUSH1 0x4 ADD CALLDATALOAD SWAP3 PUSH2 0xF6D DUP5 PUSH2 0x199E JUMP JUMPDEST SWAP4 PUSH2 0xF7B PUSH1 0x40 MLOAD SWAP6 DUP7 PUSH2 0x1927 JUMP JUMPDEST DUP1 DUP6 MSTORE PUSH1 0x20 DUP6 ADD SWAP2 CALLDATASIZE PUSH1 0x24 DUP4 PUSH1 0x5 SHL DUP4 ADD ADD GT PUSH2 0x28C JUMPI SWAP2 PUSH1 0x24 DUP4 ADD SWAP3 JUMPDEST PUSH1 0x24 DUP4 PUSH1 0x5 SHL DUP3 ADD ADD DUP5 LT PUSH2 0x187F JUMPI POP POP POP POP PUSH1 0xC4 CALLDATALOAD PUSH1 0x1 PUSH1 0x1 PUSH1 0x40 SHL SUB DUP2 GT PUSH2 0x28C JUMPI PUSH2 0xFCB SWAP1 CALLDATASIZE SWAP1 PUSH1 0x4 ADD PUSH2 0x1948 JUMP JUMPDEST SWAP2 DUP4 MLOAD ISZERO PUSH2 0x183A JUMPI PUSH2 0xFDE PUSH1 0x4 CALLDATALOAD PUSH2 0x18D7 JUMP JUMPDEST SLOAD CALLVALUE LT PUSH2 0x17F5 JUMPI CALLER PUSH1 0x0 MSTORE PUSH1 0x4 PUSH1 0x20 MSTORE PUSH1 0xFF PUSH1 0x40 PUSH1 0x0 KECCAK256 SLOAD AND PUSH1 0x3 PUSH1 0x20 MSTORE PUSH1 0x40 PUSH1 0x0 KECCAK256 SLOAD SWAP1 PUSH1 0x3 DUP2 LT ISZERO PUSH2 0x231 JUMPI DUP1 PUSH2 0x17BB JUMPI POP PUSH1 0x1 PUSH2 0x101E SWAP2 LT PUSH2 0x1B61 JUMP JUMPDEST PUSH1 0x24 CALLDATALOAD PUSH2 0x1712 JUMPI TIMESTAMP PUSH1 0x44 CALLDATALOAD GT ISZERO PUSH2 0x16CD JUMPI PUSH1 0xE4 CALLDATALOAD PUSH2 0x1674 JUMPI JUMPDEST PUSH1 0x6 SLOAD SWAP4 PUSH1 0x0 NOT DUP6 EQ PUSH2 0x165E JUMPI PUSH1 0x1 DUP6 ADD PUSH1 0x6 SSTORE PUSH1 0x40 MLOAD PUSH2 0x1057 DUP2 PUSH2 0x18F0 JUMP JUMPDEST PUSH1 0x1 DUP7 ADD DUP2 MSTORE PUSH1 0x20 DUP2 ADD SWAP2 CALLER DUP4 MSTORE PUSH2 0x1074 PUSH1 0x4 CALLDATALOAD PUSH1 0x40 DUP5 ADD PUSH2 0x1BA5 JUMP JUMPDEST PUSH2 0x1083 PUSH1 0x24 CALLDATALOAD PUSH1 0x60 DUP5 ADD PUSH2 0x1BB1 JUMP JUMPDEST PUSH1 0x44 CALLDATALOAD PUSH1 0x80 DUP4 ADD MSTORE TIMESTAMP PUSH1 0xA0 DUP4 ADD MSTORE PUSH1 0xC0 DUP3 ADD MSTORE PUSH1 0x0 PUSH1 0xE0 DUP3 ADD MSTORE PUSH1 0x0 PUSH2 0x100 DUP3 ADD MSTORE PUSH1 0x0 PUSH2 0x120 DUP3 ADD MSTORE PUSH1 0xE4 CALLDATALOAD PUSH2 0x140 DUP3 ADD MSTORE TIMESTAMP PUSH2 0x160 DUP3 ADD MSTORE PUSH1 0x1 DUP7 ADD PUSH1 0x0 MSTORE PUSH1 0x0 PUSH1 0x20 MSTORE PUSH1 0x40 PUSH1 0x0 KECCAK256 SWAP2 DUP2 MLOAD DUP4 SSTORE PUSH1 0x1 DUP1 PUSH1 0xA0 SHL SUB SWAP1 MLOAD AND PUSH1 0x1 DUP4 ADD SLOAD SWAP1 PUSH1 0x40 DUP4 ADD MLOAD SWAP1 PUSH1 0x4 DUP3 LT ISZERO PUSH2 0x231 JUMPI PUSH1 0x60 DUP5 ADD MLOAD PUSH1 0x2 DUP2 LT ISZERO PUSH2 0x231 JUMPI PUSH1 0xFF PUSH1 0xA8 SHL SWAP1 PUSH1 0xA8 SHL AND SWAP3 PUSH10 0xFFFFFFFFFFFFFFFFFFFF PUSH1 0xB0 SHL AND OR SWAP1 PUSH1 0xFF PUSH1 0xA0 SHL SWAP1 PUSH1 0xA0 SHL AND OR OR PUSH1 0x1 DUP4 ADD SSTORE PUSH1 0x80 DUP2 ADD MLOAD PUSH1 0x2 DUP4 ADD SSTORE PUSH1 0xA0 DUP2 ADD MLOAD PUSH1 0x3 DUP4 ADD SSTORE PUSH1 0xC0 DUP2 ADD MLOAD DUP1 MLOAD SWAP1 PUSH1 0x1 PUSH1 0x1 PUSH1 0x40 SHL SUB DUP3 GT PUSH2 0x149B JUMPI PUSH1 0x1 PUSH1 0x40 SHL DUP3 GT PUSH2 0x149B JUMPI PUSH1 0x20 SWAP1 PUSH1 0x4 DUP6 ADD SLOAD DUP4 PUSH1 0x4 DUP8 ADD SSTORE DUP1 DUP5 LT PUSH2 0x163E JUMPI JUMPDEST POP ADD PUSH1 0x4 DUP5 ADD PUSH1 0x0 MSTORE PUSH1 0x20 PUSH1 0x0 KECCAK256 PUSH1 0x0 JUMPDEST DUP4 DUP2 LT PUSH2 0x1621 JUMPI POP POP POP POP PUSH2 0x160 PUSH1 0x7 SWAP2 PUSH1 0x5 DUP5 ADD PUSH1 0xE0 DUP3 ADD MLOAD ISZERO ISZERO DUP2 SLOAD PUSH2 0xFF00 PUSH2 0x100 DUP6 ADD MLOAD ISZERO ISZERO PUSH1 0x8 SHL AND SWAP1 PUSH1 0xFF PUSH3 0xFF0000 PUSH2 0x120 DUP8 ADD MLOAD ISZERO ISZERO PUSH1 0x10 SHL AND SWAP4 AND SWAP1 PUSH3 0xFFFFFF NOT AND OR OR OR SWAP1 SSTORE PUSH2 0x140 DUP2 ADD MLOAD PUSH1 0x6 DUP6 ADD SSTORE ADD MLOAD SWAP2 ADD SSTORE CALLER PUSH1 0x0 MSTORE PUSH1 0x3 PUSH1 0x20 MSTORE PUSH1 0x40 PUSH1 0x0 KECCAK256 DUP1 SLOAD PUSH1 0x1 PUSH1 0x40 SHL DUP2 LT ISZERO PUSH2 0x149B JUMPI PUSH2 0x1212 SWAP2 PUSH1 0x1 DUP3 ADD DUP2 SSTORE PUSH2 0x1B17 JUMP JUMPDEST DUP2 SLOAD SWAP1 PUSH1 0x3 SHL SWAP1 PUSH1 0x1 DUP8 ADD DUP3 SHL SWAP2 PUSH1 0x0 NOT SWAP1 SHL NOT AND OR SWAP1 SSTORE PUSH1 0x40 MLOAD SWAP2 PUSH2 0x1237 DUP4 PUSH2 0x190C JUMP JUMPDEST DUP3 MSTORE PUSH1 0x20 DUP3 ADD MSTORE PUSH1 0x1 DUP4 ADD PUSH1 0x0 MSTORE PUSH1 0x1 PUSH1 0x20 MSTORE PUSH1 0x40 PUSH1 0x0 KECCAK256 DUP1 SLOAD PUSH1 0x1 PUSH1 0x40 SHL DUP2 LT ISZERO PUSH2 0x149B JUMPI PUSH2 0x126C SWAP2 PUSH1 0x1 DUP3 ADD DUP2 SSTORE PUSH2 0x1B45 JUMP JUMPDEST SWAP2 SWAP1 SWAP2 PUSH2 0x160B JUMPI DUP1 MLOAD DUP1 MLOAD SWAP1 PUSH1 0x1 PUSH1 0x1 PUSH1 0x40 SHL SUB DUP3 GT PUSH2 0x149B JUMPI PUSH2 0x1290 DUP5 SLOAD PUSH2 0x19F8 JUMP JUMPDEST PUSH1 0x1F DUP2 GT PUSH2 0x15D9 JUMPI JUMPDEST POP PUSH1 0x20 SWAP1 PUSH1 0x1F DUP4 GT PUSH1 0x1 EQ PUSH2 0x156C JUMPI PUSH1 0x20 SWAP4 SWAP3 SWAP2 PUSH1 0x0 SWAP2 DUP4 PUSH2 0x1561 JUMPI JUMPDEST POP POP DUP2 PUSH1 0x1 SHL SWAP2 PUSH1 0x0 NOT SWAP1 PUSH1 0x3 SHL SHR NOT AND OR DUP4 SSTORE JUMPDEST ADD MLOAD DUP1 MLOAD SWAP1 PUSH1 0x1 PUSH1 0x1 PUSH1 0x40 SHL SUB DUP3 GT PUSH2 0x149B JUMPI PUSH2 0x12EB PUSH1 0x1 DUP5 ADD SLOAD PUSH2 0x19F8 JUMP JUMPDEST PUSH1 0x1F DUP2 GT PUSH2 0x152C JUMPI JUMPDEST POP PUSH1 0x20 SWAP1 PUSH1 0x1F DUP4 GT PUSH1 0x1 EQ PUSH2 0x14BC JUMPI PUSH1 0x1 SWAP3 SWAP2 PUSH1 0x0 SWAP2 DUP4 PUSH2 0x14B1 JUMPI JUMPDEST POP POP PUSH1 0x0 NOT PUSH1 0x3 DUP4 SWAP1 SHL SHR NOT AND SWAP1 DUP3 SHL OR SWAP2 ADD SSTORE JUMPDEST PUSH1 0x1 DUP3 ADD PUSH1 0x0 MSTORE PUSH1 0x2 PUSH1 0x20 MSTORE PUSH1 0x40 PUSH1 0x0 KECCAK256 SWAP2 DUP2 MLOAD SWAP3 PUSH1 0x1 PUSH1 0x1 PUSH1 0x40 SHL SUB DUP5 GT PUSH2 0x149B JUMPI PUSH1 0x20 SWAP4 PUSH2 0x1355 DUP3 SLOAD PUSH2 0x19F8 JUMP JUMPDEST PUSH1 0x1F DUP2 GT PUSH2 0x1460 JUMPI JUMPDEST POP DUP5 PUSH1 0x1F DUP3 GT PUSH1 0x1 EQ PUSH2 0x13FA JUMPI DUP2 SWAP3 SWAP4 SWAP5 PUSH1 0x0 SWAP3 PUSH2 0x13EF JUMPI JUMPDEST POP POP DUP2 PUSH1 0x1 SHL SWAP2 PUSH1 0x0 NOT SWAP1 PUSH1 0x3 SHL SHR NOT AND OR SWAP1 SSTORE JUMPDEST PUSH1 0x40 MLOAD PUSH2 0x139B DUP2 PUSH1 0x4 CALLDATALOAD PUSH2 0x19DE JUMP JUMPDEST PUSH2 0x13A9 DUP4 DUP3 ADD PUSH1 0x24 CALLDATALOAD PUSH2 0x19EB JUMP JUMPDEST PUSH1 0x44 CALLDATALOAD PUSH1 0x40 DUP3 ADD MSTORE PUSH1 0xE4 CALLDATALOAD PUSH1 0x60 DUP3 ADD MSTORE CALLER SWAP1 PUSH32 0x6EE80EEE06AD783B22ADDB627AF53564FF50AA18F2952C368EC3B6F273EE0D2E PUSH1 0x80 PUSH1 0x1 DUP6 ADD SWAP3 LOG3 PUSH1 0x1 PUSH1 0x40 MLOAD SWAP2 ADD DUP2 MSTORE RETURN JUMPDEST ADD MLOAD SWAP1 POP DUP6 DUP1 PUSH2 0x1377 JUMP JUMPDEST DUP3 PUSH1 0x0 MSTORE DUP6 PUSH1 0x0 KECCAK256 SWAP1 PUSH1 0x0 JUMPDEST PUSH1 0x1F NOT DUP5 AND DUP2 LT PUSH2 0x1449 JUMPI POP PUSH1 0x1 SWAP4 SWAP5 SWAP6 DUP4 PUSH1 0x1F NOT DUP2 AND LT PUSH2 0x1430 JUMPI JUMPDEST POP POP POP DUP2 SHL ADD SWAP1 SSTORE PUSH2 0x138C JUMP JUMPDEST ADD MLOAD PUSH1 0x0 NOT PUSH1 0xF8 DUP5 PUSH1 0x3 SHL AND SHR NOT AND SWAP1 SSTORE DUP6 DUP1 DUP1 PUSH2 0x1423 JUMP JUMPDEST SWAP1 SWAP2 DUP8 PUSH1 0x1 DUP2 SWAP3 DUP6 DUP11 ADD MLOAD DUP2 SSTORE ADD SWAP4 ADD SWAP2 ADD PUSH2 0x1406 JUMP JUMPDEST PUSH2 0x148B SWAP1 DUP4 PUSH1 0x0 MSTORE DUP7 PUSH1 0x0 KECCAK256 PUSH1 0x1F DUP5 ADD PUSH1 0x5 SHR DUP2 ADD SWAP2 DUP9 DUP6 LT PUSH2 0x1491 JUMPI JUMPDEST PUSH1 0x1F ADD PUSH1 0x5 SHR ADD SWAP1 PUSH2 0x1BBD JUMP JUMPDEST DUP6 PUSH2 0x135E JUMP JUMPDEST SWAP1 SWAP2 POP DUP2 SWAP1 PUSH2 0x147E JUMP JUMPDEST PUSH4 0x4E487B71 PUSH1 0xE0 SHL PUSH1 0x0 MSTORE PUSH1 0x41 PUSH1 0x4 MSTORE PUSH1 0x24 PUSH1 0x0 REVERT JUMPDEST ADD MLOAD SWAP1 POP DUP7 DUP1 PUSH2 0x1310 JUMP JUMPDEST SWAP1 PUSH1 0x1 DUP5 ADD PUSH1 0x0 MSTORE PUSH1 0x20 PUSH1 0x0 KECCAK256 SWAP2 PUSH1 0x0 JUMPDEST PUSH1 0x1F NOT DUP6 AND DUP2 LT PUSH2 0x1514 JUMPI POP SWAP2 DUP4 SWAP2 PUSH1 0x1 SWAP5 SWAP4 DUP6 SWAP5 PUSH1 0x1F NOT DUP2 AND LT PUSH2 0x14FB JUMPI JUMPDEST POP POP POP DUP2 SHL ADD SWAP2 ADD SSTORE PUSH2 0x1325 JUMP JUMPDEST ADD MLOAD PUSH1 0x0 NOT PUSH1 0xF8 DUP5 PUSH1 0x3 SHL AND SHR NOT AND SWAP1 SSTORE DUP7 DUP1 DUP1 PUSH2 0x14ED JUMP JUMPDEST SWAP2 SWAP3 PUSH1 0x20 PUSH1 0x1 DUP2 SWAP3 DUP7 DUP6 ADD MLOAD DUP2 SSTORE ADD SWAP5 ADD SWAP3 ADD PUSH2 0x14CD JUMP JUMPDEST PUSH2 0x155B SWAP1 PUSH1 0x1 DUP6 ADD PUSH1 0x0 MSTORE PUSH1 0x20 PUSH1 0x0 KECCAK256 PUSH1 0x1F DUP6 ADD PUSH1 0x5 SHR DUP2 ADD SWAP2 PUSH1 0x20 DUP7 LT PUSH2 0x1491 JUMPI PUSH1 0x1F ADD PUSH1 0x5 SHR ADD SWAP1 PUSH2 0x1BBD JUMP JUMPDEST DUP6 PUSH2 0x12F4 JUMP JUMPDEST ADD MLOAD SWAP1 POP DUP8 DUP1 PUSH2 0x12B6 JUMP JUMPDEST SWAP1 DUP5 PUSH1 0x0 MSTORE PUSH1 0x20 PUSH1 0x0 KECCAK256 SWAP2 PUSH1 0x0 JUMPDEST PUSH1 0x1F NOT DUP6 AND DUP2 LT PUSH2 0x15C1 JUMPI POP SWAP2 DUP4 SWAP2 PUSH1 0x1 SWAP4 PUSH1 0x20 SWAP7 SWAP6 PUSH1 0x1F NOT DUP2 AND LT PUSH2 0x15A8 JUMPI JUMPDEST POP POP POP DUP2 SHL ADD DUP4 SSTORE PUSH2 0x12CB JUMP JUMPDEST ADD MLOAD PUSH1 0x0 NOT PUSH1 0xF8 DUP5 PUSH1 0x3 SHL AND SHR NOT AND SWAP1 SSTORE DUP8 DUP1 DUP1 PUSH2 0x159B JUMP JUMPDEST SWAP2 SWAP3 PUSH1 0x20 PUSH1 0x1 DUP2 SWAP3 DUP7 DUP6 ADD MLOAD DUP2 SSTORE ADD SWAP5 ADD SWAP3 ADD PUSH2 0x157A JUMP JUMPDEST PUSH2 0x1605 SWAP1 DUP6 PUSH1 0x0 MSTORE PUSH1 0x20 PUSH1 0x0 KECCAK256 PUSH1 0x1F DUP6 ADD PUSH1 0x5 SHR DUP2 ADD SWAP2 PUSH1 0x20 DUP7 LT PUSH2 0x1491 JUMPI PUSH1 0x1F ADD PUSH1 0x5 SHR ADD SWAP1 PUSH2 0x1BBD JUMP JUMPDEST DUP7 PUSH2 0x1299 JUMP JUMPDEST PUSH4 0x4E487B71 PUSH1 0xE0 SHL PUSH1 0x0 MSTORE PUSH1 0x0 PUSH1 0x4 MSTORE PUSH1 0x24 PUSH1 0x0 REVERT JUMPDEST DUP3 MLOAD PUSH1 0x1 PUSH1 0x1 PUSH1 0xA0 SHL SUB AND DUP2 DUP4 ADD SSTORE PUSH1 0x20 SWAP1 SWAP3 ADD SWAP2 PUSH1 0x1 ADD PUSH2 0x1189 JUMP JUMPDEST PUSH2 0x1658 SWAP1 PUSH1 0x4 DUP8 ADD PUSH1 0x0 MSTORE DUP5 DUP5 PUSH1 0x0 KECCAK256 SWAP2 DUP3 ADD SWAP2 ADD PUSH2 0x1BBD JUMP JUMPDEST DUP10 PUSH2 0x1178 JUMP JUMPDEST PUSH4 0x4E487B71 PUSH1 0xE0 SHL PUSH1 0x0 MSTORE PUSH1 0x11 PUSH1 0x4 MSTORE PUSH1 0x24 PUSH1 0x0 REVERT JUMPDEST PUSH1 0x40 MLOAD PUSH3 0x461BCD PUSH1 0xE5 SHL DUP2 MSTORE PUSH1 0x20 PUSH1 0x4 DUP3 ADD MSTORE PUSH1 0x2B PUSH1 0x24 DUP3 ADD MSTORE PUSH32 0x48656172746265617420696E74657276616C206D757374206265203020666F72 PUSH1 0x44 DUP3 ADD MSTORE PUSH11 0x81D1A5B594B58985CD959 PUSH1 0xAA SHL PUSH1 0x64 DUP3 ADD MSTORE PUSH1 0x84 SWAP1 REVERT JUMPDEST PUSH1 0x40 MLOAD PUSH3 0x461BCD PUSH1 0xE5 SHL DUP2 MSTORE PUSH1 0x20 PUSH1 0x4 DUP3 ADD MSTORE PUSH1 0x1D PUSH1 0x24 DUP3 ADD MSTORE PUSH32 0x556E6C6F636B2074696D65206D75737420626520696E20667574757265000000 PUSH1 0x44 DUP3 ADD MSTORE PUSH1 0x64 SWAP1 REVERT JUMPDEST PUSH1 0x1 PUSH1 0x24 CALLDATALOAD SUB PUSH2 0x1037 JUMPI PUSH1 0xE4 CALLDATALOAD ISZERO PUSH2 0x1776 JUMPI PUSH3 0x15180 PUSH1 0xE4 CALLDATALOAD LT ISZERO PUSH2 0x1037 JUMPI PUSH1 0x40 MLOAD PUSH3 0x461BCD PUSH1 0xE5 SHL DUP2 MSTORE PUSH1 0x20 PUSH1 0x4 DUP3 ADD MSTORE PUSH1 0x1C PUSH1 0x24 DUP3 ADD MSTORE PUSH32 0x48656172746265617420696E74657276616C20746F6F2073686F727400000000 PUSH1 0x44 DUP3 ADD MSTORE PUSH1 0x64 SWAP1 REVERT JUMPDEST PUSH1 0x40 MLOAD PUSH3 0x461BCD PUSH1 0xE5 SHL DUP2 MSTORE PUSH1 0x20 PUSH1 0x4 DUP3 ADD MSTORE PUSH1 0x1B PUSH1 0x24 DUP3 ADD MSTORE PUSH32 0x48656172746265617420696E74657276616C2072657175697265640000000000 PUSH1 0x44 DUP3 ADD MSTORE PUSH1 0x64 SWAP1 REVERT JUMPDEST PUSH1 0x1 DUP2 SUB PUSH2 0x17D5 JUMPI POP PUSH1 0xA PUSH2 0x17D0 SWAP2 LT PUSH2 0x1B61 JUMP JUMPDEST PUSH2 0x101E JUMP JUMPDEST PUSH1 0x2 EQ PUSH2 0x17E3 JUMPI JUMPDEST POP PUSH2 0x101E JUMP JUMPDEST PUSH1 0x64 PUSH2 0x17EF SWAP2 LT PUSH2 0x1B61 JUMP JUMPDEST DUP5 PUSH2 0x17DD JUMP JUMPDEST PUSH1 0x40 MLOAD PUSH3 0x461BCD PUSH1 0xE5 SHL DUP2 MSTORE PUSH1 0x20 PUSH1 0x4 DUP3 ADD MSTORE PUSH1 0x19 PUSH1 0x24 DUP3 ADD MSTORE PUSH32 0x496E73756666696369656E74206372656174696F6E2066656500000000000000 PUSH1 0x44 DUP3 ADD MSTORE PUSH1 0x64 SWAP1 REVERT JUMPDEST PUSH1 0x40 MLOAD PUSH3 0x461BCD PUSH1 0xE5 SHL DUP2 MSTORE PUSH1 0x20 PUSH1 0x4 DUP3 ADD MSTORE PUSH1 0x1F PUSH1 0x24 DUP3 ADD MSTORE PUSH32 0x4174206C65617374206F6E6520726563697069656E7420726571756972656400 PUSH1 0x44 DUP3 ADD MSTORE PUSH1 0x64 SWAP1 REVERT JUMPDEST DUP4 CALLDATALOAD PUSH1 0x1 PUSH1 0x1 PUSH1 0xA0 SHL SUB DUP2 AND SWAP1 SUB PUSH2 0x28C JUMPI PUSH1 0x20 DUP1 PUSH1 0x24 SWAP4 DUP7 CALLDATALOAD DUP2 MSTORE ADD SWAP5 ADD SWAP4 SWAP2 POP PUSH2 0xF99 JUMP JUMPDEST CALLVALUE PUSH2 0x28C JUMPI PUSH1 0x20 CALLDATASIZE PUSH1 0x3 NOT ADD SLT PUSH2 0x28C JUMPI PUSH1 0x4 CALLDATALOAD PUSH1 0x4 DUP2 LT ISZERO PUSH2 0x28C JUMPI PUSH2 0x18CE PUSH1 0x20 SWAP2 PUSH2 0x18D7 JUMP JUMPDEST SLOAD PUSH1 0x40 MLOAD SWAP1 DUP2 MSTORE RETURN JUMPDEST PUSH1 0x4 DUP2 LT ISZERO PUSH2 0x231 JUMPI PUSH1 0x0 MSTORE PUSH1 0x7 PUSH1 0x20 MSTORE PUSH1 0x40 PUSH1 0x0 KECCAK256 SWAP1 JUMP JUMPDEST PUSH2 0x180 DUP2 ADD SWAP1 DUP2 LT PUSH1 0x1 PUSH1 0x1 PUSH1 0x40 SHL SUB DUP3 GT OR PUSH2 0x149B JUMPI PUSH1 0x40 MSTORE JUMP JUMPDEST PUSH1 0x40 DUP2 ADD SWAP1 DUP2 LT PUSH1 0x1 PUSH1 0x1 PUSH1 0x40 SHL SUB DUP3 GT OR PUSH2 0x149B JUMPI PUSH1 0x40 MSTORE JUMP JUMPDEST SWAP1 PUSH1 0x1F DUP1 NOT SWAP2 ADD AND DUP2 ADD SWAP1 DUP2 LT PUSH1 0x1 PUSH1 0x1 PUSH1 0x40 SHL SUB DUP3 GT OR PUSH2 0x149B JUMPI PUSH1 0x40 MSTORE JUMP JUMPDEST DUP2 PUSH1 0x1F DUP3 ADD SLT ISZERO PUSH2 0x28C JUMPI DUP1 CALLDATALOAD SWAP1 PUSH1 0x1 PUSH1 0x1 PUSH1 0x40 SHL SUB DUP3 GT PUSH2 0x149B JUMPI PUSH1 0x40 MLOAD SWAP3 PUSH2 0x197C PUSH1 0x1F DUP5 ADD PUSH1 0x1F NOT AND PUSH1 0x20 ADD DUP6 PUSH2 0x1927 JUMP JUMPDEST DUP3 DUP5 MSTORE PUSH1 0x20 DUP4 DUP4 ADD ADD GT PUSH2 0x28C JUMPI DUP2 PUSH1 0x0 SWAP3 PUSH1 0x20 DUP1 SWAP4 ADD DUP4 DUP7 ADD CALLDATACOPY DUP4 ADD ADD MSTORE SWAP1 JUMP JUMPDEST PUSH1 0x1 PUSH1 0x1 PUSH1 0x40 SHL SUB DUP2 GT PUSH2 0x149B JUMPI PUSH1 0x5 SHL PUSH1 0x20 ADD SWAP1 JUMP JUMPDEST PUSH1 0x4 CALLDATALOAD SWAP1 PUSH1 0x1 PUSH1 0x1 PUSH1 0xA0 SHL SUB DUP3 AND DUP3 SUB PUSH2 0x28C JUMPI JUMP JUMPDEST SWAP2 SWAP1 PUSH1 0x20 DUP4 ADD SWAP3 PUSH1 0x3 DUP3 LT ISZERO PUSH2 0x231 JUMPI MSTORE JUMP JUMPDEST SWAP1 PUSH1 0x4 DUP3 LT ISZERO PUSH2 0x231 JUMPI MSTORE JUMP JUMPDEST SWAP1 PUSH1 0x2 DUP3 LT ISZERO PUSH2 0x231 JUMPI MSTORE JUMP JUMPDEST SWAP1 PUSH1 0x1 DUP3 DUP2 SHR SWAP3 AND DUP1 ISZERO PUSH2 0x1A28 JUMPI JUMPDEST PUSH1 0x20 DUP4 LT EQ PUSH2 0x1A12 JUMPI JUMP JUMPDEST PUSH4 0x4E487B71 PUSH1 0xE0 SHL PUSH1 0x0 MSTORE PUSH1 0x22 PUSH1 0x4 MSTORE PUSH1 0x24 PUSH1 0x0 REVERT JUMPDEST SWAP2 PUSH1 0x7F AND SWAP2 PUSH2 0x1A07 JUMP JUMPDEST SWAP1 PUSH1 0x40 MLOAD SWAP2 DUP3 PUSH1 0x0 DUP3 SLOAD PUSH2 0x1A45 DUP2 PUSH2 0x19F8 JUMP JUMPDEST SWAP1 DUP2 DUP5 MSTORE PUSH1 0x20 SWAP5 PUSH1 0x1 SWAP2 PUSH1 0x1 DUP2 AND SWAP1 DUP2 PUSH1 0x0 EQ PUSH2 0x1AB5 JUMPI POP PUSH1 0x1 EQ PUSH2 0x1A76 JUMPI JUMPDEST POP POP POP PUSH2 0x1A74 SWAP3 POP SUB DUP4 PUSH2 0x1927 JUMP JUMPDEST JUMP JUMPDEST PUSH1 0x0 SWAP1 DUP2 MSTORE DUP6 DUP2 KECCAK256 SWAP6 SWAP4 POP SWAP2 SWAP1 JUMPDEST DUP2 DUP4 LT PUSH2 0x1A9D JUMPI POP POP PUSH2 0x1A74 SWAP4 POP DUP3 ADD ADD CODESIZE DUP1 DUP1 PUSH2 0x1A65 JUMP JUMPDEST DUP6 SLOAD DUP9 DUP5 ADD DUP6 ADD MSTORE SWAP5 DUP6 ADD SWAP5 DUP8 SWAP5 POP SWAP2 DUP4 ADD SWAP2 PUSH2 0x1A84 JUMP JUMPDEST SWAP3 POP POP POP PUSH2 0x1A74 SWAP5 SWAP3 POP PUSH1 0xFF NOT AND DUP3 DUP5 ADD MSTORE ISZERO ISZERO PUSH1 0x5 SHL DUP3 ADD ADD CODESIZE DUP1 DUP1 PUSH2 0x1A65 JUMP JUMPDEST SWAP2 SWAP1 DUP3 MLOAD SWAP3 DUP4 DUP3 MSTORE PUSH1 0x0 JUMPDEST DUP5 DUP2 LT PUSH2 0x1B03 JUMPI POP POP DUP3 PUSH1 0x0 PUSH1 0x20 DUP1 SWAP5 SWAP6 DUP5 ADD ADD MSTORE PUSH1 0x1F DUP1 NOT SWAP2 ADD AND ADD ADD SWAP1 JUMP JUMPDEST PUSH1 0x20 DUP2 DUP4 ADD DUP2 ADD MLOAD DUP5 DUP4 ADD DUP3 ADD MSTORE ADD PUSH2 0x1AE2 JUMP JUMPDEST DUP1 SLOAD DUP3 LT ISZERO PUSH2 0x1B2F JUMPI PUSH1 0x0 MSTORE PUSH1 0x20 PUSH1 0x0 KECCAK256 ADD SWAP1 PUSH1 0x0 SWAP1 JUMP JUMPDEST PUSH4 0x4E487B71 PUSH1 0xE0 SHL PUSH1 0x0 MSTORE PUSH1 0x32 PUSH1 0x4 MSTORE PUSH1 0x24 PUSH1 0x0 REVERT JUMPDEST DUP1 SLOAD DUP3 LT ISZERO PUSH2 0x1B2F JUMPI PUSH1 0x0 MSTORE PUSH1 0x20 PUSH1 0x0 KECCAK256 SWAP1 PUSH1 0x1 SHL ADD SWAP1 PUSH1 0x0 SWAP1 JUMP JUMPDEST ISZERO PUSH2 0x1B68 JUMPI JUMP JUMPDEST PUSH1 0x40 MLOAD PUSH3 0x461BCD PUSH1 0xE5 SHL DUP2 MSTORE PUSH1 0x20 PUSH1 0x4 DUP3 ADD MSTORE PUSH1 0x15 PUSH1 0x24 DUP3 ADD MSTORE PUSH21 0x10D85C1CDD5B19481B1A5B5A5D081C995858DA1959 PUSH1 0x5A SHL PUSH1 0x44 DUP3 ADD MSTORE PUSH1 0x64 SWAP1 REVERT JUMPDEST PUSH1 0x4 DUP3 LT ISZERO PUSH2 0x231 JUMPI MSTORE JUMP JUMPDEST PUSH1 0x2 DUP3 LT ISZERO PUSH2 0x231 JUMPI MSTORE JUMP JUMPDEST DUP2 DUP2 LT PUSH2 0x1BC8 JUMPI POP POP JUMP JUMPDEST PUSH1 0x0 DUP2 SSTORE PUSH1 0x1 ADD PUSH2 0x1BBD JUMP JUMPDEST ISZERO PUSH2 0x1BDB JUMPI JUMP JUMPDEST PUSH1 0x40 MLOAD PUSH3 0x461BCD PUSH1 0xE5 SHL DUP2 MSTORE PUSH1 0x20 PUSH1 0x4 DUP3 ADD MSTORE PUSH1 0x18 PUSH1 0x24 DUP3 ADD MSTORE PUSH32 0x4F6E6C79206F776E65722063616E2063616C6C20746869730000000000000000 PUSH1 0x44 DUP3 ADD MSTORE PUSH1 0x64 SWAP1 REVERT JUMPDEST PUSH1 0x0 SWAP1 DUP2 MSTORE PUSH1 0x20 SWAP1 DUP1 PUSH1 0x20 MSTORE PUSH1 0x40 DUP2 KECCAK256 SWAP1 PUSH1 0x40 MLOAD PUSH2 0x1C3D DUP2 PUSH2 0x18F0 JUMP JUMPDEST DUP3 SLOAD DUP2 MSTORE PUSH1 0x1 DUP1 DUP5 ADD SLOAD PUSH1 0x1 PUSH1 0x1 PUSH1 0xA0 SHL SUB DUP1 DUP3 AND PUSH1 0x20 DUP6 ADD MSTORE SWAP6 SWAP1 SWAP2 SWAP1 PUSH2 0x1C6F PUSH1 0xA0 DUP5 SWAP1 SHR PUSH1 0xFF AND PUSH1 0x40 DUP7 ADD PUSH2 0x1BA5 JUMP JUMPDEST PUSH2 0x1C83 PUSH1 0xFF PUSH1 0x60 DUP7 ADD SWAP5 PUSH1 0xA8 SHR AND DUP5 PUSH2 0x1BB1 JUMP JUMPDEST PUSH1 0x2 DUP7 ADD SLOAD SWAP7 PUSH1 0x80 DUP6 ADD SWAP8 DUP9 MSTORE PUSH1 0x3 DUP8 ADD SLOAD PUSH1 0xA0 DUP7 ADD MSTORE PUSH1 0x4 DUP8 ADD PUSH1 0x40 MLOAD SWAP4 DUP5 DUP6 SWAP4 PUSH1 0x20 DUP5 SLOAD SWAP3 DUP4 DUP2 MSTORE ADD SWAP4 DUP11 MSTORE PUSH1 0x20 DUP11 KECCAK256 SWAP6 DUP11 SWAP2 JUMPDEST DUP4 DUP4 LT PUSH2 0x1DC0 JUMPI POP POP POP POP POP PUSH2 0x1CD1 SWAP3 POP SUB DUP3 PUSH2 0x1927 JUMP JUMPDEST PUSH1 0xC0 DUP4 ADD MSTORE PUSH1 0x5 DUP5 ADD SLOAD PUSH1 0xFF DUP2 AND ISZERO ISZERO SWAP1 DUP2 PUSH1 0xE0 DUP6 ADD MSTORE PUSH1 0xFF DUP1 DUP3 PUSH1 0x8 SHR AND ISZERO ISZERO SWAP2 DUP3 PUSH2 0x100 DUP8 ADD MSTORE PUSH1 0x10 SHR AND ISZERO ISZERO PUSH2 0x120 DUP6 ADD MSTORE PUSH2 0x160 PUSH1 0x7 PUSH1 0x6 DUP9 ADD SLOAD SWAP8 PUSH2 0x140 DUP8 ADD SWAP9 DUP10 MSTORE ADD SLOAD SWAP5 ADD SWAP4 DUP5 MSTORE PUSH2 0x1DB7 JUMPI PUSH2 0x1DAD JUMPI DUP1 MLOAD PUSH1 0x2 DUP2 LT ISZERO PUSH2 0x1D99 JUMPI PUSH2 0x1D42 JUMPI POP POP POP POP MLOAD TIMESTAMP LT ISZERO SWAP1 JUMP JUMPDEST SWAP1 SWAP2 SWAP3 SWAP4 POP MLOAD PUSH1 0x2 DUP2 LT ISZERO PUSH2 0x1D85 JUMPI PUSH1 0x1 EQ PUSH2 0x1D5E JUMPI POP SWAP1 POP SWAP1 JUMP JUMPDEST MLOAD SWAP2 MLOAD DUP3 ADD DUP1 SWAP3 GT PUSH2 0x1D71 JUMPI POP TIMESTAMP LT ISZERO SWAP1 JUMP JUMPDEST PUSH4 0x4E487B71 PUSH1 0xE0 SHL DUP2 MSTORE PUSH1 0x11 PUSH1 0x4 MSTORE PUSH1 0x24 SWAP1 REVERT JUMPDEST PUSH4 0x4E487B71 PUSH1 0xE0 SHL DUP4 MSTORE PUSH1 0x21 PUSH1 0x4 MSTORE PUSH1 0x24 DUP4 REVERT JUMPDEST PUSH4 0x4E487B71 PUSH1 0xE0 SHL DUP5 MSTORE PUSH1 0x21 PUSH1 0x4 MSTORE PUSH1 0x24 DUP5 REVERT JUMPDEST POP POP POP POP POP PUSH1 0x1 SWAP1 JUMP JUMPDEST POP POP POP SWAP2 POP POP SWAP1 JUMP JUMPDEST DUP8 SLOAD DUP2 AND DUP7 MSTORE SWAP7 DUP5 ADD SWAP7 DUP9 SWAP7 POP SWAP5 DUP2 ADD SWAP5 SWAP2 DUP5 ADD SWAP2 PUSH2 0x1CB9 JUMP JUMPDEST ISZERO PUSH2 0x1DE1 JUMPI JUMP JUMPDEST PUSH1 0x40 MLOAD PUSH3 0x461BCD PUSH1 0xE5 SHL DUP2 MSTORE PUSH1 0x20 PUSH1 0x4 DUP3 ADD MSTORE PUSH1 0xF PUSH1 0x24 DUP3 ADD MSTORE PUSH15 0x2737BA103A34329031B932B0BA37B9 PUSH1 0x89 SHL PUSH1 0x44 DUP3 ADD MSTORE PUSH1 0x64 SWAP1 REVERT JUMPDEST ISZERO PUSH2 0x1E1F JUMPI JUMP JUMPDEST PUSH1 0x40 MLOAD PUSH3 0x461BCD PUSH1 0xE5 SHL DUP2 MSTORE PUSH1 0x20 PUSH1 0x4 DUP3 ADD MSTORE PUSH1 0x14 PUSH1 0x24 DUP3 ADD MSTORE PUSH20 0x10D85C1CDD5B19481A5CC818D85B98D95B1B1959 PUSH1 0x62 SHL PUSH1 0x44 DUP3 ADD MSTORE PUSH1 0x64 SWAP1 REVERT INVALID LOG2 PUSH5 0x6970667358 0x22 SLT KECCAK256 0x26 PUSH3 0x756483 0xE5 SWAP16 LT PUSH3 0x1D7FB6 AND 0x24 0xFB 0x2D DUP13 LOG2 DUP11 0xAB RETURNDATASIZE 0xAA 0xC9 0xBD PUSH26 0x98078BC7E01D1D64736F6C634300081800330000000000000000 "
        },
        "methodIdentifiers": {
          "MAX_FREE_CAPSULES()": "0e09160e",
          "MAX_PREMIUM_CAPSULES()": "d674e192",
          "MAX_PRO_CAPSULES()": "224646dc",
          "addAdmin(address)": "70480275",
          "admins(address)": "429b62e5",
          "cancelCapsule(uint256)": "c446bac1",
          "capsuleMetadata(uint256)": "44762d76",
          "capsuleStages(uint256,uint256)": "cf1dba66",
          "capsules(uint256)": "517bbf46",
          "checkIn(uint256)": "e95a644f",
          "createCapsule(uint8,uint8,uint256,string,string,address[],string,uint256)": "0db08dbb",
          "creationFees(uint8)": "0bb8cd4d",
          "emergencyUnlock(uint256)": "b0793313",
          "getCapsule(uint256)": "3aac3858",
          "getUnlockedStages(uint256)": "56e4f84c",
          "getUserCapsules(address)": "366636f7",
          "isAdmin(address)": "24d7806c",
          "isUnlocked(uint256)": "72abc8b7",
          "owner()": "8da5cb5b",
          "removeAdmin(address)": "1785f53c",
          "totalCapsules()": "b49ce17f",
          "updatePricing(uint8,uint256)": "7389c630",
          "updateUserTier(address,uint8)": "9a6cff1c",
          "userCapsules(address,uint256)": "a0d79fb5",
          "userTiers(address)": "24063c82",
          "withdraw()": "3ccfd60b"
        }
      }
    }
  }
}